:1000000000800020814000006B4000006B40000039
:1000100000000000000000000000000000000000E0
:100020000000000000000000000000006B40000025
:1000300000000000000000006B400000D540000000
:100040006B4000006B4000006B400000350B00006F
:10005000014000006B4000006B4000006D4000005C
:100060006B400000110F00006B4000006B4000006F
:100070006D0900006B400000210F00006B40000084
:100080006B4000006B400000751D00006B400000DD
:10009000000000006B4000006B4000006B4000005F
:1000A0006B4000006B4000006B4000006B400000A4
:1000B0000000000010B5064C2378002B07D1054B3B
:1000C000002B02D0044800E000BF0123237010BDC4
:1000D000B001002000000000D4A3000008B5084BC8
:1000E000002B03D00748084900E000BF0748036819
:1000F000002B03D0064B002B00D0984708BDC0460C
:1001000000000000D4A30000B4010020A0010020E2
:1001100000000000014B01221A707047E10200202C
:10012000F0B5112091B004F02BF86349069006F069
:1001300013FF624AFE23137061480699102201F0F2
:10014000E6FA00285ED00B220592059B013BDBB24C
:100150000593002B56D06E462A3616233370584F1F
:10016000584D6B4600242B33009301940294039462
:10017000381C291C321C544B01F0AFFBA042E4D0C8
:100180003378AC75162BE0D11022281C211C2C745E
:1001900006F07CFF4D4B1A688242D6D15B688B42D9
:1001A000D3D1281C211C1022143006F061FFC3B2E9
:1001B000061C281C211C102211300793EC7406F039
:1001C00057FF0799041C381C01F0B1F8F3B24049FD
:1001D000394A0BA806F09EFE381C0BA91322FE23F9
:1001E00001F095FA002809D0E4B20B220894059298
:1001F000059B013BDBB20593002B0AD13048FC2163
:1002000001F095F8069B002B53D0181C03F0BCFF9F
:100210004FE06E462A36212333702A4D6B46002468
:100220002B3300930194029403942548291C321C1B
:10023000254B01F052FBA042DAD0AB1CDC773378BF
:10024000212BD5D1281C211C0A22173006F010FFC3
:100250000990281C211C10221430AC7506F008FFF0
:10026000071C281C211C10221130EC7406F000FF22
:100270001022061C211C281C2C7406F007FF134BAF
:100280001A688242B4D15B688B42B1D1089BF6B246
:100290009E42ADD1079AFFB29742A9D10D48099964
:1002A00000F074FD054B089A1A700B4B01221A706E
:1002B000A8E711B0F0BDC04600000020E002002019
:1002C000CC0100203408002088130000F80600202C
:1002D0001099000007070020E202002038B51C201A
:1002E00003F04EFF1D49041C06F036FE06F0C4FD67
:1002F0001B4B211C021C10311A401D1C002A03DA62
:10030000184B013A1A430132081C174906F002FE45
:1003100006F0B2FD231C021C14332A4003D51149F8
:10032000013A0A430132181C104906F0F3FD192165
:10033000201C02F023F8021C201C0D49193006F085
:10034000E9FD0C4B0C481B78211C1B2201F0DFF946
:10035000002C02D0201C03F017FF38BD0000002045
:10036000FF0F008000F0FFFF189900001E990000A9
:1003700013990000E0020020CC01002008B50348DA
:100380000349FC2201F098F908BDC046CC010020C9
:1003900008070020F0B51D4C87B0071C201C00F09A
:1003A00075F9201C502100F091F92368FB211B688E
:1003B000201C9847201C00F040FA201C50210522E8
:1003C00000F0D8F90025114800F028F904AC061E09
:1003D00007D00E4800F036FA6E1CF6B26055351C98
:1003E000F1E7627823780092A278381C0192E278D3
:1003F0000749029222790392064A06F08BFD381CC7
:10040000311C102206F042FE07B0F0BDE4020020CD
:10041000259900003C99000070B51E20002104F0D1
:1004200011F83F4B0021186804F00CF83D4B0021F7
:10043000186804F007F83C4B0021186804F002F833
:100440003A4B01211C68201C03F0FCFF201C0121F9
:1004500004F052F8364B01211D68281C03F0F2FF0E
:10046000281C012104F048F80D20012103F0EAFFC7
:100470000D20002104F040F82E48FFF78BFF0B1CE5
:100480002D49021C0A604B602C4BFD221A702C4B2C
:1004900000251D702B4B01222B481A7000F054FFD1
:1004A0002A4B1870A84209D0294E2A49301C01F065
:1004B00033FD301C17212A1C01F08EFEE0B200F043
:1004C00061FE00F0C9FD244803F018FE234802F045
:1004D0002BFB234E234C0025301C291C65712571F4
:1004E000E570A5706570257000F0AAFC301CE178FD
:1004F0002279637900F088FB62782378301CA17838
:1005000000F0CEFB301C291C00F0DCFB301C01216C
:1005100000F01EFB301C144900F02CFB70BDC046DF
:10052000789F0000709F0000809F0000749F000073
:100530007C9F000000000020F8060020E002002060
:10054000E2020020E1020020CC0100200007002090
:100550000807002033336544983A0000FB0D002063
:1005600007070020010700201501000008B5064B11
:100570001B78002B02D0FFF7B1FE01E0FFF7D0FDA2
:10058000024801F022FC08BDE2020020080700201A
:100590000E4B10B51A78002A16D0012100240D2028
:1005A0001C7003F0A9FF9620400003F0A7FD0D206A
:1005B000211C03F0A1FF064B1B78A34201D0FFF7DB
:1005C000D5FF044800F0DCFA10BDC046E10200206F
:1005D000000700200707002000207047F8B5051C21
:1005E0000F1C161C0024B44208D02B68395D1B6810
:1005F000281C9847002801D00134F4E7201CF8BDDE
:100600007047031CFC33196ADA69914203D01B6AF4
:10061000C018007E01E0012040427047031CFC33FB
:10062000D8691B6AC01A01D50130FF30704700003D
:10063000F7B50193FA239B008360134B80260025B6
:1006400076000833041C0F1C4560291C00920360CF
:10065000321C183006F05CF9231C9022FC33520047
:10066000DD61A0181D62321C291C06F051F9872299
:100670009200A3185D60019A9D60009B2761A5759B
:10068000201C23756275FEBD4899000070B50D49A8
:10069000041C006903F0D6F9206903F06AF81826F3
:1006A000207D331C4343084D0821EB18595603F0B5
:1006B0006BFF607D08214643AD19695603F064FF66
:1006C00070BDC046A0860100709900008A23872271
:1006D0009B009200C154831800225A609A60012343
:1006E00083757047031CFC335A6810B501329C684F
:1006F000D2B2A24202D05C6801555A6010BDF7B573
:1007000001930023041C151C181C9A4231D0221C92
:10071000FC32D36120691362012203F067F80028DC
:1007200025D0206903F0D1F8271C1837011C381C8C
:10073000FFF7D8FF01262069AE420ED003F036F84D
:100740000221206903F03CF8206903F0BEF8011C87
:10075000381CFFF7C7FF0136EDE703F01EF8019BD9
:10076000002B05D02069032103F02AF800E0051CC6
:10077000E8B2FEBD08B50123FFF7C1FF08BD10B503
:10078000827D00239A420DD08724A4000219546868
:1007900092680134E4B2944204D02130FF30FFF774
:1007A000A1FF0123181C10BD031CFC3399685A6873
:1007B000914206D09A68805C9A680132D2B29A60FF
:1007C00001E001204042704770B500228A23827503
:1007D0009B00041C0E1CC15C006903F007F8002894
:1007E00005D12069032102F0EBFF022523E09023CD
:1007F0005B00E01887239B00E21851689368CB1ACE
:1008000001D50133FF33002B0ED02569FFF7CCFF54
:10081000C1B2281C03F019F80028E8D1206903218F
:1008200002F0CEFF032506E01D1C002E03D0206938
:10083000032102F0C5FF281C70BD08B50121FFF798
:10084000C3FF08BD08B51830FFF7AEFF08BD38B5C7
:10085000041C006903F017F8002800D184E0206927
:1008600003F01FF800280ED1206903F024F80028B7
:100870001FD0206903F01AF800281AD0206903F06D
:100880001FF8002815D1206902F090FF206903218C
:1008900002F096FF8C239B00E558002D04D02368BE
:1008A000201C1B699847A847FC340023E36123629E
:1008B0005AE0206902F0FFFF031C2069002B19D0C9
:1008C00002F074FF2069032102F07AFF206902F030
:1008D000F7FF002848D087229200A31800225A6010
:1008E0009A600123A3758B239B00E35893423BD06E
:1008F000984739E002F0D0FF002835D0206902F097
:10090000DFFF002816D087239B00E2185168936808
:10091000CB1A01D50133FF33FF21002B05D09022E4
:100920005200A018FFF740FFC1B2206902F09EFFFD
:10093000A07519E0231CFC33DA691B6A0132D2B2BC
:1009400020699A4202D102F028FF09E002F0BDFFBF
:10095000011C201C1830FFF7C5FE206902F026FF9D
:100960002069032102F02CFF38BD000008B50248C1
:10097000FFF76DFF08BDC046E402002008B503483C
:10098000034914221523FFF753FE08BDE40200209B
:10099000AC060020437A002B04D18372C372C3607B
:1009A00001234372704730B585B0041C02AD006866
:1009B0000291039202F0B4FE6B79E179227A0093FE
:1009C0002068002303F01AF829792068029A02F0BF
:1009D00077FE206802F09AFE05B030BD70B5041CA9
:1009E0001826FFF7D7FF2079331C43430D4D08210C
:1009F000EB18595603F0C8FDA079331C4343082176
:100A0000EB18595603F0C0FD607908214643AD1933
:100A1000695603F0B9FD044B201C06CBFFF7C3FF5A
:100A200070BDC046709900001805002010B5041C68
:100A3000006802F05DFE0023637210BD07B5837A83
:100A400000910192002B0DD09A0706D5EFF3108389
:100A50005A425341C37272B604E0DA0702D5828962
:100A6000034B9A600099019AFFF79DFF07BDC046AE
:100A700000180040837A002B0BD09A0704D5C37A64
:100A8000002B06D062B604E0DA0702D58289014B5A
:100A9000DA6070470018004008B5006802F04EFEAA
:100AA00008BD70B5041C00680D1C02F042FE012850
:100AB0000ED1E9B2201CFFF7EFFFFF26B543054337
:100AC0002904090E201CFFF7E7FF354000020CE067
:100AD000290A201CFFF7E0FFFF26000235400543EE
:100AE000E9B2201CFFF7D8FFB5430543A8B270BD9B
:100AF00070477047094B0A4A0A491A6000225A7126
:100B00001A71094B19601621197118219971172151
:100B1000597101215A72D9711A7270471805002053
:100B200000093D00BC0600202005002000230370C2
:100B30007047000008B5044B1B68002B00D0984795
:100B4000024B01221A7208BD30050020001400403B
:100B50000378002B0AD0064B081C197F072210408F
:100B60009143014319779A7AD209FCD17047C04664
:100B700000140040014B19607047C046300500204A
:100B8000034B04211A690A431A6130BF7047C046FB
:100B900000ED00E00378002B0AD0064B081C196911
:100BA0003F2210409143014319619A7AD209FCD146
:100BB0007047C046001400400378002B0BD0064B52
:100BC0003F2211408A01186904490140114319610B
:100BD0009A7AD209FCD17047001400403FF0FFFF21
:100BE0000378002B0BD0064B1F2211400A03186913
:100BF00004490140114319619A7AD209FCD1704726
:100C000000140040FF0FFEFF70B5161C0278041C94
:100C10000D1C002A0AD0191CFFF7BCFF201C311C38
:100C2000FFF7CAFF201C291CFFF7DAFF70BD000088
:100C30000378002B0BD0064B1F2211404A04186981
:100C400004490140114319619A7AD209FCD17047D5
:100C500000140040FFFFC1FF0378002B0BD0064BB0
:100C60000F2211408A051869044901401143196196
:100C70009A7AD209FCD1704700140040FFFF3FFC74
:100C80000378002B09D0054B8A0619698901890967
:100C9000114319619A7AD209FCD1704700140040BF
:100CA00070B51D1C0378041C161C002B09D0FFF71F
:100CB000BFFF201C311CFFF7CFFF201C291CFFF7B2
:100CC000DFFF70BD0378002B0AD0064B081C996922
:100CD0003F2210409143014399619A7AD209FCD195
:100CE0007047C04600140040037873B5002B3ED017
:100CF0001F4B994200D81F4901A8019105F094FDAE
:100D00001D4B44691969643C8901A4068909214382
:100D1000196104690F2101341D690C401749A405AC
:100D2000294021431961C5681E691F21144C0D40DB
:100D30006D0434402C431C6184681D6921400C0300
:100D400010493F2229402143196144681D690E4919
:100D50001440A40129402143196101681869114018
:100D60009043021C0A431A619A7AD209FCD173BDDE
:100D70007F436D3880436D3800140040FFFF3FFC17
:100D8000FFFFC1FFFF0FFEFF3FF0FFFF08B5037835
:100D9000002B03D0024BC918FFF7A6FF08BDC046C1
:100DA00080436D380A4B0B4A9A605A7852B2002A37
:100DB000FBDB0949064A51605A7852B2002AFBDB34
:100DC0000649034A51805A78D209FCD17047C0467F
:100DD000000C004002040000020511000442000063
:100DE000044B02211A888A431A809A7AD209FCD1CC
:100DF0007047C04600140040044B02211A880A4381
:100E00001A809A7AD209FCD17047C046001400407B
:100E1000044B01211A880A431A809A7AD209FCD11C
:100E20007047C04600140040044B01211A888A43D1
:100E30001A809A7AD209FCD17047C046001400404B
:100E4000F7B52B4B0F1C9A6920210A439A61294A56
:100E5000294B0026051C9A82284CB7420AD1284B00
:100E60001A7870231A4240D023881A073DD5226988
:100E700001260192281CFFF795FF281CFFF7B0FF01
:100E8000281CFFF7C5FF62881E4B134063801E4B72
:100E90002380A27A194BD209FBD11C4A0821116088
:100EA000C021890050580002000A5050DA7901210F
:100EB0000A43DA711A7F07218A431A77A37ADB097A
:100EC000FCD1281CFFF798FF281CFFF7ADFF002F6F
:100ED00002D001232B70F7BD002EFAD0074B019AE8
:100EE0001A61A37ADB09FCD1F3E73E1CC2E7C046D6
:100EF00000040040CE06000000080040001400403E
:100F000038040040FFBFFFFF080A000000E100E0D6
:100F100008B5024802F002FF08BDC046F0050020F7
:100F200008B5024802F0FAFE08BDC04634050020AC
:100F3000F7B5164F1649381C02F044FB1549164800
:100F400002F040FB1549164802F03CFB15491648D3
:100F500002F038FB1549164802F034FB154D032604
:100F60000124281C144902F02DFB391C0096231C77
:100F700001940022114802F0F1FD0096291C019411
:100F80001F221E230E4802F0E9FDF7BDB006002027
:100F900000080042000C0042B4060020001000428D
:100FA000B806002000140042AC06002000180042E1
:100FB000BC060020C0060020001C0042F0050020F6
:100FC00034050020F7B500236A461D4C5371137198
:100FD000201C019A1B49FFF731FD1B4E1B4D336846
:100FE0002A68201C5A611A4B1F7802231F4016D012
:100FF0007021FFF751FD0021201CFFF74DFD3368E4
:101000002A68071C9A61201CFFF734FD7F239F4349
:10101000FFB2002FD7D00F4B00221A70F7BD052169
:10102000FFF73AFD391C201CFFF736FD33682A68AC
:10103000071C9A61201CFFF71DFDFB07C3D4EAE7DC
:1010400020050020001BB700C8060020CC060020A9
:10105000C4060020C506002073B50E4B1B78002B7C
:1010600001D0FFF7AFFF0C4E00236A465371137196
:10107000301C019A0949FFF7E1FC094D094C2B6826
:101080002268301C5A61B921FFF706FD2B682268DF
:101090009A6173BDC506002020050020001BB70023
:1010A000C8060020CC060020F0B5204B85B01B7888
:1010B000051C002B01D0FFF785FF1D4E002469465B
:1010C0004C730C73301C1B49039AFFF7B7FC1A4F83
:1010D0001A4A3B6812689F215A61301CFFF7DCFCFA
:1010E000211C301CFFF7D8FC211C2870301CFFF796
:1010F000D3FC211C6870301CFFF7CEFC2B78A87045
:10110000012B09D1211C301CFFF7C6FC211CE87003
:10111000301CFFF7C1FC287108493B680A68301C85
:101120009A61FFF7A7FC05B0F0BDC046C5060020D8
:1011300020050020001BB700C8060020CC060020B8
:1011400083781A1C103A0F2A04D91A1C203A052A4F
:1011500003D8063B0120984012E00278002A03D110
:101160004278002A0AD105E0FF2A07D14278FF2AF7
:1011700004D1FF3B581E8341180501E08020400345
:101180007047000018234343474AF0B59956071C9F
:101190004648D318464DC9015B6809180126454CDD
:1011A0002960311C85B0994043482160FFF716FC47
:1011B000311C381C03F046F92B68226868469A6196
:1011C000FFF772FF684603783B4E002B07D140784B
:1011D00000280CD169468B78002B08D161E0FF2BE9
:1011E00005D14378FF2B02D18378FF2B55D0684679
:1011F000FFF7A6FF00228021131C4904884238D93A
:1012000002AB5A711A712D49301C039A0291FFF7F3
:1012100015FC68460378012B0AD12B682168301C25
:101220005961BC214901FFF73CFC2B68226815E09D
:101230002B682268301C5A610621FFF72DFC2B68B1
:10124000226810219A610139FDD1B7215A61301C01
:10125000FFF722FC164B174A1B6812689A61301C74
:10126000FFF708FC68460378202B01D0012300E03B
:10127000092369460A78012A04D10A79002A0ED185
:10128000142202E0202A01D1022213430C4A6846AC
:101290001370FFF709FF012003E0002001E00422A2
:1012A000F3E705B0F0BDC04670990000004400416E
:1012B000C8060020CC06002020050020001BB70037
:1012C000C406002001600271704708B50068036819
:1012D0005B68984708BD08B5006803689B69984734
:1012E00008BD08B5006803681B6A984708BD08B5C3
:1012F000006803681B6B984708BD70B50E1C041C82
:10130000191C151CFFF7F3FF2068311C03682A1C09
:10131000DB68984770BD08B5006803685B6B984749
:1013200008BD08B5006803689B6B984708BD38B5D1
:10133000041C00680D1C0368DB6A9847291C201CEC
:10134000FFF7EFFF257138BD38B5041C006803684E
:101350001B689847051E03D02179201CFFF7E7FF83
:10136000281C38BD08B500680368DB6B984708BDCA
:1013700008B5006803681B6C984708BD08B500688D
:1013800003689B6C984708BD08B500680368DB6C70
:10139000984708BD08B5006803681B6D984708BDED
:1013A00008B5006803685B6D984708BDF8B5041C74
:1013B00000681D1C0368069F9B68079E98470023D2
:1013C00098421AD09D4203D0201CFFF7DDFF287001
:1013D000002F03D0201CFFF7D1FF3870002E03D060
:1013E000201CFFF7D7FF3070089B002B04D0201C77
:1013F000FFF7D6FF089B18700123181CF8BD0120C9
:101400007047002070478171704741717047C17209
:101410007047C17170470173704741737047837B98
:101420009343194381737047C079C0B27047007A03
:10143000C0B27047407AC0B27047807AC0B270477D
:1014400000207047408A80B27047808A80B270471F
:10145000C08A80B2704710B5041C2368201C5B68EA
:101460009847002802D102F063FEF6E710BD10B5E0
:10147000041C2379032B02D102F05AFEF9E7012064
:1014800010BD70B5041C0D1C02F032FE061C02F0EB
:101490002FFE801BA84208D22368201C5B68984757
:1014A000002804D102F044FEF1E7002000E0012012
:1014B00070BD70B5061C0C1C02F01AFE051C02F073
:1014C00017FE401BA04205D23379032B04D102F052
:1014D0002FFEF4E7002000E0012070BD38B5041CA9
:1014E000E3690120002B1AD002F002FE051C2368DC
:1014F000201C9B6A984700280ED002F0F9FDE36992
:10150000401B98420AD80A21012002F0A3FD64235F
:10151000584302F0F3FDEAE7012000E0002038BD67
:10152000074BFF220833036000230371427143829B
:10153000C2728382027343738373C382C361704731
:10154000909D000070477047704770477047417129
:1015500070478171704701717047000010B5034CEE
:101560000171083404604271837110BD009E000057
:101570007047000008B50248FFF78EFA08BDC04664
:101580002005002008B50248FFF7B2FA08BDC046A2
:101590002005002008B50248FFF7ABFA08BDC04699
:1015A0002005002008B50248FFF740FA08BDC046F4
:1015B0002005002008B5031C99680248DA68FFF787
:1015C0003DFA08BD2005002008B50248FFF752FA91
:1015D00008BDC0462005002010B50379042B07D0B4
:1015E000032B07D0022B07D0012B07D11D4B06E0A0
:1015F0001D4B04E01D4B02E01D4B00E01D4B8179AB
:101600004479022200290BD0012906D0914206D04C
:1016100003394A1E91414A1C02E0002200E00322E5
:1016200015498B4200D90B1C611E4C426141C9B265
:10163000022A05D0032A05D0012A05D1032204E09D
:10164000002202E0022200E001221C0A037244721E
:101650001C0C1B0E8472C372027341730748FFF7A0
:10166000BDF910BD80841E000024F40000127A0031
:1016700000093D0040420F00001BB700200500207C
:1016800010B5041CFFF76AFF044B201C08332360CD
:10169000034BA36000236373237310BD389E0000C7
:1016A00000093D0008B5002102480A1C0B1CFFF789
:1016B000E7FF08BDD006002010B5041CFFF702FEAE
:1016C000FA239B000021E381201C06238022A160D5
:1016D000217323745200113005F01AF9201C10BD3B
:1016E00037B5041C151CFFF73DFE201C802100228D
:1016F000FFF73EFE6946073121230B7001222B1CA8
:10170000201CFFF7FAFD201CFFF7E5FD37BDF0B503
:101710008DB0089109921D1C037B041C0133DFB2BC
:10172000077300235A1CD2B20692227C9A4272D3CB
:10173000201C391CFFF716FE201C00218022FFF719
:1017400017FE201C0899099A2B1CFFF7D6FD201CB8
:10175000FFF7C1FDFF2D60D0069A012A02D9A368C8
:101760000133A36002F0C4FC8021059049000020F1
:10177000E68902F06FFC7043C3171B0E18180012A5
:101780003618B6B2079602F0B3FC079A059BD1183B
:10179000091A00293BDD89B2201CFFF7A2FD0028B1
:1017A00032D06B462E336E462D3601930021013325
:1017B00002930096201C0A1C0BABFFF7F7FD0028D4
:1017C00022D00BAB1A78AA4201D0FE2D0DD1317870
:1017D0002379994209D16B462F331B787F2B04D98B
:1017E0006B462E331B78BB4217D06B462F331B78CA
:1017F0007F2B09D86B462E33A1181B78497C994260
:1018000002D1201CFFF76CFF02F092FCBBE702F054
:101810008FFC069B86E7002000E001200DB0F0BDA4
:10182000F0B589B0041C0D1C05920493FFF74DFD23
:1018300000282DD06E466B466F461E331D361F376F
:101840000193291C00960297201C059A07ABFFF70D
:10185000ADFD051E1CD03B787F2B19D83178FE29B1
:1018600002D1201CFFF757FD337822799A4211D01C
:10187000FE2B0FD007AA12786B461E33A4181B78D4
:10188000617C99420ED169461D310978FE2909D043
:1018900000251FE06B46997F6B461A7F201CFFF7DF
:1018A0001FFFE7E70499002900D00A700E9A002A6A
:1018B00004D06A461D3212780E990A700F9A002AD7
:1018C00000D013701099002903D06A461F32127895
:1018D0000A706374281C09B0F0BDF0B587B0041C11
:1018E0000E1C171C059302F003FC051C02F000FC03
:1018F000059BE918091A002916DD89B2201CFFF79B
:10190000F0FC00280DD00D9B201C00930E9B311C79
:1019100001930F9B3A1C02930C9BFFF781FF002859
:1019200004D102F005FCE1E7002000E0012007B04F
:10193000F0BD72B6BFF35F8FBFF34F8FBFF36F8FF2
:101940000120704710B5041C006A05340368DB6889
:101950009847E07F012102F075FDE07F012102F050
:10196000CBFD642002F0CAFB012010BD80F310887B
:10197000BFF35F8FBFF34F8FBFF36F8FBFF35F8FE7
:10198000BFF34F8FBFF36F8F7047000070B5041C1B
:101990000D1C161CFFF7C4FD034B266208332360A1
:1019A000631DDD77201C70BD709E0000F7B5041C20
:1019B0000F1CEFF31086FFF7BCFF002814D0651D45
:1019C000E87F002102F098FD206A7F2103683940FA
:1019D0001B689847206A002103681B68984701909C
:1019E000E87F012102F088FD301CFFF7BFFF01985E
:1019F000FEBDF7B5041C00910192EFF31086FFF7CE
:101A000098FF0025A8421DD0206A671D03681B6A45
:101A10009847291CF87F02F06FFD206A009A03683E
:101A2000802111431B689847051C206A01990368AF
:101A30001B689847F87F012102F05EFD206A036869
:101A40005B6A9847301CFFF791FF281CFEBDF0B57C
:101A500085B0041C0D1C01920393EFF31087FFF770
:101A600068FF0026B04229D0206A03681B6A9847A5
:101A7000611D0291C87F311C02F03EFD206A7F216A
:101A8000036829401B689847019D061C019B039928
:101A90005A18D2B2EBB29A4207D0206A00210368EA
:101AA0001B68984728700135F0E7029B0121D87F19
:101AB00002F022FD206A03685B6A9847381CFFF732
:101AC00055FF301C05B0F0BDF0B585B0041C0D1CF1
:101AD00001920393EFF31087FFF72BFF0026B0422C
:101AE00028D0206A03681B6A9847611D0291C87F4D
:101AF000311C02F001FD206A8021036829431B6824
:101B00009847019D061C019B03995A18D2B2EBB26B
:101B10009A4206D0206A2978036801351B689847E5
:101B2000F1E7029B0121D87F02F0E6FC206A0368FE
:101B30005B6A9847381CFFF719FF301C05B0F0BDF1
:101B400008B5006A03689B6A984708BD10B5C31CB6
:101B5000041CD87F02F000FD0634431E9841E37F49
:101B6000584010BD08B50430C07F02F0C5FC08BD68
:101B700008B5431D0730C27FDB7F5140181C02F0BF
:101B8000BBFC08BD10B50379041C022B08D0002152
:101B9000FFF7EEFF201C0021FFF7E4FF0223237173
:101BA00010BD0000082388101840031C0833DBB266
:101BB000984206D0044A125C8A4203D00130C0B277
:101BC000F6E700207047C046E09E0000F8B5041C10
:101BD000FFF7BCFF002805D0231C2A331A780132F6
:101BE000D2B21A70221C29321178231C2B3388425E
:101BF0000AD01D781D214F2D00D80B211D786918A2
:101C0000C9B21970107003E01A781432D2B21A7087
:101C10001A789F2A6AD9E28D5208E285221C2A325C
:101C20001178042904D9E08D802109010143E1855F
:101C30001978251C6031C9B21970002313702C3536
:101C40002B78DBB2002B3FD0261C303633780133A3
:101C5000DBB233700B2B49D9E18D3F231940201C97
:101C6000FFF7A0FFE18D071C8909C9B2201CFFF70F
:101C700099FF231C75333F0119783843221CC0B2E9
:101C80007432002915D01978C9B24F1C611830314F
:101C9000FFB21F70487019781378994211D300234E
:101CA0002B70231C08330122DA77201CFFF76AFF10
:101CB00007E010701178062912D9117843290FD83E
:101CC000E1E70023337011E0E18D094A91420DD123
:101CD00001222A70221C303275341370237005E003
:101CE00000232B70638A01339BB26382F8BDC04628
:101CF000380B0000F7B5051C78352F78041C7B1CC9
:101D00002B70002F23D1021C763201921378893276
:101D1000127A9A4206D8FFF735FFE38A01339BB265
:101D2000E38214E0C318061C773678335978337889
:101D30005A1C1941327001221140FFF713FF33780A
:101D4000052B04D9019A37701378013313702B785F
:101D5000072B01D900232B70F7BD08B50379042B9D
:101D600002D1FFF733FF04E00379032B01D1FFF722
:101D7000C1FF08BD08B5054B10219A7B0A439A7331
:101D8000034B1868FFF7E9FF08BDC046002C00426E
:101D9000E0060020FB20704710B50379041C052BDA
:101DA0000AD001210722FFF724FE201C40218022B7
:101DB000FFF71FFE052323712379052B02D102F0C3
:101DC000B7F9F9E7207EC0B210BD10B50379041C45
:101DD000012B05D001210022FFF70BFE0123237107
:101DE000012010BD38B5151C1A1C041CFFF7CEFDD0
:101DF000064B00220833236094235B00E254E31D6A
:101E0000DD77FF220133201CDA7738BD009F000008
:101E1000031C28331B78032B24D9031C29331B787C
:101E2000C371031C2A331B780372031C2B331B78EA
:101E30004372031C2C331B7883728379002B09D1E6
:101E4000C37942799A4205D0C379FE2B02D0C37977
:101E5000FF2B07D1838A012201339BB28382942313
:101E60009340C2547047EFF3108272B6BFF35F8F96
:101E7000BFF34F8FBFF36F8F94210023490043546A
:101E80002830037082F31088BFF35F8FBFF34F8F4A
:101E9000BFF36F8FBFF35F8FBFF34F8FBFF36F8FB2
:101EA00070470368F7B55B68041C0F1C151C984746
:101EB000019000282DD0002F28D0002D26D0EFF340
:101EC000108672B6BFF35F8FBFF34F8FBFF36F8F74
:101ED000231C283319782A780339914202DC1B78B5
:101EE000043B2B70211C2A78381C2D3104F0EEFCA9
:101EF00086F31088BFF35F8FBFF34F8FBFF36F8FF1
:101F0000BFF35F8FBFF34F8FBFF36F8F201CFFF7BF
:101F1000AAFF0198FEBD000070B5041C081C0D1C32
:101F200004F012FC154B144A03F0AEFD144A154B95
:101F300003F040F902F044FD020C061CD2B2201C52
:101F40000621FFF756FD320AD2B2201C0721FFF707
:101F500050FDF2B2201C0821FFF74BFD281C0A4956
:101F600002F024FD431E98414042012318402A23D9
:101F7000FF33E054012070BD0000000080842E413A
:101F80000000000080844E4000C04244C046C0466D
:101F900010B50379041C022B05D001210A1CFFF7A0
:101FA00028FD0223237110BD38B51221041CFFF750
:101FB000FDFC2379042B02D1A023184205D12379FB
:101FC000042B64D143060FD461E0638A01339BB2D2
:101FD0006382201C1221FF22FFF70BFD201C12211F
:101FE000FF22FFF706FD38BD1321201CFFF7DEFCA2
:101FF0001021051C201CFFF7D9FC0D21021C201C00
:10200000FFF7F7FC221C2B1C00212932201CFFF7B4
:102010001EFD231C28331D70FF221221201CFFF7F8
:10202000E8FC1921201CFFF7C1FC40B2C3179B0F2D
:102030001818952580106D0060551A21201CFFF797
:10204000B5FC20826357002B04DA228A9B189BB2CE
:10205000238207E0208A0F2100B2000102F0D6FBA4
:1020600080B220822A23FF33E35C002B02D0238A34
:102070009D3B01E0238AA43B9BB22382201CFFF7F7
:10208000C7FE94235B00E35C002BA2D008E0237919
:10209000032B09D1030707D5E38A01339BB2E382FF
:1020A000201CFFF775FF94E72379052B00D090E7FC
:1020B000430700D48DE7012318402076F0E70000A5
:1020C00008B5034B1868002801D0FFF76DFF08BD65
:1020D000E406002008B5034B5868002801D0FFF73C
:1020E00063FF08BDE406002008B5034B986800288C
:1020F00001D0FFF759FF08BDE406002010B50379B1
:10210000041C042B0AD001210522FFF772FC201CBD
:1021100040210022FFF76DFC0423237110BD10B590
:102120000379041C0020032B06D0201CFFF7E6FFD8
:1021300094235B00E05CC0B210BD10B50379041CB1
:10214000032B0AD001210322FFF753FC4021201C5E
:102150000A1CFFF74EFC0323237110BDF8B5041CC5
:102160000F1C161EFB2E01D9002533E003689B6966
:102170009847201CFFF70CFF2368201C5B6A9847D8
:10218000051EF1D00D210022201CFFF732FCE27A5F
:102190000021201CFFF72DFC227B0021201CFFF7D3
:1021A00028FC627B0021201CFFF723FCA27B00217E
:1021B000201CFFF71EFC331C00213A1C201C043697
:1021C000FFF782FCF2B2201C2221FFF712FC201C38
:1021D000FFF7B3FF281CF8BD38B5051C0C1C002AFE
:1021E0000AD00E2904DC4B1C03DA0124644200E00F
:1021F0000E240134702218E0172904DC04290BDDB9
:10220000142901DC09E01724281C4D210722033C76
:10221000FFF7EFFB64B205E00524281C4D210422E2
:10222000FFF7E7FB8022053C52422243281CD2B232
:102230000921FFF7DEFB38BD38B50D1C041C0A78F8
:102240001D21FFF7D6FB6A78201C1E21FFF7D1FB6A
:10225000AA78201C2621FFF7CCFB38BD13B5041C3F
:10226000002004290BDC03225143054B01A8591817
:1022700004F02CFB201C01A9FFF7DEFF012016BD96
:10228000F09E000038B50A0A0D1C041C2021FFF73F
:10229000B0FBEAB2201C2121FFF7ABFB38BD0000E8
:1022A000F8B5041CFFF74EFB061E01D1002656E0D0
:1022B000E71DFD7F201C291CFFF742FC0121802225
:1022C000201CFFF796FB0A2001F018FF201C0121BB
:1022D000FFF76CFB8028E9D1F87F002102F0B2F80B
:1022E000231C0833DA7FFF2A06D11E490A78032A05
:1022F000DCD8501C0870DA77DB7F1B4A99008C50C1
:10230000002B02D1281C194908E0012B02D1281CFE
:10231000174903E0022BC9D11649281C042201F0F9
:10232000D7FD0E210022201CFFF763FB00220F21A6
:10233000201CFFF75EFB201CFFF72AFE0021201C5B
:10234000FFF78CFF201C0821FFF79CFF0A49201C87
:10235000FFF7E2FD201C0D210022FFF73DFF301C9E
:10236000F8BDC046F0060020E4060020C1200000B1
:10237000D5200000E92000000000D94370B5031CFF
:10238000002001390C4A89B2914213D01C780822EE
:102390000125061C2E40E8402540AE4203D074259E
:1023A0006D426840C0B2013AD2B26408002AEFD14F
:1023B0000133E6E770BDC046FFFF000008B50548E1
:1023C000FEF7B4FB044805210222044BFFF70AFD87
:1023D00008BDC0460707002008070020D0060020DF
:1023E0003F20704713B502686B46D97107335468B4
:1023F000191C0122A04716BD08B50069022100F092
:102400004BFC08BD08B50069032100F05BFC08BD6A
:1024100038B50D1C041C131C006903212A1C00F094
:102420004DFD002801D10123636038BD10B5054C76
:1024300023685A1C04D103685B6998472060031C19
:10244000181C10BD64000020074A08B51368591C09
:1024500004D0012149421160181C03E000690221E7
:1024600000F01EFD08BDC0466400002008B50378DA
:102470000349023303704222024800F0D5FD08BD33
:1024800020000020FB0D002010B50178031C4278CD
:102490000020A12908D1212A2FD118481849072244
:1024A00000F0C2FD012028E0212926D1202A05D1F3
:1024B00013490722114800F04BFC04E0222A10D1F6
:1024C0009A780F4BDA710E4B96221968D20091421E
:1024D00010D1DC7901231C400CD1FA2001F02AF83C
:1024E0000AE0232A09D1DA789B7812021A43054BB5
:1024F0001A6002E001F024F8002010BDFB0D00205E
:10250000140000201C000020064BFA21890099606D
:10251000054900220831196004495A6019611A7688
:102520007047C04630090020889F0000FB0D002046
:1025300010B507230F220240141C00093034092A69
:1025400000DD0734CC54013BF4D210BD70B58229B4
:102550001ED1C2B22A495301CB189D69294C800172
:102560002C40C025AD052C439C61274C0832201817
:1025700058610B68520199180C7980204042204321
:102580000871D15C7020814330200143D15435E083
:10259000002933D1C2B21A495301CB189E68194D94
:1025A000C0242E40A40526439E60184E8001096871
:1025B0003018083258605201505C0726B04301269B
:1025C000304350549E6935402C439C610E4C5C61F5
:1025D000505C7024A0431024204350549C680C4845
:1025E0008A18204080246403204398609868402122
:1025F000800B8003986053790B43537170BDC046C4
:10260000040E0020FFFFFF8F580A00201C0C002042
:10261000FF3F00F038B5041C08CC01211A78051CD6
:102620000A431A708022201C0021520004F070F925
:102630002B689A78D107FCD45C6238BD134BF0B597
:102640001B6899035A029B01C90ED20E5B0F1F290A
:1026500000D105211F2A00D11D22072B00D1032301
:1026600004688E01278D0A491F2539403143218591
:1026700001682A400C8DAC4322430A850268190385
:10268000108D044B03400B431385F0BD2460800084
:102690003FF8FFFFFF8FFFFFEFF31083036001237D
:1026A000436072B670470368002B02D162B6BFF375
:1026B0006F8F704737B50569041C6846002D12D12D
:1026C000FFF7EAFF019B013B03D3621DD57FEDB20B
:1026D000F9E768460193FFF7E6FF0020854217D02F
:1026E000206AE36913E0FFF7D7FF019B0025013B58
:1026F00004D3221C34321578EDB2F8E76846019312
:10270000FFF7D1FF0020854202D0206BE36AC01A98
:102710003EBD0000436810B51A68037A01215B01D1
:10272000D318FF339A7A0A439A72037A42685B019C
:10273000D318C2689C6891040B4A090922400A43D5
:102740009A60037A42685B01D3189A684021920B21
:1027500092039A6043681A68037A08335B01D318BE
:102760001A790A431A7110BDFF3F00F0F7B50569E9
:10277000041C0E1C171C6846002D1FD1FFF78CFF90
:10278000019B013B5A1C06D0621DD17F5A1E0029B5
:102790003AD0131CF6E768460193FFF784FF002543
:1027A000E369BD4235D0226A934232D25A1CE261BB
:1027B000A269D3181B7873550135F1E7FFF76CFF59
:1027C000019B013B5A1C08D0221C343215785A1E3A
:1027D000EDB2002D18D0131CF4E768460193FFF703
:1027E00062FF0025E36ABD4226D0226B934241D3AB
:1027F00022E0621D0021D17730321678581E8E42B9
:1028000014D1031C5A1CF4D168460193FFF74BFF07
:1028100038E0226A934235D10023E361012323612A
:102820006846FFF739FF019B013BEBE71170201C65
:102830000193FFF76FFFF6E7226B934222D100234B
:10284000E36223616846FFF727FF019B013B5A1CA7
:10285000DAD0221C34320021117001321678581E51
:102860008E4201D1031CF2E71170201C0193FFF787
:1028700051FFEAE75A1CE262A26AD3181B7873552B
:102880000135AFE7281CFEBD37B54368027A1B68E7
:10289000083252019A18041CD0790123FF211842F2
:1028A00055D0D371A068656962680140002D1FD1C1
:1028B0004901521891688904890C2162216A002912
:1028C00042D06361A36A68465360FFF7E5FE019B4F
:1028D000013B5D1C34D0621D0120D0772F3211786E
:1028E0005D1EC9B21218002915D111702B1CF0E71A
:1028F0004B01D3189A689204920C2263226B002A2F
:1029000022D000226261A26968465A60FFF7C4FEC5
:10291000019B013B12E0019310706846FFF7C3FE74
:1029200015E0221C343201201070621DD17F5D1E23
:10293000C9B230320029EED111702B1C5D1CF0D1D0
:1029400068460193FFF7AFFE201CFFF7E3FE37BD9B
:1029500037B500236C46E3710734201C0D1CFFF7CC
:1029600085FD2B681818286001F0B6FE211C01F0C7
:102970006DFE2B681818286020783EBD03290BD106
:102980000D4BB2221B685200985C802149420143E2
:102990009954022168220CE001290CD1064B9222A5
:1029A0001B685200985C80214942014399540221DE
:1029B0002822FF3299547047040E002038B5304B5E
:1029C00000240121051C1A201C7001F03BFD1A2077
:1029D000012101F091FD2B4B192001211C7001F008
:1029E00031FD1920012101F087FD274B2021DA69F3
:1029F00001200A43DA61254B06241A7802431A7033
:102A0000234B0F22197891431970197821431970BB
:102A100020490C782043087019780A401A701A78F7
:102A200060210A431A701C4B1C4A5A805A78D209FA
:102A3000FCD11B4801F056FB1A4C201CFFF7EAFDA5
:102A4000201CFFF7FBFD23687F2219780A401A70CB
:102A50001A7804210A431A701A890C218A431A81B0
:102A6000C121114A890050580002000A50508021AB
:102A700011601A7802210A431A7001232B7038BDA5
:102A8000180C0020000E00200004004058440041B3
:102A90003C44004159440041000C00400640000005
:102AA000ED340000040E002000E100E00078002872
:102AB00010D0094B01211B681A898A431A811A8B8D
:102AC00008210A431A831A8B04210A431A83034BF1
:102AD00000221A607047C046040E0020080F002034
:102AE0000F4B9A69920B92039A611B680222FF3383
:102AF0001A7298798022524202439A711A7A900788
:102B0000FCD5084B081C997A7F2210409143014361
:102B10009972997A802252420A439A727047C0464B
:102B2000040E0020005000410078002805D0034B1F
:102B300001211B681A890A431A817047040E00207C
:102B400010B50B790C1C002B0BD1081CFFF79CFC5B
:102B5000002804D1094B9A69920B92039A610120D3
:102B60000BE001F0B9FD211C01F0A4FD0028F6D115
:102B7000024B9A69920B92039A6110BD040E0020D9
:102B8000F7B50E1C832A18D1CAB235495301CB18A8
:102B90009C693448B6012040C024A40520439861B4
:102BA0003148083286195E610B685201D15C702091
:102BB000814340200143D15450E0022A4AD12B4A9C
:102BC00089008D580191002D48D1382001F0D4FAA8
:102BD000274B80270360224B7F004360431D056223
:102BE000866005614561C561C760DD772F33041CD0
:102BF000C56205631D70381C5D7003F053FEA06153
:102C0000381C03F04FFEFF2315491E407601A062D9
:102C10008E19B168134A07250A40C02189050A4365
:102C2000B260A16862681940126808314901885C85
:102C3000A843032528438854A268616813405B01B8
:102C4000A269CB185A60201CFFF764FD019B07495D
:102C50005C5003E0081C111CFFF778FCF7BDC04670
:102C6000040E0020FFFFFF8F580A0020DC0D00201B
:102C7000B89F000038B5051C0124064BA200D258AD
:102C8000002A06D0211C281C0134FFF779FFE4B28A
:102C9000F3E738BD6800002008B5084B8A00D0581B
:102CA000002803D003689B68984706E0C9B2044B2C
:102CB0004901591888688004800C08BDDC0D00208B
:102CC000040E002010B50C1CFFF7E6FF00280CD006
:102CD000064BE1B21B680831490159184A79802333
:102CE0005B4213434B710223CB7110BD040E0020D5
:102CF00070B5CAB2134B144854018901591803190D
:102D000059609D681149083229408025AD02294348
:102D1000996099684026890B89039960036851017D
:102D200059180D7935430D715101591889794D069E
:102D3000FAD551015918C979CD07FAD50419A068F7
:102D4000C0B270BD1C0C0020040E0020FF3F00F03C
:102D500038B50C4B141C1B680D1CFF335A794021ED
:102D60000A435A710021FFF7C3FFA04200D9201C7B
:102D70000023A34204D0044A9A5CEA540133F8E7E2
:102D800038BDC046040E00201C0C002010B5C9B28E
:102D90000C48490143189A689204920C3F2A08D9BA
:102DA000141C9A68403CA404920BA40C9203224386
:102DB00002E09A68920B92039A6041188868C0B248
:102DC00010BDC046040E0020F0B51C1C2F4B85B072
:102DD0001B68061C0D1C0292002B51D02C4F397819
:102DE000C9B2002902D1192001F086FB64233B708F
:102DF000284BAA00D058002805D0036802995B68C8
:102E0000221C984740E0301C291CFFF745FFA042D8
:102E100004D2301C291CFFF73FFF041C291C301C66
:102E2000FFF7B4FF1C4FE9B24A01019139680392E0
:102E30008B18FF335A7A01210A4318495A72AB01A1
:102E4000C9180298221C03F041FD002C1BD0301C35
:102E5000291CFFF721FF002815D1019B3A68083390
:102E60005B01D31819794020014319710121D971EF
:102E700003995318FF339A7A01210A439A7202E0A8
:102E80000120404200E0201C05B0F0BD080F0020EA
:102E9000000E0020DC0D0020040E00201C0C002081
:102EA00013B56C460734221C0123FFF78DFF012860
:102EB00001D1207801E00120404216BDF0B51C1C74
:102EC0003F4B85B01B680E1C0292002B6AD08023FA
:102ED000DB019C4266D83B4D2978C9B2002902D15A
:102EE0001A2001F009FB642300222B700092002CB1
:102EF00056D0354DF7B22B6801933B1C0833019A2D
:102F00005B01D3189B79DB091AD0304B3049186824
:102F100001F02EFC2F4B1721584301F029FC3B1CDC
:102F20000833019A5B01D318DB799A0708D42A4B3E
:102F30009A5D002A38D1421E002835D0101CEEE7D9
:102F4000254B00229A55251E3F2D00D93F25234AA7
:102F5000B301D318181C02992A1C039303F0B6FC82
:102F6000194A7B01D318039AA9045A619A69890CFA
:102F7000920B92030A439A613B1C019A08335B014E
:102F8000D3180222DA715979802252420A435A71C7
:102F9000009B029A5B1952190093641B0292A6E7E8
:102FA00000980BE0012008E001229A557B01ED1802
:102FB000AB69101C9B0B9B03AB61404205B0F0BD9D
:102FC000080F0020180C0020040E002094000020A0
:102FD00040420F0070110100500A0020580A0020E2
:102FE00070B50E4D1C1C8B01ED18281C0E1C111CFD
:102FF000221C03F06BFCF6B20949760189194D6178
:103000008A69084B201C13408B618B69A2049B0BBF
:10301000920C9B0313438B6170BDC046580A00207D
:10302000040E0020FF3F00F0F7B5114B01901B7814
:103030000F1C141C002B19D10E4B1E78002E01D131
:10304000151C08E00C4D0D482E888019361903F028
:103050003DFC2E800AE0002D08D0BA192B1C0198E7
:103060000021FFF7BDFF36182D1AF4E7201CFEBD26
:10307000FA0D0020F80D00204E0A00204D09002016
:10308000F8B50E1C00AF151E012D28D9D31DDB0885
:10309000DB006A46D21A9546081C03F065FF013032
:1030A0006C4640000323207063700222AA420ED2B5
:1030B0003378002B0BD0511CC9B20136A354A9425E
:1030C00004D0002302326354D2B2EFE72A1C054831
:1030D000211CFFF7A9FF431E9841C0B200E0002069
:1030E000BD46F8BDFB0D002008B5044B00221A7048
:1030F000034B04491A88FFF797FF08BDF80D00201D
:103100004E0A00204D090020F0B5204A87B0012367
:103110000026009102A91370051C0296FFF718FC07
:1031200003AC092701903A1C201C311C03F0F0FB72
:1031300002236370A023E371FA232372029B01220E
:10314000DB196380019B62712371104A009B277019
:103150001670BB4205D1281C211C1A1CFFF764FF06
:1031600011E00B4B01221A700A4B211C3A1C281C3F
:103170001E800296FFF758FF281C02A9FFF7E8FB04
:10318000281CFFF7B1FF012007B0F0BDFA0D0020A9
:10319000F80D00204E0A002070B5CE7892B0051CC4
:1031A0000C1C022E08D1C9882D48FFF7ADFF031C67
:1031B000581E8341D8B251E001F08EFA211C01F073
:1031C0005AFA002803D0C3171B1AD80F46E0012E65
:1031D00004D1E2882349112A3BD837E0032E3DD1A0
:1031E000A278002A05D12049E2880B7893422DD895
:1031F0002FE0022A03D1A279281C1C4904E0012AED
:1032000005D1A2791A49281CFFF73AFF26E0032AC4
:1032100024D1184B01A91868FFF78AF9164B03A9A6
:103220001868FFF785F9154B05A91868FFF780F9AD
:10323000134B07A91868FFF77BF901F04DFA09A9AC
:1032400001F029FAA279281C01A9DDE7D2B2002AEF
:1032500000D10A78281CFFF7E7FE012012B070BDEC
:10326000FB0D0020D89F0000D49F0000EA9F0000C3
:10327000C89F00000CA0800040A0800044A08000F7
:1032800048A0800073B5051C48780C1C0B2878D822
:1032900001F064FA081C7728773E4306474B686FB5
:1032A00000206FE0097801AA002903D11170517044
:1032B000281C09E0002313705370334B1B78012B3B
:1032C00000D11370281C002102234FE08A780023CC
:1032D000012A04D101AA137053702C4BEEE72A4A3D
:1032E000137049E08E78012E07D1284B01AA0021E6
:1032F0001E701170281C331C38E0002E08D1224AA1
:1033000001231370224A9169890B8903916138E086
:10331000A178281CFFF7E4FB33E0281CFFF73CFFF3
:1033200030E0281C00211B4A1FE00A780020D30649
:1033300028D1281CFFF79EFCA2781549154B0224C2
:103340001A600A682A23FF33D05C2043D0544A20F5
:10335000FF30145C01231C4314548A69920B9203BE
:103360008A610EE00C4A281C00210123FFF738FE79
:1033700007E08A78084B1A60054B9A69920B920312
:103380009A61012076BDC0464C090020F90D00204D
:10339000040E0020080F0020FC0D0020F8B54B4B58
:1033A000071C1C78002C00D08FE0494D2868838BC7
:1033B00019070ED5201C211CFFF7C8F82B68102018
:1033C0001A1CFF32917A01439172424A146008221A
:1033D0009A832B689A8B50071FD504229A833E4B01
:1033E0001A78002A0AD01A78013AD2B21A701B78D9
:1033F000002B03D11A20012101F07EF8374B1A78F7
:10340000002A0AD01A78013AD2B21A701B78002B1F
:1034100003D11920012101F06FF82B68FF331A7ACC
:10342000D10626D510221A725A7940210A432C4916
:103430005A710A786023381C1A4202D1FFF722FF22
:1034400001E0FFF77DFB002806D02B688022FF33C8
:10345000997952420A4301E0224B20229A712B684B
:10346000FF331A7A500604D540221A72597A0A4359
:103470005A722968FE230E8C00241E40E1B2002EF1
:1034800023D0321C012322411A4216D0221C286864
:10349000083252018218D079184203D1D279DA4029
:1034A0001A4207D0104BA200D058002809D0036858
:1034B0001B6898470123A3409E430134092CDDD1AA
:1034C00003E0381CFFF75AFAF4E7F8BDF80D0020C6
:1034D000040E0020080F0020180C0020000E002011
:1034E0001C0C0020FF500041DC0D002008B50248F4
:1034F000FFF754FF08BDC046FB0D0020014A024BF8
:103500001A60704700500041040E0020F7B58A1879
:10351000061C0D1C01920C1C019B671B9C4207D0D2
:10352000336821781B68301C984701340028F3D198
:10353000381CFEBD014B18607047C046900000204B
:10354000024B012252421A607047C0469000002090
:10355000154A1368581C25D0013B1360002B21D15C
:1035600072B6124A124B04329A4207D8BFF34F8FF9
:10357000104A114BDA60BFF34F8F11E00F4B197DEA
:10358000C807FBD5188B2021FF3192085200014358
:103590001983DA610A4A1A801A7DD107FCD5E5E75A
:1035A000C046FDE77047C0469000002000000000C4
:1035B000030200000400FA0500ED00E000400041B5
:1035C00002A5FFFF01607047F7B508AC26780468D4
:1035D0009D1E27686C1EA541ECB2920705683A4310
:1035E00027063A432A600268072529405068B5013A
:1035F000002C00D05C03294301430C435460F7BD09
:1036000030B50368C0251C68AD0312052A4022436B
:10361000C024A402090421401143196003685A68B8
:1036200014435C6030BD036801211A680A431A60C4
:103630000268116801231942FBD1D1691942F8D1FE
:103640007047036802211A680A431A600268D36946
:103650009907FCD4704703681A7ED10702D41A7EFA
:103660009107FCD57047036800225A8370470368AE
:10367000187E4007C00F70470368187EC009704766
:1036800003688022197E52420A431A767047036803
:10369000187E0123184070470368188DC0B2704728
:1036A00003681A7E01200242FBD019857047036827
:1036B00001229A757047036801221A75704700004D
:1036C00070B5036801268D07ED0F31401C686D074A
:1036D000090729432143196004685100034801F098
:1036E00047F80138C0B2207370BDC046006CDC02E0
:1036F000036801211A680A431A60026811680123ED
:103700001942FBD1D1691942F8D1704703680221EF
:103710001A680A431A600268D3699907FCD4704793
:103720000368DA699107FCD41A6802218A431A6097
:103730007047036818684000C00F704703689A6AB2
:10374000520A52021143996203681A7E5107FCD54E
:10375000986AC0B27047036801211A680A431A6068
:103760000268116801231942FBD1D1691942F8D1CD
:103770007047036802211A680A431A600368DA690D
:103780009107FCD45A8B30218A4310210A435A8373
:103790000268D3695907FCD470470368802219680E
:1037A0005968D2020A435A60704700000368034A0E
:1037B000196859680A405A607047C046FFFFFBFF0E
:1037C00030B5036803241D680C40074A5968240477
:1037D0000A40ED0622436D0F5A60052D03D10268A1
:1037E000D3695907FCD430BDFFFFFCFF49001143EA
:1037F000036830B5CDB2598B032409092140012952
:1038000004D0598B09090C40022CF4D1596AC90A19
:10381000C902294359620368002A03D11A7ED107DD
:10382000FCD50DE0187E01224008104008D1197E19
:103830001142F7D05968C02292020A435A6003E04D
:103840005B8B01209B08984330BD036828331970B7
:103850000268107E0123184003D1518B1942F8D021
:1038600003E0528B181C920890437047036828337A
:103870001970036800201A7E510703D55B8B012065
:103880009B089843704703681868C006400F0438C7
:1038900043425841C0B270470368187E4007C00FCA
:1038A00070470368187E0123184070470368588BDF
:1038B000C006C00F70470368187E8007C00F7047AE
:1038C0000368588B0007C00F704703681A68D20658
:1038D000520F052A02D11A7E9107FCD52833187899
:1038E000C0B270470368224A30B5934211D0214AD2
:1038F000934211D0204A934211D0204A934211D0D2
:103900001F4A934211D01F4A934230D10E231922ED
:103910000DE0092314220AE00A23152207E00B23F5
:10392000162204E00C23172201E00D231822DCB23A
:10393000154901209B08A0409B0008605B180320EC
:10394000C021890004405D58E000FF248440A54365
:103950002C1CC0258540281C204358508023DB01A7
:103960001A430A4B5A805A7852B2002AFBDB30BD08
:1039700000080042000C0042001000420014004207
:1039800000180042001C004200E100E0000C004072
:10399000F8B5041C151C0E1C1F1CFFF7A3FF201CF0
:1039A000FFF741FEB1001C220A4069072368090C99
:1039B0000A431A60226884239375012E1AD10821C4
:1039C000012D00D110210C4B79431868C00000F084
:1039D000CFFE236807219A890140D2044903D20C03
:1039E0000A439A8123680004C20C9889400B400363
:1039F00010439881F8BDC04694000020F7B50193AC
:103A000008AB041C1F780D1C161CFFF771FE201C50
:103A1000FFF768FFBF070C221743C0229203360549
:103A20001640C02292022D0423683E43019915409E
:103A3000354307221D600A408021236889020A431A
:103A40005A60F7BD70B5041C0E1CFFF74BFF201C1D
:103A5000FFF781FE236814221A600D4B71001D6868
:103A60002468281C00F084FE0A49061C281C00F06B
:103A70007FFE7D23FA215843C90000F079FE301AF9
:103A8000E668FF23053818409E430643E66070BD94
:103A90009400002040420F000120704708B50368E1
:103AA000014A1B6A984708BD13040000826D436DEC
:103AB0009A4203D0836DC018007D01E0012040428E
:103AC000704710B5041C0069FFF7ADFD0023221CF0
:103AD00063659C32A365A0341360236010BD0000B1
:103AE000F0B587B001930CAB1B78002502930DABAA
:103AF0001B78402603930EAB1B78041C04930FAB7A
:103B00001B780F1C0593FA239B008360124B0092D5
:103B1000083303604560291C321C143002F0F8FEA3
:103B2000201C6565321CA565291C5C3002F0F0FE86
:103B3000009A231C9C331D605D6027611A72019AF4
:103B4000201C5A72029A9A72039ADA72049A1A73B1
:103B5000059A1A7707B0F0BDF89F000030B585B020
:103B6000041C08A8057809A8007800950190FF209A
:103B700002900390201CFFF7B3FF201C05B030BD5E
:103B8000F023081C18403038434258417047F02356
:103B90001B01194080239B0099420CD0C0239B003D
:103BA000994206D080235B000520994204D0002072
:103BB00002E0072000E0062070470F23194001298A
:103BC00005D002394B424B410220C01A00E00020D0
:103BD00070470000F0B5031C85B00391A433041CAA
:103BE000182718783B1C4343344E0821F3185956C4
:103BF000151C00F0C9FC231CA53318783B1C43435B
:103C00000821F318595600F0BFFC231CA7331B787A
:103C1000022B0AD1231CB8331878FF2805D047435C
:103C20000821F719795600F0AFFC271CA83738781F
:103C3000FF281AD0012100F005FC3B7818225A43D6
:103C4000B3561F4FDB01211CAC31D81908601D4948
:103C5000B6185B18211C7268B0310B6001219140CD
:103C60000A1C211CB4310A601A6001210A1C039B42
:103C70002069FFF78DFE291C201CFFF788FF291CF7
:103C8000071C201CFFF799FF291C061C201CFFF7AE
:103C900077FF391C0090331C20690122FFF794FC48
:103CA000231CA7331978013B1A782069FFF7A8FC79
:103CB0002069FFF7C6FC05B0F0BDC0467099000052
:103CC0001844004114440041026C436CD01A00D5E2
:103CD0004030704710B5041C201C5C30FFF7F4FF27
:103CE0000028F9D12069FFF7B6FC10BD08B51430E3
:103CF000FFF7EAFF08BD026C436C9A4204DB036CD9
:103D0000406CC01A3F3003E0426C036CD01A01389B
:103D1000704708B55C30FFF7EEFF08BD38B5041CEE
:103D20000069FFF7A4FC00281FD02069FFF7B4FC4E
:103D3000636D3F2201331340A26D934203D0626D45
:103D4000A21810756365231CA8331B78FF2B0CD0B9
:103D5000201C1430FFF7CFFF092806DC231C221C8F
:103D6000AC33B4321B6812681A602069FFF78FFC0D
:103D7000002820D0251C5C35281CFFF7A5FF031C5C
:103D80002069002B15D0231C221CA0339C321968FB
:103D90001268914207D01A68A95C1A683F2501325F
:103DA0002A401A6001E001214942C9B2FFF778FCBC
:103DB00001E0FFF780FC2069FFF75EFC002805D0DA
:103DC0002069FFF75DFC2069FFF74DFC38BD00005E
:103DD00070B5041C00690D1CFFF759FC00280FD0BA
:103DE000201C5C30FFF770FF002840D008E0EFF3A4
:103DF0001083DA0723D4214B5A68D205D20D0BD198
:103E0000231C9C33211C1E68A0310A6801363F2008
:103E100006409642EBD01BE0103AD2B253B2002BD0
:103E200008DA0F231A40083A154B92089200D2186C
:103E3000536804E09B08C033124A9B009B582069DA
:103E4000FFF725FC0028DBD0201CFFF767FFD7E732
:103E50001A680968013202408A4204D01968201C9D
:103E60005C3045541A602069FFF721FC03E02069AB
:103E7000291CFFF715FC012070BDC04600ED00E0D5
:103E800018ED00E000E100E038B5826D436D041CE0
:103E90009A4208D0836D3F22C3181D7D836D013384
:103EA0001340836501E001256D42231CA8331B7874
:103EB000FF2B0BD0201C1430FFF71DFF0A2805DD57
:103EC000231CB033B4341B6822681A60281C38BD28
:103ED000F7B51823434301923F4A1625D3185D577F
:103EE000071C0091681C76D0102D74D03B4B3C4CC5
:103EF0001E68002E27D1311C44223A4802F008FDEA
:103F0000311C4422384802F003FD384B3849102256
:103F10001E60CA67374BC02149005A50C121890031
:103F20005858FF26B04358501A60334A334B5A80D2
:103F300023780222134323706378DB09012BFBD023
:103F4000264B01221A6063690126AE4033430021EB
:103F50006361381C00F018FB0099002939D0234A0E
:103F60001368171C9C4600231E499A00634504D021
:103F70008858B04203D00133F6E701333B608E50DE
:103F8000194B00999950072D03DD083DAD00012321
:103F900001E0AD000023124A9B009B189A6907219B
:103FA000A94001988A439A61042812D89A6900F0BE
:103FB000D5FB030507090B00052106E0042104E0F9
:103FC000032102E0022100E00121A9400D1C15435C
:103FD0009D61B6B2E660F7BD70990000980F0020B1
:103FE00000180040500F00200C0F0020940F0020FC
:103FF00004E100E000E100E005400000000C0040AA
:10400000F8B50024094B1B689C420DD2084E094F9D
:10401000A5003369EA591A4204D0074BEB58984778
:10402000EB5933610134EDE7F8BDC046940F002031
:1040300000180040500F00200C0F0020002110B588
:10404000041E8C4204D002F017FF211C00F034FC47
:10405000081C10BD10B5041E8C4203DA081AFFF7C5
:10406000EDFF0419201C10BDFEE7FEE708B5034B69
:104070001B68002B00D0984708BDC0469C0F00204D
:1040800038B50F490F4CA14204D100F081F800F07F
:1040900053F80BE00C4D8D42F7D00023CA18E818F6
:1040A000A24204D2006804331060F7E7FEE79042B2
:1040B000EBD0064B064A9342E7D2002204C3F9E74D
:1040C00000000020B0010020E0A30000B0010020AB
:1040D000C40F002008B500F02CF8002801D100F032
:1040E0001DF808BD014B18607047C0469C0F0020AA
:1040F000014B18687047C046A00F002070B5041E21
:1041000008D0054B1D681E1C00F012F833685B1BBD
:10411000A342F9D370BDC046A00F002008B5034BE1
:104120001A6801321A60FFF713FA08BDA00F0020C9
:10413000704700207047704710B500F0DDF802F0BE
:104140008BFBFFF7F8FF0120FFF7D8FF084C201C7E
:10415000FEF734FC201CFEF7A9FCFCF75DF9FCF728
:1041600017FA044B002BFAD000E000BFF7E7C04677
:10417000FB0D00200000000008B502F093FB08BD15
:1041800008B502F08FFB08BD08B502F095FB08BD2D
:1041900070B5494A1E21536802208B4303434749A7
:1041A00053608B69082423438B61454C454B9C82AB
:1041B0009C8A20439882101CDA689407FCD5424AF6
:1041C000012414701478E50704D53F4C647864B278
:1041D000002CF7DB01249460547864B2002CFBDBE4
:1041E0003A4D394C6560547864B2002CFBDB822573
:1041F000354CED016580547864B2002CFBDB022461
:104200009C84DC68E606FCD5314D2E4CE562DD6809
:104210002C4CEE06FBD5A58C2E4E3543A584DD68CF
:10422000284CEE06FBD5A58C02263543A584DC6818
:104230002506FCD5234CE4686606F8D5DC68E5065F
:10424000FCD500249460547864B2002CFBDB224D32
:104250001D4C656055781C4C6DB2002DFADB1E6A52
:104260001E4D35401D621D6A8026B5431D62032325
:10427000A3601B4B636053785BB2002BFBDB002316
:104280000B72184A4B728B72CB72174BFF211A605C
:10429000164B174A1B6812685C01D20E214011436D
:1042A0009A06520F12020B1C1343124A13854368DD
:1042B00080221343436070BD004000410004004071
:1042C0000C06000000080040000C00400105010041
:1042D000B905FF7D040A000000070300FFFCFFFF93
:1042E00003060100006CDC029400002024608000C2
:1042F0002060800000400042314BFA21186810B560
:10430000890000F035FA2F4B0138984224D82E4A04
:104310002E4B5060186AC0210002000A09060143B2
:1043200019620024072194601160196A8022090231
:10433000090A12060A431A62254BFC211A6A0A432B
:104340001A62196AFC2292010A431A62196AA022AF
:10435000D2020A431A6200E0FEE7201C0021013469
:1043600000F070F8142CF8D11A4C63785BB2002B73
:10437000FADB194B6380194B5A7ED209012AFAD015
:10438000E422D2009A803F22DA70597E134AC9098A
:104390000129FAD0C0235B0100201361907000F066
:1043A00023F863785BB2002BFBDB0D4A094B5A8084
:1043B0000C4BDA79D209012AFAD041225A7010BD89
:1043C00094000020FFFFFF0010E000E000ED00E09F
:1043D00000040040000C00401E400000004000426D
:1043E000214000000048004200B5144A517E131CD1
:1043F000C9090129F9D00138042813D81969104ACC
:104400000A401A615A780F218A4300F0A7F9030580
:1044100009070300012102E0032100E002210A4311
:104420005A700AE01169F0231B050B43136153789E
:104430000F218B4302210B43537000BD004000420B
:10444000FFFFFFF010B51824021C201C5043274B1F
:104450001818007A40B2013046D0032944D8081C0D
:10446000211C00F07BF902331121624398569A18FF
:10447000C3011F4852681B18991840310220087068
:104480000121914059602FE06243985618499A18CB
:104490005268C3015B189918403106200870012149
:1044A0009140596099611FE051435A56104859187C
:1044B0004B68D2011118C81840300624047001203E
:1044C000984048600B49521850600DE0624398567E
:1044D0009A18C301064852681B18991840310220E7
:1044E000087001219140996010BDC046709900008C
:1044F000004400411044004118235843134AF0B5CA
:10450000131808241C5701341FD08256104ED201B4
:104510005D6801249019231C8668AB401E420BD1B4
:104520000E1C771EBE41401934404030A50004786F
:104530000426B4432C430470002903D105495218C2
:10454000536002E0024E92199361F0BD7099000031
:10455000004400411044004118235843084A0821F0
:1045600013185956013109D082560649D201521802
:104570005B68106AD8400123184000E000207047B3
:10458000709900000044004118224243F8B52D4DB7
:104590000824AA181457031C621C50D0481C00247D
:1045A0000C284CD800F0DAF8071E1E1E1E1E1E1E18
:1045B0001E0A0A0A0A000124644240E0092902D1C5
:1045C000181C002103E00A2904D1181C0221FFF75E
:1045D00039FF23E000240B2931D1181C0121FFF7FA
:1045E00031FF2CE018225343EA185268EB560120A1
:1045F000141C04405508DB01002C11D0124C1B196F
:104600005D1930352E780C010F21314021439A1865
:10461000C9B22970403213781843107000240EE09C
:10462000094E0F279B195D1930352E789A18BE4315
:104630003143C9B229704032137818431070201CDE
:10464000F8BDC046709900000044004170B5446850
:104650000E1C0025002C09D02368201C5B68311C2F
:104660009847002804DB2D18E468F3E7281C01E0D4
:104670000120404270BD38B544680D1C002C08D0A4
:104680002368201C9B68291C9847002802D1E468F5
:10469000F4E7201C38BD38B544680D1C002C07D049
:1046A0002368201C291CDB689847E4682D18F5E76F
:1046B0002C7038BD38B544680D1C002C08D0236818
:1046C000201C1B68291C9847002803D1E468F4E7E4
:1046D000201C00E0012038BD064B0122196810B5EE
:1046E0001140054805D1022404700424447041603F
:1046F0001A6010BDAC0F0020A40F00200B1C011C81
:10470000021C30B519430220002900D130BD8021A0
:1047100009068B4216D00D4904205C180C498C42C6
:10472000F4D90C4D5C198C42F0D90B4C5900490856
:104730000320A142EAD9074C0020A142E6D1504211
:104740005041E3E7002AE1D0EFE7C0460000F0FF68
:10475000FFFFDF7F0000F07FFFFF0F0002B4714614
:1047600049084900095C49008E4402BC7047C046B4
:10477000002934D00123002210B488422CD3012414
:104780002407A14204D2814202D209011B01F8E7A9
:10479000E400A14204D2814202D249005B00F8E762
:1047A000884201D3401A1A434C08A04202D3001B8E
:1047B0005C0822438C08A04202D3001B9C082243C1
:1047C000CC08A04202D3001BDC082243002803D0FF
:1047D0001B0901D00909E3E7101C10BC7047002831
:1047E00001D00020C04307B4024802A14018029043
:1047F00003BDC046D90000000029F0D003B5FFF783
:10480000B9FF0EBC4243891A1847C046002941D05F
:1048100010B4041C4C40A44601230022002900D5FA
:104820004942002800D5404288422CD30124240765
:10483000A14204D2814202D209011B01F8E7E4003F
:10484000A14204D2814202D249005B00F8E78842CB
:1048500001D3401A1A434C08A04202D3001B5C0843
:1048600022438C08A04202D3001B9C082243CC08A0
:10487000A04202D3001BDC082243002803D01B09FE
:1048800001D00909E3E7101C6446002C00D5404222
:1048900010BC7047002806D003DB0020C04340084E
:1048A00001E08020000607B4024802A140180290EF
:1048B00003BDC046190000000029EBD003B5FFF787
:1048C000A7FF0EBC4243891A1847C0467047C0462E
:1048D0008446101C62468C46191C634600E0C046A4
:1048E0001FB501F053F8002801D40021C8421FBDB4
:1048F00010B500F083FF4042013010BD10B501F04B
:1049000045F8002801DB002010BD012010BDC04685
:1049100010B501F03BF8002801DD002010BD01209A
:1049200010BDC04610B500F0B3FF002801DC002028
:1049300010BD012010BDC04610B500F0A9FF002831
:1049400001DA002010BD012010BDC0468446081CBD
:104950006146FFE71FB500F0C5F8002801D400212B
:10496000C8421FBD10B500F04BF84042013010BDE9
:1049700010B500F0B7F8002801DB002010BD0120C1
:1049800010BDC04610B500F0ADF8002801DD0020D4
:1049900010BD012010BDC04610B500F05BF8002826
:1049A00001DC002010BD012010BDC04610B500F094
:1049B00051F8002801DA002010BD012010BDC046CA
:1049C00038B50E4B0C4A041C0D1CFFF7B5FF002830
:1049D00004D1201C291C01F011FE38BD074B064AEA
:1049E000201C291C01F0E0FA01F008FE80231B06C0
:1049F000C018F2E7C046C046000000000000E041D9
:104A00004A02430270B55C0A550A43004A001B0E75
:104A1000C60F120EC90FFF2B05D0FF2A08D00120A8
:104A200093420BD070BD0120002CFBD1FF2AF6D1A0
:104A30000120002DF6D101209342F3D1AC42F1D1F7
:104A40008E4205D0002BEDD1201C441EA041E9E789
:104A50000020E7E74A024302F0B55C0A550A43002A
:104A60004A001B0EC60F120EC90FFF2B31D0FF2AB2
:104A700034D0002B16D1604260418446002A14D005
:104A8000002820D18E4217D1934215DC04DBAC42C2
:104A900012D80020AC4212D2704270414042012331
:104AA00018430CE0002AEDD194466F426F416046F6
:104AB000002805D1002FE5D0704201231843F0BD36
:104AC0000020002FFBD148424841404201231843B7
:104AD000F5E7002CCBD002204042F0E7002DC8D0F3
:104AE000F9E7C0464A024302F0B55C0A550A4300A2
:104AF0004A001B0EC60F120EC90FFF2B27D0FF2A2C
:104B000029D0002B10D0002A15D194466F426F4156
:104B10006046002815D00020002F04D148424841AB
:104B2000404201231843F0BD604260418446002AA0
:104B3000ECD00028F2D18E4211D0704201231843EC
:104B4000F1E7002FF7D0704201231843EBE7022072
:104B5000002CE8D1D3E70220002DE4D1D1E7934225
:104B6000EBDC04DBAC42E8D80020AC42DBD2704284
:104B70007041404201231843D5E7C046F8B55F466F
:104B8000564644464D46F0B40C034D00CE0F610A24
:104B9000440F2143C400180380465800400D82464C
:104BA000D80F84464046400A530F0343D0006D0D92
:104BB000371C83465246664500D19DE0AF1A002F50
:104BC00000DC03E1002A38D1184300D0E4E0630799
:104BD00009D00F232340042B05D0231DA342A44159
:104BE000644209191C1C080200D478E0CE4B6A1CF0
:104BF0009A4200D105E1CD4BE4081940480752051F
:104C0000490204430B0B520D371C002000211B03EB
:104C1000201C1C0B0B0D1B05C54D234352055208D0
:104C20001D4015436D006D08FF07291C39433CBC2E
:104C300090469946A246AB46F8BDBB488542C6D0D1
:104C4000802000040343382F00DDECE01F2F00DD3F
:104C500020E12020C01B1A1C814682405846F840A3
:104C60000243944658464A469040421E9041FB40BB
:104C7000624602431F1CA21A9442A4416442C91B0B
:104C8000091B141C0B02A2D549024F0A002F00D1A8
:104C9000C4E0381C01F0AAFD021C083A1F2A00DDFE
:104CA000B7E02821091A201C9740C84007439440C8
:104CB000954200DDA9E0551B691C1F2900DDD8E0E5
:104CC0001F22551B3B1C221CAB40CA40AC40651E3A
:104CD000AC411343CF401C43391C002577E74807FC
:104CE000E4086A05C908520D371C04438E4B9D42E7
:104CF00048D009030B0B88E7AA1A9446002A00DC67
:104D000098E05046002853D08748854200D15EE79E
:104D10008020000403436246382A00DDFDE01F2A9C
:104D200000DD4BE120226046101A1A1C82408246A8
:104D3000914658466246D0404A46024390465846FD
:104D400052469040421E9041424602436046C34054
:104D50001219A242A441644259180919141C0802EC
:104D600000D434E7704B01359D4200D124E16F4BF4
:104D700060081940012323401C1C0443CB071C433B
:104D8000490824E70B1C234300D1C7E180231B0300
:104D90000B431B031B0B38E7013F002F64D1584620
:104DA000221A9442A4416442C91A091B141C69E7DF
:104DB0005846184300D10AE7012252429444604603
:104DC000002800D0C5E058460219C2E7002F72D172
:104DD000681C4005400D012800DCDEE05A46A21A9E
:104DE0009442BF41C81A7F42C71B380200D488E0F2
:104DF0005A46141BA3459241591A52428F1A6646CD
:104E000044E7371C00230024FFE64849AD1A394027
:104E1000DDE6271C28388740002449E7201C01F0E4
:104E2000E5FC203038E75A461A43531E9A41D2B265
:104E3000002720E7002A00D0DDE0681C4205520D63
:104E4000012A00DC8EE0384DA84200D1B3E05D4677
:104E50002A19A242A441644259180919CC075208E0
:104E600014434908051CB2E62F48854200D0EAE603
:104E7000ADE62B1C1F3B3A1CDA40131C20296DD0D9
:104E80003F22551BAF403C43601E84411C43002120
:104E900000259CE6381C20381A1CC240101C202F0C
:104EA0005ED04022D71BBB405A461A43531E9A413C
:104EB00002430027DFE6002D3CD01B4DAA4500D160
:104EC00094E080252D047F422943382F00DDADE09A
:104ED0001F2F00DD2CE12025ED1B081C261CA840FF
:104EE000FE40AC400643651EAC413443F9405D468C
:104EF0002C1BA34592415B1A5242991A55466646AD
:104F0000C0E6131C3B43141C002B00D0BEE6002758
:104F10000022002500210024E8E65A461A43531EC9
:104F20009A41D2B2002313E7FF070000FFFF7FFF83
:104F3000FFFF0F800D1C254358D0FF43002F51D198
:104F4000041BA3459241591A5242891A5546664696
:104F500098E69648854200D0DDE638E6002792E7DD
:104F60000023A1E7081C2043002D00D0C0E000284A
:104F700000D1FBE05846184300D128E658460219F4
:104F8000A242A441644259180919141C0A0200D40F
:104F90001DE6874B0125194019E6081C2043002D0A
:104FA00039D100286DD15946194300D1BDE0191CF3
:104FB0005C4666460BE6051C2A1CABE760462038BB
:104FC0001A1CC24060469146202800D1ABE0402226
:104FD000121A93405A461A43531E9A414B461A439B
:104FE0000023B5E6714DAA4500D06EE7191C5C465A
:104FF00055466646EBE5002D1ED10D1C254373D0AA
:10500000D543002D6DD15C445C4592415918524204
:1050100089185546A3E6002849D15946194300D1BD
:1050200096E0191C5C466646604DD0E50C43611E57
:105030008C41E4B200215AE75C4DAA4554D0554258
:10504000802210040143382D00DD85E01F2D00DD96
:1050500095E02022501B0A1C84468240201CE84018
:105060000243904662469440601E84414246144387
:10507000E9405C445C459241CB1852429918554630
:105080006DE65846184300D1A1E55846271ABC42A0
:105090009241C81A5242801A02026AD55846041B2D
:1050A000A3459241591A5242891A66468FE55846DD
:1050B000184336D04807E40804438020C908000399
:1050C000014208D0DD08054205D15946CA085C07EF
:1050D0001443291C6646630FC9001943E400334D8D
:1050E00075E5324A9245AED1191C5C4655466EE5CF
:1050F000002837D05846184313D080254807E408C5
:10510000C9082D0304432942E5D0D8082842E2D13A
:105110005D46EA085C071443011CDCE70023002419
:1051200073E5224D53E5002354E700270022F1E602
:105130003D1C203D0A1CEA40151C202F31D0402682
:10514000F71BB9400C43611E8C412C430021CEE675
:10515000164A0027151CDDE60C43611E8C41E4B2A3
:10516000002186E7191C5C46104D30E5191C5C4691
:105170002DE5031C3B43D8D0011C3C1C27E5202017
:10518000404240190A1CC2409046202D0BD04020BE
:10519000451BA9400C43611E8C4145462C43002110
:1051A00067E70021CEE70021F4E7C046FF070000D3
:1051B000FFFF7FFFF0B5564644465F464D46F0B4CC
:1051C0001F1C0B031B0B98464B0087B0041C814629
:1051D0005B0DC80F161C9A460090002B51D06A4BED
:1051E0009A4531D08022414652030A43630FD200D0
:1051F0001A43664B90460025E20091469A440024EB
:1052000002953B031B0B9B46FD0F7B00311C5B0D86
:10521000019560D05C4A934254D08021584649039E
:105220000143720FC9001143584A8B469B18F10085
:105230000020009A04436A4003920F2C00D9ADE08D
:10524000534EA4003459A746404604436ED1002172
:1052500002250824884689460295D2E7009C0298D8
:10526000C34649460194022864D0032800D1ABE22A
:10527000012800D038E2019A002402400025A1460E
:1052800060E0434623434AD04046002800D1C0E1B5
:1052900001F0ACFA031E272B00DDB3E128210D1A23
:1052A000211C083B4246E9409A400D1C1543221C34
:1052B0009A40A8469146374B00251B1A9A4600246F
:1052C00002959EE75A4616430320002EB1D1B346FD
:1052D00000210220ADE75A4632431BD05B46002B2B
:1052E00000D18AE1584601F081FA272800DD7DE1EE
:1052F0002822171A011C321C08395B46FA408B40E1
:10530000171C1F43331C8B40BB46191C214B1B1A17
:1053100000208EE70027BB460021012089E70020FE
:10532000012504248046814602956AE703250C2462
:10533000029566E7019C0394039D01222A40002404
:10534000114DA146002000212403260B0C0D24053D
:10535000114B34432D0523402B435B005B08D207E0
:10536000191C4846114307B03CBC90469946A246DA
:10537000AB46F0BD0022802424039146024DE1E7B4
:1053800000240025A146DDE7FF07000001FCFFFF28
:1053900030A000000DFCFFFFFFFF0F805546ED1A07
:1053A0000495D84500D953E100D14EE1049C002575
:1053B000013C4E4604944746A946584603020C0E4B
:1053C0001C430902250C23041B0C0091381C291CCA
:1053D0000193FFF7CDF9019983464143381C8A4672
:1053E000291CFFF709FA330C090419438A450CD923
:1053F0005B460919013B8C4200D947E18A4500D838
:1054000044E102225242934409195346CB1A181C14
:10541000291C9846FFF7ACF9071C0198291C784312
:1054200082464046FFF7E8F936040B04360C334356
:105430009A4509D91B197A1E9C4200D924E19A4544
:1054400000D821E1023F1B195E4632041743380C95
:10545000BB46009E009F51463F0C32045B1A5946E2
:10546000BA46120C0F043F0C904651467A434F4304
:105470004146414356467043CF19160CBE19B142FE
:1054800002D980277F02C019310C12043604120C95
:105490004018B618834200D2C4E000D1BEE0191A09
:1054A0004846861BB145BF417F42CF1BA74200D172
:1054B00013E1291C381CFFF75BF901990290414365
:1054C000381C8946291CFFF797F9330C0904194346
:1054D00089450CD9029B0919013B8C4200D9FFE098
:1054E000894500D8FCE0029F0919023F02974F4608
:1054F000CF1B381C291C0597FFF73AF9071C0198A8
:10550000291C784381460598FFF776F9360409048B
:10551000360C0E43B14509D936197B1EB44200D969
:10552000E0E0B14500D8DDE0023F3619029D494672
:10553000761A290439430B0457460A0C1B0C4046C3
:105540004546584355437B437A43EB18070CDB1918
:105550009D4202D980256D0252191D0C00041B04C6
:10556000000C52191B18964235D300D1FCE00123E0
:105570001943049E994FF519002D00DCA1E048075E
:1055800009D00F230B40042B05D00B1D8B42894102
:1055900049428B44191C5A46D20107D5904B5C46B0
:1055A000049E80271C40FF00A346F5198D4B9D42A9
:1055B0007ADD039C0122224000248B4DA146C1E6E6
:1055C00080242403474627424CD13C432403240B28
:1055D000009A854DB6E63619481EB4425ED9011CC4
:1055E0009642C4D1009E9E42C1D1C2E7031C283B13
:1055F000311C99408B46002188E6301C01F0F6F8FA
:10560000203072E6283B211C9940002288469146B2
:1056100051E6201C01F0EAF820303BE60021B145BC
:1056200000D33DE7009F5A46B944B945BF417F4288
:105630003F19FB18013A9C421ED2984200D97EE0E5
:1056400000D1B5E0191A93462AE7894500D8ADE69E
:105650004846464642467708D3074608C0071E43D9
:105660008146AAE65846204212D1044324032A1C4C
:10567000240B89465C4D65E6A342E3D1009F4F456C
:10568000DBD9211A93460BE7171CDDE69B46BCE6E7
:105690003C432403240B009A534D53E6B24259D89D
:1056A00000D18AE0011C62E75F46C9087B07039EC0
:1056B0000B437C026D0501229946240B6D0D32408F
:1056C00040E64A4B049FDB1B382B10DD039C012274
:1056D000224000240025A14634E60121494248E742
:1056E000029304E71F1C21E7019C039441E71F2B51
:1056F00040DC3F48049F0C1C3A1858469140DC405F
:10570000904020430A1C511E8A41011C11435A46F5
:10571000DA40131C480709D00F220A40042A05D09A
:105720000A1D8A42894149425B18111C1A0234D56C
:10573000039C0122224000240125A14602E6009F8D
:1057400002214942B9448B44B9458941494209196A
:10575000CB18A4E6009D881E6900A942AD416D42A8
:105760002C19361900913AE7002B00D033E70024BA
:10577000009437E71F4A049C5D46121BD5402A1C43
:10578000202B1FD01C4E5F46A3199F403B1C194382
:105790004B1E994111430023BCE75A07C9080A432D
:1057A000039F91465B0201221C0B3A400025C9E58C
:1057B0004E45C4D89346002172E6009F9F42C9D34C
:1057C000011C0FE70023E2E7802424035F463C43EB
:1057D0002403240B019A8946034DB3E5FF0300001F
:1057E000FFFFFFFEFE070000FF07000002FCFFFFB7
:1057F0001E040000E2FBFFFF3E040000F0B55F4620
:1058000056464D464446F0B40D1C041C8046E80F35
:10581000814618030F03000B3F0B83B084461B48DF
:10582000009749005E00DF0F490D9246760DBB469A
:1058300081420CD01548864210D00120B14215D0CB
:1058400003B03CBC90469946A246AB46F0BD009FD3
:1058500001202743F4D10D488642EED16046024331
:105860000120002AECD10120B142E9D1009B63451F
:10587000E6D1D045E4D1D94506D00029E0D11C437A
:10588000201C441EA041DBE70020D9E7FF070000F1
:10589000F0B55F4656464D464446F0B4CD0FDE0F98
:1058A000AC461D032D0BB146374E0F034C00AB46E3
:1058B0005D0080463F0B640D92466D0DB44232D0C0
:1058C000314EB54235D0002C0ED1384341424141D2
:1058D000081C002D0BD0002919D1CC452DD06546D0
:1058E00068420123184318E0002DF6D1281C5946C0
:1058F0000A4353425341002806D1002BEDD06346A2
:1059000058420123184308E00020002B05D14A46E5
:10591000504250414042012318433CBC90469946B6
:10592000A246AB46F0BD3E1C0643C9D00220404211
:10593000F3E75E461643C6D0F8E7AC4207DC0BDA65
:10594000614648424841404201231843E5E7664624
:10595000704201231843E0E75F450AD80ED00020CB
:105960005F45DAD2654668426841404201231843E8
:10597000D3E76246504201231843CEE7D045F8D81A
:105980000020D045EED3C8E7FF070000F0B556462B
:105990004D4644465F46F0B40D1C83B0041C019094
:1059A000E80F814618030F03000B3F0B8446354870
:1059B000009749005E00DF0F490D9246760DB8460C
:1059C000814234D02F48864236D0002918D0002E8C
:1059D0001FD1341C67463A4353425341002C1FD019
:1059E0000020002B05D14246504250414042012345
:1059F000184303B03CBC90469946A246AB46F0BD66
:105A00000098044360426041041C002EE2D000284C
:105A1000E9D1C14515D04F46784201231843E8E744
:105A2000002BF6D04B46584201231843E1E7009F74
:105A300002202743DDD1C5E7674602201743D8D1AE
:105A4000C3E7B14204DD4A46504201231843D0E780
:105A5000B14207DB00986045E4D80AD0009F0020DF
:105A60006745C6D24F4678427841404201231843E9
:105A7000BFE7019A5245D5D8019A00205245F1D38B
:105A8000B7E7C046FF070000F0B5564644465F46FC
:105A90004D46F0B41F1C0B031B0B9A464B0087B0FE
:105AA000041C80465B0DC80F161C02938146002B18
:105AB00068D0694B0299994232D0802253465203F2
:105AC0001A43D200630F1A439246644AE0008918D1
:105AD00080460291002400253B031B0B9B46780067
