:10000000008000206D52000057520000575200003F
:1000100000000000000000000000000000000000E0
:100020000000000000000000000000005752000027
:10003000000000000000000057520000C152000004
:10004000575200005752000057520000550E000052
:10005000ED51000057520000575200005952000065
:1000600057520000B91200005752000057520000CA
:10007000BD0C000057520000C9120000575200008A
:100080005752000057520000492D000057520000FF
:100090000000000057520000575200005752000065
:1000A00057520000575200005752000057520000AC
:1000B0000000000010B5064C2378002B07D1054B3B
:1000C000002B02D0044800E000BF0123237010BDC4
:1000D000B001002000000000DCC9000008B5084B9A
:1000E000002B03D00748084900E000BF0748036819
:1000F000002B03D0064B002B00D0984708BDC0460C
:1001000000000000DCC90000B4010020AC010020A8
:1001100000000000F0B5484B85B01978474D002924
:100120007BD06421464801F085F9464F0090041CBD
:100130004549381C0122002303F072F90026F30020
:100140000096EB1819685A68381C02910392002334
:100150003E490122013603F063F90A2EEFD1002255
:100160000023D10069180A604B6001200021121899
:100170004B410A2AF5D1002BF3D11E1C314FF3005D
:100180000096EB1819685A68381C029103920023F4
:100190002E490122013603F043F90A2EEED1012641
:1001A000C8239B0000962648211C2A1C01F08AF9CE
:1001B0000094031C381C002B15D02549321C002349
:1001C00003F02EF90022C82300929B001C48211C3A
:1001D0002A1C01F055F9031E07D00094381C1D4954
:1001E000321C002305E01C4902E01C490094381C25
:1001F000321C03F015F90024E3000094EB18196891
:100200005A681048029103920023104901220134D8
:1002100003F006F90A2CEFD10BE0114B19706818A6
:1002200000220023026043600831C8239B009942EA
:10023000F5D105B0F0BDC046E2020020E802002082
:10024000080600202C0D002058B000007EB00000F1
:100250009FB0000026B10000E4B000006CB10000C7
:10026000E30200200023181C0649C9180A684968DF
:100270000A4301D00130C0B2C82208339200934231
:10028000F2D17047E802002030B50023074DDC00B2
:100290002C192568DAB2854202D164688C4203D0F9
:1002A0000133642BF2D11A1C101C30BDE80200206F
:1002B00070B5041C0D1CFFF7E7FF63280FD900235E
:1002C0000749DA008A1811685668D8B2314302D15A
:1002D0001460556003E00133642BF1D1181C70BD2C
:1002E000E802002000230649DA0089180A684968F4
:1002F000D8B20A4303D00133642BF4D1181C7047E1
:10030000E8020020F0B595B06D462A35FB23DC4F9E
:10031000DC4C2B7000266B46009601960296381C2A
:10032000211C2A1C2B3302F065FA0690B04227D01C
:1003300001210D2005F008FA2B78381CE65402F054
:1003400007F80690FFF78EFF069ACF4900922B22FE
:100350006A4413780290019303942B78012204934A
:10036000CA48331C03F05CF8381C01F0F1FFC74E9B
:10037000FE2800D09AE02B78102B00D096E005E004
:1003800006990D2005F0E0F90020B9E1C04B1A787C
:10039000002A03D1BF48012102F0FCFF1022201CDB
:1003A000002108F0D7F9002508900991201C291C8C
:1003B0001022A779A57108F0BFF9B74BA7711B6888
:1003C000984201D0B5489AE008980999FFF75CFF78
:1003D000071E632F01D8B24805E0FFF783FF071E11
:1003E000642F04D1AF4801212A1C02F0D3FFA84B8F
:1003F0001B78002B01D0642F21D10BADFF2300937C
:10040000A949221CFD23281C08F0F0F8A749012265
:1004100000230095301C03F003F86B462B331B7848
:100420009748291C162202F05CF9002856D0009546
:10043000301C9F490122002302F0F2FF4EE00137F9
:100440009C49012200230097301C069702F0E8FF28
:10045000069B0BAC009394498A4AFD23201C08F0AC
:10046000C5F89549012200230094301C02F0D8FF02
:100470006B462B3316221B788148211C02F031F980
:10048000021E10D000228D48012102F083FF0B22B2
:100490000792079B013BDBB20793002B36D18848BC
:1004A0000121079ABDE087480121BAE02B78212B72
:1004B00000D0D3E0734C1F21201C02F04BFF051C21
:1004C000201C1F300021102208F036F9C0B28542EE
:1004D00007D07D480121002202F05CFF0D200021A1
:1004E00050E70025201C291C1022A679A57108F0D0
:1004F00023F9694B1B68984200D19FE073480121A2
:100500002A1C02F047FF0D20291C3BE76F462A37C3
:1005100013233B705B4D2B2300246B440093019409
:10052000029403945648291C3A1C694B02F0BFF907
:10053000A042AED05248EC7401F00AFF061CFFF74F
:1005400091FE2B22019000966A4413780395029342
:100550003B784E4804935F490122231C02F060FF60
:10056000474801F0F5FEFE2893D13B78132B90D13C
:10057000281C211C1022113008F0DEF8211C061C5A
:100580001022281C2C7408F0E5F8089B984280D1B2
:10059000099A914200D07CE7069BF6B29E4200D0B9
:1005A00077E70D20012105F0CFF83B784A49EC545C
:1005B0003A232B740122231C0095344802F030FFAB
:1005C000069A0BAE4549FD232C74301C00922A1C60
:1005D00008F00CF86846433002F048FF2B220096E2
:1005E0006A4413783E4901930122231C274802F0F4
:1005F00017FF2B226A44137821482122311C02F074
:1006000070F8021E39D001213648221C02F0C2FEC9
:1006100008980999FFF74CFE642823D1214801214D
:10062000221C02F0B7FE012100222F4802F0B2FE88
:100630000D20002105F088F8012061E01022201C27
:10064000291CA671267C257408F084F8FFF71CFE8F
:10065000642801D1254852E72674E4E724480121A3
:100660000022DEE7234B34742349009301960122D4
:10067000231C064802F0D4FED5E7204814E7C04604
:10068000CC010020F40A0020AFB100002C0D0020A6
:10069000E1020020CEB10000280D0020E7B10000EB
:1006A0001AB2000038B200006EB200007BB2000047
:1006B000E9B2000054B3000095B30000FBB30000A2
:1006C000AFB50000F3B5000031B6000046B600003B
:1006D0008813000032B4000051B4000091B400004F
:1006E0009FB40000EEB4000099C5000073B600008E
:1006F00097B6000035B500002DB5000058B50000D4
:1007000015B0F0BD38B5041C07F092FF002301219D
:100710001A1C451EAB420BDAC51A6519013D2D782E
:100720000133303D4D4352190A256943DBB2F0E7EE
:10073000101C38BD37B5102200214A4807F0FCFFD5
:10074000494B002118601E2004F0A4FF474B0021F4
:10075000186804F09FFF464B0021186804F09AFFC8
:10076000444B0021186804F095FF434B01211C689D
:10077000201C04F08FFF201C012104F0E5FF3F4BFB
:1007800001211C68201C04F085FF201C012104F0BD
:10079000DBFF0D20012104F07DFF0D20012104F07D
:1007A000D3FFE1214902364802F0AEFF354804F09C
:1007B000CDFD354D0021281C00F016FD334C281CC2
:1007C000E1782279637900F08DFB2378A178627853
:1007D000281C00F0D3FB002201212D4802F0DAFD95
:1007E0002C48002100F0F8FD2B4B021C187003D19F
:1007F0002A48012102F0CEFD294800F079F9294864
:1008000001F08CFD284B021C187004D101212748EF
:1008100002F0C0FD09E0264C2649201C02F068FBCE
:10082000201C1721002202F0C3FC234802F07EFEA8
:10083000224D002428606960FFF76CFC204B211CCE
:100840001C70204B0D201C7004F07EFF2B681E498D
:1008500001936D6801220095231C1C4802F0E0FD05
:1008600037BDC046AEB60000280D00206CC40000A5
:1008700064C4000068C4000060C4000070C40000CC
:100880002C0E0020983A00002B0E0020ED0A0020CC
:10089000B5B6000008060020E2020020D7B600002E
:1008A000E8060020CC010020F30A002001B7000078
:1008B000F00B00203333654404000020200D00209D
:1008C000E0020020E406002029B700002C0D0020E3
:1008D00008B5064B064A1978064800F047FD064859
:1008E0000649FD2201F0D2FE08BDC04660C40000EA
:1008F0002409002008060020CC010020F00B002075
:10090000F7B53E4D281C02F077FE002815DD3C4C63
:10091000281C267802F098FE3A4A23789055D25C3B
:100920000A2A03D1384B01221A70EAE70133DBB2FD
:100930003F2B00D900232370E3E7334A01251378C6
:10094000002B59D02E4F2F4E397800247454023981
:1009500089B2301C02F0FEFC01903878211C02386C
:100960003018102207F0E8FE019BC0B2834209D084
:10097000291C221C254802F00DFD234A3C701470EE
:10098000251C39E03378502B1ED0542B02D0432B3A
:1009900027D10AE0701CFFF7B5FE011C1C4800F0CF
:1009A00051FB02F073FD1B481CE01B490022002391
:1009B00009190A604B600834C8239B009C42F4D19B
:1009C0001648012100220FE07378302B05D0312B1F
:1009D0000CD1134B13481D7004E0114B12481C70CE
:1009E00000E01248291C221C02F0D4FC044A002317
:1009F0001370054A01251370281CFEBD2C0E002023
:100A0000E0020020A4060020E406002056B7000003
:100A10002B0E002079B70000E80200209CB70000F0
:100A2000E1020020D1B70000B8B70000E9B700002C
:100A300008B5FFF767FCFFF763FF08BD00207047AC
:100A4000F8B5051C0F1C161C0024B44208D02B68F6
:100A5000395D1B68281C9847002801D00134F4E751
:100A6000201CF8BD7047031CFC33196ADA699142F7
:100A700003D01B6AC018007E01E00120404270478D
:100A8000031CFC33D8691B6AC01A01D50130FF3042
:100A900070470000F7B50193FA239B008360134B66
:100AA0008026002576000833041C0F1C4560291C95
:100AB00000920360321C183007F06AF8231C902261
:100AC000FC335200DD61A0181D62321C291C07F0A6
:100AD0005FF887229200A3185D60019A9D60009BD9
:100AE0002761A575201C23756275FEBD08B800003E
:100AF00070B50D49041C006904F09AF8206903F0F0
:100B00006FFF1826207D331C4343084D0821EB1846
:100B1000595604F061FE607D08214643AD196956BF
:100B200004F05AFE70BDC046A086010030B8000037
:100B3000031CFC335A6810B501329C68D2B2A24241
:100B400002D05C6801555A6010BD10B5827D00234B
:100B50009A420DD08724A400021954689268013487
:100B6000E4B2944204D02130FF30FFF7E1FF0123CB
:100B7000181C10BD031CFC3399685A68914206D0BA
:100B80009A68805C9A680132D2B29A6001E00120D2
:100B90004042704708B51830FFF7ECFF08BD38B584
:100BA000041C006903F065FF002800D184E020697F
:100BB00003F06DFF00280ED1206903F072FF0028BA
:100BC0001FD0206903F068FF00281AD0206903F0C5
:100BD0006DFF002815D1206903F01EFF2069032155
:100BE00003F024FF8C239B00E558002D04D02368DC
:100BF000201C1B699847A847FC340023E36123624B
:100C00005AE0206903F04DFF031C2069002B19D026
:100C100003F002FF2069032103F008FF206903F0BD
:100C200045FF002848D087229200A31800225A606E
:100C30009A600123A3758B239B00E35893423BD01A
:100C4000984739E003F01EFF002835D0206903F0F3
:100C50002DFF002816D087239B00E2185168936867
:100C6000CB1A01D50133FF33FF21002B05D0902291
:100C70005200A018FFF77EFFC1B2206903F0ECFE1E
:100C8000A07519E0231CFC33DA691B6A0132D2B269
:100C900020699A4202D103F0B7FE09E003F00BFF8E
:100CA000011C201C1830FFF743FF206903F0B4FE3D
:100CB0002069032103F0BAFE38BD000008B50248E0
:100CC000FFF76DFF08BDC046E806002008B50348E1
:100CD000034914221523FFF7DDFE08BDE8060020B6
:100CE000B00A0020437A002B04D18372C372C36020
:100CF00001234372704730B585B0041C02AD006813
:100D00000291039203F048FE6B79E179227A009315
:100D10002068002303F068FF29792068029A03F015
:100D20000BFE206803F02EFE05B030BD70B5041C2C
:100D30001826FFF7D7FF2079331C43430D4D0821B8
:100D4000EB18595604F048FDA079331C43430821A1
:100D5000EB18595604F040FD607908214643AD195F
:100D6000695604F039FD044B201C06CBFFF7C3FF86
:100D700070BDC04630B800001C09002010B5041C2E
:100D8000006803F0F1FD0023637210BD07B5837A9C
:100D900000910192002B0DD09A0706D5EFF3108336
:100DA0005A425341C37272B604E0DA0702D582890F
:100DB000034B9A600099019AFFF79DFF07BDC0465B
:100DC00000180040837A002B0BD09A0704D5C37A11
:100DD000002B06D062B604E0DA0702D58289014B07
:100DE000DA6070470018004008B5006803F0DDFDC8
:100DF00008BD70B5061C0C1C8D18AC4206D02178BD
:100E0000301CFFF7F1FF20700134F6E770BD70472A
:100E100070470000094B0A4A0A491A6000225A71B9
:100E20001A71094B1960162119711821997117212E
:100E3000597101215A72D9711A7270471C09002028
:100E400000093D00C00A002024090020002303708F
:100E50007047000008B5044B1B68002B00D0984772
:100E6000024B01221A7208BD340900200014004010
:100E70000378002B0AD0064B081C19693F2210404A
:100E80009143014319619A7AD209FCD17047C04657
:100E9000001400400378002B0BD0064B3F2211407A
:100EA0008A01186904490140114319619A7AD209EB
:100EB000FCD17047001400403FF0FFFF0378002B87
:100EC0000BD0064B1F2211400A0318690449014048
:100ED000114319619A7AD209FCD17047001400407D
:100EE000FF0FFEFF70B5161C0278041C0D1C002AB3
:100EF0000AD0191CFFF7BCFF201C311CFFF7CAFFEA
:100F0000201C291CFFF7DAFF70BD00000378002BBE
:100F10000BD0064B1F2211404A04186904490140B6
:100F2000114319619A7AD209FCD17047001400402C
:100F3000FFFFC1FF0378002B0BD0064B0F2211409F
:100F40008A05186904490140114319619A7AD20946
:100F5000FCD1704700140040FFFF3FFC0378002BDA
:100F600009D0054B8A06196989018909114319615C
:100F70009A7AD209FCD170470014004070B51D1C4C
:100F80000378041C161C002B09D0FFF7BFFF201CA0
:100F9000311CFFF7CFFF201C291CFFF7DFFF70BDBE
:100FA000037873B5002B3ED01F4B994200D81F49E0
:100FB00001A8019106F078FD1D4B44691969643C54
:100FC0008901A40689092143196104690F210134AB
:100FD0001D690C401749A405294021431961C568C2
:100FE0001E691F21144C0D406D0434402C431C61BC
:100FF00084681D6921400C0310493F222940214388
:10100000196144681D690E491440A4012940214317
:1010100019610168186911409043021C0A431A6162
:101020009A7AD209FCD173BD7F436D3880436D3805
:1010300000140040FFFF3FFCFFFFC1FFFF0FFEFF5A
:101040003FF0FFFF08B50378002B03D0024BC9180F
:10105000FFF7A6FF08BDC04680436D380A4B0B4A18
:101060009A605A7852B2002AFBDB0949064A51605D
:101070005A7852B2002AFBDB0649034A51805A785B
:10108000D209FCD17047C046000C004002040000A9
:1010900002051100044200000378002B05D0034B29
:1010A000034A5A809A7AD209FCD170470014004052
:1010B0000080FFFF08B5FFF7EFFF024B18693F23E1
:1010C000184008BD0014004008B5FFF7E5FF024BCB
:1010D00018690005800E08BD0014004008B5FFF730
:1010E000DBFF024B1869C003C00E08BD00140040AE
:1010F00008B5FFF7D1FF024B18698002C00E08BD8A
:101100000014004008B5FFF7C7FF024B18698001C3
:10111000000F08BD0014004008B5FFF7BDFF024BEB
:101120001869800E08BDC0460014004000B58BB0A1
:10113000FFF7B2FF0F4B01221B69524209920022B6
:10114000089207929A0E643206929A01120F013A9F
:1011500005929A02D20E0492DA03D20E03921A0575
:101160009B06920E9B0E01A80292019306F0E0FDF1
:101170000BB000BD0014004008B5FFF7D7FF014BCE
:10118000C01808BD80BC92C7044B02211A888A434C
:101190001A809A7AD209FCD17047C04600140040E8
:1011A000044B02211A880A431A809A7AD209FCD188
:1011B0007047C04600140040044B01211A880A43BE
:1011C0001A809A7AD209FCD17047C04600140040B8
:1011D000044B01211A888A431A809A7AD209FCD1D9
:1011E0007047C04600140040F7B52B4B0F1C9A699E
:1011F00020210A439A61294A294B0026051C9A821C
:10120000284CB7420AD1284B1A7870231A4240D092
:1012100023881A073DD5226901260192281CFFF771
:101220001DFF281CFFF7B0FF281CFFF7C5FF6288D1
:101230001E4B134063801E4B2380A27A194BD209A8
:10124000FBD11C4A08211160C021890050580002BE
:10125000000A5050DA7901210A43DA711A7F072116
:101260008A431A77A37ADB09FCD1281CFFF798FF81
:10127000281CFFF7ADFF002F02D001232B70F7BD14
:10128000002EFAD0074B019A1A61A37ADB09FCD130
:10129000F3E73E1CC2E7C04600040040CE06000053
:1012A000000800400014004038040040FFBFFFFF6A
:1012B000080A000000E100E008B5024803F024FE3F
:1012C00008BDC046F409002008B5024803F01CFE22
:1012D00008BDC04638090020F7B5164F1649381C1E
:1012E00003F0ACFA1549164803F0A8FA1549164858
:1012F00003F0A4FA1549164803F0A0FA1549164858
:1013000003F09CFA154D03260124281C144903F010
:1013100095FA391C0096231C01940022114803F011
:1013200013FD0096291C01941F221E230E4803F072
:101330000BFDF7BDB40A002000080042000C00427B
:10134000B80A002000100042BC0A0020001400422D
:10135000B00A002000180042C00A0020C40A002081
:10136000001C0042F409002038090020F8B5174B92
:101370000025041C0360171C4571057105720422C9
:101380000E1C1130124906F0E1FB631C6577A5774E
:10139000E5775222DD772A331A7057225A700023DC
:1013A00023630C4BA567E567E7609F4201D10A23E1
:1013B00000E00B23301C63752674012104F06AF9E8
:1013C000207C012104F0C0F9201CF8BD00093D007B
:1013D00050BC00002409002038B5437D041C0D1CBE
:1013E0000B2B02D0C068FFF7A1FC237A002B08D199
:1013F0001B226270492252422370A270E370237153
:101400006371291C201C00F03BF9051C201C00F016
:10141000ABFA201C00F074FB281C38BD10B5044C3E
:10142000002903D02178012200F0B0FB207810BD04
:10143000C90A002038B50D1C041C616F2A1C00F07D
:101440007BF9002807D1002019E0E26BEB186367F5
:10145000A367934208D2201C616F2A1C00F0F0F9A8
:10146000636F0028F1D007E0631CDA7F002AEAD11D
:1014700062670122DA77EEE7ED186567181C38BD60
:10148000F7B51E1C08AB1B780D1C0193171C03211C
:101490002A1C331C041C00F0CDFA051E10D0019B41
:1014A000201C0B21002B00D1032100F096F9201CF9
:1014B00003213A1C331C00F0E7F9201C00F054FA19
:1014C000281CFEBDF0B589B01D1C0EAB1B78049125
:1014D000059207930221049A2B1C041C00F0AAFA1F
:1014E000071E00D194E004998023CAB25B009B1AC6
:1014F0009BB29D421AD8207C002104F025F90221DC
:10150000201C00F047F9201C00F049F90026AE42EB
:1015100007D2059A201C915D013600F03BF9B6B266
:10152000F5E7207C012104F00FF941E00021AEB283
:101530000391321C9E4200D91A1C92B2207C0021D9
:10154000029204F001F90221201C00F023F9201C72
:1015500000F025F9059A039BD21806920192019991
:10156000069A8B1A02999BB28B4208D2019A201CD0
:10157000117800F00FF9019B01330193EFE7207C14
:10158000012104F0E1F8A26F0299201C5318039A7C
:10159000A3678B189BB22049039300F005FA00283B
:1015A00036D0201C012100F027FA002828D12FE096
:1015B000079B002B03D1201C00F0D6F929E0201C4A
:1015C000154900F0F1F9002822D00499207CA16788
:1015D000002104F0B9F80321201C00F0DBF8201CE6
:1015E00000F0DDF80026AE42E5D2201C002100F01C
:1015F000D1F8059A935D83420AD10136B6B2F2E77B
:101600000299731A9EB2002ED2D080235B0090E71D
:101610000027381C09B0F0BD404B4C0070B517498D
:10162000041C00F0C1F9051E25D09F21201C00F0EC
:10163000D4F80021201C00F0ADF8261C373630709D
:101640000021201C00F0A6F8231C3833187000215C
:10165000201C00F09FF8231C39331870207C0121D6
:1016600004F072F83678002E05D1201C0B21321CB4
:1016700000F08CFA351C281C70BDC046404B4C0055
:1016800070B5041C0E1CFFF7C9FF0025A84219D035
:10169000A577AE4207D0231C3433E663201C1D70AF
:1016A00000F01CF807E0201C00F0E8FA002804D045
:1016B000201C00F0D3FC012504E0201C02212A1C80
:1016C00000F064FA281C70BD0020914204D8012368
:1016D0008B4018430131F8E770470000021C0123DA
:1016E00064321370103A1370083A1370083A13708A
:1016F000031C453320221A7052221A72D8221A74FF
:10170000094B00228364094B0365094B8365031C65
:101710005C331A7060225A72064B836680237230E3
:101720005B0003807047C046404B4C00005A620289
:101730000068890900A0ACB9F8B50E1C0021041C92
:10174000171CFFF76BFEF7231840032813D0E56B37
:10175000002D05D1094801212A1C00F0E3FC0AE014
:10176000F219AA4202D3551BE56701E00023E367A3
:10177000A667012000E00020F8BDC046C90A00208D
:1017800010B5041C2168C0686268FFF7FFFA0120E9
:10179000607710BD08B5C068FFF726FB08BD10B51F
:1017A000C37F041C002B04D0031C7B331978FFF784
:1017B000F1FF231C7A331978201CFFF7EBFF231C61
:1017C00079331978201CFFF7E5FF231C783319784B
:1017D000201CFFF7DFFF012010BD38B5437F041C3C
:1017E0000D1C002B01D1FFF7CBFF207C002103F063
:1017F000ABFF0B2D0CD004D8022D13D0032D11D02C
:1018000018E0522D0ED0D82D0CD0202D12D109E089
:10181000291C201CFFF7BEFF201CFFF7C0FF201C67
:10182000EE2109E0201C291CFFF7B4FF201CFFF764
:10183000B6FF03E0201C291CFFF7ACFF012038BDD8
:1018400070B50321041C161CFFF7C7FF0025B54225
:1018500012D0201C0021FFF79DFFFF280AD0207C1A
:10186000012103F071FF07480721002200F05AFC14
:10187000002006E00135EAE7207C012103F064FF47
:10188000012070BDC90A002008B5022901D0032932
:1018900004D1111CC0681A1CFFF7ABFA08BD38B59B
:1018A0000521041CFFF799FF201C0021FFF772FFA0
:1018B000251DE877207C012103F046FFE87F38BD35
:1018C00038B51521041CFFF788FF201C0021FFF705
:1018D00061FFA51DE877207C012103F035FFE87F3B
:1018E00038BD000070B5051CFFF7EAFF0124204257
:1018F00015D1B721281CFFF770FF287C211C03F0AD
:1019000023FF281CFFF7DCFF061C264001D0EC77E4
:1019100005E004480D21321C00F004FC341C201C9E
:1019200070BDC046C90A002038B5051CFFF7C8FFC6
:101930000124204214D0E921281CFFF74EFF287C07
:10194000211C03F001FF281CFFF7BAFF204006D03E
:1019500004480E21002200F0E5FB002400E0E877B7
:10196000201C38BDC90A002010B50121041C007CD0
:1019700003F0EAFEE37F002B02D0201CFFF7D4FF28
:10198000E068FFF71FFA0023637710BD10B5847F6E
:10199000002C04D003480F21002200F0C3FB201CC0
:1019A00010BDC046C90A002070B5114B061C0C1CA6
:1019B000013BFDD103F098FC051C301CFFF76FFFC5
:1019C000331DDB7FDA0701D401200FE003F08CFC2C
:1019D000401BA042F1D303F087FC451BAC42F3D877
:1019E00004480421002200F09DFB002070BDC04689
:1019F00080BB0000C90A002038B5041C0D1C06215C
:101A0000FFF7EBFE207C012103F09EFE201CFFF778
:101A100046FF022318400124002807D1041C002D92
:101A200004D003480621221C00F07CFB201C38BD9A
:101A3000C90A0020F8B51E1C031C37331B78041C90
:101A40000F1C151CEF2B04D0022F0AD0EF2F1AD039
:101A500033E0234B9A42F7D9FFF744FF0028F3D134
:101A60003DE0201CFFF792FF002837D1201C291CE5
:101A7000321CFFF761FE002830D0201C291C321CCC
:101A8000FFF7DEFE09E0201CFFF780FF002825D1CC
:101A9000201C291C321CFFF74FFE00281ED0201CE2
:101AA0001049FFF781FF002818D0201C0121FFF703
:101AB000A3FF002812D0012011E0201CFFF766FFD1
:101AC00000280BD1201C291C321CFFF735FE0028F2
:101AD00004D0201C0349FFF767FFEAE70020F8BDA8
:101AE000FFFFFF00404B4C0010B50421041CFFF722
:101AF00074FE207C012103F027FE012010BD0000B0
:101B000038B5031C38331B78041C252B1BD1FFF779
:101B1000C6FE231DDD7F50213C23201C9D43FFF783
:101B20005CFE207C012103F00FFE0121201CFFF749
:101B300054FE291C201CFFF72DFE207C012103F000
:101B400003FE01251DE00125262B1AD10E49FFF7C2
:101B50002BFF051E15D0201C0121FFF74DFFA023F0
:101B6000013BFDD19821201CFFF737FE207C01218D
:101B700003F0EAFDC8239B00013BFDD1201CFFF7C9
:101B8000B3FF281C38BDC046404B4C0008B5024886
:101B900000F0C8FA08BDC046C90A0020F7B5019197
:101BA0001549041C171C1E1CFFF7FEFE051E20D045
:101BB0005A21201CFFF711FE6B469979201CFFF774
:101BC000E9FD6B465979201CFFF7E4FD01AB19785C
:101BD000201CFFF7DFFDEE21201CFFF7DBFD201CA2
:101BE00003213A1C331CFFF74FFE207C012103F038
:101BF000ABFD281CFEBDC046404B4C0073B50D1C10
:101C00000949041C161CFFF7CFFE0023984208D098
:101C1000711E890004234919201C01AAFFF7BEFF89
:101C2000019B181C76BDC046404B4C00F7B50F1CFD
:101C30000B491E1C051C141CFFF7B6FE002398421E
:101C40000CD0B919013CA400013909196C460734BC
:101C50000123281C221CFFF7A1FF2378181CFEBDBE
:101C6000404B4C0007B50222C900FFF7C7FF002216
:101C70006B460190DA7101980EBD000038B5002165
:101C80000122051CFFF7BAFF074B2C1C3634984283
:101C900001D1012305E0281C10210022FFF776FF67
:101CA00000232370207838BD53464450F0B5071CFC
:101CB0006D373B788BB0041C072B00D844E1011D25
:101CC000CA6F0591111C1C3108AA0823FFF766FF93
:101CD00000252E1C08A94B5DF618F6B2002E07D180
:101CE000201CFFF7FBFC201C1121321CFFF74EFFCC
:101CF0000135082DEED10AAA08ABD9071BD41878F4
:101D00000C38062817D803F051FE041616080C16D6
:101D10001000211C012044310AE0211C01204C311B
:101D200006E0211C0120543102E0211C01205C311D
:101D300008705878487001339342DED13B78092B04
:101D400000D8EDE0059A201CD26F111C01920A22E6
:101D5000FFF754FF0F22C3B21A4006930132231C2F
:101D600052006E33002103901A800491049AD20726
:101D700000D5A0E0049908ABC85C0C38062800D94F
:101D800099E003F013FE0498982E4F987D00039A73
:101D900000211504201C0A1CFFF796FC0421071CD7
:101DA0000722201CFFF790FC069E0121064002221C
:101DB000201CFFF789FC2D0E2F4036097F013E4382
:101DC00001360540F6B26D080023032D02D8614BA1
:101DD000AD00EB58221C6E32128856437343A36445
:101DE00069E0039B03210722201C1D04FFF76CFC04
:101DF00003992D0E05400E02201C00210122FFF741
:101E000063FCED08360E013506400023032E02D890
:101E1000504BB600F358221C6E32128855436B4368
:101E2000236548E0039A02211702201C0622FFF7CF
:101E30004BFC3F0E38408008072101300A1C0790F8
:101E4000201CFFF741FC039B0021061C0A1C201CE0
:101E50001D0EFFF739FC284037404000FF09061CE3
:101E60003E43F6B20023032E02D83A4BB600F35895
:101E7000221C6E32128807994A435343A3651AE025
:101E8000039A0121160E201C0522FFF71DFC0722D4
:101E9000051C0621201CFFF717FC30408009231C7D
:101EA0002C4A80006E331B8882582E40534376089C
:101EB00001365E43A665049B01330493082B00D0D2
:101EC00054E7231C6D331B780A2B41D9059A049BD8
:101ED000D16F201C283108AAFFF760FE231C0122C5
:101EE00064331A70039B00210422201C1D0EFFF78F
:101EF000EBFB0521061C0622201CFFF7E5FB2E400C
:101F000001360540F6B26D090023032D02D8114BAE
:101F1000AD00EB58221C6E3212885643734311E019
:101F20000022201C1221FFF731FE0B4B0022A3647C
:101F30000A4B23650A4BA365231C5C331A7060228D
:101F40005A72084BA36603E011210022FFF71EFE20
:101F50000BB0F0BD54BC0000404B4C00005A620274
:101F60000068890900A0ACB9F7B5031C6D331B7874
:101F7000071C041C72370A2B5FD9031DD96F0B2273
:101F8000FFF73CFE03041B0E1A110132251C520000
:101F900070352A800F22134001935B003B80061CA2
:101FA00000210422201CFFF78FFB07210A1C071CBD
:101FB000201CFFF789FB01992A880F40D2000137C6
:101FC0005743231C90331F6006210722201CFFF774
:101FD0007BFB06210722201CFFF776FB3602360E1C
:101FE0000521371C07400A1C201CFFF76DFBBF09A9
:101FF0003040013740090123002800D008232988F8
:10200000221C4F437B438832136004210122201C91
:10201000FFF75AFB371C002107400A1C201CFFF762
:1020200053FB7F0801370123064200D008232A888A
:102030008C3457437B4323600DE080235B003B805F
:10204000021C054B90321360083A13605360132151
:102050000022FFF79BFDF7BD404B4C0010B503235A
:1020600000210222041CFFF7E1FD231C0130C0B255
:102070006C331870012806D9201C0221FFF7F2FDED
:10208000231C0833D867012208210423201CFFF7F2
:10209000CDFD231C6D3318700121201CFFF7E2FDDC
:1020A000231D011CD8670222201CFFF7A7FD231C5B
:1020B000E0633F33010E002805DA7F220A401A70E0
:1020C000E26B5300E363E26B201CD3080133E3634C
:1020D000FFF7ECFD201CFFF747FF012010BD704704
:1020E00008B503480349044A05F0C6FC08BDC046CC
:1020F000C80A0020DF200000000000207047000018
:1021000010B5054C0549201C02F02CFB201C04498D
:1021100002F038FB10BDC0463809002075BC000035
:10212000A8BC000070B5061C0D1C3170002A6FD0D1
:10213000384C14295CD8081C03F038FC0B11141718
:102140001A21242B32383B0E35404346494C4F521E
:102150005500201C304948E0201C304945E0201C37
:102160002F4942E0201C2F493FE0201C2E493CE033
:102170002E49201C02F006FB201C2D4935E0201CB6
:102180002C4932E02C49201C02F0FCFA201C2B497F
:102190002BE02B49201C02F0F5FA201C294924E0F1
:1021A000201C294921E0201C28491EE0201C284928
:1021B0001BE0201C274902F0E5FA26E0201C2649F6
:1021C00013E0201C254910E0201C25490DE0201CAF
:1021D00024490AE0201C244907E0201C234904E08C
:1021E000201C234901E02349201C02F0CBFA05E022
:1021F000201C214902F0C6FA0A2D06D004232A1C0D
:102200009A43022A01D00B2D02D1301CFFF778FF30
:1022100070BDC0463809002032BD000051BD00002D
:1022200082BD0000C1BD0000FFBD000094BE0000E3
:10223000A2BE0000D2BE00001CBF00003EBF0000D6
:1022400081BF0000A4BF0000DEBF00002DC0000061
:102250006AC000008EC00000B4C00000D8C00000FA
:10226000FDC0000021C1000047C1000091C1000075
:10227000DEC100002DC2000061C2000008B50348A5
:102280000349044A05F0F8FB08BDC046C90A00200E
:10229000FD2000000000002001600271704708B5B9
:1022A000006803685B68984708BD08B50068036864
:1022B0009B69984708BD08B5006803681B6A984782
:1022C00008BD08B5006803681B6B984708BD70B56A
:1022D0000E1C041C191C151CFFF7F3FF2068311C91
:1022E00003682A1CDB68984770BD08B5006803685E
:1022F0005B6B984708BD08B5006803689B6B9847FF
:1023000008BD38B5041C00680D1C0368DB6A9847DB
:10231000291C201CFFF7EFFF257138BD38B5041CC0
:10232000006803681B689847051E03D02179201CAC
:10233000FFF7E7FF281C38BD08B500680368DB6BB2
:10234000984708BD08B5006803681B6C984708BD2E
:1023500008B5006803689B6C984708BD08B500681D
:102360000368DB6C984708BD08B5006803681B6DFF
:10237000984708BD08B5006803685B6D984708BDBD
:10238000F8B5041C00681D1C0368069F9B68079E27
:102390009847002398421AD09D4203D0201CFFF793
:1023A000DDFF2870002F03D0201CFFF7D1FF38700D
:1023B000002E03D0201CFFF7D7FF3070089B002BA6
:1023C00004D0201CFFF7D6FF089B18700123181CAF
:1023D000F8BD01207047002070478171704741713E
:1023E0007047C1727047C171704701737047417384
:1023F0007047837B9343194381737047C079C0B2A0
:102400007047007AC0B27047407AC0B27047807A95
:10241000C0B2704700207047408A80B27047808AFF
:1024200080B27047C08A80B2704710B5041C236820
:10243000201C5B689847002802D102F0A1FFF6E754
:1024400010BD10B5041C2379032B02D102F098FFB4
:10245000F9E7012010BD70B5041C0D1C02F03EFF11
:10246000061C02F03BFF801BA84208D22368201CF8
:102470005B689847002804D102F082FFF1E7002052
:1024800000E0012070BD70B5061C0C1C02F026FF98
:10249000051C02F023FF401BA04205D23379032B19
:1024A00004D102F06DFFF4E7002000E0012070BDD0
:1024B00038B5041CE3690120002B1AD002F00EFF8E
:1024C000051C2368201C9B6A984700280ED002F048
:1024D00005FFE369401B98420AD80A21012002F057
:1024E000AFFE6423584302F031FFEAE7012000E029
:1024F000002038BD074BFF2208330360002303711F
:1025000042714382C2728382027343738373C382B4
:10251000C361704770C200007047704770477047D2
:1025200070474171704781717047017170470000B9
:1025300010B5034C0171083404604271837110BD01
:10254000E0C200007047000008B50248FEF74CFCEE
:1025500008BDC0462409002008B50248FEF757FC14
:1025600008BDC0462409002008B50248FEF750FC0B
:1025700008BDC0462409002008B50248FEF7FEFB4E
:1025800008BDC0462409002008B5031C996802480C
:10259000DA68FEF7FBFB08BD2409002008B50248F5
:1025A000FEF710FC08BDC0462409002010B50379D1
:1025B000042B07D0032B07D0022B07D0012B07D108
:1025C0001D4B06E01D4B04E01D4B02E01D4B00E0DF
:1025D0001D4B81794479022200290BD0012906D0B4
:1025E000914206D003394A1E91414A1C02E0002262
:1025F00000E0032215498B4200D90B1C611E4C429E
:102600006141C9B2022A05D0032A05D0012A05D1A9
:10261000032204E0002202E0022200E001221C0A60
:10262000037244721C0C1B0E8472C37202734173DA
:102630000748FEF77BFB10BD80841E000024F400D9
:1026400000127A0000093D0040420F00001BB70055
:102650002409002010B5041CFFF76AFF044B201C5E
:1026600008332360034BA36000236373237310BDFF
:1026700018C3000000093D0008B5002102480A1CEB
:102680000B1CFFF7E7FF08BDCC0A002010B5041CA7
:10269000FFF702FEFA239B000021E381201C0623A2
:1026A0008022A160217323745200113005F070FA6A
:1026B000201C10BD37B5041C151CFFF73DFE201C67
:1026C00080210022FFF73EFE6946073121230B706F
:1026D00001222B1C201CFFF7FAFD201CFFF7E5FD53
:1026E00037BDF0B58DB0089109921D1C037B041C09
:1026F0000133DFB2077300235A1CD2B20692227C48
:102700009A4272D3201C391CFFF716FE201C0021B0
:102710008022FFF717FE201C0899099A2B1CFFF74F
:10272000D6FD201CFFF7C1FDFF2D60D0069A012ABF
:1027300002D9A3680133A36002F0D0FD8021059087
:1027400049000020E68902F07BFD7043C3171B0E91
:10275000181800123618B6B2079602F0BFFD079A95
:10276000059BD118091A00293BDD89B2201CFFF70F
:10277000A2FD002832D06B462E336E462D360193D3
:102780000021013302930096201C0A1C0BABFFF7BB
:10279000F7FD002822D00BAB1A78AA4201D0FE2DFB
:1027A0000DD131782379994209D16B462F331B78AB
:1027B0007F2B04D96B462E331B78BB4217D06B4658
:1027C0002F331B787F2B09D86B462E33A1181B782B
:1027D000497C994202D1201CFFF76CFF02F0D0FD2A
:1027E000BBE702F0CDFD069B86E7002000E001205C
:1027F0000DB0F0BDF0B589B0041C0D1C059204931A
:10280000FFF74DFD00282DD06E466B466F461E33F8
:102810001D361F370193291C00960297201C059A2C
:1028200007ABFFF7ADFD051E1CD03B787F2B19D8F9
:102830003178FE2902D1201CFFF757FD3378227929
:102840009A4211D0FE2B0FD007AA12786B461E3386
:10285000A4181B78617C99420ED169461D31097814
:10286000FE2909D000251FE06B46997F6B461A7F31
:10287000201CFFF71FFFE7E70499002900D00A702A
:102880000E9A002A04D06A461D3212780E990A70F8
:102890000F9A002A00D013701099002903D06A46BD
:1028A0001F3212780A706374281C09B0F0BDF0B5AD
:1028B00087B0041C0E1C171C059302F00FFD051CAD
:1028C00002F00CFD059BE918091A002916DD89B2F2
:1028D000201CFFF7F0FC00280DD00D9B201C00935E
:1028E0000E9B311C01930F9B3A1C02930C9BFFF72C
:1028F00081FF002804D102F043FDE1E7002000E061
:10290000012007B0F0BD72B6BFF35F8FBFF34F8FEA
:10291000BFF36F8F0120704710B5041C006A0534A7
:102920000368DB689847E07F012102F0B3FEE07F97
:10293000012102F009FF642002F008FD012010BD12
:1029400080F31088BFF35F8FBFF34F8FBFF36F8F9C
:10295000BFF35F8FBFF34F8FBFF36F8F70470000E0
:1029600070B5041C0D1C161CFFF7C4FD034B26623A
:1029700008332360631DDD77201C70BD50C3000049
:10298000F7B5041C0F1CEFF31086FFF7BCFF0028FF
:1029900014D0651DE87F002102F0D6FE206A7F2159
:1029A000036839401B689847206A002103681B6848
:1029B00098470190E87F012102F0C6FE301CFFF726
:1029C000BFFF0198FEBDF7B5041C00910192EFF323
:1029D0001086FFF798FF0025A8421DD0206A671DCA
:1029E00003681B6A9847291CF87F02F0ADFE206A35
:1029F000009A0368802111431B689847051C206AD0
:102A0000019903681B689847F87F012102F09CFE3A
:102A1000206A03685B6A9847301CFFF791FF281C07
:102A2000FEBDF0B585B0041C0D1C01920393EFF3BD
:102A30001087FFF768FF0026B04229D0206A03689C
:102A40001B6A9847611D0291C87F311C02F07CFE11
:102A5000206A7F21036829401B689847019D061C56
:102A6000019B03995A18D2B2EBB29A4207D0206A5E
:102A7000002103681B68984728700135F0E7029B26
:102A80000121D87F02F060FE206A03685B6A9847E4
:102A9000381CFFF755FF301C05B0F0BDF0B585B010
:102AA000041C0D1C01920393EFF31087FFF72BFF1B
:102AB0000026B04228D0206A03681B6A9847611D2F
:102AC0000291C87F311C02F03FFE206A802103681A
:102AD00029431B689847019D061C019B03995A18BE
:102AE000D2B2EBB29A4206D0206A29780368013547
:102AF0001B689847F1E7029B0121D87F02F024FE72
:102B0000206A03685B6A9847381CFFF719FF301C7E
:102B100005B0F0BD08B5006A03689B6A984708BD18
:102B200010B5C31C041CD87F02F03EFE0634431EC1
:102B30009841E37F584010BD08B50430C07F02F0D3
:102B400003FE08BD08B5431D0730C27FDB7F51403F
:102B5000181C02F0F9FD08BD10B50379041C022B06
:102B600008D00021FFF7EEFF201C0021FFF7E4FF53
:102B70000223237110BD0000082388101840031C95
:102B80000833DBB2984206D0044A125C8A4203D072
:102B90000130C0B2F6E700207047C046C0C3000055
:102BA000F8B5041CFFF7BCFF002805D0231C2A330E
:102BB0001A780132D2B21A70221C29321178231CE1
:102BC0002B3388420AD01D781D214F2D00D80B21B0
:102BD0001D786918C9B21970107003E01A781432A0
:102BE000D2B21A701A789F2A6AD9E28D5208E28509
:102BF000221C2A321178042904D9E08D8021090190
:102C00000143E1851978251C6031C9B21970002390
:102C100013702C352B78DBB2002B3FD0261C3036BE
:102C200033780133DBB233700B2B49D9E18D3F236D
:102C30001940201CFFF7A0FFE18D071C8909C9B2CC
:102C4000201CFFF799FF231C75333F011978384387
:102C5000221CC0B27432002915D01978C9B24F1C99
:102C600061183031FFB21F7048701978137899429B
:102C700011D300232B70231C08330122DA77201C88
:102C8000FFF76AFF07E010701178062912D9117852
:102C900043290FD8E1E70023337011E0E18D094AA1
:102CA00091420DD101222A70221C303275341370EA
:102CB000237005E000232B70638A01339BB263828B
:102CC000F8BDC046380B0000F7B5051C78352F78E5
:102CD000041C7B1C2B70002F23D1021C7632019226
:102CE00013788932127A9A4206D8FFF735FFE38AC1
:102CF00001339BB2E38214E0C318061C77367833A5
:102D0000597833785A1C1941327001221140FFF76B
:102D100013FF3378052B04D9019A377013780133E8
:102D200013702B78072B01D900232B70F7BD08B542
:102D30000379042B02D1FFF733FF04E00379032B5F
:102D400001D1FFF7C1FF08BD08B5054B10219A7BE3
:102D50000A439A73034B1868FFF7E9FF08BDC046A2
:102D6000002C0042DC0A0020FB20704710B50379DC
:102D7000041C052B0AD001210722FFF724FE201C8A
:102D800040218022FFF71FFE052323712379052BA5
:102D900002D102F0F5FAF9E7207EC0B210BD10B5FD
:102DA0000379041C012B05D001210022FFF70BFE43
:102DB00001232371012010BD38B5151C1A1C041CF9
:102DC000FFF7CEFD064B00220833236094235B00FF
:102DD000E254E31DDD77FF220133201CDA7738BD92
:102DE000E0C30000031C28331B78032B24D9031CE9
:102DF00029331B78C371031C2A331B780372031C0D
:102E00002B331B784372031C2C331B78837283791A
:102E1000002B09D1C37942799A4205D0C379FE2BA0
:102E200002D0C379FF2B07D1838A012201339BB2E1
:102E3000838294239340C2547047EFF3108272B69A
:102E4000BFF35F8FBFF34F8FBFF36F8F94210023CA
:102E5000490043542830037082F31088BFF35F8F1A
:102E6000BFF34F8FBFF36F8FBFF35F8FBFF34F8FF2
:102E7000BFF36F8F70470368F7B55B68041C0F1CC6
:102E8000151C9847019000282DD0002F28D0002D28
:102E900026D0EFF3108672B6BFF35F8FBFF34F8F6C
:102EA000BFF36F8F231C283319782A780339914296
:102EB00002DC1B78043B2B70211C2A78381C2D3136
:102EC00004F044FE86F31088BFF35F8FBFF34F8F8B
:102ED000BFF36F8FBFF35F8FBFF34F8FBFF36F8F62
:102EE000201CFFF7AAFF0198FEBD000000000000B3
:102EF00070B5041C081C0D1C04F04EFD154B144A43
:102F000003F0EAFE144A154B03F07CFA02F080FE4F
:102F1000020C061CD2B2201C0621FFF754FD320A17
:102F2000D2B2201C0721FFF74EFDF2B2201C08216F
:102F3000FFF749FD281C0A4902F060FE431E984134
:102F40004042012318402A23FF33E054012070BD82
:102F50000000000080842E410000000080844E406C
:102F600000C04244C046C04610B50379041C022B81
:102F700005D001210A1CFFF726FD0223237110BD95
:102F800038B51221041CFFF7FBFC2379042B02D176
:102F9000A023184205D12379042B64D143060FD412
:102FA00061E0638A01339BB26382201C1221FF22FD
:102FB000FFF709FD201C1221FF22FFF704FD38BD99
:102FC0001321201CFFF7DCFC1021051C201CFFF73F
:102FD000D7FC0D21021C201CFFF7F5FC221C2B1C2A
:102FE00000212932201CFFF71CFD231C28331D70F3
:102FF000FF221221201CFFF7E6FC1921201CFFF7FD
:10300000BFFC40B2C3179B0F1818952580106D00A8
:1030100060551A21201CFFF7B3FC20826357002B58
:1030200004DA228A9B189BB2238207E0208A0F21B0
:1030300000B2000102F012FD80B220822A23FF3389
:10304000E35C002B02D0238A9D3B01E0238AA43B52
:103050009BB22382201CFFF7C5FE94235B00E35C38
:10306000002BA2D008E02379032B09D1030707D551
:10307000E38A01339BB2E382201CFFF775FF94E7DC
:103080002379052B00D090E7430700D48DE7012377
:1030900018402076F0E7000008B5034B18680028B8
:1030A00001D0FFF76DFF08BDE00A002008B5034B13
:1030B0005868002801D0FFF763FF08BDE00A002030
:1030C00008B5034B9868002801D0FFF759FF08BDE9
:1030D000E00A002010B50379041C042B0AD001215A
:1030E0000522FFF770FC201C40210022FFF76BFC3B
:1030F0000423237110BD10B50379041C0020032B99
:1031000006D0201CFFF7E6FF94235B00E05CC0B212
:1031100010BD10B50379041C032B0AD00121032232
:10312000FFF751FC4021201C0A1CFFF74CFC032335
:10313000237110BDF8B5041C0F1C161EFB2E01D9FF
:10314000002533E003689B699847201CFFF70CFFBC
:103150002368201C5B6A9847051EF1D00D210022D0
:10316000201CFFF730FCE27A0021201CFFF72BFC2B
:10317000227B0021201CFFF726FC627B0021201C03
:10318000FFF721FCA27B0021201CFFF71CFC331C55
:1031900000213A1C201C0436FFF780FCF2B2201CF0
:1031A0002221FFF710FC201CFFF7B3FF281CF8BDFD
:1031B00038B5051C0C1C002A0AD00E2904DC4B1C57
:1031C00003DA0124644200E00E240134702218E086
:1031D000172904DC04290BDD142901DC09E017247C
:1031E000281C4D210722033CFFF7EDFB64B205E0EC
:1031F0000524281C4D210422FFF7E5FB8022053C15
:1032000052422243281CD2B20921FFF7DCFB38BD11
:1032100038B50D1C041C0A781D21FFF7D4FB6A7811
:10322000201C1E21FFF7CFFBAA78201C2621FFF7C8
:10323000CAFB38BD13B5041C002004290BDC032293
:103240005143054B01A8591804F080FC201C01A92A
:10325000FFF7DEFF012016BDD0C3000038B50A0A13
:103260000D1C041C2021FFF7AEFBEAB2201C21211B
:10327000FFF7A9FB38BD0000F8B5041CFFF74CFBB5
:10328000061E01D1002656E0E71DFD7F201C291CEB
:10329000FFF740FC01218022201CFFF794FB0A204D
:1032A00002F054F8201C0121FFF76AFB8028E9D1C5
:1032B000F87F002102F0EEF9231C0833DA7FFF2AA1
:1032C00006D11E490A78032ADCD8501C0870DA7728
:1032D000DB7F1B4A99008C50002B02D1281C194916
:1032E00008E0012B02D1281C174903E0022BC9D1A9
:1032F0001649281C042201F0E1FE0E210022201CA8
:10330000FFF761FB00220F21201CFFF75CFB201C54
:10331000FFF72AFE0021201CFFF78CFF201C08214C
:10332000FFF79CFF0A49201CFFF7E2FD201C0D213E
:103330000022FFF73DFF301CF8BDC046EC0A00201C
:10334000E00A002099300000AD300000C1300000DC
:103350000000D94370B5031C002001390C4A89B222
:10336000914213D01C7808220125061C2E40E8400B
:103370002540AE4203D074256D426840C0B2013A88
:10338000D2B26408002AEFD10133E6E770BDC0462F
:10339000FFFF0000F8B5041C0F1C161C002805D008
:1033A0001D4D281C00F0B2F9002802D10120404236
:1033B00030E0002E23D0201C05F03AF9033002F053
:1033C00007F8061C201C05F033F981B2201CFFF71A
:1033D000C1FF1249031C221C301C05F007F9281CF0
:1033E000311C002F02D001F0D7F901E001F0BEF945
:1033F000041C002E0DD0301C01F0EEFF09E0281C4B
:10340000211C002F02D001F0C7F903E001F0AEF952
:1034100000E0201CF8BDC0462C0E002079C400003E
:1034200008B4F3B507AB041C0D1C161C1F7800284C
:1034300014D0002912D00C4800F068F900280DD0F3
:1034400008AA201C291C019205F0F8FF002807DBC0
:10345000201C311C3A1CFFF79DFF01E00120404277
:10346000F6BC08BC01B018472C0E002010B5041C97
:103470000448FDF781FE0449021C201C05F0B6F843
:1034800010BDC0462B0E002080C4000038B50D4D85
:10349000281CFDF70FFE0C4C6071281CFDF714FE74
:1034A0002071281CFDF71AFEE070281CFDF720FE95
:1034B000A070281CFDF726FE6070281CFDF72CFE6E
:1034C000207038BD2B0E0020ED0A002070B5890059
:1034D0000C4BC9B2021C141AE4B28C420FD21578FC
:1034E000E60704D4DC086C43DE01744004E05C09A8
:1034F0006540DE02AC19E44363400132EBE7181C7F
:1035000070BDC046AAAAAAAA7FB5074B694670CB70
:1035100070C11B686A460B600023D1580968C1500E
:103520000433102BF9D17FBD50C40000F0B595B025
:1035300007AC061C201CFFF7E7FFA3680BAD009348
:10354000E368079A01936368281C154905F04EF853
:10355000144F002300950122381C1349FFF760FF28
:10356000201C0421FFF7B2FF04AD0390039A281C2E
:103570000E4905F03BF80095381C0D490122002347
:10358000FFF74EFF2378301C00950A490A4A05F0E0
:103590002DF8301C1022002105F0DCF815B0F0BD2C
:1035A000A7C400002C0D0020B8C40000B3C4000064
:1035B000C7C40000D3C40000AEB6000008B505487B
:1035C000FDF744FC044805210222044BFFF7F4FBFD
:1035D00008BDC0462B0E0020F00B0020CC0A0020B6
:1035E0003F20704713B502686B46D97107335468A2
:1035F000191C0122A04716BD08B50069022100F080
:1036000055FC08BD08B50069032100F065FC08BD44
:1036100038B50D1C041C131C006903212A1C00F082
:1036200057FD002801D10123636038BD10B5054C5A
:1036300023685A1C04D103685B6998472060031C07
:10364000181C10BD68000020074A08B51368591CF3
:1036500004D0012149421160181C03E000690221D5
:1036600000F028FD08BDC0466800002008B50378BA
:103670000349023303704222024800F0DFFD08BD17
:1036800024000020F712002010B50178031C4278B6
:103690000020A12908D1212A2FD118481849072232
:1036A00000F0CCFD012028E0212926D1202A05D1D7
:1036B00013490722114800F055FC04E0222A10D1DA
:1036C0009A780F4BDA710E4B96221968D20091420C
:1036D00010D1DC7901231C400CD1FA2001F066F8EE
:1036E0000AE0232A09D1DA789B7812021A43054BA3
:1036F0001A6002E001F060F8002010BDF71200200F
:1037000018000020200000207047000010B501F0D4
:10371000E5FDF423FF330024984207D9044B0A2027
:10372000DC79631E9C41E4B201F010FE201C10BD48
:1037300018000020064BFA218900996005490022F3
:103740000831196004495A6019611A767047C046F9
:103750002C0E002028C50000F712002010B507230A
:103760000F220240141C00093034092A00DD0734FE
:10377000CC54013BF4D210BD70B582291ED1C2B227
:103780002A495301CB189D69294C80012C40C02542
:10379000AD052C439C61274C0832201858610B68FA
:1037A000520199180C798020404220430871D15C65
:1037B0007020814330200143D15435E0002933D1BA
:1037C000C2B21A495301CB189E68194DC0242E402D
:1037D000A40526439E60184E8001096830180832FF
:1037E00058605201505C0726B043012630435054C4
:1037F0009E6935402C439C610E4C5C61505C70248A
:10380000A0431024204350549C680C488A18204040
:10381000802464032043986098684021800B8003D3
:10382000986053790B43537170BDC046001300205C
:10383000FFFFFF8F540F002018110020FF3F00F002
:1038400038B5041C08CC01211A78051C0A431A70EB
:103850008022201C0021520004F09AF92B689A78EB
:10386000D107FCD45C6238BD134BF0B51B689903DB
:103870005A029B01C90ED20E5B0F1F2900D10521F0
:103880001F2A00D11D22072B00D1032304688E01BB
:10389000278D0A491F2539403143218501682A4077
:1038A0000C8DAC4322430A8502681903108D044B2A
:1038B00003400B431385F0BD246080003FF8FFFFF9
:1038C000FF8FFFFFEFF3108303600123436072B6A5
:1038D00070470368002B02D162B6BFF36F8F704749
:1038E00037B50569041C6846002D12D1FFF7EAFFC1
:1038F000019B013B03D3621DD57FEDB2F9E768461A
:103900000193FFF7E6FF0020854217D0206AE369A4
:1039100013E0FFF7D7FF019B0025013B04D3221CD6
:1039200034321578EDB2F8E768460193FFF7D1FF1E
:103930000020854202D0206BE36AC01A3EBD000021
:10394000436810B51A68037A01215B01D318FF336D
:103950009A7A0A439A72037A42685B01D318C26862
:103960009C6891040B4A090922400A439A60037A31
:1039700042685B01D3189A684021920B92039A60C7
:1039800043681A68037A08335B01D3181A790A432B
:103990001A7110BDFF3F00F0F7B50569041C0E1C3D
:1039A000171C6846002D1FD1FFF78CFF019B013BC0
:1039B0005A1C06D0621DD17F5A1E00293AD0131C12
:1039C000F6E768460193FFF784FF0025E369BD42EF
:1039D00035D0226A934232D25A1CE261A269D318CE
:1039E0001B7873550135F1E7FFF76CFF019B013B35
:1039F0005A1C08D0221C343215785A1EEDB2002D04
:103A000018D0131CF4E768460193FFF762FF002506
:103A1000E36ABD4226D0226B934241D322E0621D6D
:103A20000021D17730321678581E8E4214D1031CF3
:103A30005A1CF4D168460193FFF74BFF38E0226A25
:103A4000934235D10023E361012323616846FFF7E8
:103A500039FF019B013BEBE71170201C0193FFF73D
:103A60006FFFF6E7226B934222D10023E3622361CA
:103A70006846FFF727FF019B013B5A1CDAD0221C46
:103A800034320021117001321678581E8E4201D155
:103A9000031CF2E71170201C0193FFF751FFEAE7C6
:103AA0005A1CE262A26AD3181B7873550135AFE73E
:103AB000281CFEBD37B54368027A1B6808325201E4
:103AC0009A18041CD0790123FF21184255D0D371D4
:103AD000A068656962680140002D1FD14901521834
:103AE00091688904890C2162216A002942D06361AE
:103AF000A36A68465360FFF7E5FE019B013B5D1C2E
:103B000034D0621D0120D0772F3211785D1EC9B2EA
:103B10001218002915D111702B1CF0E74B01D31896
:103B20009A689204920C2263226B002A22D000220F
:103B30006261A26968465A60FFF7C4FE019B013BBF
:103B400012E0019310706846FFF7C3FE15E0221CD7
:103B5000343201201070621DD17F5D1EC9B2303237
:103B60000029EED111702B1C5D1CF0D16846019329
:103B7000FFF7AFFE201CFFF7E3FE37BD37B500238C
:103B80006C46E3710734201C0D1CFFF76FFD2B689A
:103B90001818286001F0C8FE211C01F07FFE2B6878
:103BA0001818286020783EBD03290BD10D4BB22296
:103BB0001B685200985C80214942014399540221BC
:103BC00068220CE001290CD1064B92221B6852009E
:103BD000985C802149420143995402212822FF32F6
:103BE000995470470013002038B5304B0024012150
:103BF000051C1A201C7001F04DFD1A20012101F056
:103C0000A3FD2B4B192001211C7001F043FD19204D
:103C1000012101F099FD274B2021DA6901200A4397
:103C2000DA61254B06241A7802431A70234B0F22BF
:103C300019789143197019782143197020490C782B
:103C40002043087019780A401A701A7860210A43D4
:103C50001A701C4B1C4A5A805A78D209FCD11B4856
:103C600001F036FB1A4C201CFFF7EAFD201CFFF781
:103C7000FBFD23687F2219780A401A701A78042104
:103C80000A431A701A890C218A431A81C121114AE8
:103C9000890050580002000A5050802111601A78A3
:103CA00002210A431A7001232B7038BD1411002021
:103CB000FC12002000040040584400413C440041F4
:103CC00059440041000C004006400000014700003C
:103CD0000013002000E100E00078002810D0094B1C
:103CE00001211B681A898A431A811A8B08210A4309
:103CF0001A831A8B04210A431A83034B00221A6089
:103D00007047C04600130020041400200F4B9A692E
:103D1000920B92039A611B680222FF331A72987900
:103D20008022524202439A711A7A9007FCD5084BBE
:103D3000081C997A7F221040914301439972997A25
:103D4000802252420A439A727047C04600130020F4
:103D50000050004110B50B790C1C002B0BD1081C36
:103D6000FFF792FC002804D1094B9A69920B920349
:103D70009A6101200BE001F0D7FD211C01F0C2FD8A
:103D80000028F6D1024B9A69920B92039A6110BDFA
:103D900000130020F7B50E1C832A18D1CAB235498A
:103DA0005301CB189C693448B6012040C024A405B7
:103DB000204398613148083286195E610B685201D0
:103DC000D15C7020814340200143D15450E0022A4D
:103DD0004AD12B4A89008D580191002D48D13820B5
:103DE00001F0F2FA274B80270360224B7F004360EB
:103DF000431D0562866005614561C561C760DD7769
:103E00002F33041CC56205631D70381C5D7003F000
:103E100089FEA061381C03F085FEFF2315491E4072
:103E20007601A0628E19B168134A07250A40C021A5
:103E300089050A43B260A1686268194012680831B6
:103E40004901885CA843032528438854A268616817
:103E500013405B01A269CB185A60201CFFF770FD6C
:103E6000019B07495C5003E0081C111CFFF784FC10
:103E7000F7BDC04600130020FFFFFF8F540F002046
:103E8000D812002058C5000038B5051C0124064B87
:103E9000A200D258002A06D0211C281C0134FFF7AA
:103EA00079FFE4B2F3E738BD6C00002008B5084B99
:103EB0008A00D058002803D003689B68984706E022
:103EC000C9B2044B4901591888688004800C08BDA8
:103ED000D81200200013002010B50C1CFFF7E6FFDD
:103EE00000280CD0064BE1B21B6808314901591873
:103EF0004A7980235B4213434B710223CB7110BD7F
:103F00000013002070B5CAB2134B14485401890144
:103F10005918031959609D681149083229408025B4
:103F2000AD022943996099684026890B89039960FD
:103F30000368510159180D7935430D715101591814
:103F400089794D06FAD551015918C979CD07FAD5A5
:103F50000419A068C0B270BD181100200013002021
:103F6000FF3F00F038B50C4B141C1B680D1CFF33D1
:103F70005A7940210A435A710021FFF7C3FFA0423A
:103F800000D9201C0023A34204D0044A9A5CEA54BE
:103F90000133F8E738BDC046001300201811002097
:103FA00010B5C9B20C48490143189A689204920CA2
:103FB0003F2A08D9141C9A68403CA404920BA40C14
:103FC0009203224302E09A68920B92039A6041188E
:103FD0008868C0B210BDC04600130020F0B51C1C9C
:103FE0002F4B85B01B68061C0D1C0292002B51D074
:103FF0002C4F3978C9B2002902D1192001F0A4FB55
:1040000064233B70284BAA00D058002805D00368D1
:1040100002995B68221C984740E0301C291CFFF77E
:1040200045FFA04204D2301C291CFFF73FFF041CAF
:10403000291C301CFFF7B4FF1C4FE9B24A01019163
:10404000396803928B18FF335A7A01210A431849C1
:104050005A72AB01C9180298221C03F077FD002C9C
:104060001BD0301C291CFFF721FF002815D1019B14
:104070003A6808335B01D31819794020014319715C
:104080000121D97103995318FF339A7A01210A4308
:104090009A7202E00120404200E0201C05B0F0BD11
:1040A00004140020FC120020D8120020001300206D
:1040B0001811002013B56C460734221C0123FFF7AA
:1040C0008DFF012801D1207801E00120404216BD7A
:1040D000F0B51C1C3F4B85B01B680E1C0292002BD8
:1040E0006AD08023DB019C4266D83B4D2978C9B257
:1040F000002902D11A2001F027FB642300222B7033
:104100000092002C56D0354DF7B22B6801933B1C22
:104110000833019A5B01D3189B79DB091AD0304B25
:104120003049186801F04CFC2F4B1721584301F01F
:1041300047FC3B1C0833019A5B01D318DB799A07D3
:1041400008D42A4B9A5D002A38D1421E002835D067
:10415000101CEEE7254B00229A55251E3F2D00D955
:104160003F25234AB301D318181C02992A1C039334
:1041700003F0ECFC194A7B01D318039AA9045A6195
:104180009A69890C920B92030A439A613B1C019A2B
:1041900008335B01D3180222DA7159798022524226
:1041A0000A435A71009B029A5B1952190093641BCF
:1041B0000292A6E700980BE0012008E001229A5540
:1041C0007B01ED18AB69101C9B0B9B03AB6140425C
:1041D00005B0F0BD041400201411002000130020CD
:1041E0009800002040420F00701101004C0F002089
:1041F000540F002070B50E4D1C1C8B01ED18281CAF
:104200000E1C111C221C03F0A1FCF6B20949760118
:1042100089194D618A69084B201C13408B618B6999
:10422000A2049B0B920C9B0313438B6170BDC04691
:10423000540F002000130020FF3F00F0F7B5114B92
:1042400001901B780F1C141C002B19D10E4B1E78EB
:10425000002E01D1151C08E00C4D0D482E88801948
:10426000361903F073FC2E800AE0002D08D0BA192D
:104270002B1C01980021FFF7BDFF36182D1AF4E71B
:10428000201CFEBDF6120020F41200204A0F002070
:10429000490E0020F8B50E1C00AF151E012D28D9BF
:1042A000D31DDB08DB006A46D21A9546081C04F0D1
:1042B000BFF901306C464000032320706370022276
:1042C000AA420ED23378002B0BD0511CC9B2013652
:1042D000A354A94204D0002302326354D2B2EFE7C0
:1042E0002A1C0548211CFFF7A9FF431E9841C0B2B4
:1042F00000E00020BD46F8BDF712002008B5044BD1
:1043000000221A70034B04491A88FFF797FF08BD73
:10431000F41200204A0F0020490E0020F0B5204A78
:1043200087B001230026009102A91370051C029694
:10433000FFF724FC03AC092701903A1C201C311C18
:1043400003F026FC02236370A023E371FA23237297
:10435000029B0122DB196380019B62712371104A69
:10436000009B27701670BB4205D1281C211C1A1C0B
:10437000FFF764FF11E00B4B01221A700A4B211C5E
:104380003A1C281C1E800296FFF758FF281C02A921
:10439000FFF7F4FB281CFFF7B1FF012007B0F0BDC9
:1043A000F6120020F41200204A0F002070B5CE78DB
:1043B00092B0051C0C1C022E08D1C9882D48FFF7AD
:1043C000ADFF031C581E8341D8B251E001F0ACFA96
:1043D000211C01F078FA002803D0C3171B1AD80F4C
:1043E00046E0012E04D1E2882349112A3BD837E068
:1043F000032E3DD1A278002A05D12049E2880B780E
:1044000093422DD82FE0022A03D1A279281C1C49FF
:1044100004E0012A05D1A2791A49281CFFF73AFFC6
:1044200026E0032A24D1184B01A91868FFF796F952
:10443000164B03A91868FFF791F9154B05A91868E1
:10444000FFF78CF9134B07A91868FFF787F901F0FC
:104450006BFA09A901F047FAA279281C01A9DDE746
:10446000D2B2002A00D10A78281CFFF7E7FE01200B
:1044700012B070BDF712002078C5000074C50000AE
:104480008AC5000068C500000CA0800040A0800024
:1044900044A0800048A0800073B5051C48780C1C1F
:1044A0000B2878D801F082FA081C7728773E43065B
:1044B000474B686F00206FE0097801AA002903D1FB
:1044C00011705170281C09E0002313705370334B96
:1044D0001B78012B00D11370281C002102234FE010
:1044E0008A780023012A04D101AA137053702C4B3F
:1044F000EEE72A4A137049E08E78012E07D1284B47
:1045000001AA00211E701170281C331C38E0002EF7
:1045100008D1224A01231370224A9169890B890329
:10452000916138E0A178281CFFF7F0FB33E0281CEC
:10453000FFF73CFF30E0281C00211B4A1FE00A78EF
:104540000020D30628D1281CFFF79EFCA27815492D
:10455000154B02241A600A682A23FF33D05C2043DB
:10456000D0544A20FF30145C01231C4314548A6940
:10457000920B92038A610EE00C4A281C0021012351
:10458000FFF738FE07E08A78084B1A60054B9A69F6
:10459000920B92039A61012076BDC046480E00201E
:1045A000F51200200013002004140020F81200204F
:1045B000F8B54B4B071C1C78002C00D08FE0494D00
:1045C0002868838B19070ED5201C211CFFF7D4F80F
:1045D0002B6810201A1CFF32917A01439172424AD3
:1045E000146008229A832B689A8B50071FD50422E7
:1045F0009A833E4B1A78002A0AD01A78013AD2B22E
:104600001A701B78002B03D11A20012101F09CF8AD
:10461000374B1A78002A0AD01A78013AD2B21A70A7
:104620001B78002B03D11920012101F08DF82B6894
:10463000FF331A7AD10626D510221A725A794021F0
:104640000A432C495A710A786023381C1A4202D155
:10465000FFF722FF01E0FFF77DFB002806D02B6863
:104660008022FF33997952420A4301E0224B2022F3
:104670009A712B68FF331A7A500604D540221A72B9
:10468000597A0A435A722968FE230E8C00241E4070
:10469000E1B2002E23D0321C012322411A4216D04F
:1046A000221C2868083252018218D079184203D19E
:1046B000D279DA401A4207D0104BA200D058002815
:1046C00009D003681B6898470123A3409E43013427
:1046D000092CDDD103E0381CFFF766FAF4E7F8BDDA
:1046E000F4120020001300200414002014110020F4
:1046F000FC12002018110020FF500041D8120020A9
:1047000008B50248FFF754FF08BDC046F712002065
:10471000014A024B1A60704700500041001300200C
:10472000F7B58A18061C0D1C01920C1C019B671B17
:104730009C4207D0336821781B68301C98470134AD
:104740000028F3D1381CFEBD38B5051C0C1C081E12
:1047500007D003F06DFF2B68021C5B68281C211C2E
:10476000984738BD08B5FFF7EFFF08BD08B5FFF75C
:10477000EBFF08BD08B50249FFF7E6FF08BDC046DC
:1047800097C5000038B5041CFFF7DEFF051C201C90
:10479000FFF7F0FF281838BD38B5041CFFF7D4FF29
:1047A000051C201CFFF7E6FF281838BD014B1860D8
:1047B0007047C04694000020024B012252421A600A
:1047C0007047C04694000020154A1368581C25D035
:1047D000013B1360002B21D172B6124A124B0432F6
:1047E0009A4207D8BFF34F8F104A114BDA60BFF3DC
:1047F0004F8F11E00F4B197DC807FBD5188B202177
:10480000FF319208520001431983DA610A4A1A8083
:104810001A7DD107FCD5E5E7C046FDE77047C046E5
:104820009400002000000000030200000400FA05CC
:1048300000ED00E00040004102A5FFFF016070476D
:10484000F7B508AC267804689D1E27686C1EA54144
:10485000ECB2920705683A4327063A432A60026899
:10486000072529405068B501002C00D05C0329437E
:1048700001430C435460F7BD30B50368C0251C6884
:10488000AD0312052A402243C024A402090421409A
:104890001143196003685A6814435C6030BD0368B3
:1048A00001211A680A431A6002681168012319423B
:1048B000FBD1D1691942F8D17047036802211A6807
:1048C0000A431A600268D3699907FCD470470368E9
:1048D0001A7ED10702D41A7E9107FCD5704703686F
:1048E00000225A8370470368187E4007C00F704744
:1048F0000368187EC009704703688022197E5242FF
:104900000A431A7670470368187E012318407047DF
:104910000368188DC0B2704703681A7E01200242F6
:10492000FBD019857047036801229A7570470368A8
:1049300001221A757047000070B5036801268D07C3
:10494000ED0F31401C686D070907294321431960A9
:1049500004685100034801F033F80138C0B22073F5
:1049600070BDC046006CDC02036801211A680A436E
:104970001A600268116801231942FBD1D1691942FA
:10498000F8D17047036802211A680A431A60026866
:10499000D3699907FCD470470368DA699107FCD49E
:1049A0001A6802218A431A60704703689A6A520A99
:1049B00052021143996203681A7E5107FCD5986A26
:1049C000C0B27047036801211A680A431A6002687E
:1049D000116801231942FBD1D1691942F8D17047FE
:1049E000036802211A680A431A600368DA699107AA
:1049F000FCD45A8B30218A4310210A435A8302681F
:104A0000D3695907FCD47047036880221968596834
:104A1000D2020A435A6070470368034A196859680A
:104A20000A405A607047C046FFFFFBFF30B503687D
:104A300003241D680C40074A596824040A40ED0607
:104A400022436D0F5A60052D03D10268D3695907BF
:104A5000FCD430BDFFFFFCFF0368283319700368E6
:104A600000201A7E510703D55B8B01209B089843D9
:104A7000704703681868C006400F04384342584125
:104A8000C0B270470368187E4007C00F70470368C4
:104A9000187E0123184070470368588BC006C00F6A
:104AA00070470368187E8007C00F70470368588BF3
:104AB0000007C00F704703681A68D206520F052A14
:104AC00002D11A7E9107FCD528331878C0B27047FE
:104AD0000368224A30B5934211D0214A934211D043
:104AE000204A934211D0204A934211D01F4A934248
:104AF00011D01F4A934230D10E2319220DE0092311
:104B000014220AE00A23152207E00B23162204E0F0
:104B10000C23172201E00D231822DCB215490120D5
:104B20009B08A0409B0008605B180320C0218900FF
:104B300004405D58E000FF248440A5432C1CC025A0
:104B40008540281C204358508023DB011A430A4B20
:104B50005A805A7852B2002AFBDB30BD000800426E
:104B6000000C0042001000420014004200180042F5
:104B7000001C004200E100E0000C0040F8B5041CFD
:104B8000151C0E1C1F1CFFF7A3FF201CFFF787FE40
:104B9000B1001C220A4069072368090C0A431A6005
:104BA000226884239375012E1AD10821012D00D18A
:104BB00010210C4B79431868C00000F001FF2368F6
:104BC00007219A890140D2044903D20C0A439A81F1
:104BD00023680004C20C9889400B4003104398815D
:104BE000F8BDC04698000020F7B5019308AB041C3F
:104BF0001F780D1C161CFFF7B7FE201CFFF768FF7F
:104C0000BF070C221743C022920336051640C0226C
:104C100092022D0423683E43019915403543072233
:104C20001D600A408021236889020A435A60F7BD4B
:104C300070B5041C0E1CFFF74BFF201CFFF7C2FED3
:104C4000236814221A600D4B71001D682468281C0B
:104C500000F0B6FE0A49061C281C00F0B1FE7D23B8
:104C6000FA215843C90000F0ABFE301AE668FF2372
:104C7000053818409E430643E66070BD980000204A
:104C800040420F000120704708B50368014A1B6AC3
:104C9000984708BD13040000826D436D9A4203D00B
:104CA000836DC018007D01E001204042704710B5BF
:104CB000041C0069FFF7F3FD0023221C63659C328E
:104CC000A365A0341360236010BD0000F0B587B069
:104CD00001930CAB1B78002502930DAB1B7840268B
:104CE00003930EAB1B78041C04930FAB1B780F1CB3
:104CF0000593FA239B008360124B009208330360F4
:104D00004560291C321C143002F042FF201C6565EE
:104D1000321CA565291C5C3002F03AFF009A231C66
:104D20009C331D605D6027611A72019A201C5A72C3
:104D3000029A9A72039ADA72049A1A73059A1A7787
:104D400007B0F0BDA8C5000030B585B0041C08A8A8
:104D5000057809A8007800950190FF200290039043
:104D6000201CFFF7B3FF201C05B030BDF023081C4A
:104D700018403038434258417047F0231B01194016
:104D800080239B0099420CD0C0239B00994206D0FF
:104D900080235B000520994204D0002002E0072018
:104DA00000E0062070470F231940012905D0023981
:104DB0004B424B410220C01A00E000207047000027
:104DC000F0B5031C85B00391A433041C1827187890
:104DD0003B1C4343344E0821F3185956151C00F070
:104DE000FBFC231CA53318783B1C43430821F31814
:104DF000595600F0F1FC231CA7331B78022B0AD173
:104E0000231CB8331878FF2805D047430821F71929
:104E1000795600F0E1FC271CA8373878FF281AD013
:104E2000012100F037FC3B7818225A43B3561F4F3C
:104E3000DB01211CAC31D81908601D49B6185B187C
:104E4000211C7268B0310B60012191400A1C211CA9
:104E5000B4310A601A6001210A1C039B2069FFF724
:104E60008DFE291C201CFFF788FF291C071C201C15
:104E7000FFF799FF291C061C201CFFF777FF391C40
:104E80000090331C20690122FFF7DAFC231CA733B2
:104E90001978013B1A782069FFF7EEFC2069FFF7CB
:104EA0000CFD05B0F0BDC04630B80000184400410C
:104EB00014440041026C436CD01A00D54030704756
:104EC00010B5041C201C5C30FFF7F4FF0028F9D15A
:104ED0002069FFF7FCFC10BD08B51430FFF7EAFFAE
:104EE00008BD026C436C9A4204DB036C406CC01A30
:104EF0003F3003E0426C036CD01A0138704708B5AC
:104F00005C30FFF7EEFF08BD38B5041C0069FFF701
:104F1000EAFC00281FD02069FFF7FAFC636D3F22EE
:104F200001331340A26D934203D0626DA218107535
:104F30006365231CA8331B78FF2B0CD0201C143076
:104F4000FFF7CFFF092806DC231C221CAC33B43248
:104F50001B6812681A602069FFF7D5FC002820D072
:104F6000251C5C35281CFFF7A5FF031C2069002BBE
:104F700015D0231C221CA0339C3219681268914260
:104F800007D01A68A95C1A683F2501322A401A60C6
:104F900001E001214942C9B2FFF7BEFC01E0FFF781
:104FA000C6FC2069FFF7A4FC002805D02069FFF7A4
:104FB000A3FC2069FFF793FC38BD000070B5041C0A
:104FC00000690D1CFFF79FFC00280FD0201C5C30EF
:104FD000FFF770FF002840D008E0EFF31083DA07F6
:104FE00023D4214B5A68D205D20D0BD1231C9C33FC
:104FF000211C1E68A0310A6801363F2006409642F7
:10500000EBD01BE0103AD2B253B2002B08DA0F23D8
:105010001A40083A154B92089200D218536804E0DF
:105020009B08C033124A9B009B582069FFF76BFC1A
:105030000028DBD0201CFFF767FFD7E71A68096854
:10504000013202408A4204D01968201C5C30455469
:105050001A602069FFF767FC03E02069291CFFF74D
:105060005BFC012070BDC04600ED00E018ED00E0E3
:1050700000E100E038B5826D436D041C9A4208D00F
:10508000836D3F22C3181D7D836D013313408365FB
:1050900001E001256D42231CA8331B78FF2B0BD0A8
:1050A000201C1430FFF71DFF0A2805DD231CB03338
:1050B000B4341B6822681A60281C38BDF7B5182361
:1050C000434301923F4A1625D3185D57071C0091B0
:1050D000681C76D0102D74D03B4B3C4C1E68002EC3
:1050E00027D1311C44223A4802F052FD311C44229F
:1050F000384802F04DFD384B384910221E60CA670F
:10510000374BC02149005A50C12189005858FF2609
:10511000B04358501A60334A334B5A8023780222E6
:10512000134323706378DB09012BFBD0264B01224C
:105130001A6063690126AE40334300216361381C65
:1051400000F04AFB0099002939D0234A1368171C44
:105150009C4600231E499A00634504D08858B042FB
:1051600003D00133F6E701333B608E50194B0099B1
:105170009950072D03DD083DAD00012301E0AD008E
:105180000023124A9B009B189A690721A9400198A5
:105190008A439A61042812D89A6900F007FC030533
:1051A00007090B00052106E0042104E0032102E0C9
:1051B000022100E00121A9400D1C15439D61B6B2FA
:1051C000E660F7BD30B800009414002000180040DD
:1051D0004C140020081400209014002004E100E08A
:1051E00000E100E005400000000C0040F8B500249C
:1051F000094B1B689C420DD2084E094FA50033692C
:10520000EA591A4204D0074BEB589847EB593361DF
:105210000134EDE7F8BDC0469014002000180040AE
:105220004C14002008140020002110B5041E8C42EC
:1052300004D003F08DF9211C00F066FC081C10BDA1
:1052400010B5041E8C4203DA081AFFF7EDFF0419AB
:10525000201C10BDFEE7FEE708B5034B1B68002BC2
:1052600000D0984708BDC0469814002038B50F49B3
:105270000F4CA14204D100F0B3F800F085F80BE028
:105280000C4D8D42F7D00023CA18E818A24204D270
:10529000006804331060F7E7FEE79042EBD0064B5E
:1052A000064A9342E7D2002204C3F9E70000002037
:1052B000B0010020E8C90000B0010020C0140020A7
:1052C00008B500F05EF8002801D100F04FF808BDE5
:1052D000014B18607047C04698140020014B1868B5
:1052E0007047C0469C140020F7B5144D144CA968B3
:1052F0001448626803685201D20F2E1C271C844692
:10530000B0687D6801906D016046ED0F0468AA42A7
:1053100003D02A1C231C0199F2E7A342FAD1019879
:105320008142F7D30548D2184068FA23411A06484B
:105330009B0048435343000DC018FEBD10E000E041
:1053400000ED00E09C1400205555000070B5041ECF
:1053500008D0054B1D681E1C00F012F833685B1B5B
:10536000A342F9D370BDC0469C14002008B5034B7E
:105370001A6801321A60FFF727FA08BD9C14002052
:10538000704700207047704710B500F0DDF802F05C
:10539000A3FBFFF7F8FF0120FFF7D8FF084C201C04
:1053A000FEF722FC201CFEF797FCFBF7C3F9FBF786
:1053B0003FFB044B002BFAD000E000BFF7E7C046EC
:1053C000F71200200000000008B502F0ABFB08BD9A
:1053D00008B502F0A7FB08BD08B502F0ADFB08BD9B
:1053E00070B5494A1E21536802208B430343474945
:1053F00053608B69082423438B61454C454B9C8249
:105400009C8A20439882101CDA689407FCD5424A93
:10541000012414701478E50704D53F4C647864B215
:10542000002CF7DB01249460547864B2002CFBDB81
:105430003A4D394C6560547864B2002CFBDB822510
:10544000354CED016580547864B2002CFBDB0224FE
:105450009C84DC68E606FCD5314D2E4CE562DD68A7
:105460002C4CEE06FBD5A58C2E4E3543A584DD686D
:10547000284CEE06FBD5A58C02263543A584DC68B6
:105480002506FCD5234CE4686606F8D5DC68E506FD
:10549000FCD500249460547864B2002CFBDB224DD0
:1054A0001D4C656055781C4C6DB2002DFADB1E6AF0
:1054B0001E4D35401D621D6A8026B5431D620323C3
:1054C000A3601B4B636053785BB2002BFBDB0023B4
:1054D0000B72184A4B728B72CB72174BFF211A60FA
:1054E000164B174A1B6812685C01D20E214011430B
:1054F0009A06520F12020B1C1343124A138543687B
:1055000080221343436070BD00400041000400400E
:105510000C06000000080040000C004001050100DE
:10552000B905FF7D040A000000070300FFFCFFFF30
:1055300003060100006CDC0298000020246080005B
:105540002060800000400042314BFA21186810B5FD
:10555000890000F035FA2F4B0138984224D82E4AA2
:105560002E4B5060186AC0210002000A0906014350
:1055700019620024072194601160196A80220902CF
:10558000090A12060A431A62254BFC211A6A0A43C9
:105590001A62196AFC2292010A431A62196AA0224D
:1055A000D2020A431A6200E0FEE7201C0021013407
:1055B00000F070F8142CF8D11A4C63785BB2002B11
:1055C000FADB194B6380194B5A7ED209012AFAD0B3
:1055D000E422D2009A803F22DA70597E134AC90928
:1055E0000129FAD0C0235B0100201361907000F004
:1055F00023F863785BB2002BFBDB0D4A094B5A8022
:105600000C4BDA79D209012AFAD041225A7010BD26
:1056100098000020FFFFFF0010E000E000ED00E038
:1056200000040040000C00401E400000004000420A
:10563000214000000048004200B5144A517E131C6E
:10564000C9090129F9D00138042813D81969104A69
:105650000A401A615A780F218A4300F0A7F903051E
:1056600009070300012102E0032100E002210A43AF
:105670005A700AE01169F0231B050B43136153783C
:105680000F218B4302210B43537000BD00400042A9
:10569000FFFFFFF010B51824021C201C5043274BBD
:1056A0001818007A40B2013046D0032944D8081CAB
:1056B000211C00F07BF902331121624398569A189D
:1056C000C3011F4852681B18991840310220087006
:1056D0000121914059602FE06243985618499A1869
:1056E0005268C3015B1899184031062008700121E7
:1056F0009140596099611FE051435A56104859181A
:105700004B68D2011118C8184030062404700120DB
:10571000984048600B49521850600DE0624398561B
:105720009A18C301064852681B1899184031022084
:10573000087001219140996010BDC04630B800004A
:10574000004400411044004118235843134AF0B567
:10575000131808241C5701341FD08256104ED20152
:105760005D6801249019231C8668AB401E420BD152
:105770000E1C771EBE41401934404030A50004780D
:105780000426B4432C430470002903D10549521860
:10579000536002E0024E92199361F0BD30B80000F0
:1057A000004400411044004118235843084A08218E
:1057B00013185956013109D082560649D2015218A0
:1057C0005B68106AD8400123184000E00020704751
:1057D00030B800000044004118224243F8B52D4D76
:1057E0000824AA181457031C621C50D0481C00241B
:1057F0000C284CD800F0DAF8071E1E1E1E1E1E1EB6
:105800001E0A0A0A0A000124644240E0092902D162
:10581000181C002103E00A2904D1181C0221FFF7FB
:1058200039FF23E000240B2931D1181C0121FFF797
:1058300031FF2CE018225343EA185268EB5601203E
:10584000141C04405508DB01002C11D0124C1B190C
:105850005D1930352E780C010F21314021439A1803
:10586000C9B22970403213781843107000240EE03A
:10587000094E0F279B195D1930352E789A18BE43B3
:105880003143C9B229704032137818431070201C7C
:10589000F8BDC04630B800000044004170B544680F
:1058A0000E1C0025002C09D02368201C5B68311CCD
:1058B0009847002804DB2D18E468F3E7281C01E072
:1058C0000120404270BD38B544680D1C002C08D042
:1058D0002368201C9B68291C9847002802D1E46893
:1058E000F4E7201C38BD38B544680D1C002C07D0E7
:1058F0002368201C291CDB689847E4682D18F5E70D
:105900002C7038BD38B544680D1C002C08D02368B5
:10591000201C1B68291C9847002803D1E468F4E781
:10592000201C00E0012038BD064B0122196810B58B
:105930001140054805D102240470042444704160DC
:105940001A6010BDA8140020A01400200B1C011C1C
:10595000021C30B519430220002900D130BD80213E
:1059600009068B4216D00D4904205C180C498C4264
:10597000F4D90C4D5C198C42F0D90B4C59004908F4
:105980000320A142EAD9074C0020A142E6D15042AF
:105990005041E3E7002AE1D0EFE7C0460000F0FF06
:1059A000FFFFDF7F0000F07FFFFF0F0002B47146B2
:1059B00049084900095C49008E4402BC7047C04652
:1059C000002934D00123002210B488422CD30124B2
:1059D0002407A14204D2814202D209011B01F8E747
:1059E000E400A14204D2814202D249005B00F8E700
:1059F000884201D3401A1A434C08A04202D3001B2C
:105A00005C0822438C08A04202D3001B9C0822435E
:105A1000CC08A04202D3001BDC082243002803D09C
:105A20001B0901D00909E3E7101C10BC70470028CE
:105A300001D00020C04307B4024802A140180290E0
:105A400003BDC046D90000000029F0D003B5FFF720
:105A5000B9FF0EBC4243891A1847C046002941D0FD
:105A600010B4041C4C40A44601230022002900D598
:105A70004942002800D5404288422CD30124240703
:105A8000A14204D2814202D209011B01F8E7E400DD
:105A9000A14204D2814202D249005B00F8E7884269
:105AA00001D3401A1A434C08A04202D3001B5C08E1
:105AB00022438C08A04202D3001B9C082243CC083E
:105AC000A04202D3001BDC082243002803D01B099C
:105AD00001D00909E3E7101C6446002C00D54042C0
