:1000000000800020BD520000A7520000A75200004F
:1000100000000000000000000000000000000000E0
:10002000000000000000000000000000A7520000D7
:100030000000000000000000A75200001153000063
:10004000A7520000A7520000A7520000B90D0000FF
:100050003D520000A7520000A7520000A952000024
:10006000A75200001D120000A7520000A752000076
:10007000210C0000A75200002D120000A752000022
:10008000A7520000A7520000852D0000A7520000D3
:1000900000000000A7520000A7520000A752000075
:1000A000A7520000A7520000A7520000A75200006C
:1000B0000000000010B5064C2378002B07D1054B3B
:1000C000002B02D0044800E000BF0123237010BDC4
:1000D000B001002000000000C4C7000008B5084BB4
:1000E000002B03D00748084900E000BF0748036819
:1000F000002B03D0064B002B00D0984708BDC0460C
:1001000000000000C4C70000B4010020AC010020C2
:1001100000000000014B01221A707047F502002018
:10012000F0B5112095B005F07BF9A549089008F0CD
:10013000F3FBA44FA44CFE23381C237002F0D9F823
:100140000025019000952378089A1026012002933B
:1001500003929E499E4A031C049603F081F923787A
:10016000381C0899321C02F0DAFA031C0120AB4259
:100170000ED09849021C2B1C03F028F90B277B1E7C
:10018000DFB2002F10D101209349021C3B1C01E07B
:100190009249021C03F01AF9089B002B00D10CE1D4
:1001A000181C05F041F908E16E468D4D3B220024F4
:1001B0003A3616236A4433708248009201940294BE
:1001C0000394291C321C874B02F08FFBA042D6D02F
:1001D00033787C480793AC7502F0D4F8079A039003
:1001E00002923B22009401956A4413780120049303
:1001F0007649031C7C4A03F033F93378162BBED1C1
:100200001022281C211C2C7408F020FC774B1A6843
:100210008242B4D15B688B42B1D13A2369483778C6
:100220002B7402F0AFF83B220390009401950297E3
:100230006A441378012004936449031C6C4A03F058
:100240000FF9281C1430211C102208F0F1FBC3B256
:10025000061C0793FF2B04D101206649021C231CB6
:1002600098E7281C1022211C1130EC7408F0E0FBE8
:10027000F6B20FAD0B900799524802F05CF8331CB0
:100280005D494F4A281C0D9608F024FBFE260120EC
:100290004E495A4A031C00940195029603F0E0F877
:1002A0004848291C1322331C02F039FA002810D0C8
:1002B0000B9A0120D2B20C92231C5149021C03F06C
:1002C00085F80B230993099B013BDBB20993002BB3
:1002D00004D13C48FC2102F02EF85DE76F46404C0B
:1002E0006E4600253A3721233B363B703548009651
:1002F000019502950395211C3A1C3A4B02F0F5FA40
:10030000A842E0D03A78A31C2E48DD770A9202F08A
:1003100039F80A9B039000950194029333780120E9
:1003200004932A49031C304A03F09AF83B78212BA6
:10033000C9D1201C291C0A22173008F079FB071CA0
:10034000201C291C10221430A57508F071FB0A909E
:10035000201C291C10221130E57408F069FB1022C2
:10036000061C291C201C257408F070FB1F4B1A6802
:100370008242A8D15B688B42A5D10C9BF6B29E420B
:10038000A1D10A9AD3B2079A93429CD11D48391C35
:1003900000F060FE0C4B0C9A01201A700B9A00952D
:1003A000D3B201930D9B184A02930849031C03F032
:1003B00057F8164B01221A70EEE615B0F0BDC04694
:1003C00004000020E0010020F4020020D8090020F1
:1003D00018B3000034B3000068B4000087B4000014
:1003E000A40700208813000044B30000D0090020B7
:1003F0007BB30000C3B30000DAB30000E2B3000037
:1004000022B40000D70A0020A2B400009503002007
:10041000F0B5222087B005F003F82C49041C08F041
:100420007BFA2B4D281C00F0AFFF071C281C00F0A6
:100430005FFF061C381C07F0C1FD251C1035021C8F
:100440000B1C281C234908F045FA301C07F0B6FDA8
:1004500007350B1C021C2049281C08F03BFA1F2101
:10046000201C02F093FF021C201C1C491F3008F0C6
:1004700031FA1B4F0025381C01F03BFF194A01904F
:10048000009513782126012002931749174A031C6F
:100490000394049602F0E4FF124A381C1378211CDE
:1004A000321C02F03CF9031C0120AB4203D010497E
:1004B000021C2B1C01E00F49021C02F087FF002CDC
:1004C00002D0201C04F0B0FF07B0F0BD04000020F3
:1004D000D00100200BB5000013B50000DDB3000013
:1004E000E0010020F4020020D809002018B3000029
:1004F00034B3000087B4000008B5084B1B78002B0C
:1005000002D0FFF785FF01E0FFF70AFE0120044952
:10051000021C002302F05AFF08BDC04695030020CC
:10052000A1C30000F8B51E20002105F0DBF8584BF0
:100530000021186805F0D6F8564B0021186805F020
:10054000D1F8554B0021186805F0CCF8534B012128
:100550001D68281C05F0C6F8281C012105F01CF9AF
:100560004F4B01211C68201C05F0BCF8201C012108
:1005700005F012F90D20012105F0B4F80D2000213D
:1005800005F00AF9E1214902464803F099F8464886
:1005900004F004FF454802F0BBFF0B1C4449021C59
:1005A00044480A604B6001F08CF8031E04D101201E
:1005B0004149021C02F00AFF404BFD221A70404BD9
:1005C00000241C703F4B01261E703F4B3F4F1C7098
:1005D0003F4B381C211C1C7002F088F8381CC821C5
:1005E00002F082F8381C01F0B3FE3A4A031C107086
:1005F000A04205D1301C3849321C02F0E7FE09E068
:10060000364E3749301C02F08FFC301C1721221C5B
:1006100002F0EAFD0120021C0023324902F0D6FE5E
:10062000314C291C201C01F09BF8304A031C10702F
:1006300004D101202E49021C02F0C8FE201C01F04A
:10064000B1F82C4E2C4C0025301C291C65712571ED
:10065000E570A5706570257000F078FD301CE178BC
:100660002279637900F020FC62782378A178301C2D
:1006700000F066FC301C00F0BFFB301C1F4900F08E
:10068000C9FB01202B1C1E49021C02F09FFEF8BD75
:1006900084C200007CC2000080C2000078C200005A
:1006A00088C20000D80A0020983A00000400002008
:1006B000D0090020D00100201CB50000F402002069
:1006C00095030020F5020020CC010020E00100206D
:1006D00096030020A307002043B50000A0080020D7
:1006E0003333654469B50000F8020020940300200C
:1006F0008BB50000D70A00209D07002015010000DF
:10070000B5B5000008B5084B084A1978084800F04C
:10071000F1FF0849FC22084801F0D2FF07480849C8
:1007200000F0DCFD08BDC04678C20000D405002002
:10073000F8020020A0080020E0010020D0010020E5
:1007400098030020464BF7B51A78002A00D185E0BF
:10075000444C0026201C1E7003F09AFA424B434C76
:100760001B78B34274D0424D2F78B7425DD1414BD4
:100770001A78082A22D801321A7004F0DDFD061C0E
:10078000FFF7BAFE04F0D8FD861B0120031C00977A
:1007900001963949394A02F063FE2B78002B2AD1A1
:1007A000201C00F08FFC3C210A3005F0D5F9201CFC
:1007B000C9B200F0D7FB201C012117E0304B1A789A
:1007C000092A16D801321A70FFF796FE2B78002BF3
:1007D00011D1201C00F080FC3C21013005F0BCF957
:1007E000201CC9B200F0D0FB201C022100F0F2FA5C
:1007F00001E0FFF781FE2B78002B26D0201C00F0B3
:1008000061FC011C201C00F0ADFB201C00F064FC0E
:100810003C21013005F0A0F9201CC9B200F0B4FB66
:10082000201C022100F0D6FA0FE004F085FD051C23
:10083000FFF762FE04F080FD451B01200096019544
:100840000D49104A031C02F00BFE0F4802F0C5FAD6
:10085000044803F05BFA201C00F0E2FAF7BDC04642
:10086000F5020020A30F0020A3070020D70A0020D4
:1008700095030020CC010020D8090020CEB500004F
:1008800096030020F3B50000A00800200020704768
:10089000F8B5051C0F1C161C0024B44208D02B68A8
:1008A000395D1B68281C9847002801D00134F4E703
:1008B000201CF8BD7047031CFC33196ADA699142A9
:1008C00003D01B6AC018007E01E00120404270473F
:1008D000031CFC33D8691B6AC01A01D50130FF30F4
:1008E00070470000F7B50193FA239B008360134B18
:1008F0008026002576000833041C0F1C4560291C47
:1009000000920360321C183007F0E0FC231C902298
:10091000FC335200DD61A0181D62321C291C07F057
:10092000D5FC87229200A3185D60019A9D60009B10
:100930002761A575201C23756275FEBD20B60000D9
:1009400070B50D49041C006904F09AF9206904F09F
:100950002FF81826207D331C4343084D0821EB183F
:10096000595604F061FF607D08214643AD19695670
:1009700004F05AFF70BDC046A086010048B60000D2
:100980008A2387229B009200C154831800225A6058
:100990009A60012383757047031CFC335A6810B5B5
:1009A00001329C68D2B2A24202D05C6801555A6002
:1009B00010BDF7B501930023041C151C181C9A42A6
:1009C00031D0221CFC32D36120691362012204F071
:1009D0002BF8002825D0206904F095F8271C18373B
:1009E000011C381CFFF7D8FF01262069AE420ED04B
:1009F00003F0FAFF0221206904F000F8206904F0F6
:100A000082F8011C381CFFF7C7FF0136EDE703F041
:100A1000E3FF019B002B05D02069032103F0EEFFCB
:100A200000E0051CE8B2FEBD08B50123FFF7C1FFD9
:100A300008BD10B5827D00239A420DD08724A40002
:100A40000219546892680134E4B2944204D021300F
:100A5000FF30FFF7A1FF0123181C10BD031CFC335E
:100A600099685A68914206D09A68805C9A68013207
:100A7000D2B29A6001E001204042704770B5002276
:100A80008A2382759B00041C0E1CC15C006903F064
:100A9000CBFF002805D12069032103F0AFFF022519
:100AA00023E090235B00E01887239B00E218516845
:100AB0009368CB1A01D50133FF33002B0ED0256983
:100AC000FFF7CCFFC1B2281C03F0DDFF0028E8D1FE
:100AD0002069032103F092FF032506E01D1C002E70
:100AE00003D02069032103F089FF281C70BD08B5DD
:100AF0000121FFF7C3FF08BD08B51830FFF7AEFFAF
:100B000008BD38B5041C006903F0DBFF002800D1E4
:100B100084E0206903F0E3FF00280ED1206903F090
:100B2000E8FF00281FD0206903F0DEFF00281AD05C
:100B3000206903F0E3FF002815D1206903F054FF7A
:100B40002069032103F05AFF8C239B00E558002DF8
:100B500004D02368201C1B699847A847FC34002355
:100B6000E36123625AE0206903F0C3FF031C20699C
:100B7000002B19D003F038FF2069032103F03EFF5A
:100B8000206903F0BBFF002848D087229200A318F9
:100B900000225A609A600123A3758B239B00E358BF
:100BA00093423BD0984739E003F094FF002835D0BA
:100BB000206903F0A3FF002816D087239B00E218CA
:100BC00051689368CB1A01D50133FF33FF21002B05
:100BD00005D090225200A018FFF740FFC1B2206953
:100BE00003F062FFA07519E0231CFC33DA691B6A6D
:100BF0000132D2B220699A4202D103F0EDFE09E03F
:100C000003F081FF011C201C1830FFF7C5FE20698E
:100C100003F0EAFE2069032103F0F0FE38BD000076
:100C200008B50248FFF76DFF08BDC04698030020D5
:100C300008B50348034914221523FFF753FE08BDE6
:100C40009803002060070020437A002B04D18372B0
:100C5000C372C36001234372704730B585B0041C72
:100C600002AD00680291039203F07EFE6B79E17998
:100C7000227A00932068002303F0DEFF29792068A0
:100C8000029A03F041FE206803F064FE05B030BD17
:100C900070B5041C1826FFF7D7FF2079331C434397
:100CA0000D4D0821EB18595604F0BEFDA079331CF8
:100CB00043430821EB18595604F0B6FD607908212A
:100CC0004643AD19695604F0AFFD044B201C06CB1A
:100CD000FFF7C3FF70BDC04648B60000CC0500203A
:100CE00010B5041C006803F027FE0023637210BDDA
:100CF00007B5837A00910192002B0DD09A0706D593
:100D0000EFF310835A425341C37272B604E0DA071C
:100D100002D58289034B9A600099019AFFF79DFFE3
:100D200007BDC04600180040837A002B0BD09A07FD
:100D300004D5C37A002B06D062B604E0DA0702D5E8
:100D40008289014BDA6070470018004008B50068DE
:100D500003F013FE08BD70B5061C0C1C8D18AC42C8
:100D600006D02178301CFFF7F1FF20700134F6E740
:100D700070BD704770470000094B0A4A0A491A6063
:100D800000225A711A71094B196016211971182124
:100D900099711721597101215A72D9711A727047CC
:100DA000CC05002000093D0070070020D40500207C
:100DB000002303707047000008B5044B1B68002B2C
:100DC00000D09847024B01221A7208BDE4050020AA
:100DD000001400400378002B0AD0064B081C197F32
:100DE000072210409143014319779A7AD209FCD126
:100DF0007047C046001400400378002B07D0044B16
:100E000007211A7F8A431A779A7AD209FCD1704750
:100E100000140040014B19607047C046E4050020F3
:100E2000034B04211A690A431A6130BF7047C04658
:100E300000ED00E00378002B0AD0064B081C19696E
:100E40003F2210409143014319619A7AD209FCD1A3
:100E50007047C046001400400378002B0BD0064BAF
:100E60003F2211408A011869044901401143196168
:100E70009A7AD209FCD17047001400403FF0FFFF7E
:100E80000378002B0BD0064B1F2211400A03186970
:100E900004490140114319619A7AD209FCD1704783
:100EA00000140040FF0FFEFF70B5161C0278041CF2
:100EB0000D1C002A0AD0191CFFF7BCFF201C311C96
:100EC000FFF7CAFF201C291CFFF7DAFF70BD0000E6
:100ED0000378002B0BD0064B1F2211404A041869DF
:100EE00004490140114319619A7AD209FCD1704733
:100EF00000140040FFFFC1FF0378002B0BD0064B0E
:100F00000F2211408A0518690449014011431961F3
:100F10009A7AD209FCD1704700140040FFFF3FFCD1
:100F20000378002B09D0054B8A06196989018909C4
:100F3000114319619A7AD209FCD17047001400401C
:100F400070B51D1C0378041C161C002B09D0FFF77C
:100F5000BFFF201C311CFFF7CFFF201C291CFFF70F
:100F6000DFFF70BD0378002B0AD0064B081C99697F
:100F70003F2210409143014399619A7AD209FCD1F2
:100F80007047C046001400400378002B0BD0064B7E
:100F90003F2211408A019869044901401143996137
:100FA0009A7AD209FCD17047001400403FF0FFFF4D
:100FB000037873B5002B3ED01F4B994200D81F49D0
:100FC00001A8019107F00EF91D4B44691969643CB1
:100FD0008901A40689092143196104690F2101349B
:100FE0001D690C401749A405294021431961C568B2
:100FF0001E691F21144C0D406D0434402C431C61AC
:1010000084681D6921400C0310493F222940214377
:10101000196144681D690E491440A4012940214307
:1010200019610168186911409043021C0A431A6152
:101030009A7AD209FCD173BD7F436D3880436D38F5
:1010400000140040FFFF3FFCFFFFC1FFFF0FFEFF4A
:101050003FF0FFFF08B50378002B03D0024BC918FF
:10106000FFF7A6FF08BDC04680436D380A4B0B4A08
:101070009A605A7852B2002AFBDB0949064A51604D
:101080005A7852B2002AFBDB0649034A51805A784B
:10109000D209FCD17047C046000C00400204000099
:1010A00002051100044200000378002B05D0034B19
:1010B000034A5A809A7AD209FCD170470014004042
:1010C0000080FFFF08B5FFF7EFFF024B18693F23D1
:1010D000184008BD0014004008B5FFF7E5FF024BBB
:1010E00018690005800E08BD00140040044B022161
:1010F0001A888A431A809A7AD209FCD17047C0466E
:1011000000140040044B02211A880A431A809A7A7C
:10111000D209FCD17047C04600140040044B0121A5
:101120001A880A431A809A7AD209FCD17047C046BD
:1011300000140040044B01211A888A431A809A7ACD
:10114000D209FCD17047C04600140040F7B52B4BC4
:101150000F1C9A6920210A439A61294A294B0026CB
:10116000051C9A82284CB7420AD1284B1A78702362
:101170001A4240D023881A073DD5226901260192E0
:10118000281CFFF773FF281CFFF7B0FF281CFFF790
:10119000C5FF62881E4B134063801E4B2380A27ADA
:1011A000194BD209FBD11C4A08211160C0218900CA
:1011B00050580002000A5050DA7901210A43DA71CE
:1011C0001A7F07218A431A77A37ADB09FCD1281CEE
:1011D000FFF798FF281CFFF7ADFF002F02D0012377
:1011E0002B70F7BD002EFAD0074B019A1A61A37A33
:1011F000DB09FCD1F3E73E1CC2E7C0460004004017
:10120000CE060000000800400014004038040040F2
:10121000FFBFFFFF080A000000E100E008B5024838
:1012200003F09AFE08BDC046A406002008B5024897
:1012300003F092FE08BDC046E8050020F7B5164F42
:101240001649381C03F0E2FA1549164803F0DEFA95
:101250001549164803F0DAFA1549164803F0D6FA8C
:101260001549164803F0D2FA154D03260124281C0F
:10127000144903F0CBFA391C0096231C0194002278
:10128000114803F089FD0096291C01941F221E239A
:101290000E4803F081FDF7BD6407002000080042FE
:1012A000000C004268070020001000426C0700207C
:1012B0000014004260070020001800427007002060
:1012C00074070020001C0042A4060020E80500204E
:1012D00008B50368C9B21B68984708BD40238372EC
:1012E00003220023C16043600360027243727047AF
:1012F00070B5041C817AC068FFF742FBE068F521F5
:10130000FFF7E6FFE068FFF7F2FB002801D01A487C
:1013100030E004F00BF8051C04F008F8401B6328CB
:10132000F5D8A17AE0680322FFF77EFB03281DD1E0
:10133000E06803685B699847051CE06802685269C9
:101340009047061CE06802685269904728020643ED
:10135000B0B204F0FDFF094904F060FDDE2189050B
:1013600004F05CFD064904F083FE03E0062004F06F
:1013700015F8D1E770BDC0460000C07F0000FA42FA
:101380000000C0400000000070B5041C817AC068F5
:10139000FFF7F6FAE068F321FFF79AFFE068FFF73E
:1013A000A6FB002801D024483AE003F0BFFF051C4B
:1013B00003F0BCFF401B6328F5D8A17AE068032244
:1013C000FFF732FB032827D1E06803685B69984781
:1013D000051CE068026852699047061CE0680268D4
:1013E0005269904728020643B0B204F0B1FF06F0FC
:1013F000E5FD0E4B0C4A05F081FF06F031FEDE21C3
:10140000890504F00BFD06F0D9FD094A094B06F0E9
:1014100005FA06F025FE03E0062003F0BFFFC7E74C
:1014200070BDC046C046C046D7A3703D0AF76540B0
:10143000CDCCCCCCCC6C47400000C07FC046C04671
:1014400010B5041C817AC068FFF79AFAFE21E068A3
:10145000FFF73EFFE068FFF74AFB322003F09EFFF4
:1014600010BD70B5041C817AC068FFF789FAE06886
:10147000842103681B689847E068B82103681B68EB
:101480009847E068FFF733FB03F050FF051C03F0BB
:101490004DFF401B63281DD8A17AE0680222FFF7A8
:1014A000C3FA061E022E11D1E06803685B699847F3
:1014B000C5B2E06803685B699847FF2D03D0202D13
:1014C00002D1351C00E00125657205E0022003F021
:1014D00065FFDCE70023637270BD38B5041C817AB8
:1014E000C068FFF74DFAE068FA2103681B68984767
:1014F000E0680F2103681B689847E068FFF7F7FA78
:1015000003F014FF051C03F011FF401B632800D9F2
:10151000ACE0A17AE0680822FFF786FA082803D039
:10152000022003F03BFFEEE7E06803685B69984741
:101530002060E06803685B6998472268E0681302EE
:10154000236003685B699847236818432060E0685C
:1015500003685B6998472268E068130223600368A8
:101560005B699847236818432060E06803685B69FB
:1015700098472268E0681302236003685B69984714
:10158000236818432060E06803685B699847A17A84
:10159000E068FFF7F5F9E068FC2103681B689847ED
:1015A000E068C92103681B689847E068FFF79FFA65
:1015B00003F0BCFE051C03F0B9FE401B632855D8A0
:1015C000A17AE0680822FFF72FFA082803D002204A
:1015D00003F0E4FEEFE7E06803685B69984760604A
:1015E000E06803685B6998476268E06813026360BB
:1015F00003685B699847636818436060E068036844
:101600005B6998476268E0681302636003685B691E
:101610009847636818436060E06803685B699847AF
:101620006268E0681302636003685B6998476368F7
:1016300018436060E06803685B699847E379142B9E
:1016400001D1022304E0142B0CD8002B02D100237B
:1016500023720BE00D2B03D10123F9E7FF2BF6D00A
:101660000423F5E7152BF9D10323F1E738BD38B58D
:10167000041C0D1C817AC068FFF782F9E068291C00
:1016800003681B689847E068FFF731FA03F04EFEE5
:10169000051C03F04BFE401B632810D8A17AE068BC
:1016A0000122FFF7C1F9012805D1E06803685B69F1
:1016B0009847C0B204E0022003F070FEE9E7002082
:1016C00038BD10B5041CC068FFF73AF9201CFFF7BD
:1016D000B7FE201CE721FFF7CAFF00233A2806D1F6
:1016E000201CFFF7FAFE201CFFF7BBFE0123181C8D
:1016F00010BD0000F8B5174B0025041C0360171C33
:1017000045710571057204220E1C1130124906F054
:10171000BBFD631C6577A577E5775222DD772A3319
:101720001A7057225A70002323630C4BA567E56794
:10173000E7609F4201D10A2300E00B23301C637550
:101740002674012103F0CEFF207C012104F024F84F
:10175000201CF8BD00093D0068BA0000D405002037
:1017600038B5437D041C0D1C0B2B02D0C068FFF75D
:101770008FFA237A002B08D11B2262704922524231
:101780002370A270E37023716371291C201C00F088
:1017900061F8051C201C00F067F9201C00F0C8F956
:1017A000281C38BD38B5031C37331B78041CBF2BED
:1017B00017D0142100F06AF9002817D0B921201C95
:1017C00000F0D1F8201C00F04FF95023013BFDD16F
:1017D0000125A577201C002100F080F94540E8B2E2
:1017E00004E00C21002200F0E9F9002038BD0000DF
:1017F00070B51749041C00F049F9051E25D09F213A
:10180000201C00F0B0F80021201C00F089F8261CF4
:10181000373630700021201C00F082F8231C38334A
:1018200018700021201C00F07BF8231C393318703D
:10183000207C012103F0B0FF3678002E05D1201C5A
:101840000B21321C00F0BAF9351C281C70BDC046B3
:10185000404B4C0070B5041C0E1CFFF7C9FF00255F
:10186000A84219D0A577AE4207D0231C3433E663D3
:10187000201C1D7000F01CF807E0201C00F016FA78
:10188000002804D0201C00F001FC012504E0201CED
:1018900002212A1C00F092F9281C70BD0020914200
:1018A00004D801238B4018430131F8E7704700004A
:1018B000021C012364321370103A1370083A13703B
:1018C000083A1370031C453320221A7052221A72F0
:1018D000D8221A74094B00228364094B0365094B13
:1018E0008365031C5C331A7060225A72064B836650
:1018F000802372305B0003807047C046404B4C0031
:10190000005A62020068890900A0ACB910B5041C35
:101910002168C0686268FFF7EBF90120607710BDAD
:1019200008B5C068FFF712FA08BD10B5C37F041CE4
:10193000002B04D0031C7B331978FFF7F1FF231C25
:101940007A331978201CFFF7EBFF231C79331978C1
:10195000201CFFF7E5FF231C78331978201CFFF7C4
:10196000DFFF012010BD38B5437F041C0D1C002B88
:1019700001D1FFF7CBFF207C002103F00DFF0B2DE1
:101980000CD004D8022D13D0032D11D018E0522D05
:101990000ED0D82D0CD0202D12D109E0291C201CEE
:1019A000FFF7BEFF201CFFF7C0FF201CEE2109E05F
:1019B000201C291CFFF7B4FF201CFFF7B6FF03E033
:1019C000201C291CFFF7ACFF012038BD08B50229F7
:1019D00001D0032904D1111CC0681A1CFFF7BBF900
:1019E00008BD38B50521041CFFF7BDFF201C0021F0
:1019F000FFF796FF251DE877207C012103F0CCFE40
:101A0000E87F38BD38B51521041CFFF7ACFF201C5A
:101A10000021FFF785FFA51DE877207C012103F059
:101A2000BBFEE87F38BD000038B5051CFFF7EAFFB4
:101A30000124204214D0E921281CFFF794FF287CC0
:101A4000211C03F0A9FE281CFFF7DCFF204006D074
:101A500004480E21002200F07DFB002400E0E8771E
:101A6000201C38BD7907002010B50121041C007C22
:101A700003F092FEE37F002B02D0201CFFF7D4FF7F
:101A8000E068FFF751F90023637710BD70B5114B83
:101A9000061C0C1C013BFDD103F04EFC051C301C48
:101AA000FFF79FFF331DDB7FDA0701D401200FE032
:101AB00003F042FC401BA042F1D303F03DFC451B68
:101AC000AC42F3D804480421002200F043FB00207C
:101AD00070BDC04680BB00007907002038B5041CEB
:101AE0000D1C0621FFF73FFF207C012103F054FE6F
:101AF000201CFFF776FF022318400124002807D19D
:101B0000041C002D04D003480621221C00F022FBF7
:101B1000201C38BD7907002010B50421041CFFF7F4
:101B200022FF207C012103F037FE012010BD0000C0
:101B300038B5031C38331B78041C252B1BD1FFF749
:101B400050FF231DDD7F50213C23201C9D43FFF7C8
:101B50000AFF207C012103F01FFE0121201CFFF75A
:101B600002FF291C201CFFF7DBFE207C012103F073
:101B700013FE01251DE00125262B1AD10E49FFF782
:101B800085FF051E15D0201C0121FFF7A7FFA0230C
:101B9000013BFDD19821201CFFF7E5FE207C0121AF
:101BA00003F0FAFDC8239B00013BFDD1201CFFF789
:101BB000B3FF281C38BDC046404B4C0008B5024856
:101BC00000F0C8FA08BDC04679070020F7B50191BA
:101BD0001549041C171C1E1CFFF758FF051E20D0BA
:101BE0005A21201CFFF7BFFE6B469979201CFFF796
:101BF00097FE6B465979201CFFF792FE01AB1978CE
:101C0000201CFFF78DFEEE21201CFFF789FE201C13
:101C100003213A1C331CFFF7D9FE207C012103F07D
:101C2000BBFD281CFEBDC046404B4C0073B50D1CCF
:101C30000949041C161CFFF729FF0023984208D00D
:101C4000711E890004234919201C01AAFFF7BEFF59
:101C5000019B181C76BDC046404B4C00F7B50F1CCD
:101C60000B491E1C051C141CFFF710FF0023984293
:101C70000CD0B919013CA400013909196C4607348C
:101C80000123281C221CFFF7A1FF2378181CFEBD8E
:101C9000404B4C0007B50222C900FFF7C7FF0022E6
:101CA0006B460190DA7101980EBD000038B5002135
:101CB0000122051CFFF7BAFF074B2C1C3634984253
:101CC00001D1012305E0281C10210022FFF776FF37
:101CD00000232370207838BD53464450F0B5071CCC
:101CE0006D373B788BB0041C072B00D844E1011DF5
:101CF000CA6F0591111C1C3108AA0823FFF766FF63
:101D000000252E1C08A94B5DF618F6B2002E07D14F
:101D1000201CFFF7CDFD201C1121321CFFF74EFFC8
:101D20000135082DEED10AAA08ABD9071BD41878C3
:101D30000C38062817D803F061FE041616080C1696
:101D40001000211C012044310AE0211C01204C31EB
:101D500006E0211C0120543102E0211C01205C31ED
:101D600008705878487001339342DED13B78092BD4
:101D700000D8EDE0059A201CD26F111C01920A22B6
:101D8000FFF754FF0F22C3B21A4006930132231CFF
:101D900052006E33002103901A800491049AD207F6
:101DA00000D5A0E0049908ABC85C0C38062800D91F
:101DB00099E003F023FE0498982E4F987D00039A33
:101DC00000211504201C0A1CFFF768FD0421071CD4
:101DD0000722201CFFF762FD069E01210640022219
:101DE000201CFFF75BFD2D0E2F4036097F013E437F
:101DF00001360540F6B26D080023032D02D8614B71
:101E0000AD00EB58221C6E32128856437343A36414
:101E100069E0039B03210722201C1D04FFF73EFD00
:101E200003992D0E05400E02201C00210122FFF710
:101E300035FDED08360E013506400023032E02D88D
:101E4000504BB600F358221C6E32128855436B4338
:101E5000236548E0039A02211702201C0622FFF79F
:101E60001DFD3F0E38408008072101300A1C0790F5
:101E7000201CFFF713FD039B0021061C0A1C201CDD
:101E80001D0EFFF70BFD284037404000FF09061CE0
:101E90003E43F6B20023032E02D83A4BB600F35865
:101EA000221C6E32128807994A435343A3651AE0F5
:101EB000039A0121160E201C0522FFF7EFFC0722D2
:101EC000051C0621201CFFF7E9FC30408009231C7B
:101ED0002C4A80006E331B8882582E40534376086C
:101EE00001365E43A665049B01330493082B00D0A2
:101EF00054E7231C6D331B780A2B41D9059A049BA8
:101F0000D16F201C283108AAFFF760FE231C012294
:101F100064331A70039B00210422201C1D0EFFF75E
:101F2000BDFC0521061C0622201CFFF7B7FC2E4035
:101F300001360540F6B26D090023032D02D8114B7E
:101F4000AD00EB58221C6E3212885643734311E0E9
:101F50000022201C1221FFF731FE0B4B0022A3644C
:101F60000A4B23650A4BA365231C5C331A7060225D
:101F70005A72084BA36603E011210022FFF71EFEF0
:101F80000BB0F0BD6CBA0000404B4C00005A62022E
:101F90000068890900A0ACB9F7B5031C6D331B7844
:101FA000071C041C72370A2B5FD9031DD96F0B2243
:101FB000FFF73CFE03041B0E1A110132251C5200D0
:101FC00070352A800F22134001935B003B80061C72
:101FD00000210422201CFFF761FC07210A1C071CBA
:101FE000201CFFF75BFC01992A880F40D2000137C3
:101FF0005743231C90331F6006210722201CFFF744
:102000004DFC06210722201CFFF748FC3602360E45
:102010000521371C07400A1C201CFFF73FFCBF09A5
:102020003040013740090123002800D008232988C7
:10203000221C4F437B438832136004210122201C61
:10204000FFF72CFC371C002107400A1C201CFFF75F
:1020500025FC7F0801370123064200D008232A8887
:102060008C3457437B4323600DE080235B003B802F
:10207000021C054B90321360083A13605360132121
:102080000022FFF79BFDF7BD404B4C0010B503232A
:1020900000210222041CFFF7E1FD231C0130C0B225
:1020A0006C331870012806D9201C0221FFF7F2FDBD
:1020B000231C0833D867012208210423201CFFF7C2
:1020C000CDFD231C6D3318700121201CFFF7E2FDAC
:1020D000231D011CD8670222201CFFF7A7FD231C2B
:1020E000E0633F33010E002805DA7F220A401A70B0
:1020F000E26B5300E363E26B201CD3080133E3631C
:10210000FFF7ECFD201CFFF747FF012010BD7047D3
:1021100008B503480349044A06F04CF808BDC04618
:10212000780700200F210000000000207047000009
:1021300010B5054C0549201C02F0FCFA201C04498E
:1021400002F008FB10BDC046E80500208DBA000073
:10215000C0BA000070B5061C0D1C3170002A6FD08B
:10216000384C14295CD8081C03F048FC0B111417D8
:102170001A21242B32383B0E35404346494C4F52EE
:102180005500201C304948E0201C304945E0201C07
:102190002F4942E0201C2F493FE0201C2E493CE003
:1021A0002E49201C02F0D6FA201C2D4935E0201CB7
:1021B0002C4932E02C49201C02F0CCFA201C2B497F
:1021C0002BE02B49201C02F0C5FA201C294924E0F1
:1021D000201C294921E0201C28491EE0201C2849F8
:1021E0001BE0201C274902F0B5FA26E0201C2649F6
:1021F00013E0201C254910E0201C25490DE0201C7F
:1022000024490AE0201C244907E0201C234904E05B
:10221000201C234901E02349201C02F09BFA05E021
:10222000201C214902F096FA0A2D06D004232A1C0C
:102230009A43022A01D00B2D02D1301CFFF778FF00
:1022400070BDC046E80500204ABB000069BB000025
:102250009ABB0000D9BB000017BC0000ACBC00005A
:10226000BABC0000EABC000034BD000056BD00004E
:1022700099BD0000BCBD0000F6BD000045BE0000D9
:1022800082BE0000A6BE0000CCBE0000F0BE000072
:1022900015BF000039BF00005FBF0000A9BF0000EC
:1022A000F6BF000045C0000079C0000008B5034833
:1022B0000349044A05F07EFF08BDC04679070020A7
:1022C0002D2100000000002001600271704708B558
:1022D000006803685B68984708BD08B50068036834
:1022E0009B69984708BD08B5006803681B6A984752
:1022F00008BD0079704708B5006803681B6B9847F4
:1023000008BD70B50E1C041C191C151CFFF7F3FF4B
:102310002068311C03682A1CDB68984770BD08B52B
:10232000006803685B6B984708BD08B500680368E0
:102330009B6B984708BD38B5041C00680D1C0368EA
:10234000DB6A9847291C201CFFF7EFFF257138BD79
:1023500038B5041C006803681B689847051E03D045
:102360002179201CFFF7E7FF281C38BD08B500685D
:102370000368DB6B984708BD08B5006803681B6CF1
:10238000984708BD08B5006803689B6C984708BD6E
:1023900008B500680368DB6C984708BD08B500689D
:1023A00003681B6D984708BD08B5006803685B6D3E
:1023B000984708BDF8B5041C00681D1C0368069FFB
:1023C0009B68079E9847002398421AD09D4203D0ED
:1023D000201CFFF7DDFF2870002F03D0201CFFF723
:1023E000D1FF3870002E03D0201CFFF7D7FF3070CC
:1023F000089B002B04D0201CFFF7D6FF089B187009
:102400000123181CF8BD012070470020704781711E
:10241000704741717047C1727047C1717047017355
:10242000704741737047837B9343194381737047AF
:10243000C079C0B27047007AC0B27047407AC0B26B
:102440007047807AC0B2704700207047408A80B2DF
:102450007047808A80B27047C08A80B2704710B5DA
:10246000041C2368201C5B689847002802D102F0F6
:10247000AFFFF6E710BD10B5041C2379032B02D182
:1024800002F0A6FFF9E7012010BD70B5041C0D1C79
:1024900002F04CFF061C02F049FF801BA84208D244
:1024A0002368201C5B689847002804D102F090FF45
:1024B000F1E7002000E0012070BD70B5061C0C1C87
:1024C00002F034FF051C02F031FF401BA04205D290
:1024D0003379032B04D102F07BFFF4E7002000E006
:1024E000012070BD38B5041CE3690120002B1AD00F
:1024F00002F01CFF051C2368201C9B6A98470028DB
:102500000ED002F013FFE369401B98420AD80A215B
:10251000012002F0BDFE6423584302F03FFFEAE7CA
:10252000012000E0002038BD074BFF220833036084
:102530000023037142714382C27283820273437328
:102540008373C382C361704788C0000070477047BF
:1025500070477047704741717047817170470171D2
:102560007047000010B5034C0171083404604271DB
:10257000837110BDF8C000007047000008B5024824
:10258000FEF7E4FB08BDC046D405002008B50248AC
:10259000FEF7EFFB08BDC046D405002008B5024891
:1025A000FEF7E8FB08BDC046D405002008B5024888
:1025B000FEF796FB08BDC046D405002008B5031CF5
:1025C00099680248DA68FEF793FB08BDD40500203D
:1025D00008B50248FEF7A8FB08BDC046D405002098
:1025E00010B50379042B07D0032B07D0022B07D09B
:1025F000012B07D11D4B06E01D4B04E01D4B02E0F3
:102600001D4B00E01D4B81794479022200290BD03B
:10261000012906D0914206D003394A1E91414A1C35
:1026200002E0002200E0032215498B4200D90B1C76
:10263000611E4C426141C9B2022A05D0032A05D06D
:10264000012A05D1032204E0002202E0022200E078
:1026500001221C0A037244721C0C1B0E8472C3728A
:10266000027341730748FEF713FB10BD80841E0000
:102670000024F40000127A0000093D0040420F00DF
:10268000001BB700D405002010B5041CFFF76AFF3B
:10269000044B201C08332360034BA36000236373A7
:1026A000237310BD30C1000000093D0008B50021B2
:1026B00002480A1C0B1CFFF7E7FF08BD7C0700203F
:1026C00010B5041CFFF700FEFA239B000021E381F4
:1026D000201C06238022A160217323745200113034
:1026E00005F0F4FD201C10BDC181704701747047D6
:1026F00037B5041C151CFFF739FE201C8021002271
:10270000FFF73AFE6946073121230B7001222B1C8B
:10271000201CFFF7F6FD201CFFF7DFFD37BDF0B5ED
:102720008DB0089109921D1C037B041C0133DFB29C
:10273000077300235A1CD2B20692227C9A4272D3AB
:10274000201C391CFFF712FE201C00218022FFF7FD
:1027500013FE201C0899099A2B1CFFF7D2FD201CA0
:10276000FFF7BBFDFF2D60D0069A012A02D9A368AE
:102770000133A36002F0DAFD8021059049000020BA
:10278000E68902F085FD7043C3171B0E181800126E
:102790003618B6B2079602F0C9FD079A059BD11804
:1027A000091A00293BDD89B2201CFFF79CFD002897
:1027B00032D06B462E336E462D3601930021013305
:1027C00002930096201C0A1C0BABFFF7F3FD0028B8
:1027D00022D00BAB1A78AA4201D0FE2D0DD1317850
:1027E0002379994209D16B462F331B787F2B04D96B
:1027F0006B462E331B78BB4217D06B462F331B78AA
:102800007F2B09D86B462E33A1181B78497C99423F
:1028100002D1201CFFF76CFF02F0DAFDBBE702F0EB
:10282000D7FD069B86E7002000E001200DB0F0BD3B
:10283000F0B589B0041C0D1C05920493FFF747FD09
:1028400000282DD06E466B466F461E331D361F374F
:102850000193291C00960297201C059A07ABFFF7ED
:10286000A9FD051E1CD03B787F2B19D83178FE2995
:1028700002D1201CFFF753FD337822799A4211D000
:10288000FE2B0FD007AA12786B461E33A4181B78B4
:10289000617C99420ED169461D310978FE2909D023
:1028A00000251FE06B46997F6B461A7F201CFFF7BF
:1028B0001FFFE7E70499002900D00A700E9A002A4A
:1028C00004D06A461D3212780E990A700F9A002AB7
:1028D00000D013701099002903D06A461F32127875
:1028E0000A706374281C09B0F0BDF0B587B0041CF1
:1028F0000E1C171C059302F019FD051C02F016FDB5
:10290000059BE918091A002916DD89B2201CFFF77A
:10291000EAFC00280DD00D9B201C00930E9B311C5F
:1029200001930F9B3A1C02930C9BFFF781FF002839
:1029300004D102F04DFDE1E7002000E0012007B0E6
:10294000F0BD72B6BFF35F8FBFF34F8FBFF36F8FD2
:102950000120704710B5041C006A05340368DB6869
:102960009847E07F012102F0BDFEE07F012102F0E7
:1029700013FF642002F012FD012010BD80F31088C7
:10298000BFF35F8FBFF34F8FBFF36F8FBFF35F8FC7
:10299000BFF34F8FBFF36F8F7047000070B5041CFB
:1029A0000D1C161CFFF7C0FD034B26620833236085
:1029B000631DDD77201C70BD68C10000F7B5041CE5
:1029C0000F1CEFF31086FFF7BCFF002814D0651D25
:1029D000E87F002102F0E0FE206A7F210368394091
:1029E0001B689847206A002103681B68984701907C
:1029F000E87F012102F0D0FE301CFFF7BFFF0198F5
:102A0000FEBDF7B5041C00910192EFF31086FFF7AD
:102A100098FF0025A8421DD0206A671D03681B6A25
:102A20009847291CF87F02F0B7FE206A009A0368D5
:102A3000802111431B689847051C206A019903688F
:102A40001B689847F87F012102F0A6FE206A036800
:102A50005B6A9847301CFFF791FF281CFEBDF0B55C
:102A600085B0041C0D1C01920393EFF31087FFF750
:102A700068FF0026B04229D0206A03681B6A984785
:102A8000611D0291C87F311C02F086FE206A7F2101
:102A9000036829401B689847019D061C019B039908
:102AA0005A18D2B2EBB29A4207D0206A00210368CA
:102AB0001B68984728700135F0E7029B0121D87FF9
:102AC00002F06AFE206A03685B6A9847381CFFF7C9
:102AD00055FF301C05B0F0BDF0B585B0041C0D1CD1
:102AE00001920393EFF31087FFF72BFF0026B0420C
:102AF00028D0206A03681B6A9847611D0291C87F2D
:102B0000311C02F049FE206A8021036829431B68BA
:102B10009847019D061C019B03995A18D2B2EBB24B
:102B20009A4206D0206A2978036801351B689847C5
:102B3000F1E7029B0121D87F02F02EFE206A036894
:102B40005B6A9847381CFFF719FF301C05B0F0BDD1
:102B500008B5006A03689B6A984708BD10B5C31C96
:102B6000041CD87F02F048FE0634431E9841E37FE0
:102B7000584010BD08B50430C07F02F00DFE08BDFE
:102B800008B5431D0730C27FDB7F5140181C02F09F
:102B900003FE08BD10B50379041C022B08D00021E8
:102BA000FFF7EEFF201C0021FFF7E4FF0223237153
:102BB00010BD0000082388101840031C0833DBB246
:102BC000984206D0044A125C8A4203D00130C0B257
:102BD000F6E700207047C046D8C10000F8B5041CD5
:102BE000FFF7BCFF002805D0231C2A331A780132D6
:102BF000D2B21A70221C29321178231C2B3388423E
:102C00000AD01D781D214F2D00D80B211D78691881
:102C1000C9B21970107003E01A781432D2B21A7067
:102C20001A789F2A6AD9E28D5208E285221C2A323C
:102C30001178042904D9E08D802109010143E1853F
:102C40001978251C6031C9B21970002313702C3516
:102C50002B78DBB2002B3FD0261C30363378013383
:102C6000DBB233700B2B49D9E18D3F231940201C77
:102C7000FFF7A0FFE18D071C8909C9B2201CFFF7EF
:102C800099FF231C75333F0119783843221CC0B2C9
:102C90007432002915D01978C9B24F1C611830312F
:102CA000FFB21F70487019781378994211D300232E
:102CB0002B70231C08330122DA77201CFFF76AFFF0
:102CC00007E010701178062912D9117843290FD81E
:102CD000E1E70023337011E0E18D094A91420DD103
:102CE00001222A70221C303275341370237005E0E3
:102CF00000232B70638A01339BB26382F8BDC04608
:102D0000380B0000F7B5051C78352F78041C7B1CA8
:102D10002B70002F23D1021C763201921378893256
:102D2000127A9A4206D8FFF735FFE38A01339BB245
:102D3000E38214E0C318061C773678335978337869
:102D40005A1C1941327001221140FFF713FF3378EA
:102D5000052B04D9019A37701378013313702B783F
:102D6000072B01D900232B70F7BD08B50379042B7D
:102D700002D1FFF733FF04E00379032B01D1FFF702
:102D8000C1FF08BD08B5054B10219A7B0A439A7311
:102D9000034B1868FFF7E9FF08BDC046002C00424E
:102DA0008C070020FB20704710B50379041C052B0D
:102DB0000AD001210722FFF724FE201C4021802297
:102DC000FFF71FFE052323712379052B02D102F0A3
:102DD000FFFAF9E7207EC0B210BD10B50379041CDC
:102DE000012B05D001210022FFF70BFE01232371E7
:102DF000012010BD38B5151C1A1C041CFFF7CEFDB0
:102E0000064B00220833236094235B00E254E31D49
:102E1000DD77FF220133201CDA7738BDF8C10000CE
:102E2000031C28331B78032B24D9031C29331B785C
:102E3000C371031C2A331B780372031C2B331B78CA
:102E40004372031C2C331B7883728379002B09D1C6
:102E5000C37942799A4205D0C379FE2B02D0C37957
:102E6000FF2B07D1838A012201339BB283829423F3
:102E70009340C2547047EFF3108272B6BFF35F8F76
:102E8000BFF34F8FBFF36F8F94210023490043544A
:102E90002830037082F31088BFF35F8FBFF34F8F2A
:102EA000BFF36F8FBFF35F8FBFF34F8FBFF36F8F92
:102EB00070470368F7B55B68041C0F1C151C984726
:102EC000019000282DD0002F28D0002D26D0EFF320
:102ED000108672B6BFF35F8FBFF34F8FBFF36F8F54
:102EE000231C283319782A780339914202DC1B7895
:102EF000043B2B70211C2A78381C2D3105F0C4F9B5
:102F000086F31088BFF35F8FBFF34F8FBFF36F8FD0
:102F1000BFF35F8FBFF34F8FBFF36F8F201CFFF79F
:102F2000AAFF0198FEBD000070B5041C081C0D1C12
:102F300005F044F8154B144A04F0E0F9144A154B17
:102F400003F072FD02F08CFE020C061CD2B2201CB3
:102F50000621FFF756FD320AD2B2201C0721FFF7E7
:102F600050FDF2B2201C0821FFF74BFD281C0A4936
:102F700002F06CFE431E98414042012318402A2370
:102F8000FF33E054012070BD0000000080842E411A
:102F90000000000080844E4000C04244C046C0464D
:102FA00010B50379041C022B05D001210A1CFFF780
:102FB00028FD0223237110BD38B51221041CFFF730
:102FC000FDFC2379042B02D1A023184205D12379DB
:102FD000042B64D143060FD461E0638A01339BB2B2
:102FE0006382201C1221FF22FFF70BFD201C1221FF
:102FF000FF22FFF706FD38BD1321201CFFF7DEFC82
:103000001021051C201CFFF7D9FC0D21021C201CDF
:10301000FFF7F7FC221C2B1C00212932201CFFF794
:103020001EFD231C28331D70FF221221201CFFF7D8
:10303000E8FC1921201CFFF7C1FC40B2C3179B0F0D
:103040001818952580106D0060551A21201CFFF777
:10305000B5FC20826357002B04DA228A9B189BB2AE
:10306000238207E0208A0F2100B2000102F01EFD3A
:1030700080B220822A23FF33E35C002B02D0238A14
:103080009D3B01E0238AA43B9BB22382201CFFF7D7
:10309000C7FE94235B00E35C002BA2D008E02379F9
:1030A000032B09D1030707D5E38A01339BB2E382DF
:1030B000201CFFF775FF94E72379052B00D090E7DC
:1030C000430700D48DE7012318402076F0E7000085
:1030D00008B5034B1868002801D0FFF76DFF08BD45
:1030E0009007002008B5034B5868002801D0FFF76F
:1030F00063FF08BD9007002008B5034B98680028BF
:1031000001D0FFF759FF08BD9007002010B50379E3
:10311000041C042B0AD001210522FFF772FC201C9D
:1031200040210022FFF76DFC0423237110BD10B570
:103130000379041C0020032B06D0201CFFF7E6FFB8
:1031400094235B00E05CC0B210BD10B50379041C91
:10315000032B0AD001210322FFF753FC4021201C3E
:103160000A1CFFF74EFC0323237110BDF8B5041CA5
:103170000F1C161EFB2E01D9002533E003689B6946
:103180009847201CFFF70CFF2368201C5B6A9847B8
:10319000051EF1D00D210022201CFFF732FCE27A3F
:1031A0000021201CFFF72DFC227B0021201CFFF7B3
:1031B00028FC627B0021201CFFF723FCA27B00215E
:1031C000201CFFF71EFC331C00213A1C201C043677
:1031D000FFF782FCF2B2201C2221FFF712FC201C18
:1031E000FFF7B3FF281CF8BD38B5051C0C1C002ADE
:1031F0000AD00E2904DC4B1C03DA0124644200E0EF
:103200000E240134702218E0172904DC04290BDD98
:10321000142901DC09E01724281C4D210722033C56
:10322000FFF7EFFB64B205E00524281C4D210422C2
:10323000FFF7E7FB8022053C52422243281CD2B212
:103240000921FFF7DEFB38BD38B50D1C041C0A78D8
:103250001D21FFF7D6FB6A78201C1E21FFF7D1FB4A
:10326000AA78201C2621FFF7CCFB38BD13B5041C1F
:10327000002004290BDC03225143054B01A85918F7
:1032800005F002F8201C01A9FFF7DEFF012016BDA2
:10329000E8C1000038B50A0A0D1C041C2021FFF704
:1032A000B0FBEAB2201C2121FFF7ABFB38BD0000C8
:1032B000F8B5041CFFF74EFB061E01D1002656E0B0
:1032C000E71DFD7F201C291CFFF742FC0121802205
:1032D000201CFFF796FB0A2002F060F8201C012159
:1032E000FFF76CFB8028E9D1F87F002102F0FAF9A2
:1032F000231C0833DA7FFF2A06D11E490A78032AE5
:10330000DCD8501C0870DA77DB7F1B4A99008C50A0
:10331000002B02D1281C194908E0012B02D1281CDE
:10332000174903E0022BC9D11649281C042201F0D9
:10333000EDFE0E210022201CFFF763FB00220F216F
:10334000201CFFF75EFB201CFFF72AFE0021201C3B
:10335000FFF78CFF201C0821FFF79CFF0A49201C67
:10336000FFF7E2FD201C0D210022FFF73DFF301C7E
:10337000F8BDC0469C07002090070020D130000017
:10338000E5300000F93000000000D94370B5031C9F
:10339000002001390C4A89B2914213D01C780822CE
:1033A0000125061C2E40E8402540AE4203D074257E
:1033B0006D426840C0B2013AD2B26408002AEFD12F
:1033C0000133E6E770BDC046FFFF0000F8B5071CFB
:1033D00000200C1C151C1E1C87423BD0814237D09C
:1033E0001D4F381C00F06EF9002831D0002E23D07C
:1033F000201C05F099FA033002F012F8061C201C7C
:1034000005F092FA81B2201CFFF7C0FF1349031C9C
:10341000221C301C05F05EFA381C311C002D02D035
:1034200001F0A2F901E001F089F9041C002E0DD091
:10343000301C01F0F9FF09E0381C211C002D02D0DE
:1034400001F092F906E001F079F903E0201C01E0B7
:1034500001204042F8BDC046D80A002091C20000B9
:10346000F7B584461E1C08AB1F78002063460C1C71
:10347000151C834219D0814215D0824213D00B48CB
:1034800000F020F900280ED009AA201C291C019266
:1034900006F050F9002808DB211C321C3B1C0120DF
:1034A000FFF794FF01E001204042FEBDD80A002052
:1034B00070B589000C4BC9B2021C141AE4B28C42DC
:1034C0000FD21578E60704D4DC086C43DE017440A3
:1034D00004E05C096540DE02AC19E443634001325C
:1034E000EBE7181C70BDC046AAAAAAAA7FB5074B75
:1034F000694670CB70C11B686A460B600023D158C7
:103500000968C1500433102BF9D17FBD68C2000097
:1035100070B594B007AC051C201CFFF7E7FFA3684B
:10352000079A0093E3680BA8019363680D4905F0BF
:10353000D1F9201C0421FFF7BBFF04AE0390039ACE
:10354000301C094905F0C6F92378281C0096074964
:10355000074A05F0BFF9281C1022002105F076FA71
:1035600014B070BDBFC20000CBC20000D0C20000CA
:10357000D9C2000008B50548FDF71AFC044805212A
:103580000222044BFFF736FC08BDC046D70A0020D4
:10359000A00800207C0700203F20704713B5026878
:1035A0006B46D97107335468191C0122A04716BD18
:1035B00008B50069022100F061FC08BD08B500698A
:1035C000032100F071FC08BD38B50D1C041C131C50
:1035D000006903212A1C00F063FD002801D10123AA
:1035E000636038BD10B5054C23685A1C04D10368CC
:1035F0005B6998472060031C181C10BD6800002000
:10360000074A08B51368591C04D0012149421160CA
:10361000181C03E00069022100F034FD08BDC0461B
:103620006800002008B50378034902330370422282
:10363000024800F0EBFD08BD24000020A30F00208D
:1036400010B50178031C42780020A12908D1212A55
:103650002FD118481849072200F0D8FD012028E092
:10366000212926D1202A05D113490722114800F02B
:1036700061FC04E0222A10D19A780F4BDA710E4BCC
:1036800096221968D200914210D1DC7901231C40A6
:103690000CD1FA2001F072F80AE0232A09D1DA7875
:1036A0009B7812021A43054B1A6002E001F06CF895
:1036B000002010BDA30F00201800002020000020D3
:1036C0007047000010B501F031FEF423FF330024F1
:1036D000984207D9044B0A20DC79631E9C41E4B26E
:1036E00001F05CFE201C10BD18000020064BFA21E2
:1036F00089009960054900220831196004495A601F
:1037000019611A767047C046D80A002030C30000FD
:10371000A30F002010B507230F220240141C00093C
:103720003034092A00DD0734CC54013BF4D210BDFB
:1037300070B582291ED1C2B22A495301CB189D69A6
:10374000294C80012C40C025AD052C439C61274CA1
:103750000832201858610B68520199180C798020A2
:10376000404220430871D15C7020814330200143E6
:10377000D15435E0002933D1C2B21A495301CB18D4
:103780009E68194DC0242E40A40526439E60184E05
:10379000800109683018083258605201505C0726D1
:1037A000B0430126304350549E6935402C439C6100
:1037B0000E4C5C61505C7024A04310242043505494
:1037C0009C680C488A182040802464032043986039
:1037D00098684021800B8003986053790B435371A4
:1037E00070BDC046AC0F0020FFFFFF8F000C002013
:1037F000C40D0020FF3F00F038B5041C08CC0121A7
:103800001A78051C0A431A708022201C00215200DD
:1038100004F05CFD2B689A78D107FCD45C6238BD5B
:10382000134BF0B51B6899035A029B01C90ED20EC7
:103830005B0F1F2900D105211F2A00D11D22072B54
:1038400000D1032304688E01278D0A491F253940C2
:103850003143218501682A400C8DAC4322430A85FF
:1038600002681903108D044B03400B431385F0BD10
:10387000246080003FF8FFFFFF8FFFFFEFF310830E
:1038800003600123436072B670470368002B02D1C6
:1038900062B6BFF36F8F704737B50569041C684681
:1038A000002D12D1FFF7EAFF019B013B03D3621DFC
:1038B000D57FEDB2F9E768460193FFF7E6FF0020F8
:1038C000854217D0206AE36913E0FFF7D7FF019B19
:1038D0000025013B04D3221C34321578EDB2F8E701
:1038E00068460193FFF7D1FF0020854202D0206B8C
:1038F000E36AC01A3EBD0000436810B51A68037A37
:1039000001215B01D318FF339A7A0A439A72037A32
:1039100042685B01D318C2689C6891040B4A09098C
:1039200022400A439A60037A42685B01D3189A687E
:103930004021920B92039A6043681A68037A083315
:103940005B01D3181A790A431A7110BDFF3F00F0CA
:10395000F7B50569041C0E1C171C6846002D1FD105
:10396000FFF78CFF019B013B5A1C06D0621DD17FE3
:103970005A1E00293AD0131CF6E768460193FFF758
:1039800084FF0025E369BD4235D0226A934232D2DA
:103990005A1CE261A269D3181B7873550135F1E70F
:1039A000FFF76CFF019B013B5A1C08D0221C3432EC
:1039B00015785A1EEDB2002D18D0131CF4E7684696
:1039C0000193FFF762FF0025E36ABD4226D0226B18
:1039D000934241D322E0621D0021D1773032167824
:1039E000581E8E4214D1031C5A1CF4D16846019310
:1039F000FFF74BFF38E0226A934235D10023E361A1
:103A0000012323616846FFF739FF019B013BEBE788
:103A10001170201C0193FFF76FFFF6E7226B9342B2
:103A200022D10023E36223616846FFF727FF019B51
:103A3000013B5A1CDAD0221C3432002111700132B1
:103A40001678581E8E4201D1031CF2E71170201C1B
:103A50000193FFF751FFEAE75A1CE262A26AD3180A
:103A60001B7873550135AFE7281CFEBD37B5436899
:103A7000027A1B68083252019A18041CD07901237B
:103A8000FF21184255D0D371A06865696268014072
:103A9000002D1FD14901521891688904890C2162B7
:103AA000216A002942D06361A36A68465360FFF728
:103AB000E5FE019B013B5D1C34D0621D0120D077E7
:103AC0002F3211785D1EC9B21218002915D111705C
:103AD0002B1CF0E74B01D3189A689204920C2263D6
:103AE000226B002A22D000226261A26968465A60D5
:103AF000FFF7C4FE019B013B12E001931070684682
:103B0000FFF7C3FE15E0221C343201201070621D45
:103B1000D17F5D1EC9B230320029EED111702B1C4D
:103B20005D1CF0D168460193FFF7AFFE201CFFF744
:103B3000E3FE37BD37B500236C46E3710734201C24
:103B40000D1CFFF76FFD2B681818286001F014FF9B
:103B5000211C01F0CBFE2B681818286020783EBD90
:103B600003290BD10D4BB2221B685200985C8021B7
:103B7000494201439954022168220CE001290CD1E9
:103B8000064B92221B685200985C802149420143F7
:103B9000995402212822FF3299547047AC0F00201B
:103BA00038B5304B00240121051C1A201C7001F08F
:103BB00099FD1A20012101F0EFFD2B4B1920012165
:103BC0001C7001F08FFD1920012101F0E5FD274B4C
:103BD0002021DA6901200A43DA61254B06241A788C
:103BE00002431A70234B0F221978914319701978E8
:103BF0002143197020490C782043087019780A4035
:103C00001A701A7860210A431A701C4B1C4A5A8099
:103C10005A78D209FCD11B4801F082FB1A4C201CB7
:103C2000FFF7EAFD201CFFF7FBFD23687F221978D0
:103C30000A401A701A7804210A431A701A890C2152
:103C40008A431A81C121114A890050580002000A92
:103C50005050802111601A7802210A431A70012302
:103C60002B7038BDC00D0020A80F002000040040BC
:103C7000584400413C44004159440041000C00407C
:103C800006400000D1460000AC0F002000E100E03B
:103C90000078002810D0094B01211B681A898A433B
:103CA0001A811A8B08210A431A831A8B04210A43AA
:103CB0001A83034B00221A607047C046AC0F0020E5
:103CC000B01000200F4B9A69920B92039A611B6807
:103CD0000222FF331A7298798022524202439A716B
:103CE0001A7A9007FCD5084B081C997A7F2210405D
:103CF000914301439972997A802252420A439A72FF
:103D00007047C046AC0F00200050004100780028EA
:103D100005D0034B01211B681A890A431A81704799
:103D2000AC0F002010B50B790C1C002B0BD1081C1C
:103D3000FFF786FC002804D1094B9A69920B920385
:103D40009A6101200BE001F017FE211C01F002FE38
:103D50000028F6D1024B9A69920B92039A6110BD2A
:103D6000AC0F0020F7B50E1C832A18D1CAB2354912
:103D70005301CB189C693448B6012040C024A405E7
:103D8000204398613148083286195E610B68520100
:103D9000D15C7020814340200143D15450E0022A7D
:103DA0004AD12B4A89008D580191002D48D13820E5
:103DB00001F032FB274B80270360224B7F004360DA
:103DC000431D0562866005614561C561C760DD7799
:103DD0002F33041CC56205631D70381C5D7004F030
:103DE0003FFAA061381C04F03BFAFF2315491E403E
:103DF0007601A0628E19B168134A07250A40C021D6
:103E000089050A43B260A1686268194012680831E6
:103E10004901885CA843032528438854A268616847
:103E200013405B01A269CB185A60201CFFF764FDA8
:103E3000019B07495C5003E0081C111CFFF778FC4C
:103E4000F7BDC046AC0F0020FFFFFF8F000C002025
:103E5000840F002060C3000038B5051C0124064B08
:103E6000A200D258002A06D0211C281C0134FFF7DA
:103E700079FFE4B2F3E738BD6C00002008B5084BC9
:103E80008A00D058002803D003689B68984706E052
:103E9000C9B2044B4901591888688004800C08BDD8
:103EA000840F0020AC0F002010B50C1CFFF7E6FFBC
:103EB00000280CD0064BE1B21B68083149015918A3
:103EC0004A7980235B4213434B710223CB7110BDAF
:103ED000AC0F002070B5CAB2134B144854018901CD
:103EE0005918031959609D681149083229408025E5
:103EF000AD022943996099684026890B890399602E
:103F00000368510159180D7935430D715101591844
:103F100089794D06FAD551015918C979CD07FAD5D5
:103F20000419A068C0B270BDC40D0020AC0F002001
:103F3000FF3F00F038B50C4B141C1B680D1CFF3301
:103F40005A7940210A435A710021FFF7C3FFA0426A
:103F500000D9201C0023A34204D0044A9A5CEA54EE
:103F60000133F8E738BDC046AC0F0020C40D002077
:103F700010B5C9B20C48490143189A689204920CD2
:103F80003F2A08D9141C9A68403CA404920BA40C44
:103F90009203224302E09A68920B92039A604118BE
:103FA0008868C0B210BDC046AC0F0020F0B51C1C24
:103FB0002F4B85B01B68061C0D1C0292002B51D0A4
:103FC0002C4F3978C9B2002902D1192001F0E4FB45
:103FD00064233B70284BAA00D058002805D0036802
:103FE00002995B68221C984740E0301C291CFFF7AF
:103FF00045FFA04204D2301C291CFFF73FFF041CE0
:10400000291C301CFFF7B4FF1C4FE9B24A01019193
:10401000396803928B18FF335A7A01210A431849F1
:104020005A72AB01C9180298221C04F02DF9002C19
:104030001BD0301C291CFFF721FF002815D1019B44
:104040003A6808335B01D31819794020014319718C
:104050000121D97103995318FF339A7A01210A4338
:104060009A7202E00120404200E0201C05B0F0BD41
:10407000B0100020A80F0020840F0020AC0F0020FB
:10408000C40D002013B56C460734221C0123FFF732
:104090008DFF012801D1207801E00120404216BDAA
:1040A000F0B51C1C3F4B85B01B680E1C0292002B08
:1040B0006AD08023DB019C4266D83B4D2978C9B287
:1040C000002902D11A2001F067FB642300222B7023
:1040D0000092002C56D0354DF7B22B6801933B1C53
:1040E0000833019A5B01D3189B79DB091AD0304B56
:1040F0003049186801F08CFC2F4B1721584301F010
:1041000087FC3B1C0833019A5B01D318DB799A07C3
:1041100008D42A4B9A5D002A38D1421E002835D097
:10412000101CEEE7254B00229A55251E3F2D00D985
:104130003F25234AB301D318181C02992A1C039364
:1041400004F0A2F8194A7B01D318039AA9045A6112
:104150009A69890C920B92030A439A613B1C019A5B
:1041600008335B01D3180222DA7159798022524256
:104170000A435A71009B029A5B1952190093641BFF
:104180000292A6E700980BE0012008E001229A5570
:104190007B01ED18AB69101C9B0B9B03AB6140428C
:1041A00005B0F0BDB0100020C00D0020AC0F002005
:1041B0009800002040420F0070110100F80B002011
:1041C000000C002070B50E4D1C1C8B01ED18281C36
:1041D0000E1C111C221C04F057F8F6B20949760196
:1041E00089194D618A69084B201C13408B618B69CA
:1041F000A2049B0B920C9B0313438B6170BDC046C2
:10420000000C0020AC0F0020FF3F00F0F7B5114B71
:1042100001901B780F1C141C002B19D10E4B1E781B
:10422000002E01D1151C08E00C4D0D482E88801978
:10423000361904F029F82E800AE0002D08D0BA19AA
:104240002B1C01980021FFF7BDFF36182D1AF4E74B
:10425000201CFEBDA20F0020A00F0020F60B0020A6
:10426000F50A0020F8B50E1C00AF151E012D28D947
:10427000D31DDB08DB006A46D21A9546081C04F001
:1042800053FB01306C464000032320706370022210
:10429000AA420ED23378002B0BD0511CC9B2013682
:1042A000A354A94204D0002302326354D2B2EFE7F0
:1042B0002A1C0548211CFFF7A9FF431E9841C0B2E4
:1042C00000E00020BD46F8BDA30F002008B5044B58
:1042D00000221A70034B04491A88FFF797FF08BDA4
:1042E000A00F0020F60B0020F50A0020F0B5204AB0
:1042F00087B001230026009102A91370051C0296C5
:10430000FFF718FC03AC092701903A1C201C311C54
:1043100003F0DCFF02236370A023E371FA2323720E
:10432000029B0122DB196380019B62712371104A99
:10433000009B27701670BB4205D1281C211C1A1C3B
:10434000FFF764FF11E00B4B01221A700A4B211C8E
:104350003A1C281C1E800296FFF758FF281C02A951
:10436000FFF7E8FB281CFFF7B1FF012007B0F0BD05
:10437000A20F0020A00F0020F60B002070B5CE7811
:1043800092B0051C0C1C022E08D1C9882D48FFF7DD
:10439000ADFF031C581E8341D8B251E001F0ECFA86
:1043A000211C01F0B8FA002803D0C3171B1AD80F3C
:1043B00046E0012E04D1E2882349112A3BD837E098
:1043C000032E3DD1A278002A05D12049E2880B783E
:1043D00093422DD82FE0022A03D1A279281C1C4930
:1043E00004E0012A05D1A2791A49281CFFF73AFFF7
:1043F00026E0032A24D1184B01A91868FFF78AF98F
:10440000164B03A91868FFF785F9154B05A918681D
:10441000FFF780F9134B07A91868FFF77BF901F044
:10442000ABFA09A901F087FAA279281C01A9DDE7F6
:10443000D2B2002A00D10A78281CFFF7E7FE01203B
:1044400012B070BDA30F002080C300007CC3000029
:1044500092C3000070C300000CA0800040A0800048
:1044600044A0800048A0800073B5051C48780C1C4F
:104470000B2878D801F0C2FA081C7728773E43064B
:10448000474B686F00206FE0097801AA002903D12B
:1044900011705170281C09E0002313705370334BC6
:1044A0001B78012B00D11370281C002102234FE040
:1044B0008A780023012A04D101AA137053702C4B6F
:1044C000EEE72A4A137049E08E78012E07D1284B77
:1044D00001AA00211E701170281C331C38E0002E28
:1044E00008D1224A01231370224A9169890B89035A
:1044F000916138E0A178281CFFF7E4FB33E0281C29
:10450000FFF73CFF30E0281C00211B4A1FE00A781F
:104510000020D30628D1281CFFF79EFCA27815495D
:10452000154B02241A600A682A23FF33D05C20430B
:10453000D0544A20FF30145C01231C4314548A6970
:10454000920B92038A610EE00C4A281C0021012381
:10455000FFF738FE07E08A78084B1A60054B9A6926
:10456000920B92039A61012076BDC046F40A0020A6
:10457000A10F0020AC0F0020B0100020A40F0020DD
:10458000F8B54B4B071C1C78002C00D08FE0494D30
:104590002868838B19070ED5201C211CFFF7C8F84B
:1045A0002B6810201A1CFF32917A01439172424A03
:1045B000146008229A832B689A8B50071FD5042217
:1045C0009A833E4B1A78002A0AD01A78013AD2B25E
:1045D0001A701B78002B03D11A20012101F0DCF89E
:1045E000374B1A78002A0AD01A78013AD2B21A70D8
:1045F0001B78002B03D11920012101F0CDF82B6885
:10460000FF331A7AD10626D510221A725A79402120
:104610000A432C495A710A786023381C1A4202D185
:10462000FFF722FF01E0FFF77DFB002806D02B6893
:104630008022FF33997952420A4301E0224B202223
:104640009A712B68FF331A7A500604D540221A72E9
:10465000597A0A435A722968FE230E8C00241E40A0
:10466000E1B2002E23D0321C012322411A4216D07F
:10467000221C2868083252018218D079184203D1CE
:10468000D279DA401A4207D0104BA200D058002845
:1046900009D003681B6898470123A3409E43013457
:1046A000092CDDD103E0381CFFF75AFAF4E7F8BD16
:1046B000A00F0020AC0F0020B0100020C00D002083
:1046C000A80F0020C40D0020FF500041840F0020DF
:1046D00008B50248FFF754FF08BDC046A30F0020ED
:1046E000014A024B1A60704700500041AC0F002095
:1046F000F7B58A18061C0D1C01920C1C019B671B48
:104700009C4207D0336821781B68301C98470134DD
:104710000028F3D1381CFEBD38B5051C0C1C081E42
:1047200007D004F001F92B68021C5B68281C211CCF
:10473000984738BD08B5FFF7EFFF08BD08B5FFF78C
:10474000EBFF08BD08B50249FFF7E6FF08BDC0460C
:104750009FC3000038B5041CFFF7DEFF051C201CBA
:10476000FFF7F0FF281838BD38B5041CFFF7D4FF59
:10477000051C201CFFF7E6FF281838BD014B186008
:104780007047C04694000020024B012252421A603A
:104790007047C04694000020154A1368581C25D065
:1047A000013B1360002B21D172B6124A124B043226
:1047B0009A4207D8BFF34F8F104A114BDA60BFF30C
:1047C0004F8F11E00F4B197DC807FBD5188B2021A7
:1047D000FF319208520001431983DA610A4A1A80B4
:1047E0001A7DD107FCD5E5E7C046FDE77047C04616
:1047F0009400002000000000030200000400FA05FD
:1048000000ED00E00040004102A5FFFF016070479D
:10481000F7B508AC267804689D1E27686C1EA54174
:10482000ECB2920705683A4327063A432A600268C9
:10483000072529405068B501002C00D05C032943AE
:1048400001430C435460F7BD30B50368C0251C68B4
:10485000AD0312052A402243C024A40209042140CA
:104860001143196003685A6814435C6030BD0368E3
:1048700001211A680A431A6002681168012319426B
:10488000FBD1D1691942F8D17047036802211A6837
:104890000A431A600268D3699907FCD47047036819
:1048A0001A7ED10702D41A7E9107FCD5704703689F
:1048B00000225A8370470368187E4007C00F704774
:1048C0000368187EC009704703688022197E52422F
:1048D0000A431A7670470368187E01231840704710
:1048E0000368188DC0B2704703681A7E0120024227
:1048F000FBD019857047036801229A7570470368D9
:1049000001221A757047000070B5036801268D07F3
:10491000ED0F31401C686D070907294321431960D9
:1049200004685100034801F073F80138C0B22073E5
:1049300070BDC046006CDC02036801211A680A439E
:104940001A600268116801231942FBD1D16919422A
:10495000F8D17047036802211A680A431A60026896
:10496000D3699907FCD470470368DA699107FCD4CE
:104970001A6802218A431A60704703689A6A520AC9
:1049800052021143996203681A7E5107FCD5986A56
:10499000C0B27047036801211A680A431A600268AE
:1049A000116801231942FBD1D1691942F8D170472E
:1049B000036802211A680A431A600368DA699107DA
:1049C000FCD45A8B30218A4310210A435A8302684F
:1049D000D3695907FCD47047036880221968596865
:1049E000D2020A435A6070470368034A196859683B
:1049F0000A405A607047C046FFFFFBFF30B50368AE
:104A000003241D680C40074A596824040A40ED0637
:104A100022436D0F5A60052D03D10268D3695907EF
:104A2000FCD430BDFFFFFCFF49001143036830B5E3
:104A3000CDB2598B032409092140012904D0598B97
:104A400009090C40022CF4D1596AC90AC902294348
:104A500059620368002A03D11A7ED107FCD50DE004
:104A6000187E01224008104008D1197E1142F7D06B
:104A70005968C02292020A435A6003E05B8B01200E
:104A80009B08984330BD0368283319700268107E74
:104A90000123184003D1518B1942F8D003E0528B07
:104AA000181C9208904370470368283319700368F4
:104AB00000201A7E510703D55B8B01209B08984389
:104AC000704703681868C006400F043843425841D5
:104AD000C0B270470368187E4007C00F7047036874
:104AE000187E0123184070470368588BC006C00F1A
:104AF00070470368187E8007C00F70470368588BA3
:104B00000007C00F704703681A68D206520F052AC3
:104B100002D11A7E9107FCD528331878C0B27047AD
:104B20000368224A30B5934211D0214A934211D0F2
:104B3000204A934211D0204A934211D01F4A9342F7
:104B400011D01F4A934230D10E2319220DE00923C0
:104B500014220AE00A23152207E00B23162204E0A0
:104B60000C23172201E00D231822DCB21549012085
:104B70009B08A0409B0008605B180320C0218900AF
:104B800004405D58E000FF248440A5432C1CC02550
:104B90008540281C204358508023DB011A430A4BD0
:104BA0005A805A7852B2002AFBDB30BD000800421E
:104BB000000C0042001000420014004200180042A5
:104BC000001C004200E100E0000C0040F8B5041CAD
:104BD000151C0E1C1F1CFFF7A3FF201CFFF747FE30
:104BE000B1001C220A4069072368090C0A431A60B5
:104BF000226884239375012E1AD10821012D00D13A
:104C000010210C4B79431868C00000F001FF2368A5
:104C100007219A890140D2044903D20C0A439A81A0
:104C200023680004C20C9889400B4003104398810C
:104C3000F8BDC04698000020F7B5019308AB041CEE
:104C40001F780D1C161CFFF777FE201CFFF768FF6E
:104C5000BF070C221743C022920336051640C0221C
:104C600092022D0423683E430199154035430722E3
:104C70001D600A408021236889020A435A60F7BDFB
:104C800070B5041C0E1CFFF74BFF201CFFF782FEC3
:104C9000236814221A600D4B71001D682468281CBB
:104CA00000F0B6FE0A49061C281C00F0B1FE7D2368
:104CB000FA215843C90000F0ABFE301AE668FF2322
:104CC000053818409E430643E66070BD98000020FA
:104CD00040420F000120704708B50368014A1B6A73
:104CE000984708BD13040000826D436D9A4203D0BB
:104CF000836DC018007D01E001204042704710B56F
:104D0000041C0069FFF7B3FD0023221C63659C327D
:104D1000A365A0341360236010BD0000F0B587B018
:104D200001930CAB1B78002502930DAB1B7840263A
:104D300003930EAB1B78041C04930FAB1B780F1C62
:104D40000593FA239B008360124B009208330360A3
:104D50004560291C321C143003F0B8FA201C65652C
:104D6000321CA565291C5C3003F0B0FA009A231CA4
:104D70009C331D605D6027611A72019A201C5A7273
:104D8000029A9A72039ADA72049A1A73059A1A7737
:104D900007B0F0BDB0C3000030B585B0041C08A852
:104DA000057809A8007800950190FF2002900390F3
:104DB000201CFFF7B3FF201C05B030BDF023081CFA
:104DC00018403038434258417047F0231B011940C6
:104DD00080239B0099420CD0C0239B00994206D0AF
:104DE00080235B000520994204D0002002E00720C8
:104DF00000E0062070470F231940012905D0023931
:104E00004B424B410220C01A00E0002070470000D6
:104E1000F0B5031C85B00391A433041C182718783F
:104E20003B1C4343344E0821F3185956151C00F01F
:104E3000FBFC231CA53318783B1C43430821F318C3
:104E4000595600F0F1FC231CA7331B78022B0AD122
:104E5000231CB8331878FF2805D047430821F719D9
:104E6000795600F0E1FC271CA8373878FF281AD0C3
:104E7000012100F037FC3B7818225A43B3561F4FEC
:104E8000DB01211CAC31D81908601D49B6185B182C
:104E9000211C7268B0310B60012191400A1C211C59
:104EA000B4310A601A6001210A1C039B2069FFF7D4
:104EB0008DFE291C201CFFF788FF291C071C201CC5
:104EC000FFF799FF291C061C201CFFF777FF391CF0
:104ED0000090331C20690122FFF79AFC231CA733A2
:104EE0001978013B1A782069FFF7AEFC2069FFF7BB
:104EF000CCFC05B0F0BDC04648B6000018440041E7
:104F000014440041026C436CD01A00D54030704705
:104F100010B5041C201C5C30FFF7F4FF0028F9D109
:104F20002069FFF7BCFC10BD08B51430FFF7EAFF9D
:104F300008BD026C436C9A4204DB036C406CC01ADF
:104F40003F3003E0426C036CD01A0138704708B55B
:104F50005C30FFF7EEFF08BD38B5041C0069FFF7B1
:104F6000AAFC00281FD02069FFF7BAFC636D3F221E
:104F700001331340A26D934203D0626DA2181075E5
:104F80006365231CA8331B78FF2B0CD0201C143026
:104F9000FFF7CFFF092806DC231C221CAC33B432F8
:104FA0001B6812681A602069FFF795FC002820D062
:104FB000251C5C35281CFFF7A5FF031C2069002B6E
:104FC00015D0231C221CA0339C3219681268914210
:104FD00007D01A68A95C1A683F2501322A401A6076
:104FE00001E001214942C9B2FFF77EFC01E0FFF771
:104FF00086FC2069FFF764FC002805D02069FFF7D4
:1050000063FC2069FFF753FC38BD000070B5041C39
:1050100000690D1CFFF75FFC00280FD0201C5C30DE
:10502000FFF770FF002840D008E0EFF31083DA07A5
:1050300023D4214B5A68D205D20D0BD1231C9C33AB
:10504000211C1E68A0310A6801363F2006409642A6
:10505000EBD01BE0103AD2B253B2002B08DA0F2388
:105060001A40083A154B92089200D218536804E08F
:105070009B08C033124A9B009B582069FFF72BFC0A
:105080000028DBD0201CFFF767FFD7E71A68096804
:10509000013202408A4204D01968201C5C30455419
:1050A0001A602069FFF727FC03E02069291CFFF73D
:1050B0001BFC012070BDC04600ED00E018ED00E0D3
:1050C00000E100E038B5826D436D041C9A4208D0BF
:1050D000836D3F22C3181D7D836D013313408365AB
:1050E00001E001256D42231CA8331B78FF2B0BD058
:1050F000201C1430FFF71DFF0A2805DD231CB033E8
:10510000B4341B6822681A60281C38BDF7B5182310
:10511000434301923F4A1625D3185D57071C00915F
:10512000681C76D0102D74D03B4B3C4C1E68002E72
:1051300027D1311C44223A4803F0C8F8311C4422DC
:10514000384803F0C3F8384B384910221E60CA674C
:10515000374BC02149005A50C12189005858FF26B9
:10516000B04358501A60334A334B5A802378022296
:10517000134323706378DB09012BFBD0264B0122FC
:105180001A6063690126AE40334300216361381C15
:1051900000F04AFB0099002939D0234A1368171CF4
:1051A0009C4600231E499A00634504D08858B042AB
:1051B00003D00133F6E701333B608E50194B009961
:1051C0009950072D03DD083DAD00012301E0AD003E
:1051D0000023124A9B009B189A690721A940019855
:1051E0008A439A61042812D89A6900F007FC0305E3
:1051F00007090B00052106E0042104E0032102E079
:10520000022100E00121A9400D1C15439D61B6B2A9
:10521000E660F7BD48B600004011002000180040CD
:10522000F8100020B41000203C11002004E100E040
:1052300000E100E005400000000C0040F8B500244B
:10524000094B1B689C420DD2084E094FA5003369DB
:10525000EA591A4204D0074BEB589847EB5933618F
:105260000134EDE7F8BDC0463C11002000180040B5
:10527000F8100020B4100020002110B5041E8C424C
:1052800004D003F0D9FA211C00F066FC081C10BD04
:1052900010B5041E8C4203DA081AFFF7EDFF04195B
:1052A000201C10BDFEE7FEE708B5034B1B68002B72
:1052B00000D0984708BDC0464411002038B50F49BA
:1052C0000F4CA14204D100F0B3F800F085F80BE0D8
:1052D0000C4D8D42F7D00023CA18E818A24204D220
:1052E000006804331060F7E7FEE79042EBD0064B0E
:1052F000064A9342E7D2002204C3F9E700000020E7
:10530000B0010020D0C70000B00100206C110020C7
:1053100008B500F05EF8002801D100F04FF808BD94
:10532000014B18607047C04644110020014B1868BB
:105330007047C04648110020F7B5144D144CA968B9
:105340001448626803685201D20F2E1C271C844641
:10535000B0687D6801906D016046ED0F0468AA4257
:1053600003D02A1C231C0199F2E7A342FAD1019829
:105370008142F7D30548D2184068FA23411A0648FB
:105380009B0048435343000DC018FEBD10E000E0F1
:1053900000ED00E0481100205555000070B5041ED6
:1053A00008D0054B1D681E1C00F012F833685B1B0B
:1053B000A342F9D370BDC0464811002008B5034B85
:1053C0001A6801321A60FFF7E7F908BD481100209A
:1053D000704700207047704710B500F0DDF802F00C
:1053E00019FFFFF7F8FF0120FFF7D8FF084C201C3A
:1053F000FEF7D6FB201CFEF74BFCFBF793F8FBF700
:10540000A1F9044B002BFAD000E000BFF7E7C0463B
:10541000A30F00200000000008B502F021FF08BD26
:1054200008B502F01DFF08BD08B502F023FF08BD56
:1054300070B5494A1E21536802208B4303434749F4
:1054400053608B69082423438B61454C454B9C82F8
:105450009C8A20439882101CDA689407FCD5424A43
:10546000012414701478E50704D53F4C647864B2C5
:10547000002CF7DB01249460547864B2002CFBDB31
:105480003A4D394C6560547864B2002CFBDB8225C0
:10549000354CED016580547864B2002CFBDB0224AE
:1054A0009C84DC68E606FCD5314D2E4CE562DD6857
:1054B0002C4CEE06FBD5A58C2E4E3543A584DD681D
:1054C000284CEE06FBD5A58C02263543A584DC6866
:1054D0002506FCD5234CE4686606F8D5DC68E506AD
:1054E000FCD500249460547864B2002CFBDB224D80
:1054F0001D4C656055781C4C6DB2002DFADB1E6AA0
:105500001E4D35401D621D6A8026B5431D62032372
:10551000A3601B4B636053785BB2002BFBDB002363
:105520000B72184A4B728B72CB72174BFF211A60A9
:10553000164B174A1B6812685C01D20E21401143BA
:105540009A06520F12020B1C1343124A138543682A
:1055500080221343436070BD0040004100040040BE
:105560000C06000000080040000C0040010501008E
:10557000B905FF7D040A000000070300FFFCFFFFE0
:1055800003060100006CDC0298000020246080000B
:105590002060800000400042314BFA21186810B5AD
:1055A000890000F035FA2F4B0138984224D82E4A52
:1055B0002E4B5060186AC0210002000A0906014300
:1055C00019620024072194601160196A802209027F
:1055D000090A12060A431A62254BFC211A6A0A4379
:1055E0001A62196AFC2292010A431A62196AA022FD
:1055F000D2020A431A6200E0FEE7201C00210134B7
:1056000000F070F8142CF8D11A4C63785BB2002BC0
:10561000FADB194B6380194B5A7ED209012AFAD062
:10562000E422D2009A803F22DA70597E134AC909D7
:105630000129FAD0C0235B0100201361907000F0B3
:1056400023F863785BB2002BFBDB0D4A094B5A80D1
:105650000C4BDA79D209012AFAD041225A7010BDD6
:1056600098000020FFFFFF0010E000E000ED00E0E8
:1056700000040040000C00401E40000000400042BA
:10568000214000000048004200B5144A517E131C1E
:10569000C9090129F9D00138042813D81969104A19
:1056A0000A401A615A780F218A4300F0A7F90305CE
:1056B00009070300012102E0032100E002210A435F
:1056C0005A700AE01169F0231B050B4313615378EC
:1056D0000F218B4302210B43537000BD0040004259
:1056E000FFFFFFF010B51824021C201C5043274B6D
:1056F0001818007A40B2013046D0032944D8081C5B
:10570000211C00F07BF902331121624398569A184C
:10571000C3011F4852681B189918403102200870B5
:105720000121914059602FE06243985618499A1818
:105730005268C3015B189918403106200870012196
:105740009140596099611FE051435A5610485918C9
:105750004B68D2011118C81840300624047001208B
:10576000984048600B49521850600DE062439856CB
:105770009A18C301064852681B1899184031022034
:10578000087001219140996010BDC04648B60000E4
:10579000004400411044004118235843134AF0B517
:1057A000131808241C5701341FD08256104ED20102
:1057B0005D6801249019231C8668AB401E420BD102
:1057C0000E1C771EBE41401934404030A5000478BD
:1057D0000426B4432C430470002903D10549521810
:1057E000536002E0024E92199361F0BD48B600008A
:1057F000004400411044004118235843084A08213E
:1058000013185956013109D082560649D20152184F
:105810005B68106AD8400123184000E00020704700
:1058200048B600000044004118224243F8B52D4D0F
:105830000824AA181457031C621C50D0481C0024CA
:105840000C284CD800F0DAF8071E1E1E1E1E1E1E65
:105850001E0A0A0A0A000124644240E0092902D112
:10586000181C002103E00A2904D1181C0221FFF7AB
:1058700039FF23E000240B2931D1181C0121FFF747
:1058800031FF2CE018225343EA185268EB560120EE
:10589000141C04405508DB01002C11D0124C1B19BC
:1058A0005D1930352E780C010F21314021439A18B3
:1058B000C9B22970403213781843107000240EE0EA
:1058C000094E0F279B195D1930352E789A18BE4363
:1058D0003143C9B229704032137818431070201C2C
:1058E000F8BDC04648B600000044004170B54468A9
:1058F0000E1C0025002C09D02368201C5B68311C7D
:105900009847002804DB2D18E468F3E7281C01E021
:105910000120404270BD38B544680D1C002C08D0F1
:105920002368201C9B68291C9847002802D1E46842
:10593000F4E7201C38BD38B544680D1C002C07D096
:105940002368201C291CDB689847E4682D18F5E7BC
:105950002C7038BD38B544680D1C002C08D0236865
:10596000201C1B68291C9847002803D1E468F4E731
:10597000201C00E0012038BD064B0122196810B53B
:105980001140054805D1022404700424447041608C
:105990001A6010BD541100204C1100200B1C011C7A
:1059A000021C30B519430220002900D130BD8021EE
:1059B00009068B4216D00D4904205C180C498C4214
:1059C000F4D90C4D5C198C42F0D90B4C59004908A4
:1059D0000320A142EAD9074C0020A142E6D150425F
:1059E0005041E3E7002AE1D0EFE7C0460000F0FFB6
:1059F000FFFFDF7F0000F07FFFFF0F0002B4714662
:105A000049084900095C49008E4402BC7047C04601
:105A1000002934D00123002210B488422CD3012461
:105A20002407A14204D2814202D209011B01F8E7F6
:105A3000E400A14204D2814202D249005B00F8E7AF
:105A4000884201D3401A1A434C08A04202D3001BDB
:105A50005C0822438C08A04202D3001B9C0822430E
:105A6000CC08A04202D3001BDC082243002803D04C
:105A70001B0901D00909E3E7101C10BC704700287E
:105A800001D00020C04307B4024802A14018029090
:105A900003BDC046D90000000029F0D003B5FFF7D0
:105AA000B9FF0EBC4243891A1847C046002941D0AD
:105AB00010B4041C4C40A44601230022002900D548
:105AC0004942002800D5404288422CD301242407B3
:105AD000A14204D2814202D209011B01F8E7E4008D
