:1000000000800020B54900009F4900009F49000082
:1000100000000000000000000000000000000000E0
:100020000000000000000000000000009F490000E8
:1000300000000000000000009F490000094A000085
:100040009F4900009F4900009F490000890D000062
:10005000354900009F4900009F490000A149000068
:100060009F490000ED1100009F4900009F490000DA
:10007000C10B00009F490000FD1100009F490000D6
:100080009F4900009F490000812400009F49000013
:10009000000000009F4900009F4900009F490000A8
:1000A0009F4900009F4900009F4900009F490000B0
:1000B0000000000010B5064C2378002B07D1054B3B
:1000C000002B02D0044800E000BF0123237010BDC4
:1000D000B00100200000000084B8000008B5084B03
:1000E000002B03D00748084900E000BF0748036819
:1000F000002B03D0064B002B00D0984708BDC0460C
:100100000000000084B80000B4010020A00100201D
:1001100000000000014B01221A707047F502002018
:10012000F0B5112093B004F0F7FC9F49069007F05A
:1001300057FF9E4E9E4CFE23301C237001F057FC4F
:1001400000902378069A1025019302929949012282
:1001500000230395984802F0FFFC2A1C2378301CEA
:10016000069901F05AFE021E0DD09448012100228A
:1001700002F0ACFC0B277B1EDFB2002F0FD19048A2
:1001800001213A1C01E08F48012102F09FFC069AF0
:10019000002A00D105E1101C04F0C2FC01E16E460A
:1001A000323616233370884D332300246B4400937A
:1001B0000194029403947D48291C321C834B01F066
:1001C00012FFA042D7D0337878480593AC7501F080
:1001D00057FC059A02900192332200956A441378E5
:1001E000754803937A49231C012202F0B5FC337849
:1001F000162BC0D11022281C211C2C7407F08AFF5A
:10020000744B1A688242B6D15B688B42B3D13A23F1
:10021000664837782B7401F033FC33220290009546
:1002200001976A4413786C4903930122231C6248A6
:1002300002F092FC281C1430211C102207F05CFFF5
:10024000C3B2061C0593FF2B03D164480121221C75
:100250009BE7281C1022211C1130EC7407F04CFF86
:10026000F6B20DAD09900599504801F0E2FB331C40
:100270000B965B494C4AFE26281C07F08FFE594915
:100280000122231C009501964B4802F065FC47486B
:10029000291C1322331C01F0C0FD00280FD0099A3D
:1002A0005148D2B20A920121221C02F00FFC0B230A
:1002B0000793079B013BDBB20793002B04D13B481C
:1002C000FC2101F0B6FB62E76F463F4D6E4600240D
:1002D0003237212333363B70344800960194029420
:1002E0000394291C3A1C394B01F07DFEA042E0D05A
:1002F0003A78AB1C2D48DC77089201F0C1FB089BD3
:1003000002900095019333782B4803933049231CC6
:10031000012202F021FC3B78212BCAD1281C211C90
:100320000A22173007F0E8FE071C281C211C1022A7
:100330001430AC7507F0E0FE0890281C211C102238
:100340001130EC7407F0D8FE1022061C211C281C6A
:100350002C7407F0DFFE1F4B1A688242A9D15B683C
:100360008B42A6D10A9BF6B29E42A2D1089A059B67
:10037000D5B29D429DD11D48391C00F053FE0C4B57
:100380000A9A0D481A70099A1949D3B200930B9B27
:1003900001220193231C02F0DFFB164B01221A708D
:1003A000F5E613B0F0BDC04600000020E0010020DB
:1003B000F4020020E0A9000040090020FCA9000090
:1003C00030AB00004FAB0000100700208813000086
:1003D0000CAA00003809002043AA00008BAA0000E4
:1003E000A2AA0000AAAA0000EAAA00003F0A002070
:1003F0006AAB0000F7020020F0B5222085B004F0BF
:100400008BFB2A49041C07F0EBFD294D281C00F04A
:10041000A3FF071C281C00F053FF061C381C07F024
:1004200049F9251C1035021C0B1C281C214907F01A
:10043000B5FD301C07F03EF907350B1C021C1E49A8
:10044000281C07F0ABFD1F21201C02F01FFB021C23
:10045000201C1A491F3007F0A1FD194E2125301C20
:1004600001F0C5FA174F00903B781749019301221C
:10047000002302940395154802F06EFB2A1C3B787A
:10048000301C211C01F0C9FC021E03D010480121C0
:10049000002201E00F48012102F018FB002C02D0DD
:1004A000201C04F03DFB05B0F0BDC046000000205C
:1004B000D0010020D3AB0000DBAB0000A5AA0000F8
:1004C000E0010020F4020020E0A900004009002023
:1004D000FCA900004FAB000008B5074B1B78002BB0
:1004E00002D0FFF789FF01E0FFF71AFE0348012160
:1004F000002202F0EBFA08BDF702002061B4000010
:10050000F8B51E20002104F069FC564B0021186844
:1005100004F064FC544B0021186804F05FFC534B5A
:100520000021186804F05AFC514B01211D68281C59
:1005300004F054FC281C012104F0AAFC4D4B0121BD
:100540001C68201C04F04AFC201C012104F0A0FCC3
:100550000D20012104F042FC0D20002104F098FC44
:10056000E1214902444802F03BFC444804F092FA7D
:10057000434802F047FB0B1C4249021C42480A60F8
:100580004B6001F086F8021E03D14048012102F0C1
:100590009DFA3F4BFD221A703E4B00241C703E4BCF
:1005A00001271F703D4B3E4E1C703E4B301C211CE2
:1005B0001C7001F019FC301CC82101F013FC301C28
:1005C00001F044FA384B021C1870A04204D1391CC7
:1005D000364802F07BFA09E0354E3649301C02F00D
:1005E00023F8301C1721221C02F07EF90022012181
:1005F000314802F06BFAE8B201F044F92F4B021CCB
:10060000187003D12E48012102F060FA01F0A4F81D
:100610001A4804F03FFA2B4E2B4C0025301C291CA5
:1006200065712571E570A5706570257000F076FD27
:10063000301CE1782279637900F01EFC627823781F
:10064000A178301C00F064FC301C00F0BDFB301CB5
:100650001E4900F0C7FB2A1C01211D4802F036FA92
:10066000F8BDC0462CB3000024B3000028B300003E
:1006700020B3000030B30000400A0020983A000088
:100680000000002038090020D0010020E4AB000069
:10069000F4020020F7020020F5020020CC01002027
:1006A000E0010020F80200200F0700200BAC000042
:1006B0000C0800203333654431AC0000F602002002
:1006C00053AC00003F0A002009070020150100007C
:1006D0007DAC000008B50549FC22054801F06EFB21
:1006E0000448054900F0E2FD08BDC0460C080020A2
:1006F000E0010020D0010020FC020020414BF7B5B2
:100700001A78002A7CD000261E703F4B3F4C1B7885
:10071000B34272D03E4D2F78B7425CD13D4B1A7830
:10072000082A21D801321A7004F082F9061CFFF75A
:10073000D3FE04F07DF9861B3B1C009636483749F2
:10074000012202F009FA2B78002B2AD1201C00F09C
:10075000A1FC3C210A3004F07BFD201CC9B200F052
:10076000E9FB201C012117E02D4B1A78092A16D825
:1007700001321A70FFF7B0FE2B78002B11D1201C2C
:1007800000F092FC3C21013004F062FD201CC9B253
:1007900000F0E2FB201C022100F004FB01E0FFF767
:1007A0009BFE2B78002B25D0201C00F073FC011C35
:1007B000201C00F0BFFB201C00F076FC3C21013027
:1007C00004F046FD201CC9B200F0C6FB201C02212B
:1007D00000F0E8FA0EE004F02BF9051CFFF77CFEB0
:1007E00004F026F9451B00950B480E490122331CE5
:1007F00002F0B2F90C4801F06EFE201C00F0F8FA8D
:10080000F7BDC046F50200200F0700203F0A002078
:10081000F7020020CC0100204009002096AC000027
:10082000F8020020BBAC00000C080020002070473C
:10083000F8B5051C0F1C161C0024B44208D02B6808
:10084000395D1B68281C9847002801D00134F4E763
:10085000201CF8BD7047031CFC33196ADA69914209
:1008600003D01B6AC018007E01E00120404270479F
:10087000031CFC33D8691B6AC01A01D50130FF3054
:1008800070470000F7B50193FA239B008360134B78
:100890008026002576000833041C0F1C4560291CA7
:1008A00000920360321C183007F074F8231C902269
:1008B000FC335200DD61A0181D62321C291C07F0B8
:1008C00069F887229200A3185D60019A9D60009BE1
:1008D0002761A575201C23756275FEBDE8AC00007C
:1008E00070B50D49041C006903F046FD206903F052
:1008F000DAFB1826207D331C4343084D0821EB18F2
:10090000595604F00DFB607D08214643AD19695628
:1009100004F006FB70BDC046A086010010AD0000CB
:100920008A2387229B009200C154831800225A60B8
:100930009A60012383757047031CFC335A6810B515
:1009400001329C68D2B2A24202D05C6801555A6062
:1009500010BDF7B501930023041C151C181C9A4206
:1009600031D0221CFC32D36120691362012203F0D2
:10097000D7FB002825D0206903F041FC271C18373D
:10098000011C381CFFF7D8FF01262069AE420ED0AB
:1009900003F0A6FB0221206903F0ACFB206903F001
:1009A0002EFC011C381CFFF7C7FF0136EDE703F0F2
:1009B0008EFB019B002B05D02069032103F09AFBDD
:1009C00000E0051CE8B2FEBD08B50123FFF7C1FF3A
:1009D00008BD10B5827D00239A420DD08724A40063
:1009E0000219546892680134E4B2944204D0213070
:1009F000FF30FFF7A1FF0123181C10BD031CFC33BF
:100A000099685A68914206D09A68805C9A68013267
:100A1000D2B29A6001E001204042704770B50022D6
:100A20008A2382759B00041C0E1CC15C006903F0C4
:100A300077FB002805D12069032103F05BFB022529
:100A400023E090235B00E01887239B00E2185168A5
:100A50009368CB1A01D50133FF33002B0ED02569E3
:100A6000FFF7CCFFC1B2281C03F089FB0028E8D1B6
:100A70002069032103F03EFB032506E01D1C002E28
:100A800003D02069032103F035FB281C70BD08B595
:100A90000121FFF7C3FF08BD08B51830FFF7AEFF0F
:100AA00008BD38B5041C006903F087FB002800D19D
:100AB00084E0206903F08FFB00280ED1206903F049
:100AC00094FB00281FD0206903F08AFB00281AD06D
:100AD000206903F08FFB002815D1206903F000FB8B
:100AE0002069032103F006FB8C239B00E558002DB1
:100AF00004D02368201C1B699847A847FC340023B6
:100B0000E36123625AE0206903F06FFB031C206954
:100B1000002B19D003F0E4FA2069032103F0EAFA6C
:100B2000206903F067FB002848D087229200A318B1
:100B300000225A609A600123A3758B239B00E3581F
:100B400093423BD0984739E003F040FB002835D072
:100B5000206903F04FFB002816D087239B00E21882
:100B600051689368CB1A01D50133FF33FF21002B65
:100B700005D090225200A018FFF740FFC1B22069B3
:100B800003F00EFBA07519E0231CFC33DA691B6A25
:100B90000132D2B220699A4202D103F098FA09E0F8
:100BA00003F02DFB011C201C1830FFF7C5FE206947
:100BB00003F096FA2069032103F09CFA38BD000087
:100BC00008B50248FFF76DFF08BDC046FC020020D3
:100BD00008B50348034914221523FFF753FE08BD47
:100BE000FC020020C4060020437A002B04D183724B
:100BF000C372C36001234372704730B585B0041CD3
:100C000002AD00680291039203F024FA6B79E17956
:100C1000227A00932068002303F08AFB2979206858
:100C2000029A03F0E7F9206803F00AFA05B030BD34
:100C300070B5041C1826FFF7D7FF2079331C4343F7
:100C40000D4D0821EB18595604F06AF9A079331CB0
:100C500043430821EB18595604F062F960790821E2
:100C60004643AD19695604F05BF9044B201C06CBD2
:100C7000FFF7C3FF70BDC04610AD00003005002077
:100C800010B5041C006803F0CDF90023637210BD99
:100C900007B5837A00910192002B0DD09A0706D5F3
:100CA000EFF310835A425341C37272B604E0DA077D
:100CB00002D58289034B9A600099019AFFF79DFF44
:100CC00007BDC04600180040837A002B0BD09A075E
:100CD00004D5C37A002B06D062B604E0DA0702D549
:100CE0008289014BDA6070470018004008B500683F
:100CF00003F0BEF908BD70B5041C00680D1C03F0BC
:100D0000B2F901280ED1E9B2201CFFF7EFFFFF2650
:100D1000B54305432904090E201CFFF7E7FF3540C2
:100D200000020CE0290A201CFFF7E0FFFF2600026A
:100D300035400543E9B2201CFFF7D8FFB543054312
:100D4000A8B270BD70477047094B0A4A0A491A6039
:100D500000225A711A71094B196016211971182154
:100D600099711721597101215A72D9711A727047FC
:100D70003005002000093D00D40600203805002081
:100D8000002303707047000008B5044B1B68002B5C
:100D900000D09847024B01221A7208BD4805002076
:100DA000001400400378002B0AD0064B081C197F62
:100DB000072210409143014319779A7AD209FCD156
:100DC0007047C046001400400378002B07D0044B46
:100DD00007211A7F8A431A779A7AD209FCD1704781
:100DE00000140040014B19607047C04648050020C0
:100DF000034B04211A690A431A6130BF7047C04689
:100E000000ED00E00378002B0AD0064B081C19699E
:100E10003F2210409143014319619A7AD209FCD1D3
:100E20007047C046001400400378002B0BD0064BDF
:100E30003F2211408A011869044901401143196198
:100E40009A7AD209FCD17047001400403FF0FFFFAE
:100E50000378002B0BD0064B1F2211400A031869A0
:100E600004490140114319619A7AD209FCD17047B3
:100E700000140040FF0FFEFF70B5161C0278041C22
:100E80000D1C002A0AD0191CFFF7BCFF201C311CC6
:100E9000FFF7CAFF201C291CFFF7DAFF70BD000016
:100EA0000378002B0BD0064B1F2211404A0418690F
:100EB00004490140114319619A7AD209FCD1704763
:100EC00000140040FFFFC1FF0378002B0BD0064B3E
:100ED0000F2211408A051869044901401143196124
:100EE0009A7AD209FCD1704700140040FFFF3FFC02
:100EF0000378002B09D0054B8A06196989018909F5
:100F0000114319619A7AD209FCD17047001400404C
:100F100070B51D1C0378041C161C002B09D0FFF7AC
:100F2000BFFF201C311CFFF7CFFF201C291CFFF73F
:100F3000DFFF70BD0378002B0AD0064B081C9969AF
:100F40003F2210409143014399619A7AD209FCD122
:100F50007047C046001400400378002B0BD0064BAE
:100F60003F2211408A019869044901401143996167
:100F70009A7AD209FCD17047001400403FF0FFFF7D
:100F8000037873B5002B3ED01F4B994200D81F4900
:100F900001A8019106F08AFC1D4B44691969643C63
:100FA0008901A40689092143196104690F210134CB
:100FB0001D690C401749A405294021431961C568E2
:100FC0001E691F21144C0D406D0434402C431C61DC
:100FD00084681D6921400C0310493F2229402143A8
:100FE000196144681D690E491440A4012940214338
:100FF00019610168186911409043021C0A431A6183
:101000009A7AD209FCD173BD7F436D3880436D3825
:1010100000140040FFFF3FFCFFFFC1FFFF0FFEFF7A
:101020003FF0FFFF08B50378002B03D0024BC9182F
:10103000FFF7A6FF08BDC04680436D380A4B0B4A38
:101040009A605A7852B2002AFBDB0949064A51607D
:101050005A7852B2002AFBDB0649034A51805A787B
:10106000D209FCD17047C046000C004002040000C9
:1010700002051100044200000378002B05D0034B49
:10108000034A5A809A7AD209FCD170470014004072
:101090000080FFFF08B5FFF7EFFF024B18693F2301
:1010A000184008BD0014004008B5FFF7E5FF024BEB
:1010B00018690005800E08BD00140040044B022191
:1010C0001A888A431A809A7AD209FCD17047C0469E
:1010D00000140040044B02211A880A431A809A7AAD
:1010E000D209FCD17047C04600140040044B0121D6
:1010F0001A880A431A809A7AD209FCD17047C046EE
:1011000000140040044B01211A888A431A809A7AFD
:10111000D209FCD17047C04600140040F7B52B4BF4
:101120000F1C9A6920210A439A61294A294B0026FB
:10113000051C9A82284CB7420AD1284B1A78702392
:101140001A4240D023881A073DD522690126019210
:10115000281CFFF773FF281CFFF7B0FF281CFFF7C0
:10116000C5FF62881E4B134063801E4B2380A27A0A
:10117000194BD209FBD11C4A08211160C0218900FA
:1011800050580002000A5050DA7901210A43DA71FE
:101190001A7F07218A431A77A37ADB09FCD1281C1E
:1011A000FFF798FF281CFFF7ADFF002F02D00123A7
:1011B0002B70F7BD002EFAD0074B019A1A61A37A63
:1011C000DB09FCD1F3E73E1CC2E7C0460004004047
:1011D000CE06000000080040001400403804004023
:1011E000FFBFFFFF080A000000E100E008B5024869
:1011F00003F02EFA08BDC0460806002008B50248D4
:1012000003F026FA08BDC0464C050020F7B5164F7E
:101210001649381C02F070FE1549164802F06CFEA3
:101220001549164802F068FE1549164802F064FE9A
:101230001549164802F060FE154D03260124281CAE
:10124000144902F059FE391C0096231C0194002217
:10125000114803F01DF90096291C01941F221E233A
:101260000E4803F015F9F7BDC8060020000800423B
:10127000000C0042CC06002000100042D0060020E6
:1012800000140042C406002000180042D4060020CA
:10129000D8060020001C0042080600204C05002053
:1012A00008B50368C9B21B68984708BD402383721C
:1012B00003220023C16043600360027243727047DF
:1012C00070B5041C817AC068FFF72AFBE068F5213D
:1012D000FFF7E6FFE068FFF7DAFB002801D01A48C5
:1012E00030E003F09FFB051C03F09CFB401B6328D0
:1012F000F5D8A17AE0680322FFF766FB03281DD129
:10130000E06803685B699847051CE06802685269F9
:101310009047061CE068026852699047280206431D
:10132000B0B204F091FB094904F0F4F8DE2189051C
:1013300004F0F0F8064904F017FA03E0062003F081
:10134000A9FBD1E770BDC0460000C07F0000FA4293
:101350000000C0400000000070B5041C817AC06825
:10136000FFF7DEFAE068F321FFF79AFFE068FFF786
:101370008EFB002801D024483AE003F053FB051C03
:1013800003F050FB401B6328F5D8A17AE0680322E4
:10139000FFF71AFB032827D1E06803685B699847C9
:1013A000051CE068026852699047061CE068026804
:1013B0005269904728020643B0B204F045FB06F09C
:1013C00079F90E4B0C4A05F015FB06F0C5F9DE2144
:1013D000890504F09FF806F06DF9094A094B05F0FC
:1013E00099FD06F0B9F903E0062003F053FBC7E7C7
:1013F00070BDC046C046C046D7A3703D0AF76540E1
:10140000CDCCCCCCCC6C47400000C07FC046C046A1
:1014100010B5041C817AC068FFF782FAFE21E068EB
:10142000FFF73EFFE068FFF732FB322003F032FBAC
:1014300010BD70B5041C817AC068FFF771FAE068CE
:10144000842103681B689847E068B82103681B681B
:101450009847E068FFF71BFB03F0E4FA051C03F074
:10146000E1FA401B63281DD8A17AE0680222FFF749
:10147000ABFA061E022E11D1E06803685B6998473B
:10148000C5B2E06803685B699847FF2D03D0202D43
:1014900002D1351C00E00125657205E0022003F051
:1014A000F9FADCE70023637270BD38B5041C817A59
:1014B000C068FFF735FAE068FA2103681B689847AF
:1014C000E0680F2103681B689847E068FFF7DFFAC0
:1014D00003F0A8FA051C03F0A5FA401B632800D905
:1014E000ACE0A17AE0680822FFF76EFA082803D082
:1014F000022003F0CFFAEEE7E06803685B699847E3
:101500002060E06803685B6998472268E06813021E
:10151000236003685B699847236818432060E0688C
:1015200003685B6998472268E068130223600368D8
:101530005B699847236818432060E06803685B692B
:1015400098472268E0681302236003685B69984744
:10155000236818432060E06803685B699847A17AB4
:10156000E068FFF7DDF9E068FC2103681B68984735
:10157000E068C92103681B689847E068FFF787FAAD
:1015800003F050FA051C03F04DFA401B632855D8B0
:10159000A17AE0680822FFF717FA082803D0022092
:1015A00003F078FAEFE7E06803685B6998476060EA
:1015B000E06803685B6998476268E06813026360EB
:1015C00003685B699847636818436060E068036874
:1015D0005B6998476268E0681302636003685B694F
:1015E0009847636818436060E06803685B699847E0
:1015F0006268E0681302636003685B699847636828
:1016000018436060E06803685B699847E379142BCE
:1016100001D1022304E0142B0CD8002B02D10023AB
:1016200023720BE00D2B03D10123F9E7FF2BF6D03A
:101630000423F5E7152BF9D10323F1E738BD38B5BD
:10164000041C0D1C817AC068FFF76AF9E068291C48
:1016500003681B689847E068FFF719FA03F0E2F99E
:10166000051C03F0DFF9401B632810D8A17AE0685D
:101670000122FFF7A9F9012805D1E06803685B6939
:101680009847C0B204E0022003F004FAE9E7002022
:1016900038BD10B5041CC068FFF722F9201CFFF705
:1016A000B7FE201CE721FFF7CAFF00233A2806D126
:1016B000201CFFF7FAFE201CFFF7BBFE0123181CBD
:1016C00010BD0000F7B500236A461D4C537113711D
:1016D000201C019A1B49FFF7DBFA1B4E1B4D336898
:1016E0002A68201C5A611A4B1F7802231F4016D00B
:1016F0007021FFF7FBFA0021201CFFF7F7FA33688F
:101700002A68071C9A61201CFFF7DEFA7F239F439B
:10171000FFB2002FD7D00F4B00221A70F7BD052162
:10172000FFF7E4FA391C201CFFF7E0FA33682A6857
:10173000071C9A61201CFFF7C7FAFB07C3D4EAE72E
:1017400038050020001BB700E0060020E40600205A
:10175000DC060020DD06002073B50E4B1B78002B45
:1017600001D0FFF7AFFF0C4E00236A46537113718F
:10177000301C019A0949FFF78BFA094D094C2B6877
:101780002268301C5A61B921FFF7B0FA2B68226831
:101790009A6173BDDD06002038050020001BB700EC
:1017A000E0060020E4060020F0B5204B85B01B7851
:1017B000051C002B01D0FFF785FF1D4E0024694654
:1017C0004C730C73301C1B49039AFFF761FA1A4FD4
:1017D0001A4A3B6812689F215A61301CFFF786FA4B
:1017E000211C301CFFF782FA211C2870301CFFF7E7
:1017F0007DFA211C6870301CFFF778FA2B78A870EE
:10180000012B09D1211C301CFFF770FA211CE87054
:10181000301CFFF76BFA287108493B680A68301CD6
:101820009A61FFF751FA05B0F0BDC046DD06002011
:1018300038050020001BB700E0060020E406002069
:1018400083781A1C103A0F2A04D91A1C203A052A48
:1018500003D8063B0120984012E00278002A03D109
:101860004278002A0AD105E0FF2A07D14278FF2AF0
:1018700004D1FF3B581E8341180501E0802040033E
:101880007047000018234343474AF0B59956071C98
:101890004648D318464DC9015B6809180126454CD6
:1018A0002960311C85B0994043482160FFF7C0F999
:1018B000311C381C03F092FA2B68226868469A6142
:1018C000FFF772FF684603783B4E002B07D1407844
:1018D00000280CD169468B78002B08D161E0FF2BE2
:1018E00005D14378FF2B02D18378FF2B55D0684672
:1018F000FFF7A6FF00228021131C4904884238D933
:1019000002AB5A711A712D49301C039A0291FFF7EC
:10191000BFF968460378012B0AD12B682168301C77
:101920005961BC214901FFF7E6F92B68226815E0EF
:101930002B682268301C5A610621FFF7D7F92B6803
:10194000226810219A610139FDD1B7215A61301CFA
:10195000FFF7CCF9164B174A1B6812689A61301CC6
:10196000FFF7B2F968460378202B01D0012300E08D
:10197000092369460A78012A04D10A79002A0ED17E
:10198000142202E0202A01D1022213430C4A6846A5
:101990001370FFF709FF012003E0002001E004229B
:1019A000F3E705B0F0BDC04610AD000000440041B3
:1019B000E0060020E406002038050020001BB700E8
:1019C000DC06002001600271704708B500680368FA
:1019D0005B68984708BD08B5006803689B6998472D
:1019E00008BD08B5006803681B6A984708BD007900
:1019F000704708B5006803681B6B984708BD70B551
:101A00000E1C041C191C151CFFF7F3FF2068311C69
:101A100003682A1CDB68984770BD08B50068036836
:101A20005B6B984708BD08B5006803689B6B9847D7
:101A300008BD38B5041C00680D1C0368DB6A9847B4
:101A4000291C201CFFF7EFFF257138BD38B5041C99
:101A5000006803681B689847051E03D02179201C85
:101A6000FFF7E7FF281C38BD08B500680368DB6B8B
:101A7000984708BD08B5006803681B6C984708BD07
:101A800008B5006803689B6C984708BD08B50068F6
:101A90000368DB6C984708BD08B5006803681B6DD8
:101AA000984708BD08B5006803685B6D984708BD96
:101AB000F8B5041C00681D1C0368069F9B68079E00
:101AC0009847002398421AD09D4203D0201CFFF76C
:101AD000DDFF2870002F03D0201CFFF7D1FF3870E6
:101AE000002E03D0201CFFF7D7FF3070089B002B7F
:101AF00004D0201CFFF7D6FF089B18700123181C88
:101B0000F8BD012070470020704781717047417116
:101B10007047C1727047C17170470173704741735C
:101B20007047837B9343194381737047C079C0B278
:101B30007047007AC0B27047407AC0B27047807A6E
:101B4000C0B2704700207047408A80B27047808AD8
:101B500080B27047C08A80B2704710B5041C2368F9
:101B6000201C5B689847002802D102F0ADFFF6E721
:101B700010BD10B5041C2379032B02D102F0A4FF81
:101B8000F9E7012010BD70B5041C0D1C02F04AFFDE
:101B9000061C02F047FF801BA84208D22368201CC5
:101BA0005B689847002804D102F08EFFF1E700201F
:101BB00000E0012070BD70B5061C0C1C02F032FF65
:101BC000051C02F02FFF401BA04205D23379032BE6
:101BD00004D102F079FFF4E7002000E0012070BD9D
:101BE00038B5041CE3690120002B1AD002F01AFF5B
:101BF000051C2368201C9B6A984700280ED002F021
:101C000011FFE369401B98420AD80A21012002F023
:101C1000BBFE6423584302F03DFFEAE7012000E0E9
:101C2000002038BD074BFF220833036000230371F7
:101C300042714382C2728382027343738373C3828D
:101C4000C361704730B100007047704770477047FC
:101C50007047417170478171704701717047000092
:101C600010B5034C0171083404604271837110BDDA
:101C7000A0B100007047000008B50248FFF736F831
:101C800008BDC0463805002008B50248FFF75AF8DD
:101C900008BDC0463805002008B50248FFF753F8D4
:101CA00008BDC0463805002008B50248FEF7E8FF29
:101CB00008BDC0463805002008B5031C99680248D5
:101CC000DA68FEF7E5FF08BD3805002008B50248D0
:101CD000FEF7FAFF08BDC0463805002010B50379AD
:101CE000042B07D0032B07D0022B07D0012B07D1E1
:101CF0001D4B06E01D4B04E01D4B02E01D4B00E0B8
:101D00001D4B81794479022200290BD0012906D08C
:101D1000914206D003394A1E91414A1C02E000223A
:101D200000E0032215498B4200D90B1C611E4C4276
:101D30006141C9B2022A05D0032A05D0012A05D182
:101D4000032204E0002202E0022200E001221C0A39
:101D5000037244721C0C1B0E8472C37202734173B3
:101D60000748FEF765FF10BD80841E000024F400C4
:101D700000127A0000093D0040420F00001BB7002E
:101D80003805002010B5041CFFF76AFF044B201C27
:101D900008332360034BA36000236373237310BDD8
:101DA000D8B1000000093D0008B5002102480A1C16
:101DB0000B1CFFF7E7FF08BDE806002010B5041C68
:101DC000FFF700FEFA239B000021E381201C06237D
:101DD0008022A160217323745200113005F0DAFDD6
:101DE000201C10BDC18170470174704737B5041CB9
:101DF000151CFFF739FE201C80210022FFF73AFE58
:101E00006946073121230B7001222B1C201CFFF790
:101E1000F6FD201CFFF7DFFD37BDF0B58DB0089152
:101E200009921D1C037B041C0133DFB207730023DE
:101E30005A1CD2B20692227C9A4272D3201C391CC0
:101E4000FFF712FE201C00218022FFF713FE201C4A
:101E50000899099A2B1CFFF7D2FD201CFFF7BBFD48
:101E6000FF2D60D0069A012A02D9A3680133A3602E
:101E700002F0D8FD8021059049000020E68902F09B
:101E800083FD7043C3171B0E181800123618B6B224
:101E9000079602F0C7FD079A059BD118091A002979
:101EA0003BDD89B2201CFFF79CFD002832D06B4639
:101EB0002E336E462D360193002101330293009696
:101EC000201C0A1C0BABFFF7F3FD002822D00BAB44
:101ED0001A78AA4201D0FE2D0DD13178237999428A
:101EE00009D16B462F331B787F2B04D96B462E33D9
:101EF0001B78BB4217D06B462F331B787F2B09D83A
:101F00006B462E33A1181B78497C994202D1201CC4
:101F1000FFF76CFF02F0D8FDBBE702F0D5FD069B92
:101F200086E7002000E001200DB0F0BDF0B589B0DB
:101F3000041C0D1C05920493FFF747FD00282DD0CB
:101F40006E466B466F461E331D361F370193291CA4
:101F500000960297201C059A07ABFFF7A9FD051E06
:101F60001CD03B787F2B19D83178FE2902D1201C58
:101F7000FFF753FD337822799A4211D0FE2B0FD010
:101F800007AA12786B461E33A4181B78617C99420D
:101F90000ED169461D310978FE2909D000251FE0C0
:101FA0006B46997F6B461A7F201CFFF71FFFE7E700
:101FB0000499002900D00A700E9A002A04D06A46BB
:101FC0001D3212780E990A700F9A002A00D01370F1
:101FD0001099002903D06A461F3212780A70637480
:101FE000281C09B0F0BDF0B587B0041C0E1C171CEE
:101FF000059302F017FD051C02F014FD059BE9187E
:10200000091A002916DD89B2201CFFF7EAFC002816
:102010000DD00D9B201C00930E9B311C01930F9B38
:102020003A1C02930C9BFFF781FF002804D102F0B9
:102030004BFDE1E7002000E0012007B0F0BD72B6E3
:10204000BFF35F8FBFF34F8FBFF36F8F01207047D8
:1020500010B5041C006A05340368DB689847E07F0C
:10206000012102F0BBFEE07F012102F011FF64209C
:1020700002F010FD012010BD80F31088BFF35F8FC8
:10208000BFF34F8FBFF36F8FBFF35F8FBFF34F8FE0
:10209000BFF36F8F7047000070B5041C0D1C161C39
:1020A000FFF7C0FD034B266208332360631DDD7715
:1020B000201C70BD10B20000F7B5041C0F1CEFF31C
:1020C0001086FFF7BCFF002814D0651DE87F0021B3
:1020D00002F0DEFE206A7F21036839401B689847C2
:1020E000206A002103681B6898470190E87F01215E
:1020F00002F0CEFE301CFFF7BFFF0198FEBDF7B522
:10210000041C00910192EFF31086FFF798FF002561
:10211000A8421DD0206A671D03681B6A9847291CC6
:10212000F87F02F0B5FE206A009A0368802111430F
:102130001B689847051C206A019903681B6898472B
:10214000F87F012102F0A4FE206A03685B6A9847C9
:10215000301CFFF791FF281CFEBDF0B585B0041CB4
:102160000D1C01920393EFF31087FFF768FF002621
:10217000B04229D0206A03681B6A9847611D02910A
:10218000C87F311C02F084FE206A7F210368294049
:102190001B689847019D061C019B03995A18D2B2EF
:1021A000EBB29A4207D0206A002103681B68984767
:1021B00028700135F0E7029B0121D87F02F068FE0C
:1021C000206A03685B6A9847381CFFF755FF301C8C
:1021D00005B0F0BDF0B585B0041C0D1C0192039351
:1021E000EFF31087FFF72BFF0026B04228D0206ABC
:1021F00003681B6A9847611D0291C87F311C02F079
:1022000047FE206A8021036829431B689847019D87
:10221000061C019B03995A18D2B2EBB29A4206D01F
:10222000206A2978036801351B689847F1E7029B0B
:102230000121D87F02F02CFE206A03685B6A984770
:10224000381CFFF719FF301C05B0F0BD08B5006A57
:1022500003689B6A984708BD10B5C31C041CD87F4F
:1022600002F046FE0634431E9841E37F584010BDFD
:1022700008B50430C07F02F00BFE08BD08B5431D51
:102280000730C27FDB7F5140181C02F001FE08BD01
:1022900010B50379041C022B08D00021FFF7EEFFD4
:1022A000201C0021FFF7E4FF0223237110BD000072
:1022B000082388101840031C0833DBB2984206D06C
:1022C000044A125C8A4203D00130C0B2F6E7002013
:1022D0007047C04680B20000F8B5041CFFF7BCFF91
:1022E000002805D0231C2A331A780132D2B21A7082
:1022F000221C29321178231C2B3388420AD01D78E6
:102300001D214F2D00D80B211D786918C9B21970F5
:10231000107003E01A781432D2B21A701A789F2A19
:102320006AD9E28D5208E285221C2A3211780429EA
:1023300004D9E08D802109010143E1851978251C2C
:102340006031C9B21970002313702C352B78DBB2C1
:10235000002B3FD0261C303633780133DBB233708C
:102360000B2B49D9E18D3F231940201CFFF7A0FF1B
:10237000E18D071C8909C9B2201CFFF799FF231CB6
:1023800075333F0119783843221CC0B274320029DA
:1023900015D01978C9B24F1C61183031FFB21F70C7
:1023A000487019781378994211D300232B70231C9D
:1023B00008330122DA77201CFFF76AFF07E010706C
:1023C0001178062912D9117843290FD8E1E70023A3
:1023D000337011E0E18D094A91420DD101222A703A
:1023E000221C303275341370237005E000232B70EB
:1023F000638A01339BB26382F8BDC046380B00008C
:10240000F7B5051C78352F78041C7B1C2B70002F2A
:1024100023D1021C7632019213788932127A9A42C1
:1024200006D8FFF735FFE38A01339BB2E38214E05D
:10243000C318061C77367833597833785A1C1941FB
:10244000327001221140FFF713FF3378052B04D9B6
:10245000019A37701378013313702B78072B01D949
:1024600000232B70F7BD08B50379042B02D1FFF7C9
:1024700033FF04E00379032B01D1FFF7C1FF08BD4F
:1024800008B5054B10219A7B0A439A73034B1868D1
:10249000FFF7E9FF08BDC046002C0042F806002007
:1024A000FB20704710B50379041C052B0AD00121CD
:1024B0000722FFF724FE201C40218022FFF71FFE89
:1024C000052323712379052B02D102F0FDFAF9E7E8
:1024D000207EC0B210BD10B50379041C012B05D0BD
:1024E00001210022FFF70BFE01232371012010BD03
:1024F00038B5151C1A1C041CFFF7CEFD064B002234
:102500000833236094235B00E254E31DDD77FF2250
:102510000133201CDA7738BDA0B20000031C283339
:102520001B78032B24D9031C29331B78C371031C8C
:102530002A331B780372031C2B331B784372031C52
:102540002C331B7883728379002B09D1C3794279AC
:102550009A4205D0C379FE2B02D0C379FF2B07D155
:10256000838A012201339BB2838294239340C25415
:102570007047EFF3108272B6BFF35F8FBFF34F8FD8
:10258000BFF36F8F94210023490043542830037018
:1025900082F31088BFF35F8FBFF34F8FBFF36F8F4E
:1025A000BFF35F8FBFF34F8FBFF36F8F7047036829
:1025B000F7B55B68041C0F1C151C98470190002898
:1025C0002DD0002F28D0002D26D0EFF3108672B624
:1025D000BFF35F8FBFF34F8FBFF36F8F231C283381
:1025E00019782A780339914202DC1B78043B2B705E
:1025F000211C2A78381C2D3105F0AAF986F31088A1
:10260000BFF35F8FBFF34F8FBFF36F8FBFF35F8F4A
:10261000BFF34F8FBFF36F8F201CFFF7AAFF019806
:10262000FEBD00000000000070B5041C081C0D1C5D
:1026300005F040F8154B144A04F0DCF9144A154B28
:1026400003F06EFD02F088FE020C061CD2B2201CC4
:102650000621FFF754FD320AD2B2201C0721FFF7F2
:102660004EFDF2B2201C0821FFF749FD281C0A4943
:1026700002F068FE431E98414042012318402A237D
:10268000FF33E054012070BD0000000080842E4123
:102690000000000080844E4000C04244C046C04656
:1026A00010B50379041C022B05D001210A1CFFF789
:1026B00026FD0223237110BD38B51221041CFFF73B
:1026C000FBFC2379042B02D1A023184205D12379E6
:1026D000042B64D143060FD461E0638A01339BB2BB
:1026E0006382201C1221FF22FFF709FD201C12210A
:1026F000FF22FFF704FD38BD1321201CFFF7DCFC8F
:102700001021051C201CFFF7D7FC0D21021C201CEA
:10271000FFF7F5FC221C2B1C00212932201CFFF79F
:102720001CFD231C28331D70FF221221201CFFF7E3
:10273000E6FC1921201CFFF7BFFC40B2C3179B0F1A
:102740001818952580106D0060551A21201CFFF780
:10275000B3FC20826357002B04DA228A9B189BB2B9
:10276000238207E0208A0F2100B2000102F01AFD47
:1027700080B220822A23FF33E35C002B02D0238A1D
:102780009D3B01E0238AA43B9BB22382201CFFF7E0
:10279000C5FE94235B00E35C002BA2D008E0237904
:1027A000032B09D1030707D5E38A01339BB2E382E8
:1027B000201CFFF775FF94E72379052B00D090E7E5
:1027C000430700D48DE7012318402076F0E700008E
:1027D00008B5034B1868002801D0FFF76DFF08BD4E
:1027E000FC06002008B5034B5868002801D0FFF70D
:1027F00063FF08BDFC06002008B5034B986800285D
:1028000001D0FFF759FF08BDFC06002010B5037981
:10281000041C042B0AD001210522FFF770FC201CA8
:1028200040210022FFF76BFC0423237110BD10B57B
:102830000379041C0020032B06D0201CFFF7E6FFC1
:1028400094235B00E05CC0B210BD10B50379041C9A
:10285000032B0AD001210322FFF751FC4021201C49
:102860000A1CFFF74CFC0323237110BDF8B5041CB0
:102870000F1C161EFB2E01D9002533E003689B694F
:102880009847201CFFF70CFF2368201C5B6A9847C1
:10289000051EF1D00D210022201CFFF730FCE27A4A
:1028A0000021201CFFF72BFC227B0021201CFFF7BE
:1028B00026FC627B0021201CFFF721FCA27B00216B
:1028C000201CFFF71CFC331C00213A1C201C043682
:1028D000FFF780FCF2B2201C2221FFF710FC201C25
:1028E000FFF7B3FF281CF8BD38B5051C0C1C002AE7
:1028F0000AD00E2904DC4B1C03DA0124644200E0F8
:102900000E240134702218E0172904DC04290BDDA1
:10291000142901DC09E01724281C4D210722033C5F
:10292000FFF7EDFB64B205E00524281C4D210422CD
:10293000FFF7E5FB8022053C52422243281CD2B21D
:102940000921FFF7DCFB38BD38B50D1C041C0A78E3
:102950001D21FFF7D4FB6A78201C1E21FFF7CFFB57
:10296000AA78201C2621FFF7CAFB38BD13B5041C2A
:10297000002004290BDC03225143054B01A8591800
:1029800004F0E6FF201C01A9FFF7DEFF012016BDC1
:1029900090B2000038B50A0A0D1C041C2021FFF774
:1029A000AEFBEAB2201C2121FFF7A9FB38BD0000D5
:1029B000F8B5041CFFF74CFB061E01D1002656E0BB
:1029C000E71DFD7F201C291CFFF740FC0121802210
:1029D000201CFFF794FB0A2002F05CF8201C012168
:1029E000FFF76AFB8028E9D1F87F002102F0F6F9B1
:1029F000231C0833DA7FFF2A06D11E490A78032AEE
:102A0000DCD8501C0870DA77DB7F1B4A99008C50A9
:102A1000002B02D1281C194908E0012B02D1281CE7
:102A2000174903E0022BC9D11649281C042201F0E2
:102A3000E9FE0E210022201CFFF761FB00220F217E
:102A4000201CFFF75CFB201CFFF72AFE0021201C46
:102A5000FFF78CFF201C0821FFF79CFF0A49201C70
:102A6000FFF7E2FD201C0D210022FFF73DFF301C87
:102A7000F8BDC04608070020FC060020D127000052
:102A8000E5270000F92700000000D94370B5031CBA
:102A9000002001390C4A89B2914213D01C780822D7
:102AA0000125061C2E40E8402540AE4203D0742587
:102AB0006D426840C0B2013AD2B26408002AEFD138
:102AC0000133E6E770BDC046FFFF0000F8B5041C07
:102AD0000F1C161C002805D01D4D281C00F082F983
:102AE000002802D10120404230E0002E23D0201CDB
:102AF00005F07EFA033002F00FF8061C201C05F0EA
:102B000077FA81B2201CFFF7C1FF1249031C221C77
:102B1000301C05F043FA281C311C002F02D001F0B4
:102B200099F901E001F08AF9041C002E0DD0301C47
:102B300001F0F6FF09E0281C211C002F02D001F053
:102B400089F903E001F07AF900E0201CF8BDC046E5
:102B5000400A002039B3000008B4F3B507AB041CE9
:102B60000D1C161C1F78002814D0002912D00C4808
:102B700000F038F900280DD008AA201C291C019269
:102B800006F03CF9002807DB201C311C3A1CFFF73B
:102B90009DFF01E001204042F6BC08BC01B018478F
:102BA000400A002070B589000C4BC9B2021C141AEF
:102BB000E4B28C420FD21578E60704D4DC086C43EB
:102BC000DE01744004E05C096540DE02AC19E443B8
:102BD00063400132EBE7181C70BDC046AAAAAAAA3E
:102BE0007FB5074B694670CB70C11B686A460B60A6
:102BF0000023D1580968C1500433102BF9D17FBD8F
:102C000010B30000F0B595B007AC061C201CFFF710
:102C1000E7FFA3680BAD0093E368079A019363682D
:102C2000281C154905F0BAF9144F0023009501221C
:102C3000381C1349FFF790FF201C0421FFF7B2FF57
:102C400004AD0390039A281C0E4905F0A7F90095DE
:102C5000381C0D4901220023FFF77EFF2378301C2A
:102C600000950A490A4A05F099F9301C1022002102
:102C700005F050FA15B0F0BD67B300004009002020
:102C800078B3000073B3000087B3000093B3000073
:102C90009CB3000008B50548FEF772F8044805210A
:102CA0000222044BFFF724FC08BDC0463F0A002067
:102CB0000C080020E80600203F20704713B502688A
:102CC0006B46D97107335468191C0122A04716BD01
:102CD00008B50069022100F055FC08BD08B500697F
:102CE000032100F065FC08BD38B50D1C041C131C45
:102CF000006903212A1C00F057FD002801D101239F
:102D0000636038BD10B5054C23685A1C04D10368B4
:102D10005B6998472060031C181C10BD64000020EC
:102D2000074A08B51368591C04D0012149421160B3
:102D3000181C03E00069022100F028FD08BDC04610
:102D40006400002008B5037803490233037042226F
:102D5000024800F0DFFD08BD200000200B0F00201E
:102D600010B50178031C42780020A12908D1212A3E
:102D70002FD118481849072200F0CCFD012028E087
:102D8000212926D1202A05D113490722114800F014
:102D900055FC04E0222A10D19A780F4BDA710E4BC1
:102DA00096221968D200914210D1DC7901231C408F
:102DB0000CD1FA2001F058F80AE0232A09D1DA7878
:102DC0009B7812021A43054B1A6002E001F052F898
:102DD000002010BD0B0F0020140000201C0000205C
:102DE0007047000010B501F01DFEF423FF330024EE
:102DF000984207D9044B0A20DC79631E9C41E4B257
:102E000001F048FE201C10BD14000020064BFA21E2
:102E100089009960054900220831196004495A6007
:102E200019611A767047C046400A0020F0B30000CE
:102E30000B0F002010B507230F220240141C0009BD
:102E40003034092A00DD0734CC54013BF4D210BDE4
:102E500070B582291ED1C2B22A495301CB189D698F
:102E6000294C80012C40C025AD052C439C61274C8A
:102E70000832201858610B68520199180C7980208B
:102E8000404220430871D15C7020814330200143CF
:102E9000D15435E0002933D1C2B21A495301CB18BD
:102EA0009E68194DC0242E40A40526439E60184EEE
:102EB000800109683018083258605201505C0726BA
:102EC000B0430126304350549E6935402C439C61E9
:102ED0000E4C5C61505C7024A0431024204350547D
:102EE0009C680C488A182040802464032043986022
:102EF00098684021800B8003986053790B4353718D
:102F000070BDC046140F0020FFFFFF8F680B00202C
:102F10002C0D0020FF3F00F038B5041C08CC012127
:102F20001A78051C0A431A708022201C00215200C6
:102F300004F030FD2B689A78D107FCD45C6238BD70
:102F4000134BF0B51B6899035A029B01C90ED20EB0
:102F50005B0F1F2900D105211F2A00D11D22072B3D
:102F600000D1032304688E01278D0A491F253940AB
:102F70003143218501682A400C8DAC4322430A85E8
:102F800002681903108D044B03400B431385F0BDF9
:102F9000246080003FF8FFFFFF8FFFFFEFF31083F7
:102FA00003600123436072B670470368002B02D1AF
:102FB00062B6BFF36F8F704737B50569041C68466A
:102FC000002D12D1FFF7EAFF019B013B03D3621DE5
:102FD000D57FEDB2F9E768460193FFF7E6FF0020E1
:102FE000854217D0206AE36913E0FFF7D7FF019B02
:102FF0000025013B04D3221C34321578EDB2F8E7EA
:1030000068460193FFF7D1FF0020854202D0206B74
:10301000E36AC01A3EBD0000436810B51A68037A1F
:1030200001215B01D318FF339A7A0A439A72037A1B
:1030300042685B01D318C2689C6891040B4A090975
:1030400022400A439A60037A42685B01D3189A6867
:103050004021920B92039A6043681A68037A0833FE
:103060005B01D3181A790A431A7110BDFF3F00F0B3
:10307000F7B50569041C0E1C171C6846002D1FD1EE
:10308000FFF78CFF019B013B5A1C06D0621DD17FCC
:103090005A1E00293AD0131CF6E768460193FFF741
:1030A00084FF0025E369BD4235D0226A934232D2C3
:1030B0005A1CE261A269D3181B7873550135F1E7F8
:1030C000FFF76CFF019B013B5A1C08D0221C3432D5
:1030D00015785A1EEDB2002D18D0131CF4E768467F
:1030E0000193FFF762FF0025E36ABD4226D0226B01
:1030F000934241D322E0621D0021D177303216780D
:10310000581E8E4214D1031C5A1CF4D168460193F8
:10311000FFF74BFF38E0226A934235D10023E36189
:10312000012323616846FFF739FF019B013BEBE771
:103130001170201C0193FFF76FFFF6E7226B93429B
:1031400022D10023E36223616846FFF727FF019B3A
:10315000013B5A1CDAD0221C34320021117001329A
:103160001678581E8E4201D1031CF2E71170201C04
:103170000193FFF751FFEAE75A1CE262A26AD318F3
:103180001B7873550135AFE7281CFEBD37B5436882
:10319000027A1B68083252019A18041CD079012364
:1031A000FF21184255D0D371A0686569626801405B
:1031B000002D1FD14901521891688904890C2162A0
:1031C000216A002942D06361A36A68465360FFF711
:1031D000E5FE019B013B5D1C34D0621D0120D077D0
:1031E0002F3211785D1EC9B21218002915D1117045
:1031F0002B1CF0E74B01D3189A689204920C2263BF
:10320000226B002A22D000226261A26968465A60BD
:10321000FFF7C4FE019B013B12E00193107068466A
:10322000FFF7C3FE15E0221C343201201070621D2E
:10323000D17F5D1EC9B230320029EED111702B1C36
:103240005D1CF0D168460193FFF7AFFE201CFFF72D
:10325000E3FE37BD37B500236C46E3710734201C0D
:103260000D1CFFF76FFD2B681818286001F000FF98
:10327000211C01F0B7FE2B681818286020783EBD8D
:1032800003290BD10D4BB2221B685200985C8021A0
:10329000494201439954022168220CE001290CD1D2
:1032A000064B92221B685200985C802149420143E0
:1032B000995402212822FF3299547047140F00209C
:1032C00038B5304B00240121051C1A201C7001F078
:1032D00085FD1A20012101F0DBFD2B4B1920012176
:1032E0001C7001F07BFD1920012101F0D1FD274B5D
:1032F0002021DA6901200A43DA61254B06241A7875
:1033000002431A70234B0F221978914319701978D0
:103310002143197020490C782043087019780A401D
:103320001A701A7860210A431A701C4B1C4A5A8082
:103330005A78D209FCD11B4801F06EFB1A4C201CB4
:10334000FFF7EAFD201CFFF7FBFD23687F221978B9
:103350000A401A701A7804210A431A701A890C213B
:103360008A431A81C121114A890050580002000A7B
:103370005050802111601A7802210A431A700123EB
:103380002B7038BD280D0020100F002000040040D5
:10339000584400413C44004159440041000C004065
:1033A00006400000D93D0000140F002000E100E0BD
:1033B0000078002810D0094B01211B681A898A4324
:1033C0001A811A8B08210A431A831A8B04210A4393
:1033D0001A83034B00221A607047C046140F002066
:1033E000181000200F4B9A69920B92039A611B6888
:1033F0000222FF331A7298798022524202439A7154
:103400001A7A9007FCD5084B081C997A7F22104045
:10341000914301439972997A802252420A439A72E7
:103420007047C046140F00200050004110B50B79C2
:103430000C1C002B0BD1081CFFF792FC002804D1B8
:10344000094B9A69920B92039A6101200BE001F0FB
:103450000FFE211C01F0FAFD0028F6D1024B9A69FB
:10346000920B92039A6110BD140F0020F7B50E1C49
:10347000832A18D1CAB235495301CB189C69344804
:10348000B6012040C024A405204398613148083289
:1034900086195E610B685201D15C70208143402027
:1034A0000143D15450E0022A4AD12B4A89008D5859
:1034B0000191002D48D1382001F02AFB274B8027AD
:1034C0000360224B7F004360431D056286600561F7
:1034D0004561C561C760DD772F33041CC562056394
:1034E0001D70381C5D7004F01FFAA061381C04F0D8
:1034F0001BFAFF2315491E407601A0628E19B168A0
:10350000134A07250A40C02189050A43B260A16811
:1035100062681940126808314901885CA843032594
:1035200028438854A268616813405B01A269CB18E4
:103530005A60201CFFF770FD019B07495C5003E0B7
:10354000081C111CFFF784FCF7BDC046140F0020B7
:10355000FFFFFF8F680B0020EC0E002020B400005E
:1035600038B5051C0124064BA200D258002A06D00B
:10357000211C281C0134FFF779FFE4B2F3E738BDC2
:103580006800002008B5084B8A00D058002803D0F6
:1035900003689B68984706E0C9B2044B4901591873
:1035A00088688004800C08BDEC0E0020140F0020F9
:1035B00010B50C1CFFF7E6FF00280CD0064BE1B25B
:1035C0001B680831490159184A7980235B4213432B
:1035D0004B710223CB7110BD140F002070B5CAB21D
:1035E000134B1448540189015918031959609D68F7
:1035F0001149083229408025AD0229439960996814
:103600004026890B890399600368510159180D7987
:1036100035430D715101591889794D06FAD551017B
:103620005918C979CD07FAD50419A068C0B270BD80
:103630002C0D0020140F0020FF3F00F038B50C4B7C
:10364000141C1B680D1CFF335A7940210A435A7120
:103650000021FFF7C3FFA04200D9201C0023A34292
:1036600004D0044A9A5CEA540133F8E738BDC046F6
:10367000140F00202C0D002010B5C9B20C484901D0
:1036800043189A689204920C3F2A08D9141C9A682D
:10369000403CA404920BA40C9203224302E09A68DB
:1036A000920B92039A6041188868C0B210BDC04660
:1036B000140F0020F0B51C1C2F4B85B01B68061C96
:1036C0000D1C0292002B51D02C4F3978C9B2002921
:1036D00002D1192001F0DCFB64233B70284BAA00C7
:1036E000D058002805D0036802995B68221C9847CF
:1036F00040E0301C291CFFF745FFA04204D2301CDB
:10370000291CFFF73FFF041C291C301CFFF7B4FFE6
:103710001C4FE9B24A010191396803928B18FF33BB
:103720005A7A01210A4318495A72AB01C918029802
:10373000221C04F00DF9002C1BD0301C291CFFF7B3
:1037400021FF002815D1019B3A6808335B01D3188B
:1037500019794020014319710121D9710399531836
:10376000FF339A7A01210A439A7202E00120404213
:1037700000E0201C05B0F0BD18100020100F002044
:10378000EC0E0020140F00202C0D002013B56C4609
:103790000734221C0123FFF78DFF012801D1207877
:1037A00001E00120404216BDF0B51C1C3F4B85B026
:1037B0001B680E1C0292002B6AD08023DB019C4206
:1037C00066D83B4D2978C9B2002902D11A2001F0F0
:1037D0005FFB642300222B700092002C56D0354DE5
:1037E000F7B22B6801933B1C0833019A5B01D31895
:1037F0009B79DB091AD0304B3049186801F084FC02
:103800002F4B1721584301F07FFC3B1C0833019AD2
:103810005B01D318DB799A0708D42A4B9A5D002AFA
:1038200038D1421E002835D0101CEEE7254B00226F
:103830009A55251E3F2D00D93F25234AB301D318A1
:10384000181C02992A1C039304F082F8194A7B0180
:10385000D318039AA9045A619A69890C920B9203AE
:103860000A439A613B1C019A08335B01D318022278
:10387000DA715979802252420A435A71009B029AA6
:103880005B1952190093641B0292A6E700980BE0A3
:10389000012008E001229A557B01ED18AB69101C4C
:1038A0009B0B9B03AB61404205B0F0BD181000209C
:1038B000280D0020140F00209400002040420F002B
:1038C00070110100600B0020680B002070B50E4DD8
:1038D0001C1C8B01ED18281C0E1C111C221C04F052
:1038E00037F8F6B20949760189194D618A69084BA2
:1038F000201C13408B618B69A2049B0B920C9B03D1
:1039000013438B6170BDC046680B0020140F00206C
:10391000FF3F00F0F7B5114B01901B780F1C141CF2
:10392000002B19D10E4B1E78002E01D1151C08E07A
:103930000C4D0D482E888019361904F009F82E8098
:103940000AE0002D08D0BA192B1C01980021FFF7BE
:10395000BDFF36182D1AF4E7201CFEBD0A0F00200B
:10396000080F00205E0B00205D0A0020F8B50E1C39
:1039700000AF151E012D28D9D31DDB08DB006A46D8
:10398000D21A9546081C04F033FB01306C46400007
:103990000323207063700222AA420ED23378002BD8
:1039A0000BD0511CC9B20136A354A94204D0002344
:1039B00002326354D2B2EFE72A1C0548211CFFF7FC
:1039C000A9FF431E9841C0B200E00020BD46F8BDEB
:1039D0000B0F002008B5044B00221A70034B04495A
:1039E0001A88FFF797FF08BD080F00205E0B002024
:1039F0005D0A0020F0B5204A87B00123002600911F
:103A000002A91370051C0296FFF724FC03AC0927DA
:103A100001903A1C201C311C03F0BCFF0223637090
:103A2000A023E371FA232372029B0122DB19638036
:103A3000019B62712371104A009B27701670BB4274
:103A400005D1281C211C1A1CFFF764FF11E00B4B49
:103A500001221A700A4B211C3A1C281C1E80029657
:103A6000FFF758FF281C02A9FFF7F4FB281CFFF7FB
:103A7000B1FF012007B0F0BD0A0F0020080F0020A1
:103A80005E0B002070B5CE7892B0051C0C1C022E87
:103A900008D1C9882D48FFF7ADFF031C581E83418C
:103AA000D8B251E001F0E4FA211C01F0B0FA00288C
:103AB00003D0C3171B1AD80F46E0012E04D1E288A9
:103AC0002349112A3BD837E0032E3DD1A278002AA2
:103AD00005D12049E2880B7893422DD82FE0022AA5
:103AE00003D1A279281C1C4904E0012A05D1A2793E
:103AF0001A49281CFFF73AFF26E0032A24D1184B65
:103B000001A91868FFF796F9164B03A91868FFF783
:103B100091F9154B05A91868FFF78CF9134B07A904
:103B20001868FFF787F901F0A3FA09A901F07FFAF5
:103B3000A279281C01A9DDE7D2B2002A00D10A78B7
:103B4000281CFFF7E7FE012012B070BD0B0F00200C
:103B500040B400003CB4000052B4000030B4000097
:103B60000CA0800040A0800044A0800048A08000FD
:103B700073B5051C48780C1C0B2878D801F0BAFAEC
:103B8000081C7728773E4306474B686F00206FE09C
:103B9000097801AA002903D111705170281C09E08D
:103BA000002313705370334B1B78012B00D113701B
:103BB000281C002102234FE08A780023012A04D127
:103BC00001AA137053702C4BEEE72A4A137049E098
:103BD0008E78012E07D1284B01AA00211E7011708A
:103BE000281C331C38E0002E08D1224A0123137010
:103BF000224A9169890B8903916138E0A178281CD8
:103C0000FFF7F0FB33E0281CFFF73CFF30E0281CF7
:103C100000211B4A1FE00A780020D30628D1281C67
:103C2000FFF79EFCA2781549154B02241A600A681A
:103C30002A23FF33D05C2043D0544A20FF30145C49
:103C400001231C4314548A69920B92038A610EE08B
:103C50000C4A281C00210123FFF738FE07E08A7870
:103C6000084B1A60054B9A69920B92039A610120E6
:103C700076BDC0465C0A0020090F0020140F00200A
:103C8000181000200C0F0020F8B54B4B071C1C78B7
:103C9000002C00D08FE0494D2868838B19070ED582
:103CA000201C211CFFF7D4F82B6810201A1CFF32AF
:103CB000917A01439172424A146008229A832B68D8
:103CC0009A8B50071FD504229A833E4B1A78002AFC
:103CD0000AD01A78013AD2B21A701B78002B03D19D
:103CE0001A20012101F0D4F8374B1A78002A0AD0A3
:103CF0001A78013AD2B21A701B78002B03D119201E
:103D0000012101F0C5F82B68FF331A7AD10626D5B8
:103D100010221A725A7940210A432C495A710A78A2
:103D20006023381C1A4202D1FFF722FF01E0FFF79F
:103D30007DFB002806D02B688022FF339979524200
:103D40000A4301E0224B20229A712B68FF331A7A32
:103D5000500604D540221A72597A0A435A722968C9
:103D6000FE230E8C00241E40E1B2002E23D0321C14
:103D7000012322411A4216D0221C2868083252011F
:103D80008218D079184203D1D279DA401A4207D08A
:103D9000104BA200D058002809D003681B68984730
:103DA0000123A3409E430134092CDDD103E0381CDC
:103DB000FFF766FAF4E7F8BD080F0020140F0020A3
:103DC00018100020280D0020100F00202C0D0020BE
:103DD000FF500041EC0E002008B50248FFF754FFE9
:103DE00008BDC0460B0F0020014A024B1A60704705
:103DF00000500041140F0020F7B58A18061C0D1C56
:103E000001920C1C019B671B9C4207D033682178F0
:103E10001B68301C984701340028F3D1381CFEBDC4
:103E200038B5051C0C1C081E07D004F0E1F82B68FF
:103E3000021C5B68281C211C984738BD08B5FFF799
:103E4000EFFF08BD08B50249FFF7EAFF08BDC0460D
:103E50005FB4000038B5041CFFF7E2FF051C201C0E
:103E6000FFF7F0FF281838BD014B18607047C046B7
:103E700090000020024B012252421A607047C04657
:103E800090000020154A1368581C25D0013B136090
:103E9000002B21D172B6124A124B04329A4207D833
:103EA000BFF34F8F104A114BDA60BFF34F8F11E011
:103EB0000F4B197DC807FBD5188B2021FF319208C5
:103EC000520001431983DA610A4A1A801A7DD10728
:103ED000FCD5E5E7C046FDE77047C04690000020EE
:103EE00000000000030200000400FA0500ED00E0FD
:103EF0000040004102A5FFFF01607047F7B508AC24
:103F0000267804689D1E27686C1EA541ECB29207B6
:103F100005683A4327063A432A6002680725294084
:103F20005068B501002C00D05C03294301430C43C9
:103F30005460F7BD30B50368C0251C68AD03120599
:103F40002A402243C024A4020904214011431960DD
:103F500003685A6814435C6030BD036801211A6825
:103F60000A431A600268116801231942FBD1D16922
:103F70001942F8D17047036802211A680A431A608F
:103F80000268D3699907FCD4704703681A7ED10789
:103F900002D41A7E9107FCD57047036800225A8329
:103FA00070470368187E4007C00F70470368187E8B
:103FB000C009704703688022197E52420A431A766C
:103FC00070470368187E0123184070470368188DF6
:103FD000C0B2704703681A7E01200242FBD01985E7
:103FE0007047036801229A757047036801221A75A9
:103FF0007047000070B5036801268D07ED0F314052
:104000001C686D07090729432143196004685100A2
:10401000034801F079F80138C0B2207370BDC04682
:10402000006CDC02036801211A680A431A60026806
:10403000116801231942FBD1D1691942F8D17047A7
:10404000036802211A680A431A600268D369990753
:10405000FCD470470368DA699107FCD41A6802211E
:104060008A431A607047036818684000C00F7047A1
:1040700003689A6A520A52021143996203681A7ECF
:104080005107FCD5986AC0B27047036801211A68CD
:104090000A431A600268116801231942FBD1D169F1
:1040A0001942F8D17047036802211A680A431A605E
:1040B0000368DA699107FCD45A8B30218A431021B6
:1040C0000A435A830268D3695907FCD470470368CE
:1040D000802219685968D2020A435A60704700006A
:1040E0000368034A196859680A405A607047C04615
:1040F000FFFFFBFF30B5036803241D680C40074A2F
:10410000596824040A40ED0622436D0F5A60052DBC
:1041100003D10268D3695907FCD430BDFFFFFCFF0F
:1041200049001143036830B5CDB2598B0324090906
:104130002140012904D0598B09090C40022CF4D1EB
:10414000596AC90AC902294359620368002A03D17E
:104150001A7ED107FCD50DE0187E012240081040E0
:1041600008D1197E1142F7D05968C02292020A4341
:104170005A6003E05B8B01209B08984330BD0368C5
:10418000283319700268107E0123184003D1518B27
:104190001942F8D003E0528B181C920890437047E4
:1041A000036828331970036800201A7E510703D56D
:1041B0005B8B01209B089843704703681868C00612
:1041C000400F043843425841C0B270470368187E1C
:1041D0004007C00F70470368187E012318407047DE
:1041E0000368588BC006C00F70470368187E8007AD
:1041F000C00F70470368588B0007C00F70470368F3
:104200001A68D206520F052A02D11A7E9107FCD5F0
:1042100028331878C0B270470368224A30B59342F9
:1042200011D0214A934211D0204A934211D0204A02
:10423000934211D01F4A934211D01F4A934230D16A
:104240000E2319220DE0092314220AE00A23152265
:1042500007E00B23162204E00C23172201E00D23B4
:104260001822DCB2154901209B08A0409B00086081
:104270005B180320C021890004405D58E000FF2442
:104280008440A5432C1CC0258540281C2043585041
:104290008023DB011A430A4B5A805A7852B2002A13
:1042A000FBDB30BD00080042000C00420010004261
:1042B0000014004200180042001C004200E100E02F
:1042C000000C0040F8B5041C151C0E1C1F1CFFF749
:1042D000A3FF201CFFF741FEB1001C220A40690722
:1042E0002368090C0A431A60226884239375012EFF
:1042F0001AD10821012D00D110210C4B79431868E7
:10430000C00000F001FF236807219A890140D20410
:104310004903D20C0A439A8123680004C20C98898D
:10432000400B400310439881F8BDC0469400002024
:10433000F7B5019308AB041C1F780D1C161CFFF782
:1043400071FE201CFFF768FFBF070C221743C02235
:10435000920336051640C02292022D0423683E4384
:1043600001991540354307221D600A4080212368CA
:1043700089020A435A60F7BD70B5041C0E1CFFF792
:104380004BFF201CFFF781FE236814221A600D4B9F
:1043900071001D682468281C00F0B6FE0A49061C3E
:1043A000281C00F0B1FE7D23FA215843C90000F01B
:1043B000ABFE301AE668FF23053818409E430643DB
:1043C000E66070BD9400002040420F00012070475D
:1043D00008B50368014A1B6A984708BD130400002A
:1043E000826D436D9A4203D0836DC018007D01E059
:1043F00001204042704710B5041C0069FFF7ADFD75
:104400000023221C63659C32A365A03413602360E3
:1044100010BD0000F0B587B001930CAB1B780025F0
:1044200002930DAB1B78402603930EAB1B78041C44
:1044300004930FAB1B780F1C0593FA239B0083603A
:10444000124B0092083303604560291C321C143063
:1044500003F0A0FA201C6565321CA565291C5C30A0
:1044600003F098FA009A231C9C331D605D6027615D
:104470001A72019A201C5A72029A9A72039ADA727C
:10448000049A1A73059A1A7707B0F0BD70B4000049
:1044900030B585B0041C08A8057809A800780095F7
:1044A0000190FF2002900390201CFFF7B3FF201C17
:1044B00005B030BDF023081C184030384342584145
:1044C0007047F0231B01194080239B0099420CD0B8
:1044D000C0239B00994206D080235B0005209942AF
:1044E00004D0002002E0072000E0062070470F23E0
:1044F0001940012905D002394B424B410220C01A14
:1045000000E0002070470000F0B5031C85B0039167
:10451000A433041C182718783B1C4343344E08214D
:10452000F3185956151C00F0FBFC231CA533187812
:104530003B1C43430821F318595600F0F1FC231C9F
:10454000A7331B78022B0AD1231CB8331878FF2815
:1045500005D047430821F719795600F0E1FC271CE4
:10456000A8373878FF281AD0012100F037FC3B78B3
:1045700018225A43B3561F4FDB01211CAC31D81906
:1045800008601D49B6185B18211C7268B0310B60B9
:10459000012191400A1C211CB4310A601A600121DA
:1045A0000A1C039B2069FFF78DFE291C201CFFF7C6
:1045B00088FF291C071C201CFFF799FF291C061CDB
:1045C000201CFFF777FF391C0090331C2069012263
:1045D000FFF794FC231CA7331978013B1A78206954
:1045E000FFF7A8FC2069FFF7C6FC05B0F0BDC04688
:1045F00010AD00001844004114440041026C436CAB
:10460000D01A00D54030704710B5041C201C5C3017
:10461000FFF7F4FF0028F9D12069FFF7B6FC10BDC1
:1046200008B51430FFF7EAFF08BD026C436C9A42EC
:1046300004DB036C406CC01A3F3003E0426C036C37
:10464000D01A0138704708B55C30FFF7EEFF08BD9F
:1046500038B5041C0069FFF7A4FC00281FD02069AE
:10466000FFF7B4FC636D3F2201331340A26D934208
:1046700003D0626DA21810756365231CA8331B78E4
:10468000FF2B0CD0201C1430FFF7CFFF092806DCCD
:10469000231C221CAC33B4321B6812681A602069D8
:1046A000FFF78FFC002820D0251C5C35281CFFF765
:1046B000A5FF031C2069002B15D0231C221CA0334E
:1046C0009C3219681268914207D01A68A95C1A686E
:1046D0003F2501322A401A6001E001214942C9B256
:1046E000FFF778FC01E0FFF780FC2069FFF75EFC34
:1046F000002805D02069FFF75DFC2069FFF74DFC1D
:1047000038BD000070B5041C00690D1CFFF759FC92
:1047100000280FD0201C5C30FFF770FF002840D02D
:1047200008E0EFF31083DA0723D4214B5A68D2054F
:10473000D20D0BD1231C9C33211C1E68A0310A68AA
:1047400001363F2006409642EBD01BE0103AD2B231
:1047500053B2002B08DA0F231A40083A154B92087F
:104760009200D218536804E09B08C033124A9B00A1
:104770009B582069FFF725FC0028DBD0201CFFF7A1
:1047800067FFD7E71A680968013202408A4204D0FD
:104790001968201C5C3045541A602069FFF721FC21
:1047A00003E02069291CFFF715FC012070BDC046FD
:1047B00000ED00E018ED00E000E100E038B5826DAA
:1047C000436D041C9A4208D0836D3F22C3181D7D9F
:1047D000836D01331340836501E001256D42231C85
:1047E000A8331B78FF2B0BD0201C1430FFF71DFFC4
:1047F0000A2805DD231CB033B4341B6822681A6014
:10480000281C38BDF7B51823434301923F4A1625AB
:10481000D3185D57071C0091681C76D0102D74D0FA
:104820003B4B3C4C1E68002E27D1311C44223A4899
:1048300003F0B0F8311C4422384803F0ABF8384B91
:10484000384910221E60CA67374BC02149005A50B0
:10485000C12189005858FF26B04358501A60334A86
:10486000334B5A8023780222134323706378DB0989
:10487000012BFBD0264B01221A6063690126AE4052
:10488000334300216361381C00F04AFB0099002982
:1048900039D0234A1368171C9C4600231E499A00EE
:1048A000634504D08858B04203D00133F6E70133A2
:1048B0003B608E50194B00999950072D03DD083D40
:1048C000AD00012301E0AD000023124A9B009B18BC
:1048D0009A690721A94001988A439A61042812D84D
:1048E0009A6900F007FC030507090B00052106E0A3
:1048F000042104E0032102E0022100E00121A9409B
:104900000D1C15439D61B6B2E660F7BD10AD000009
:10491000A810002000180040601000201C1000208B
:10492000A410002004E100E000E100E005400000E8
:10493000000C0040F8B50024094B1B689C420DD2C6
:10494000084E094FA5003369EA591A4204D0074BB3
:10495000EB589847EB5933610134EDE7F8BDC04699
:10496000A410002000180040601000201C1000203F
:10497000002110B5041E8C4204D003F0C1FA211CA2
:1049800000F066FC081C10BD10B5041E8C4203DA52
:10499000081AFFF7EDFF0419201C10BDFEE7FEE723
:1049A00008B5034B1B68002B00D0984708BDC046D4
:1049B000AC10002038B50F490F4CA14204D100F0D3
:1049C000B3F800F085F80BE00C4D8D42F7D00023D2
:1049D000CA18E818A24204D2006804331060F7E74E
:1049E000FEE79042EBD0064B064A9342E7D2002204
:1049F00004C3F9E700000020B001002090B80000D7
:104A0000B0010020D410002008B500F05EF80028A6
:104A100001D100F04FF808BD014B18607047C04647
:104A2000AC100020014B18687047C046B010002041
:104A3000F7B5144D144CA968144862680368520114
:104A4000D20F2E1C271C8446B0687D6801906D0132
:104A50006046ED0F0468AA4203D02A1C231C01996A
:104A6000F2E7A342FAD101988142F7D30548D21860
:104A70004068FA23411A06489B0048435343000DFF
:104A8000C018FEBD10E000E000ED00E0B010002016
:104A90005555000070B5041E08D0054B1D681E1C3E
:104AA00000F012F833685B1BA342F9D370BDC04617
:104AB000B010002008B5034B1A6801321A60FFF7E6
:104AC000E1F908BDB0100020704700207047704722
:104AD00010B500F0DDF802F001FFFFF7F8FF01204C
:104AE000FFF7D8FF084C201CFEF7EAFB201CFEF75E
:104AF0005FFCFBF705FDFBF701FE044B002BFAD032
:104B000000E000BFF7E7C0460B0F002000000000E8
:104B100008B502F009FF08BD08B502F005FF08BDA1
:104B200008B502F00BFF08BD70B5494A1E21536855
:104B300002208B430343474953608B690824234376
:104B40008B61454C454B9C829C8A20439882101C6B
:104B5000DA689407FCD5424A012414701478E507FA
:104B600004D53F4C647864B2002CF7DB01249460D8
:104B7000547864B2002CFBDB3A4D394C65605478B4
:104B800064B2002CFBDB8225354CED016580547846
:104B900064B2002CFBDB02249C84DC68E606FCD5B6
:104BA000314D2E4CE562DD682C4CEE06FBD5A58C14
:104BB0002E4E3543A584DD68284CEE06FBD5A58C2A
:104BC00002263543A584DC682506FCD5234CE46821
:104BD0006606F8D5DC68E506FCD5002494605478B8
:104BE00064B2002CFBDB224D1D4C656055781C4CDB
:104BF0006DB2002DFADB1E6A1E4D35401D621D6A26
:104C00008026B5431D620323A3601B4B636053786A
:104C10005BB2002BFBDB00230B72184A4B728B72CA
:104C2000CB72174BFF211A60164B174A1B6812688C
:104C30005C01D20E214011439A06520F12020B1C46
:104C40001343124A1385436880221343436070BDA7
:104C500000400041000400400C0600000008004035
:104C6000000C004001050100B905FF7D040A0000A9
:104C700000070300FFFCFFFF03060100006CDC02DD
:104C800094000020246080002060800000400042EA
:104C9000314BFA21186810B5890000F035FA2F4B16
:104CA0000138984224D82E4A2E4B5060186AC021F1
:104CB0000002000A090601431962002407219460DA
:104CC0001160196A80220902090A12060A431A624F
:104CD000254BFC211A6A0A431A62196AFC229201C6
:104CE0000A431A62196AA022D2020A431A6200E039
:104CF000FEE7201C0021013400F070F8142CF8D1DC
:104D00001A4C63785BB2002BFADB194B6380194BAA
:104D10005A7ED209012AFAD0E422D2009A803F2298
:104D2000DA70597E134AC9090129FAD0C0235B0100
:104D300000201361907000F023F863785BB2002BC1
:104D4000FBDB0D4A094B5A800C4BDA79D209012A58
:104D5000FAD041225A7010BD94000020FFFFFF00DE
:104D600010E000E000ED00E000040040000C004016
:104D70001E40000000400042214000000048004268
:104D800000B5144A517E131CC9090129F9D0013814
:104D9000042813D81969104A0A401A615A780F2159
:104DA0008A4300F0A7F9030509070300012102E087
:104DB000032100E002210A435A700AE01169F0233E
:104DC0001B050B43136153780F218B4302210B43C7
:104DD000537000BD00400042FFFFFFF010B51824E3
:104DE000021C201C5043274B1818007A40B2013097
:104DF00046D0032944D8081C211C00F07BF902335B
:104E00001121624398569A18C3011F4852681B1813
:104E100099184031022008700121914059602FE01B
:104E20006243985618499A185268C3015B1899183A
:104E300040310620087001219140596099611FE0BE
:104E400051435A56104859184B68D2011118C818C6
:104E50004030062404700120984048600B495218E5
:104E600050600DE0624398569A18C3010648526894
:104E70001B18991840310220087001219140996057
:104E800010BDC04610AD0000004400411044004178
:104E900018235843134AF0B5131808241C5701343B
:104EA0001FD08256104ED2015D6801249019231C38
:104EB0008668AB401E420BD10E1C771EBE414019C6
:104EC00034404030A50004780426B4432C430470D9
:104ED000002903D105495218536002E0024E92198D
:104EE0009361F0BD10AD000000440041104400414A
:104EF00018235843084A082113185956013109D07C
:104F000082560649D20152185B68106AD8400123C4
:104F1000184000E00020704710AD00000044004140
:104F200018224243F8B52D4D0824AA181457031C23
:104F3000621C50D0481C00240C284CD800F0DAF831
:104F4000071E1E1E1E1E1E1E1E0A0A0A0A0001241D
:104F5000644240E0092902D1181C002103E00A291B
:104F600004D1181C0221FFF739FF23E000240B298C
:104F700031D1181C0121FFF731FF2CE018225343D7
:104F8000EA185268EB560120141C04405508DB0156
:104F9000002C11D0124C1B195D1930352E780C01E4
:104FA0000F21314021439A18C9B229704032137839
:104FB0001843107000240EE0094E0F279B195D194D
:104FC00030352E789A18BE433143C9B22970403229
:104FD000137818431070201CF8BDC04610AD0000B7
:104FE0000044004170B544680E1C0025002C09D017
:104FF0002368201C5B68311C9847002804DB2D18AF
:10500000E468F3E7281C01E00120404270BD38B598
:1050100044680D1C002C08D02368201C9B68291CA8
:105020009847002802D1E468F4E7201C38BD38B561
:1050300044680D1C002C07D02368201C291CDB6849
:105040009847E4682D18F5E72C7038BD38B54468EA
:105050000D1C002C08D02368201C1B68291C9847B5
:10506000002803D1E468F4E7201C00E0012038BDEB
:10507000064B0122196810B51140054805D10224DC
:1050800004700424447041601A6010BDBC100020FC
:10509000B41000200B1C011C021C30B51943022067
:1050A000002900D130BD802109068B4216D00D4960
:1050B00004205C180C498C42F4D90C4D5C198C42CC
:1050C000F0D90B4C590049080320A142EAD9074CFA
:1050D0000020A142E6D150425041E3E7002AE1D04E
:1050E000EFE7C0460000F0FFFFFFDF7F0000F07F2A
:1050F000FFFF0F0002B4714649084900095C4900EE
:105100008E4402BC7047C046002934D001230022DF
:1051100010B488422CD301242407A14204D2814236
:1051200002D209011B01F8E7E400A14204D2814246
:1051300002D249005B00F8E7884201D3401A1A43C3
:105140004C08A04202D3001B5C0822438C08A042FA
:1051500002D3001B9C082243CC08A04202D3001BB0
:10516000DC082243002803D01B0901D00909E3E72A
:10517000101C10BC7047002801D00020C04307B4A9
:10518000024802A14018029003BDC046D9000000A9
:105190000029F0D003B5FFF7B9FF0EBC4243891ACE
:1051A0001847C046002941D010B4041C4C40A44606
:1051B00001230022002900D54942002800D54042A1
:1051C00088422CD301242407A14204D2814202D276
:1051D00009011B01F8E7E400A14204D2814202D296
:1051E00049005B00F8E7884201D3401A1A434C0893
:1051F000A04202D3001B5C0822438C08A04202D3C9
:10520000001B9C082243CC08A04202D3001BDC08F0
:105210002243002803D01B0901D00909E3E7101C31
:105220006446002C00D5404210BC7047002806D0D0
:1052300003DB0020C043400801E08020000607B4E3
:10524000024802A14018029003BDC04619000000A8
:105250000029EBD003B5FFF7A7FF0EBC4243891A24
:105260001847C0467047C0468446101C62468C46AC
:10527000191C634600E0C0461FB501F03DFB002845
:1052800001D40021C8421FBD10B501F06DFA4042A3
:10529000013010BD10B501F02FFB002801DB00200C
:1052A00010BD012010BDC04610B501F025FB00283F
:1052B00001DD002010BD012010BDC04610B501F079
:1052C0009DFA002801DC002010BD012010BDC04661
:1052D00010B501F093FA002801DA002010BD01207A
:1052E00010BDC0468446081C6146FFE71FB500F0AC
:1052F000C5F8002801D40021C8421FBD10B500F038
:105300004BF84042013010BD10B500F0B7F800284E
:1053100001DB002010BD012010BDC04610B500F01B
:10532000ADF8002801DD002010BD012010BDC046F1
:1053300010B500F05BF8002801DC002010BD012052
:1053400010BDC04610B500F051F8002801DA002069
:1053500010BD012010BDC04638B50E4B0C4A041CD0
:105360000D1CFFF7B5FF002804D1201C291C02F0FA
:10537000FBF838BD074B064A201C291C01F0CAFD6A
:1053800002F0F2F880231B06C018F2E7C046C046C0
:10539000000000000000E0414A02430270B55C0AD0
:1053A000550A43004A001B0EC60F120EC90FFF2BF1
:1053B00005D0FF2A08D0012093420BD070BD0120F8
:1053C000002CFBD1FF2AF6D10120002DF6D10120BF
:1053D0009342F3D1AC42F1D18E4205D0002BEDD1F6
:1053E000201C441EA041E9E70020E7E74A024302EF
:1053F000F0B55C0A550A43004A001B0EC60F120E98
:10540000C90FFF2B31D0FF2A34D0002B16D16042B8
:1054100060418446002A14D0002820D18E4217D142
:10542000934215DC04DBAC4212D80020AC4212D20D
:10543000704270414042012318430CE0002AEDD134
:1054400094466F426F416046002805D1002FE5D099
:10545000704201231843F0BD0020002FFBD14842C9
:105460004841404201231843F5E7002CCBD00220ED
:105470004042F0E7002DC8D0F9E7C0464A02430297
:10548000F0B55C0A550A43004A001B0EC60F120E07
:10549000C90FFF2B27D0FF2A29D0002B10D0002ABC
:1054A00015D194466F426F416046002815D0002008
:1054B000002F04D148424841404201231843F0BD27
:1054C000604260418446002AECD00028F2D18E422E
:1054D00011D0704201231843F1E7002FF7D070423A
:1054E00001231843EBE70220002CE8D1D3E7022088
:1054F000002DE4D1D1E79342EBDC04DBAC42E8D8E9
:105500000020AC42DBD2704270414042012318437C
:10551000D5E7C046F0B55F4656464D464446F0B422
:105520004402460083B00F1C640A360EC50F002EDD
:1055300041D0FF2E22D080231B0400201C43E40016
:105540007F3E82468046391C4B007F02C90F7F0A8E
:105550001B0E8B463BD0FF2B34D080221204174306
:10556000FF007F3B00215A466A40019252460A439F
:105570000F2A63D87A48920082589746002C3FD170
:105580000822022392469846DDE70195404602280C
:105590002AD1019A01251540FF2300246402DB056E
:1055A000600AED071843284303B03CBC9046994677
:1055B000A246AB46F0BD002C27D104200122824632
:1055C0009046C0E7391C4A1E91410231CBE70121C8
:1055D000002FC8D0381C02F04BF9431F9F407623A0
:1055E0005B421B1A0021BEE7032800D1AEE0012870
:1055F0004FD1019842461040C5B200230024CDE7A8
:105600000C2303209A4680469DE7201C02F030F9C7
:105610007626431F9C4076420023361A9A469846C7
:1056200091E780240025E403FF23B7E75B463C1C99
:1056300001938846AAE73C1C8846A7E7250C24046A
:105640003A0C240C3F04F6183F0C211C231C794310
:1056500053436F435543FB180A0C9B18B1469F42B6
:1056600002D980225202AD1809041A04090C5218FA
:1056700094011B0C611E8C41920EED181443AD0178
:105680002C43230105D501226308012014408144E5
:105690001C434B467F33002B2DDD600704D00F22C7
:1056A0002240042A00D00434220103D52D4B1C4093
:1056B0004B468033FE2B17DD019B01251D40002446
:1056C000FF236BE78020C003044208D0074206D1C5
:1056D000041C3C436402640A5D46FF235EE7044306
:1056E0006402640AFF2359E70198A4010125640AB2
:1056F000DBB2054052E77E235B424A469B1A1B2BD6
:1057000005DD019B01251D400024002346E7221CE6
:10571000DA404B469E339C40231C5C1EA34113433E
:10572000580704D00F221A40042A00D004335A012B
:1057300005D5019B01251D40002401232EE701987A
:105740009C010125640A0540002327E78027FF0309
:10575000019B3C43640201251D40640AFF231DE7B1
:10576000A8B40000FFFFFFF7F8B5C20F43024400E2
:105770004D024800240E161C9B09000EC90FAD09EE
:10578000FF2800D17EE0012779408A4258D0221AB2
:10579000002A00DC89E000281BD1002D00D075E034
:1057A000580704D00F221A40042A00D004335901AC
:1057B00038D50134FF2C00D183E09B0101225B0A24
:1057C000E0B232405B02C405580AD20720431043BE
:1057D000F8BDFF2CE4D08021C9040D431B2A00DD55
:1057E0002DE1291C2020D140821A95406A1E954146
:1057F0000D435B1B5801D3D59B019F09381C02F058
:1058000037F8421F9740944260DC141B1F231B1B78
:105810003A1C9F40611C3B1CCA405F1EBB411343A6
:105820000024BDE70122DB08E0B23240FF2C04D1A6
:10583000002B7ED08021C9030B435B025B0AC1E7CA
:10584000211A002946DD002826D0FF2CA8D0802070
:10585000C00405431B2900DDEFE0281C2027C840B9
:10586000791A8D40691E8D4105435B19590197D501
:105870000134FF2C5CD0734901221A400B405B08B5
:1058800013438DE7002D00D07FE77CE7013A002A23
:10589000AFD0FF2CA2D183E7002D00D180E70139E2
:1058A0000029E2D0FF2CD5D17AE7002A1ED1621C54
:1058B000D2B2012A4EDD5F1B7A0126D5EF1A0E1CEB
:1058C0009CE701223240FF2000237BE75D4BA41AB6
:1058D0003B4065E7002946D1611CC8B201282ADD9A
:1058E000FF2925D0EB185B080C1C59E7002C13D0BE
:1058F000FF2818D08024E404524223431B2A4DDDA4
:105900000123EB1A041C0E1C74E7002F00D075E76E
:1059100000220020002390E7002B3BD0D243002A36
:10592000EFD0FF28EAD12B1CFF240E1C38E7002201
:10593000FF20002346E7002C5AD1002B77D0002D02
:1059400000D12DE75B19580100D429E73D4A012415
:10595000134025E7002C15D1002B2FD1002DD7D0D7
:105960002B1C0E1C1CE7002C21D1002B53D0C9434B
:10597000002904D0FF284BD01B294FDD01235B19E0
:10598000041C73E7002B22D1002DD0D02B1C0E1C41
:10599000FF2405E72B1C041C0E1C01E71C1C202601
:1059A000D440B21A93405A1E93412343A9E7FF28DB
:1059B0002ED08024E40449422343DDE7002D00D1AA
:1059C000EEE65A1B500134D5EB1A0E1CE8E6FF2414
:1059D000002D00D1E4E68022DB08D203134204D07C
:1059E000ED08154201D12B1C0E1CDB00FF24D7E66D
:1059F000002B0DD0FF24002D00D1D1E68022DB0842
:105A0000D2031342F1D0ED081542EED12B1CECE786
:105A10002B1CFF24C4E62B1C041CC1E61C1C2027E5
:105A2000CC40791A8B40591E8B412343A7E72B1C8E
:105A3000B6E6131E00D0B3E66AE7012515E7012597
:105A4000D7E6C046FFFFFFFB10B5041E33D001F0C0
:105A50000FFF9E231B1A962B09DC08388440640232
:105A6000640ADBB26402DB05600A184310BD992B9F
:105A70000ADD0522121A211CD1400A1C011C1B310F
:105A80008C40611E8C411443052801DD421F944067
:105A9000144A2240610704D00F210C40042C00D08E
:105AA000043251010AD59F23181AFF2816D09401F9
:105AB000640AC3B2D6E700230024D3E7D208FF2B41
:105AC00003D05402640ADBB2CCE7002A06D080245B
:105AD000E40314436402640AFF23C3E7FF230024A2
