:1000000000800020754500005F4500005F4500004E
:1000100000000000000000000000000000000000E0
:100020000000000000000000000000005F4500002C
:1000300000000000000000005F450000C94500000E
:100040005F4500005F4500005F450000490C00006F
:10005000F54400005F4500005F4500006145000079
:100060005F450000AD1000005F4500005F450000E7
:10007000890A00005F450000BD1000005F450000D8
:100080005F4500005F4500005D2100005F45000006
:10009000000000005F4500005F4500005F45000074
:1000A0005F4500005F4500005F4500005F450000C0
:1000B0000000000010B5064C2378002B07D1054B3B
:1000C000002B02D0044800E000BF0123237010BDC4
:1000D000B0010020000000003CB1000008B5084B52
:1000E000002B03D00748084900E000BF0748036819
:1000F000002B03D0064B002B00D0984708BDC0460C
:10010000000000003CB10000B4010020AC01002060
:1001100000000000014B01221A707047F502002018
:10012000F7B5334C0190201C0E1C00F013FF271C68
:10013000051C002E2AD03C2E1DD9201C00F014FFD7
:100140003C270430784336187519281C391C04F0F4
:10015000FDFD201C0E1CC9B200F04CFE391CA81B72
:1001600004F09EFD391C04F0F1FD201CC9B200F022
:1001700053FE201C37E080193C2104F0E7FD201CD1
:10018000C9B200F037FE201C01212DE0201C00F038
:10019000EBFE019B041D002B18D0301C07F080FFE4
:1001A00007F044FC07F070FC3C2104F0CFFD3C2636
:1001B00074430C196419201C311C04F0C7FD601A2B
:1001C0000D1C311C04F06CFD311C01E0201C3C2195
:1001D00004F0BCFD381CC9B200F01EFE381CE9B2A8
:1001E00000F008FE381C022100F03CFDF7BDC046BF
:1001F000AF070020F0B5112091B004F03BFA684938
:10020000079007F0B1FC674AFE231370664A6748FF
:1002100000920799102201F0EAFC00283AD00B2244
:100220000592059B013BDBB20593002B32D06E4655
:100230002A36162333705D4F5D4D6B4600242B33F9
:100240000093019402940394381C291C321C564BD1
:1002500001F088FCA042E4D03378AC75162BE0D1D5
:100260001022281C211C2C7407F018FD514B1A6811
:100270008242D6D15B688B42D3D1281C3A231430FA
:10028000211C10222B7407F0FBFCC3B2061C069342
:10029000FF2B09D1079B002B02D0181C04F0EEF9AC
:1002A000454B187811B0F0BD281C211C10221130CC
:1002B000EC7407F0E5FC0699041C381C01F0F3F916
:1002C000F3B23E49364A0BA807F02CFC364A381CDC
:1002D00000920BA91322FE2301F089FC002809D00B
:1002E000E4B20B2308940593059B013BDBB2059315
:1002F000002B04D12D48FC2101F0D5F9CAE76E4648
:100300002A36212333702A4D6B4600242B33009369
:100310000194029403942548291C321C224B01F0BD
:1003200021FCA042E0D0AB1CDC773378212BDBD161
:10033000281C211C0A22173007F0A2FC0990281C57
:10034000211C10221430AC7507F09AFC071C281CE5
:10035000211C10221130EC7407F092FC1022061CB4
:10036000211C281C2C7407F099FC124B1A6882423D
:10037000BAD15B688B42B7D1089BF6B29E42B3D12B
:10038000069AFFB29742AFD10D48099900F0AAFD35
:10039000044B089A1A70084B01221A707AE7C0467B
:1003A00004000020F402002088130000E001002077
:1003B000DC080020A0070020940300207CA500009A
:1003C000AF070020F7B5222004F054F91E49041CA1
:1003D00007F0CAFB1D4D281C00F01EFF071C281C3F
:1003E00000F0CEFE061C381C06F0E4FE251C10357D
:1003F000021C0B1C281C164907F094FB301C06F04D
:10040000D9FE07350B1C021C1249281C07F08AFB79
:100410001F21201C02F0ACF9021C201C0E491F30C9
:1004200007F080FB0D4B0E4A1B780E480092211CF2
:10043000212201F0DCFB051C002C02D0201C04F062
:100440001DF9281CFEBDC04604000020D00100207C
:1004500084A500008CA500007FA50000F402002008
:1004600088130000E001002008B5054B1B78002B25
:1004700002D0FFF7A7FF01E0FFF7BCFE08BDC046B2
:1004800094030020182250430A4B10B51A18082470
:10049000145701340DD0C3565268DB01D318064AF5
:1004A0004C1EA1419B188A011978402081431143B9
:1004B000197010BDC0A500004044004138B50024AB
:1004C000201C0221013404F037FA172CF8D1202423
:1004D000201C0221013404F02FFA2A2CF8D1192013
:1004E000022104F029FA1A20022104F025FA1E2024
:1004F000002104F021FA0920002104F01DFA032054
:10050000002104F019FA0620002104F015FA072052
:10051000002104F011FA0420012104F00DFA042056
:10052000012104F063FA0520012104F005FA0520F9
:10053000012104F05BFA0D20012104F0FDF90D20EA
:10054000002104F053FA274802F062F9264B0024F8
:1005500018605960254800F0FCFF254BFD221A70F9
:10056000244B01221C70244B244D1A70244B281C50
:10057000211C1C7001F080FA281CC82101F07AFAB5
:10058000281C01F09DF81F4B1870A04209D01E4D89
:100590001E49281C01F0B4FE281C1721221C02F061
:1005A00017F81B4D1B4C0021281C61712171E17053
:1005B000A1706170217000F011FD281CE178227992
:1005C000637900F0B9FBA17862782378281C00F0E9
:1005D000FFFB281C00F058FB281C0F4900F062FBB1
:1005E00038BDC04604000020A0070020D001002034
:1005F000F402002094030020F5020020E001002016
:10060000CC010020A8070020B00700203333654448
:10061000AF070020A90700201501000008B504213C
:10062000064A074800F0AEFF0649FC22064801F0E2
:100630000DFA0648064900F099FD08BDD4050020D2
:10064000F8020020B0070020E0010020D0010020C7
:100650009803002038B5214B1A78002A3DD000229B
:100660001A701F4B1B78934234D01E4C2378934250
:1006700026D11D4D2B78052B0AD801332B70FFF79F
:10068000F3FE2078002805D10A21FFF749FD01E09B
:10069000FFF7EAFE2478002C02D00020011C14E0B1
:1006A0002B78052B13D909200121FFF7EBFE092038
:1006B000012104F041F90920211C04F097F906E01A
:1006C000FFF7D2FE011E02D10120FFF729FD0748E6
:1006D00001F06FFD064800F0EBFA38BDF50200208E
:1006E000A807002094030020CC010020B0070020C0
:1006F000AF07002000207047F8B5051C0F1C161C22
:100700000024B44208D02B68395D1B68281C984728
:10071000002801D00134F4E7201CF8BD7047031C09
:10072000FC33196ADA69914203D01B6AC018007E53
:1007300001E0012040427047031CFC33D8691B6A6A
:10074000C01A01D50130FF3070470000F7B50193A2
:10075000FA239B008360134B802600257600083324
:10076000041C0F1C4560291C00920360321C1830C9
:1007700006F0A8FE231C9022FC335200DD61A01875
:100780001D62321C291C06F09DFE87229200A318D0
:100790005D60019A9D60009B2761A575201C2375F3
:1007A0006275FEBD98A5000070B50D49041C006976
:1007B00003F0C2FB206903F057FA1826207D331C92
:1007C0004343084D0821EB18595604F057F9607D52
:1007D00008214643AD19695604F050F970BDC04672
:1007E000A0860100C0A500008A2387229B009200FA
:1007F000C154831800225A609A60012383757047A0
:10080000031CFC335A6810B501329C68D2B2A24274
:1008100002D05C6801555A6010BDF7B50193002302
:10082000041C151C181C9A4231D0221CFC32D361C6
:1008300020691362012203F053FA002825D02069B1
:1008400003F0BDFA271C1837011C381CFFF7D8FF2E
:1008500001262069AE420ED003F022FA022120695F
:1008600003F028FA206903F0AAFA011C381CFFF7EC
:10087000C7FF0136EDE703F00BFA019B002B05D013
:100880002069032103F016FA00E0051CE8B2FEBD62
:1008900008B50123FFF7C1FF08BD10B5827D002315
:1008A0009A420DD08724A40002195468926801343A
:1008B000E4B2944204D02130FF30FFF7A1FF0123BE
:1008C000181C10BD031CFC3399685A68914206D06D
:1008D0009A68805C9A680132D2B29A6001E0012085
:1008E0004042704770B500228A2382759B00041C29
:1008F0000E1CC15C006903F0F3F9002805D12069E2
:10090000032103F0D7F9022523E090235B00E018D0
:1009100087239B00E21851689368CB1A01D50133F5
:10092000FF33002B0ED02569FFF7CCFFC1B2281C86
:1009300003F005FA0028E8D12069032103F0BAF991
:10094000032506E01D1C002E03D02069032103F0BF
:10095000B1F9281C70BD08B50121FFF7C3FF08BD20
:1009600008B51830FFF7AEFF08BD38B5041C0069A4
:1009700003F003FA002800D184E0206903F00BFAA9
:1009800000280ED1206903F010FA00281FD020693A
:1009900003F006FA00281AD0206903F00BFA0028A9
:1009A00015D1206903F07CF92069032103F082F955
:1009B0008C239B00E558002D04D02368201C1B6964
:1009C0009847A847FC340023E36123625AE020697A
:1009D00003F0EBF9031C2069002B19D003F060F938
:1009E0002069032103F066F9206903F0E3F9002888
:1009F00048D087229200A31800225A609A600123EF
:100A0000A3758B239B00E35893423BD0984739E072
:100A100003F0BCF9002835D0206903F0CBF9002899
:100A200016D087239B00E21851689368CB1A01D532
:100A30000133FF33FF21002B05D090225200A01874
:100A4000FFF740FFC1B2206903F08AF9A07519E0F1
:100A5000231CFC33DA691B6A0132D2B220699A4244
:100A600002D103F015F909E003F0A9F9011C201CDB
:100A70001830FFF7C5FE206903F012F92069032141
:100A800003F018F938BD000008B50248FFF76DFF04
:100A900008BDC0469803002008B503480349142246
:100AA0001523FFF753FE08BD9803002060070020C0
:100AB000437A002B04D18372C372C3600123437253
:100AC000704730B585B0041C02AD006802910392F6
:100AD00003F0A6F86B79E179227A0093206800236D
:100AE00003F006FA29792068029A03F069F8206871
:100AF00003F08CF805B030BD70B5041C1826FFF764
:100B0000D7FF2079331C43430D4D0821EB1859566C
:100B100003F0B4FFA079331C43430821EB18595666
:100B200003F0ACFF607908214643AD19695603F024
:100B3000A5FF044B201C06CBFFF7C3FF70BDC046CA
:100B4000C0A50000CC05002010B5041C006803F00F
:100B50004FF80023637210BD10B54B1C1AD010293A
:100B600018D0EFF3108272B6102902DD02238372CF
:100B70000DE0847A01231C43847218246143064CDF
:100B80006118897D49B28B40C1680B43C360002A5C
:100B900000D162B610BDC046C0A5000007B5837A7B
:100BA00000910192002B0DD09A0706D5EFF3108328
:100BB0005A425341C37272B604E0DA0702D5828901
:100BC000034B9A600099019AFFF77BFF07BDC0466F
:100BD00000180040837A002B0BD09A0704D5C37A03
:100BE000002B06D062B604E0DA0702D58289014BF9
:100BF000DA6070470018004008B5006803F019F883
:100C000008BD704770470000094B0A4A0A491A603C
:100C100000225A711A71094B196016211971182195
:100C200099711721597101215A72D9711A7270473D
:100C3000CC05002000093D0070070020D4050020ED
:100C4000002303707047000008B5044B1B68002B9D
:100C500000D09847024B01221A7208BDE40500201B
:100C6000001400400378002B0AD0064B081C197FA3
:100C7000072210409143014319779A7AD209FCD197
:100C80007047C046001400400378002B07D0044B87
:100C900007211A7F8A431A779A7AD209FCD17047C2
:100CA00000140040014B19607047C046E405002065
:100CB000034B04211A690A431A6130BF7047C046CA
:100CC00000ED00E00378002B0AD0064B081C1969E0
:100CD0003F2210409143014319619A7AD209FCD115
:100CE0007047C046001400400378002B0BD0064B21
:100CF0003F2211408A0118690449014011431961DA
:100D00009A7AD209FCD17047001400403FF0FFFFEF
:100D10000378002B0BD0064B1F2211400A031869E1
:100D200004490140114319619A7AD209FCD17047F4
:100D300000140040FF0FFEFF70B5161C0278041C63
:100D40000D1C002A0AD0191CFFF7BCFF201C311C07
:100D5000FFF7CAFF201C291CFFF7DAFF70BD000057
:100D60000378002B0BD0064B1F2211404A04186950
:100D700004490140114319619A7AD209FCD17047A4
:100D800000140040FFFFC1FF0378002B0BD0064B7F
:100D90000F2211408A051869044901401143196165
:100DA0009A7AD209FCD1704700140040FFFF3FFC43
:100DB0000378002B09D0054B8A0619698901890936
:100DC000114319619A7AD209FCD17047001400408E
:100DD00070B51D1C0378041C161C002B09D0FFF7EE
:100DE000BFFF201C311CFFF7CFFF201C291CFFF781
:100DF000DFFF70BD0378002B0AD0064B081C9969F1
:100E00003F2210409143014399619A7AD209FCD163
:100E10007047C046001400400378002B0BD0064BEF
:100E20003F2211408A0198690449014011439961A8
:100E30009A7AD209FCD17047001400403FF0FFFFBE
:100E4000037873B5002B3ED01F4B994200D81F4941
:100E500001A8019106F0C2FA1D4B44691969643C6E
:100E60008901A40689092143196104690F2101340C
:100E70001D690C401749A405294021431961C56823
:100E80001E691F21144C0D406D0434402C431C611D
:100E900084681D6921400C0310493F2229402143E9
:100EA000196144681D690E491440A4012940214379
:100EB00019610168186911409043021C0A431A61C4
:100EC0009A7AD209FCD173BD7F436D3880436D3867
:100ED00000140040FFFF3FFCFFFFC1FFFF0FFEFFBC
:100EE0003FF0FFFF08B50378002B03D0024BC91871
:100EF000FFF7A6FF08BDC04680436D380A4B0B4A7A
:100F00009A605A7852B2002AFBDB0949064A5160BE
:100F10005A7852B2002AFBDB0649034A51805A78BC
:100F2000D209FCD17047C046000C0040020400000A
:100F300002051100044200000378002B05D0034B8A
:100F4000034A5A809A7AD209FCD1704700140040B3
:100F50000080FFFF08B5FFF7EFFF024B18693F2342
:100F6000184008BD0014004008B5FFF7E5FF024B2C
:100F700018690005800E08BD00140040044B0221D2
:100F80001A888A431A809A7AD209FCD17047C046DF
:100F900000140040044B02211A880A431A809A7AEE
:100FA000D209FCD17047C04600140040044B012117
:100FB0001A880A431A809A7AD209FCD17047C0462F
:100FC00000140040044B01211A888A431A809A7A3F
:100FD000D209FCD17047C04600140040F7B52B4B36
:100FE0000F1C9A6920210A439A61294A294B00263D
:100FF000051C9A82284CB7420AD1284B1A787023D4
:101000001A4240D023881A073DD522690126019251
:10101000281CFFF773FF281CFFF7B0FF281CFFF701
:10102000C5FF62881E4B134063801E4B2380A27A4B
:10103000194BD209FBD11C4A08211160C02189003B
:1010400050580002000A5050DA7901210A43DA713F
:101050001A7F07218A431A77A37ADB09FCD1281C5F
:10106000FFF798FF281CFFF7ADFF002F02D00123E8
:101070002B70F7BD002EFAD0074B019A1A61A37AA4
:10108000DB09FCD1F3E73E1CC2E7C0460004004088
:10109000CE06000000080040001400403804004064
:1010A000FFBFFFFF080A000000E100E008B50248AA
:1010B00003F0AEF808BDC046A406002008B50248FB
:1010C00003F0A6F808BDC046E8050020F7B5164FA6
:1010D0001649381C02F0F6FC1549164802F0F2FCDD
:1010E0001549164802F0EEFC1549164802F0EAFCD4
:1010F0001549164802F0E6FC154D03260124281C6C
:10110000144902F0DFFC391C0096231C01940022D4
:10111000114802F09DFF0096291C01941F221E23F6
:101120000E4802F095FFF7BD64070020000800425A
:10113000000C004268070020001000426C070020ED
:1011400000140042600700200018004270070020D1
:1011500074070020001C0042A4060020E8050020BF
:1011600008B50368C9B21B68984708BD402383725D
:1011700003220023C1604360036002724372704720
:1011800070B5041C817AC068FFF72EFBE068F5217A
:10119000FFF7E6FFE068FFF7DEFB002801D01A4802
:1011A00030E003F01FFA051C03F01CFA401B632813
:1011B000F5D8A17AE0680322FFF76AFB03281DD166
:1011C000E06803685B699847051CE068026852693B
:1011D0009047061CE068026852699047280206435F
:1011E000B0B204F0B1F9094903F014FFDE2189051A
:1011F00003F010FF064904F037F803E0062003F07F
:10120000F7F9D1E770BDC0460000C07F0000FA4288
:101210000000C0400000000070B5041C817AC06866
:10122000FFF7E2FAE068F321FFF79AFFE068FFF7C3
:1012300092FB002801D024483AE003F0D3F9051CC2
:1012400003F0D0F9401B6328F5D8A17AE0680322A7
:10125000FFF71EFB032827D1E06803685B69984706
:10126000051CE068026852699047061CE068026845
:101270005269904728020643B0B204F065F905F0C0
:1012800099FF0E4B0C4A05F035F905F0E5FFDE211C
:10129000890503F0BFFE05F08DFF094A094B05F0F3
:1012A000B9FB05F0D9FF03E0062003F0A1F9C7E779
:1012B00070BDC046C046C046D7A3703D0AF7654022
:1012C000CDCCCCCCCC6C47400000C07FC046C046E3
:1012D00010B5041C817AC068FFF786FAFE21E06829
:1012E000FFF73EFFE068FFF736FB322003F080F99E
:1012F00010BD70B5041C817AC068FFF775FAE0680C
:10130000842103681B689847E068B82103681B685C
:101310009847E068FFF71FFB03F064F9051C03F032
:1013200061F9401B63281DD8A17AE0680222FFF70B
:10133000AFFA061E022E11D1E06803685B69984778
:10134000C5B2E06803685B699847FF2D03D0202D84
:1013500002D1351C00E00125657205E0022003F092
:1013600047F9DCE70023637270BD38B5041C817A4D
:10137000C068FFF739FAE068FA2103681B689847EC
:10138000E0680F2103681B689847E068FFF7E3FAFD
:1013900003F028F9051C03F025F9401B632800D948
:1013A000ACE0A17AE0680822FFF772FA082803D0BF
:1013B000022003F01DF9EEE7E06803685B699847D7
:1013C0002060E06803685B6998472268E068130260
:1013D000236003685B699847236818432060E068CE
:1013E00003685B6998472268E0681302236003681A
:1013F0005B699847236818432060E06803685B696D
:1014000098472268E0681302236003685B69984785
:10141000236818432060E06803685B699847A17AF5
:10142000E068FFF7E1F9E068FC2103681B68984772
:10143000E068C92103681B689847E068FFF78BFAEA
:1014400003F0D0F8051C03F0CDF8401B632855D8F5
:10145000A17AE0680822FFF71BFA082803D00220CF
:1014600003F0C6F8EFE7E06803685B6998476060DF
:10147000E06803685B6998476268E068130263602C
:1014800003685B699847636818436060E0680368B5
:101490005B6998476268E0681302636003685B6990
:1014A0009847636818436060E06803685B69984721
:1014B0006268E0681302636003685B699847636869
:1014C00018436060E06803685B699847E379142B10
:1014D00001D1022304E0142B0CD8002B02D10023ED
:1014E00023720BE00D2B03D10123F9E7FF2BF6D07C
:1014F0000423F5E7152BF9D10323F1E738BD38B5FF
:10150000041C0D1C817AC068FFF76EF9E068291C85
:1015100003681B689847E068FFF71DFA03F062F85C
:10152000051C03F05FF8401B632810D8A17AE0681F
:101530000122FFF7ADF9012805D1E06803685B6976
:101540009847C0B204E0022003F052F8E9E7002017
:1015500038BD10B5041CC068FFF726F9201CFFF742
:10156000B7FE201CE721FFF7CAFF00233A2806D167
:10157000201CFFF7FAFE201CFFF7BBFE0123181CFE
:1015800010BD0000F8B5174B0025041C0360171CA4
:1015900045710571057204220E1C1130124905F0C7
:1015A0006FFF631C6577A577E5775222DD772A33D5
:1015B0001A7057225A70002323630C4BA567E56706
:1015C000E7609F4201D10A2300E00B23301C6375C2
:1015D0002674012103F0B0F9207C012103F006FA02
:1015E000201CF8BD00093D00E0A90000D405002042
:1015F0007047000008B503480349044A05F0D6FEC9
:1016000008BDC04678070020F1150000000000204A
:101610007047000008B503480349044A05F0C6FEB8
:1016200008BDC04679070020111600000000002008
:1016300001600271704708B5006803685B689847ED
:1016400008BD08B5006803689B69984708BD08B5E0
:1016500000680368DB69984708BD08B5006803683F
:101660001B6A984708BD08B5006803681B6B98475C
:1016700008BD70B50E1C041C191C151CFFF7F3FFE8
:101680002068311C03682A1CDB68984770BD08B5C8
:10169000006803685B6B984708BD08B5006803687D
:1016A0009B6B984708BD38B5041C00680D1C036887
:1016B000DB6A9847291C201CFFF7EFFF257138BD16
:1016C00038B5041C006803681B689847051E03D0E2
:1016D0002179201CFFF7E7FF281C38BD08B50068FA
:1016E0000368DB6B984708BD08B5006803681B6C8E
:1016F000984708BD08B5006803689B6C984708BD0B
:1017000008B500680368DB6C984708BD08B5006839
:1017100003681B6D984708BD08B5006803685B6DDA
:10172000984708BDF8B5041C00681D1C0368069F97
:101730009B68079E9847002398421AD09D4203D089
:10174000201CFFF7DDFF2870002F03D0201CFFF7BF
:10175000D1FF3870002E03D0201CFFF7D7FF307068
:10176000089B002B04D0201CFFF7D6FF089B1870A5
:101770000123181CF8BD01207047002070478171BB
:10178000704741717047C1727047C17170470173F2
:10179000704741737047837B93431943817370474C
:1017A000C079C0B27047007AC0B27047407AC0B208
:1017B0007047807AC0B27047008A00B270470079E3
:1017C000C0B270470171704700207047408A80B2F4
:1017D0007047808A80B27047C08A80B2704710B567
:1017E000041C2368201C5B689847002802D102F083
:1017F00019FFF6E710BD10B5041C2379032B02D1A5
:1018000002F010FFF9E7012010BD70B5041C0D1C9B
:1018100002F0E8FE061C02F0E5FE801BA84208D29A
:101820002368201C5B689847002804D102F0FAFE68
:10183000F1E7002000E0012070BD70B5061C0C1C13
:1018400002F0D0FE051C02F0CDFE401BA04205D2E6
:101850003379032B04D102F0E5FEF4E7002000E029
:10186000012070BD38B5041CE3690120002B1AD09B
:1018700002F0B8FE051C2368201C9B6A98470028CC
:101880000ED002F0AFFEE369401B98420AD80A214D
:10189000012002F059FE6423584302F0A9FEEAE752
:1018A000012000E0002038BD074BFF220833036011
:1018B0000023037142714382C272838202734373B5
:1018C0008373C382C3617047E8A900007047704703
:1018D000704770477047417170478171704701715F
:1018E0007047000010B5034C017108340460427168
:1018F000837110BD68AA000008B50248FFF77CF9A3
:1019000008BDC046D405002008B50248FFF779F9A4
:1019100008BDC046D405002008B50248FFF772F99B
:1019200008BDC046D405002008B50248FFF70CF9F1
:1019300008BDC046D405002008B5031C99680248BC
:10194000DA68FFF72BF908BDD405002008B5024876
:10195000FFF740F908BDC046D405002008B502488D
:10196000FFF7FAF808BDC046D405002010B503798A
:10197000042B07D0032B07D0022B07D0012B07D154
:101980001D4B06E01D4B04E01D4B02E01D4B00E02B
:101990001D4B81794479022200290BD0012906D000
:1019A000914206D003394A1E91414A1C02E00022AE
:1019B00000E0032215498B4200D90B1C611E4C42EA
:1019C0006141C9B2022A05D0032A05D0012A05D1F6
:1019D000032204E0002202E0022200E001221C0AAD
:1019E000037244721C0C1B0E8472C3720273417327
:1019F0000748FFF781F810BD80841E000024F40022
:101A000000127A0000093D0040420F00001BB700A1
:101A1000D405002010B5041CFFF764FF044B201C04
:101A200008332360034BA36000236373237310BD4B
:101A3000A0AA000000093D0008B5002102480A1CC8
:101A40000B1CFFF7E7FF08BD7C07002010B5041C46
:101A5000FFF7EEFDFA239B000021E381201C062303
:101A60008022A160217323745200113005F02AFDF9
:101A7000201C10BDC18170470174704737B5041C2C
:101A8000151CFFF72BFE201C80210022FFF72CFEE7
:101A90006946073121230B7001222B1C201CFFF704
:101AA000E8FD201CFFF7CDFD37BDF0B589B0041C63
:101AB0000D1C05920493FFF7BEFD00282DD06E4645
:101AC0006B466F461E331D361F370193291C009647
:101AD0000297201C059A07ABFFF724FE051E1CD0B9
:101AE0003B787F2B19D83178FE2902D1201CFFF7D3
:101AF000CEFD337822799A4211D0FE2B0FD007AA5F
:101B000012786B461E33A4181B78617C99420ED163
:101B100069461D310978FE2909D000251FE06B4672
:101B2000997F6B461A7F201CFFF7A8FFE7E704990F
:101B3000002900D00A700E9A002A04D06A461D328D
:101B400012780E990A700F9A002A00D0137010991B
:101B5000002903D06A461F3212780A706374281C69
:101B600009B0F0BDF0B587B0041C0E1C171C05931E
:101B700002F038FD051C02F035FD059BE918091A35
:101B8000002916DD89B2201CFFF767FD00280DD063
:101B90000D9B201C00930E9B311C01930F9B3A1C44
:101BA00002930C9BFFF781FF002804D102F03AFD5D
:101BB000E1E7002000E0012007B0F0BD73B5041C90
:101BC0001D1C161CFFF78AFD201C80210022FFF738
:101BD0008BFD6946073121230B700122331C201C29
:101BE000FFF747FD291C201CFFF731FD73BDF0B541
:101BF0008FB01D1C14AB1B880A910B920893037BBA
:101C0000041C0133DBB20593037300235A1CD2B2C8
:101C10000692227C9A427DD30599201CFFF75EFD37
:101C20000699012902D1C022002101E08022402131
:101C3000201CFFF759FD0A990B9A2B1C201CFFF75B
:101C400018FD201C0899FFF702FD071E60D0FF2D2C
:101C500061D0069A012A02D9A3680133A36002F079
:101C6000C1FC8021079049000020E68902F06CFC4D
:101C70007043C3171B0E181800123618B6B2099617
:101C800002F0B0FC099A079BD118091A00293DDD22
:101C900089B2201CFFF7E1FC002834D06B463633B4
:101CA0006E46353601930021013302930096201CC5
:101CB0000A1C0DABFFF736FD002824D00DAB1A78B7
:101CC000AA4201D0FE2D0ED13178237999420AD152
:101CD0006B4637331B787F2B05D96B4636331B7821
:101CE00005998B4217D06B4637331B787F2B0AD868
:101CF0006B463633A1181B78497C994203D1201CCE
:101D0000089BFFF75BFF02F08DFCB9E702F08AFC4D
:101D1000069B7BE70027381C0FB0F0BD72B6BFF3FF
:101D20005F8FBFF34F8FBFF36F8F0120704710B5E8
:101D3000041C006A05340368DB689847E07F0121D2
:101D400002F0FAFDE07F012102F050FE642002F073
:101D50004FFC012010BD80F31088BFF35F8FBFF3ED
:101D60004F8FBFF36F8FBFF35F8FBFF34F8FBFF303
:101D70006F8F704770B5041C0D1C161CFFF794FD87
:101D8000034B266208332360631DDD77201C70BD82
:101D9000D8AA0000F7B5041C0F1CEFF31086FFF75C
:101DA000BDFF002814D0651DE87F002102F01EFE53
:101DB000206A7F21036839401B689847206A002108
:101DC00003681B6898470190E87F012102F00EFE2E
:101DD000301CFFF7C0FF0198FEBDF7B5041C009151
:101DE0000192EFF31086FFF799FF0025A8421DD05E
:101DF000206A671D03681B6A9847291CF87F02F058
:101E0000F5FD206A009A0368802111431B689847FA
:101E1000051C206A019903681B689847F87F012117
:101E200002F0E4FD206A03685B6A9847301CFFF704
:101E300092FF281CFEBDF0B585B0041C0D1C01925C
:101E40000393EFF31087FFF769FF0026B04229D014
:101E5000206A03681B6A9847611D0291C87F311C84
:101E600002F0C4FD206A7F21036829401B6898475F
:101E7000019D061C019B03995A18D2B2EBB29A42FB
:101E800007D0206A002103681B6898472870013535
:101E9000F0E7029B0121D87F02F0A8FD206A0368C9
:101EA0005B6A9847381CFFF756FF301C05B0F0BD41
:101EB000F0B585B0041C0D1C01920393EFF310875D
:101EC000FFF72CFF0026B04228D0206A03681B6A67
:101ED0009847611D0291C87F311C02F087FD206A7E
:101EE0008021036829431B689847019D061C019BBC
:101EF00003995A18D2B2EBB29A4206D0206A2978D6
:101F0000036801351B689847F1E7029B0121D87FE0
:101F100002F06CFD206A03685B6A9847381CFFF783
:101F20001AFF301C05B0F0BD08B5006A03689B6A53
:101F3000984708BD10B5C31C041CD87F02F086FD6D
:101F40000634431E9841E37F584010BD08B5043065
:101F5000C07F02F04BFD08BD08B5431D0730C27FAE
:101F6000DB7F5140181C02F041FD08BD10B503791C
:101F7000041C022B08D00021FFF7EEFF201C0021DB
:101F8000FFF7E4FF0223237110BD0000082388102F
:101F90001840031C0833DBB2984206D0044A125C96
:101FA0008A4203D00130C0B2F6E700207047C04635
:101FB00058AB0000F8B5041CFFF7BCFF002805D0A3
:101FC000231C2A331A780132D2B21A70221C293209
:101FD0001178231C2B3388420AD01D781D214F2DE8
:101FE00000D80B211D786918C9B21970107003E070
:101FF0001A781432D2B21A701A789F2A6AD9E28DEE
:102000005208E285221C2A321178042904D9E08D75
:10201000802109010143E1851978251C6031C9B28D
:102020001970002313702C352B78DBB2002B3FD0B6
:10203000261C303633780133DBB233700B2B49D991
:10204000E18D3F231940201CFFF7A0FFE18D071C05
:102050008909C9B2201CFFF799FF231C75333F0182
:1020600019783843221CC0B27432002915D019786F
:10207000C9B24F1C61183031FFB21F704870197817
:102080001378994211D300232B70231C08330122AB
:10209000DA77201CFFF76AFF07E010701178062935
:1020A00012D9117843290FD8E1E70023337011E0EA
:1020B000E18D094A91420DD101222A70221C303251
:1020C00075341370237005E000232B70638A01338D
:1020D0009BB26382F8BDC046380B0000F7B5051C03
:1020E00078352F78041C7B1C2B70002F23D1021C09
:1020F0007632019213788932127A9A4206D8FFF723
:1021000035FFE38A01339BB2E38214E0C318061C57
:1021100077367833597833785A1C19413270012256
:102120001140FFF713FF3378052B04D9019A37705C
:102130001378013313702B78072B01D900232B70F0
:10214000F7BD08B50379042B02D1FFF733FF04E094
:102150000379032B01D1FFF7C1FF08BD08B5054B7B
:1021600010219A7B0A439A73034B1868FFF7E9FF23
:1021700008BDC046002C00428C070020FB207047A1
:1021800010B50379041C052B0AD001210722FFF7A3
:1021900024FE201C40218022FFF71FFE052323710F
:1021A0002379052B02D102F03DFAF9E7207EC0B277
:1021B00010BD10B50379041C012B05D001210022AC
:1021C000FFF70BFE01232371012010BD38B5151C4C
:1021D0001A1C041CFFF7CEFD064B002208332360B7
:1021E0002823FF33E254A31DDD77FF22E31D201CCB
:1021F000DA7738BD78AB0000031C0833DB7F032B94
:1022000024D9031C28331B78C371031C29331B7882
:102210000372031C2A331B784372031C2B331B7875
:1022200083728379002B09D1C37942799A4205D010
:10223000C379FE2B02D0C379FF2B07D1838A0122F9
:1022400001339BB283822823FF33C2547047EFF3DC
:10225000108272B6BFF35F8FBFF34F8FBFF36F8FE4
:1022600028210023FF3143540830C37782F31088BC
:10227000BFF35F8FBFF34F8FBFF36F8FBFF35F8FDE
:10228000BFF34F8FBFF36F8F70470368F7B55B687D
:10229000041C0F1C151C9847019000282DD0002FFE
:1022A00028D0002D26D0EFF3108672B6BFF35F8FD3
:1022B000BFF34F8FBFF36F8F231C0833D97F2A786A
:1022C0000339914202DCDB7F043B2B70211C2A780E
:1022D000381C2C3105F0D4F886F31088BFF35F8FDB
:1022E000BFF34F8FBFF36F8FBFF35F8FBFF34F8F7E
:1022F000BFF36F8F201CFFF7AAFF0198FEBD0000FF
:1023000070B5041C081C0D1C04F054FF154B144A36
:1023100004F0F0F8144A154B03F082FC02F09CFD27
:10232000020C061CD2B2201C0621FFF756FD320A11
:10233000D2B2201C0721FFF750FDF2B2201C082169
:10234000FFF74BFD281C0A4902F07AFD431E984115
:1023500040420123184094235B00E054012070BDEB
:102360000000000080842E410000000080844E4068
:1023700000C04244C046C04610B50379041C022B7D
:1023800005D001210A1CFFF728FD0223237110BD8F
:1023900038B51221041CFFF7FDFC1C21051C201C74
:1023A000FFF7F8FC2379042B06D180090122A02332
:1023B00082432B40134305D12379042B64D16B0650
:1023C0000FD461E0638A01339BB26382201C122127
:1023D000FF22FFF702FD201C1221FF22FFF7FDFC68
:1023E00038BD1321201CFFF7D5FC1021051C201C33
:1023F000FFF7D0FC0D21021C201CFFF7EEFC221C75
:102400002B1C00212832201CFFF715FD231C08334C
:10241000DD77FF221221201CFFF7DFFC1921201C91
:10242000FFF7B8FC40B2C3179B0F18182A2580107D
:10243000FF3560551A21201CFFF7ACFC2082635742
:10244000002B04DA228A9B189BB2238207E0208AA1
:102450000F2100B2000102F023FC80B220829423FD
:102460005B00E35C002B02D0238A9D3B01E0238AC2
:10247000A43B9BB22382201CFFF7BEFE2823FF3320
:10248000E35C002BA2D008E02379032B09D12B07B2
:1024900007D5E38A01339BB2E382201CFFF76CFF70
:1024A00094E72379052B00D090E76B0700D48DE7E4
:1024B00001231D402576F0E708B5034B1868002876
:1024C00001D0FFF765FF08BD9007002008B5034B5A
:1024D0005868002801D0FFF75BFF08BD9007002077
:1024E00008B5034B9868002801D0FFF751FF08BDDD
:1024F0009007002010B50379041C042B0AD0012199
:102500000522FFF76AFC201C40210022FFF765FC32
:102510000423237110BD10B50379041C0020032B84
:1025200006D0201CFFF7E6FF2823FF33E05CC0B293
:1025300010BD10B50379041C032B0AD0012103221E
:10254000FFF74BFC4021201C0A1CFFF746FC03232D
:10255000237110BDF8B5041C0F1C161EFB2E01D9EB
:10256000002533E003689B699847201CFFF704FFB0
:102570002368201C5B6A9847051EF1D00D210022BC
:10258000201CFFF72AFCE27A0021201CFFF725FC23
:10259000227B0021201CFFF720FC627B0021201CF5
:1025A000FFF71BFCA27B0021201CFFF716FC331C4D
:1025B00000213A1C201C0436FFF77AFCF2B2201CE2
:1025C0002221FFF70AFC201CFFF7B3FF281CF8BDEF
:1025D00038B5051C0C1C002A0AD00E2904DC4B1C43
:1025E00003DA0124644200E00E240134702218E072
:1025F000172904DC04290BDD142901DC09E0172468
:10260000281C4D210722033CFFF7E7FB64B205E0DD
:102610000524281C4D210422FFF7DFFB8022053C06
:1026200052422243281CD2B20921FFF7D6FB38BD03
:1026300038B50D1C041C0A781D21FFF7CEFB6A7803
:10264000201C1E21FFF7C9FBAA78201C2621FFF7BA
:10265000C4FB38BD13B5041C002004290BDC032285
:102660005143054B01A8591804F00AFF201C01A989
:10267000FFF7DEFF012016BD68AB000038B50A0A7F
:102680000D1C041C2021FFF7A8FBEAB2201C21210D
:10269000FFF7A3FB38BD0000F8B5041CFFF747FBAC
:1026A000061E01D1002655E0A71DFD7F201C291C18
:1026B000FFF73AFC01218022201CFFF78EFB0A2045
:1026C00001F096FF201C0121FFF764FB8028E9D16F
:1026D000F87F002102F030F9E31DDA7FFF2A06D1EE
:1026E0001D490A78032ADDD8501C0870DA77DB7F91
:1026F0001A4A99008C50002B02D1281C184908E076
:10270000012B02D1281C174903E0022BCAD116491C
:10271000281C042201F056FE0E210022201CFFF787
:102720005CFB00220F21201CFFF757FB201CFFF74A
:1027300023FE0021201CFFF78DFF201C0821FFF73E
:102740009DFF0A49201CFFF7DBFD201C0D21002204
:10275000FFF73EFF301CF8BD9C07002090070020CB
:10276000B9240000CD240000E12400000000D9437A
:1027700070B5031C002001390C4A89B2914213D074
:102780001C7808220125061C2E40E8402540AE4258
:1027900003D074256D426840C0B2013AD2B26408D9
:1027A000002AEFD10133E6E770BDC046FFFF00000D
:1027B00070B589000C4BC9B2021C141AE4B28C42E9
:1027C0000FD21578E60704D4DC086C43DE017440B0
:1027D00004E05C096540DE02AC19E4436340013269
:1027E000EBE7181C70BDC046AAAAAAAA7FB5074B82
:1027F000694670CB70C11B686A460B600023D158D4
:102800000968C1500433102BF9D17FBDF8AB00002B
:1028100070B594B007AC051C201CFFF7E7FFA36858
:10282000079A0093E3680BA8019363680D4905F0CC
:1028300079F9201C0421FFF7BBFF04AE0390039A33
:10284000301C094905F06EF92378281C00960749C9
:10285000074A05F067F9281C1022002105F01EFA2E
:1028600014B070BD40AC00004CAC000051AC000096
:102870005AAC000008B50548FEF7E2F90448052106
:102880000222044BFFF7A2FC08BDC046AF070020A0
:10289000B00700207C0700200B1C011C021C30B577
:1028A00019430220002900D130BD802109068B4246
:1028B00016D00D4904205C180C498C42F4D90C4DFB
:1028C0005C198C42F0D90B4C590049080320A142F5
:1028D000EAD9074C0020A142E6D150425041E3E73B
:1028E000002AE1D0EFE7C0460000F0FFFFFFDF7FE6
:1028F0000000F07FFFFF0F003F20704713B5026814
:102900006B46D97107335468191C0122A04716BDC4
:1029100008B50069022100F03FFC08BD08B5006958
:10292000032100F04FFC08BD38B50D1C041C131C1E
:10293000006903212A1C00F041FD002801D1012378
:10294000636038BD10B5054C23685A1C04D1036878
:102950005B6998472060031C181C10BD68000020AC
:10296000074A08B51368591C04D001214942116077
:10297000181C03E00069022100F012FD08BDC046EA
:102980006800002008B5037803490233037042222F
:10299000024800F0C9FD08BD24000020A30E00205D
:1029A00010B50178031C42780020A12908D1212A02
:1029B0002FD118481849072200F0B6FD012028E061
:1029C000212926D1202A05D113490722114800F0D8
:1029D0003FFC04E0222A10D19A780F4BDA710E4B9B
:1029E00096221968D200914210D1DC7901231C4053
:1029F0000CD1FA2001F01EF80AE0232A09D1DA7876
:102A00009B7812021A43054B1A6002E001F018F895
:102A1000002010BDA30E0020180000202000002080
:102A2000064BFA2189009960054900220831196096
:102A300004495A6019611A767047C046D8090020C7
:102A4000B0AC0000A30E002010B507230F220240F7
:102A5000141C00093034092A00DD0734CC54013B32
:102A6000F4D210BD70B582291ED1C2B22A495301D9
:102A7000CB189D69294C80012C40C025AD052C4305
:102A80009C61274C0832201858610B685201991834
:102A90000C798020404220430871D15C7020814332
:102AA00030200143D15435E0002933D1C2B21A4954
:102AB0005301CB189E68194DC0242E40A40526430F
:102AC0009E60184E80010968301808325860520123
:102AD000505C0726B0430126304350549E69354070
:102AE0002C439C610E4C5C61505C7024A04310240C
:102AF000204350549C680C488A182040802464036A
:102B00002043986098684021800B80039860537937
:102B10000B43537170BDC046AC0E0020FFFFFF8F0A
:102B2000000B0020C40C0020FF3F00F038B5041C4F
:102B300008CC01211A78051C0A431A708022201C37
:102B40000021520004F0BEFC2B689A78D107FCD417
:102B50005C6238BD134BF0B51B6899035A029B01A8
:102B6000C90ED20E5B0F1F2900D105211F2A00D1EB
:102B70001D22072B00D1032304688E01278D0A49EB
:102B80001F2539403143218501682A400C8DAC4313
:102B900022430A8502681903108D044B03400B433E
:102BA0001385F0BD246080003FF8FFFFFF8FFFFF1B
:102BB000EFF3108303600123436072B6704703682C
:102BC000002B02D162B6BFF36F8F704737B505692E
:102BD000041C6846002D12D1FFF7EAFF019B013B60
:102BE00003D3621DD57FEDB2F9E768460193FFF785
:102BF000E6FF0020854217D0206AE36913E0FFF763
:102C0000D7FF019B0025013B04D3221C34321578E9
:102C1000EDB2F8E768460193FFF7D1FF0020854247
:102C200002D0206BE36AC01A3EBD0000436810B5B5
:102C30001A68037A01215B01D318FF339A7A0A4399
:102C40009A72037A42685B01D318C2689C68910447
:102C50000B4A090922400A439A60037A42685B01E1
:102C6000D3189A684021920B92039A6043681A68BD
:102C7000037A08335B01D3181A790A431A7110BD1D
:102C8000FF3F00F0F7B50569041C0E1C171C6846D1
:102C9000002D1FD1FFF78CFF019B013B5A1C06D072
:102CA000621DD17F5A1E00293AD0131CF6E76846F0
:102CB0000193FFF784FF0025E369BD4235D0226A06
:102CC000934232D25A1CE261A269D3181B78735521
:102CD0000135F1E7FFF76CFF019B013B5A1C08D05F
:102CE000221C343215785A1EEDB2002D18D0131C58
:102CF000F4E768460193FFF762FF0025E36ABD42EF
:102D000026D0226B934241D322E0621D0021D1776D
:102D100030321678581E8E4214D1031C5A1CF4D13E
:102D200068460193FFF74BFF38E0226A934235D1A2
:102D30000023E361012323616846FFF739FF019B0C
:102D4000013BEBE71170201C0193FFF76FFFF6E7E3
:102D5000226B934222D10023E36223616846FFF78E
:102D600027FF019B013B5A1CDAD0221C3432002180
:102D7000117001321678581E8E4201D1031CF2E701
:102D80001170201C0193FFF751FFEAE75A1CE26221
:102D9000A26AD3181B7873550135AFE7281CFEBD16
:102DA00037B54368027A1B68083252019A18041C2E
:102DB000D0790123FF21184255D0D371A0686569ED
:102DC00062680140002D1FD14901521891688904A1
:102DD000890C2162216A002942D06361A36A684696
:102DE0005360FFF7E5FE019B013B5D1C34D0621D83
:102DF0000120D0772F3211785D1EC9B21218002938
:102E000015D111702B1CF0E74B01D3189A6892046E
:102E1000920C2263226B002A22D000226261A269F6
:102E200068465A60FFF7C4FE019B013B12E0019324
:102E300010706846FFF7C3FE15E0221C34320120F3
:102E40001070621DD17F5D1EC9B230320029EED1F3
:102E500011702B1C5D1CF0D168460193FFF7AFFE8B
:102E6000201CFFF7E3FE37BD37B500236C46E37146
:102E70000734201C0D1CFFF785FD2B6818182860EF
:102E800001F0A4FE211C01F05BFE2B6818182860DD
:102E900020783EBD03290BD10D4BB2221B68520096
:102EA000985C8021494201439954022168220CE038
:102EB00001290CD1064B92221B685200985C80219C
:102EC00049420143995402212822FF329954704704
:102ED000AC0E002038B5304B00240121051C1A200F
:102EE0001C7001F029FD1A20012101F07FFD2B4B00
:102EF000192001211C7001F01FFD1920012101F092
:102F000075FD274B2021DA6901200A43DA61254B40
:102F100006241A7802431A70234B0F221978914322
:102F2000197019782143197020490C7820430870D2
:102F300019780A401A701A7860210A431A701C4BDB
:102F40001C4A5A805A78D209FCD11B4801F044FB34
:102F50001A4C201CFFF7EAFD201CFFF7FBFD23683D
:102F60007F2219780A401A701A7804210A431A70CD
:102F70001A890C218A431A81C121114A89005058AB
:102F80000002000A5050802111601A7802210A4381
:102F90001A7001232B7038BDC00C0020A80E002031
:102FA00000040040584400413C4400415944004161
:102FB000000C004006400000ED390000AC0E00207F
:102FC00000E100E00078002810D0094B01211B68C7
:102FD0001A898A431A811A8B08210A431A831A8B89
:102FE00004210A431A83034B00221A607047C0462B
:102FF000AC0E0020B00F00200F4B9A69920B920389
:103000009A611B680222FF331A7298798022524219
:1030100002439A711A7A9007FCD5084B081C997ADA
:103020007F221040914301439972997A8022524243
:103030000A439A727047C046AC0E0020005000410F
:1030400010B50B790C1C002B0BD1081CFFF7A8FC4A
:10305000002804D1094B9A69920B92039A610120CE
:103060000BE001F0B3FD211C01F09EFD0028F6D11C
:10307000024B9A69920B92039A6110BDAC0E00202C
:10308000F7B50E1C832A18D1CAB235495301CB18A3
:103090009C693448B6012040C024A40520439861AF
:1030A0003148083286195E610B685201D15C70208C
:1030B000814340200143D15450E0022A4AD12B4A97
:1030C00089008D580191002D48D1382001F0CEFAA9
:1030D000274B80270360224B7F004360431D05621E
:1030E000866005614561C561C760DD772F33041CCB
:1030F000C56205631D70381C5D7004F0ADF9A061F8
:10310000381C04F0A9F9FF2315491E407601A0627E
:103110008E19B168134A07250A40C02189050A4360
:10312000B260A16862681940126808314901885C80
:10313000A843032528438854A268616813405B01B3
:10314000A269CB185A60201CFFF770FD019B07494C
:103150005C5003E0081C111CFFF784FCF7BDC0465F
:10316000AC0E0020FFFFFF8F000B0020840E00201C
:10317000E0AC000038B5051C0124064BA200D25873
:10318000002A06D0211C281C0134FFF779FFE4B285
:10319000F3E738BD6C00002008B5084B8A00D05812
:1031A000002803D003689B68984706E0C9B2044B27
:1031B0004901591888688004800C08BD840E0020DD
:1031C000AC0E002010B50C1CFFF7E6FF00280CD059
:1031D000064BE1B21B680831490159184A7980232E
:1031E0005B4213434B710223CB7110BDAC0E002028
:1031F00070B5CAB2134B1448540189015918031908
:1032000059609D681149083229408025AD02294343
:10321000996099684026890B890399600368510178
:1032200059180D7935430D715101591889794D0699
:10323000FAD551015918C979CD07FAD50419A068F2
:10324000C0B270BDC40C0020AC0E0020FF3F00F0E7
:1032500038B50C4B141C1B680D1CFF335A794021E8
:103260000A435A710021FFF7C3FFA04200D9201C76
:103270000023A34204D0044A9A5CEA540133F8E7DD
:1032800038BDC046AC0E0020C40C002010B5C9B239
:103290000C48490143189A689204920C3F2A08D9B5
:1032A000141C9A68403CA404920BA40C9203224381
:1032B00002E09A68920B92039A6041188868C0B243
:1032C00010BDC046AC0E0020F0B51C1C2F4B85B0C5
:1032D0001B68061C0D1C0292002B51D02C4F397814
:1032E000C9B2002902D1192001F080FB64233B7090
:1032F000284BAA00D058002805D0036802995B68C3
:10330000221C984740E0301C291CFFF745FFA042D3
:1033100004D2301C291CFFF73FFF041C291C301C61
:10332000FFF7B4FF1C4FE9B24A01019139680392DB
:103330008B18FF335A7A01210A4318495A72AB019C
:10334000C9180298221C04F09BF8002C1BD0301CDA
:10335000291CFFF721FF002815D1019B3A6808338B
:103360005B01D31819794020014319710121D971EA
:1033700003995318FF339A7A01210A439A7202E0A3
:103380000120404200E0201C05B0F0BDB00F00203D
:10339000A80E0020840E0020AC0E0020C40C0020DB
:1033A00013B56C460734221C0123FFF78DFF01285B
:1033B00001D1207801E00120404216BDF0B51C1C6F
:1033C0003F4B85B01B680E1C0292002B6AD08023F5
:1033D000DB019C4266D83B4D2978C9B2002902D155
:1033E0001A2001F003FB642300222B700092002CB2
:1033F00056D0354DF7B22B6801933B1C0833019A28
:103400005B01D3189B79DB091AD0304B304918681F
:1034100001F0F8FB2F4B1721584301F0F3FB3B1C45
:103420000833019A5B01D318DB799A0708D42A4B39
:103430009A5D002A38D1421E002835D0101CEEE7D4
:10344000254B00229A55251E3F2D00D93F25234AA2
:10345000B301D318181C02992A1C039304F010F826
:10346000194A7B01D318039AA9045A619A69890CF5
:10347000920B92030A439A613B1C019A08335B0149
:10348000D3180222DA715979802252420A435A71C2
:10349000009B029A5B1952190093641B0292A6E7E3
:1034A00000980BE0012008E001229A557B01ED18FD
:1034B000AB69101C9B0B9B03AB61404205B0F0BD98
:1034C000B00F0020C00C0020AC0E0020980000209F
:1034D00040420F0070110100F80A0020000B00208C
:1034E00070B50E4D1C1C8B01ED18281C0E1C111CF8
:1034F000221C03F0C5FFF6B20949760189194D6116
:103500008A69084B201C13408B618B69A2049B0BBA
:10351000920C9B0313438B6170BDC046000B0020CF
:10352000AC0E0020FF3F00F0F7B5114B01901B7867
:103530000F1C141C002B19D10E4B1E78002E01D12C
:10354000151C08E00C4D0D482E888019361903F023
:1035500097FF2E800AE0002D08D0BA192B1C019885
:103560000021FFF7BDFF36182D1AF4E7201CFEBD21
:10357000A20E0020A00E0020F60A0020F50900206F
:10358000F8B50E1C00AF151E012D28D9D31DDB0880
:10359000DB006A46D21A9546081C04F0EDFA0130A9
:1035A0006C4640000323207063700222AA420ED2B0
:1035B0003378002B0BD0511CC9B20136A354A94259
:1035C00004D0002302326354D2B2EFE72A1C05482C
:1035D000211CFFF7A9FF431E9841C0B200E0002064
:1035E000BD46F8BDA30E002008B5044B00221A709A
:1035F000034B04491A88FFF797FF08BDA00E00206F
:10360000F60A0020F5090020F0B5204A87B0012312
:103610000026009102A91370051C0296FFF724FCF6
:1036200003AC092701903A1C201C311C03F04AFF0F
:1036300002236370A023E371FA232372029B012209
:10364000DB196380019B62712371104A009B277014
:103650001670BB4205D1281C211C1A1CFFF764FF01
:1036600011E00B4B01221A700A4B211C3A1C281C3A
:103670001E800296FFF758FF281C02A9FFF7F4FBF3
:10368000281CFFF7B1FF012007B0F0BDA20E0020FB
:10369000A00E0020F60A002070B5CE7892B0051C6E
:1036A0000C1C022E08D1C9882D48FFF7ADFF031C62
:1036B000581E8341D8B251E001F088FA211C01F074
:1036C00054FA002803D0C3171B1AD80F46E0012E66
:1036D00004D1E2882349112A3BD837E0032E3DD19B
:1036E000A278002A05D12049E2880B7893422DD890
:1036F0002FE0022A03D1A279281C1C4904E0012AE8
:1037000005D1A2791A49281CFFF73AFF26E0032ABF
:1037100024D1184B01A91868FFF796F9164B03A995
:103720001868FFF791F9154B05A91868FFF78CF990
:10373000134B07A91868FFF787F901F047FA09A9A1
:1037400001F023FAA279281C01A9DDE7D2B2002AF0
:1037500000D10A78281CFFF7E7FE012012B070BDE7
:10376000A30E002000AD0000FCAC000012AD000074
:10377000F0AC00000CA0800040A0800044A08000BD
:1037800048A0800073B5051C48780C1C0B2878D81D
:1037900001F02EFA081C7728773E4306474B686FE6
:1037A00000206FE0097801AA002903D1117051703F
:1037B000281C09E0002313705370334B1B78012B36
:1037C00000D11370281C002102234FE08A780023C7
:1037D000012A04D101AA137053702C4BEEE72A4A38
:1037E000137049E08E78012E07D1284B01AA0021E1
:1037F0001E701170281C331C38E0002E08D1224A9C
:1038000001231370224A9169890B8903916138E081
:10381000A178281CFFF7F0FB33E0281CFFF73CFFE2
:1038200030E0281C00211B4A1FE00A780020D30644
:1038300028D1281CFFF79EFCA2781549154B0224BD
:103840001A600A682A23FF33D05C2043D0544A20F0
:10385000FF30145C01231C4314548A69920B9203B9
:103860008A610EE00C4A281C00210123FFF738FE74
:1038700007E08A78084B1A60054B9A69920B92030D
:103880009A61012076BDC046F4090020A10E0020F7
:10389000AC0E0020B00F0020A40E0020F8B54B4B5A
:1038A000071C1C78002C00D08FE0494D2868838BC2
:1038B00019070ED5201C211CFFF7D4F82B68102007
:1038C0001A1CFF32917A01439172424A1460082215
:1038D0009A832B689A8B50071FD504229A833E4BFC
:1038E0001A78002A0AD01A78013AD2B21A701B78D4
:1038F000002B03D11A20012101F078F8374B1A78F8
:10390000002A0AD01A78013AD2B21A701B78002B1A
:1039100003D11920012101F069F82B68FF331A7ACD
:10392000D10626D510221A725A7940210A432C4911
:103930005A710A786023381C1A4202D1FFF722FF1D
:1039400001E0FFF77DFB002806D02B688022FF33C3
:10395000997952420A4301E0224B20229A712B6846
:10396000FF331A7A500604D540221A72597A0A4354
:103970005A722968FE230E8C00241E40E1B2002EEC
:1039800023D0321C012322411A4216D0221C28685F
:10399000083252018218D079184203D1D279DA4024
:1039A0001A4207D0104BA200D058002809D0036853
:1039B0001B6898470123A3409E430134092CDDD1A5
:1039C00003E0381CFFF766FAF4E7F8BDA00E00200C
:1039D000AC0E0020B00F0020C00C0020A80E00206C
:1039E000C40C0020FF500041840E002008B502489E
:1039F000FFF754FF08BDC046A30E0020014A024B4A
:103A00001A60704700500041AC0E0020F7B58A18CC
:103A1000061C0D1C01920C1C019B671B9C4207D0CD
:103A2000336821781B68301C984701340028F3D193
:103A3000381CFEBD014B18607047C0469400002042
:103A4000024B012252421A607047C0469400002087
:103A5000154A1368581C25D0013B1360002B21D157
:103A600072B6124A124B04329A4207D8BFF34F8FF4
:103A7000104A114BDA60BFF34F8F11E00F4B197DE5
:103A8000C807FBD5188B2021FF3192085200014353
:103A90001983DA610A4A1A801A7DD107FCD5E5E755
:103AA000C046FDE77047C0469400002000000000BB
:103AB000030200000400FA0500ED00E000400041B0
:103AC00002A5FFFF01607047F7B508AC26780468CF
:103AD0009D1E27686C1EA541ECB2920705683A430B
:103AE00027063A432A600268072529405068B50135
:103AF000002C00D05C03294301430C435460F7BD04
:103B000030B50368C0251C68AD0312052A40224366
:103B1000C024A402090421401143196003685A68B3
:103B200014435C6030BD036801211A680A431A60BF
:103B30000268116801231942FBD1D1691942F8D1F9
:103B40007047036802211A680A431A600268D36941
:103B50009907FCD4704703681A7ED10702D41A7EF5
:103B60009107FCD57047036800225A8370470368A9
:103B7000187E4007C00F70470368187EC009704761
:103B800003688022197E52420A431A7670470368FE
:103B9000187E0123184070470368188DC0B2704723
:103BA00003681A7E01200242FBD019857047036822
:103BB00001229A757047036801221A757047000048
:103BC00070B5036801268D07ED0F31401C686D0745
:103BD000090729432143196004685100034801F093
:103BE00011F80138C0B2207370BDC046006CDC0211
:103BF000036801211A680A431A60026811680123E8
:103C00001942FBD1D1691942F8D1704703680221EA
:103C10001A680A431A600268D3699907FCD470478E
:103C20000368DA699107FCD41A6802218A431A6092
:103C3000704703689A6A520A5202114399620368F4
:103C40001A7E5107FCD5986AC0B2704703680121FB
:103C50001A680A431A600268116801231942FBD1ED
:103C6000D1691942F8D17047036802211A680A43E2
:103C70001A600368DA699107FCD45A8B30218A43B1
:103C800010210A435A830268D3695907FCD470474C
:103C90000368802219685968D2020A435A60704743
:103CA0000368034A196859680A405A607047C04659
:103CB000FFFFFBFF30B5036803241D680C40074A73
:103CC000596824040A40ED0622436D0F5A60052D01
:103CD00003D10268D3695907FCD430BDFFFFFCFF54
:103CE00049001143036830B5CDB2598B032409094B
:103CF0002140012904D0598B09090C40022CF4D130
:103D0000596AC90AC902294359620368002A03D1C2
:103D10001A7ED107FCD50DE0187E01224008104024
:103D200008D1197E1142F7D05968C02292020A4385
:103D30005A6003E05B8B01209B08984330BD036809
:103D4000283319700268107E0123184003D1518B6B
:103D50001942F8D003E0528B181C92089043704728
:103D6000036828331970036800201A7E510703D5B1
:103D70005B8B01209B089843704703681868C00656
:103D8000400F043843425841C0B270470368187E60
:103D90004007C00F70470368187E01231840704722
:103DA0000368588BC006C00F70470368187E8007F1
:103DB000C00F70470368588B0007C00F7047036837
:103DC0001A68D206520F052A02D11A7E9107FCD535
:103DD00028331878C0B270470368224A30B593423E
:103DE00011D0214A934211D0204A934211D0204A47
:103DF000934211D01F4A934211D01F4A934230D1AF
:103E00000E2319220DE0092314220AE00A231522A9
:103E100007E00B23162204E00C23172201E00D23F8
:103E20001822DCB2154901209B08A0409B000860C5
:103E30005B180320C021890004405D58E000FF2486
:103E40008440A5432C1CC0258540281C2043585085
:103E50008023DB011A430A4B5A805A7852B2002A57
:103E6000FBDB30BD00080042000C004200100042A5
:103E70000014004200180042001C004200E100E073
:103E8000000C0040F8B5041C151C0E1C1F1CFFF78D
:103E9000A3FF201CFFF747FEB1001C220A40690760
:103EA0002368090C0A431A60226884239375012E43
:103EB0001AD10821012D00D110210C4B794318682B
:103EC000C00000F09FFE236807219A890140D204B8
:103ED0004903D20C0A439A8123680004C20C9889D2
:103EE000400B400310439881F8BDC0469800002065
:103EF000F7B5019308AB041C1F780D1C161CFFF7C7
:103F000077FE201CFFF768FFBF070C221743C02273
:103F1000920336051640C02292022D0423683E43C8
:103F200001991540354307221D600A40802123680E
:103F300089020A435A60F7BD70B5041C0E1CFFF7D6
:103F40004BFF201CFFF782FE236814221A600D4BE2
:103F500071001D682468281C00F054FE0A49061CE4
:103F6000281C00F04FFE7D23FA215843C90000F0C1
:103F700049FE301AE668FF23053818409E43064381
:103F8000E66070BD9800002040420F00012070479D
:103F900008B50368014A1B6A984708BD130400006E
:103FA000826D436D9A4203D0836DC018007D01E09D
:103FB00001204042704710B5041C0069FFF7B3FDB3
:103FC0000023221C63659C32A365A0341360236028
:103FD00010BD0000F0B587B001930CAB1B78002535
:103FE00002930DAB1B78402603930EAB1B78041C89
:103FF00004930FAB1B780F1C0593FA239B0083607F
:10400000124B0092083303604560291C321C1430A7
:1040100003F058FA201C6565321CA565291C5C302C
:1040200003F050FA009A231C9C331D605D602761E9
:104030001A72019A201C5A72029A9A72039ADA72C0
:10404000049A1A73059A1A7707B0F0BD20AD0000E4
:1040500030B585B0041C08A8057809A8007800953B
:104060000190FF2002900390201CFFF7B3FF201C5B
:1040700005B030BDF023081C184030384342584189
:104080007047F0231B01194080239B0099420CD0FC
:10409000C0239B00994206D080235B0005209942F3
:1040A00004D0002002E0072000E0062070470F2324
:1040B0001940012905D002394B424B410220C01A58
:1040C00000E0002070470000F0B5031C85B00391AC
:1040D000A433041C182718783B1C4343344E082192
:1040E000F3185956151C00F0C9FC231CA533187889
:1040F0003B1C43430821F318595600F0BFFC231C16
:10410000A7331B78022B0AD1231CB8331878FF2859
:1041100005D047430821F719795600F0AFFC271C5A
:10412000A8373878FF281AD0012100F005FC3B7829
:1041300018225A43B3561F4FDB01211CAC31D8194A
:1041400008601D49B6185B18211C7268B0310B60FD
:10415000012191400A1C211CB4310A601A6001211E
:104160000A1C039B2069FFF78DFE291C201CFFF70A
:1041700088FF291C071C201CFFF799FF291C061C1F
:10418000201CFFF777FF391C0090331C20690122A7
:10419000FFF79AFC231CA7331978013B1A78206992
:1041A000FFF7AEFC2069FFF7CCFC05B0F0BDC046C0
:1041B000C0A500001844004114440041026C436C47
:1041C000D01A00D54030704710B5041C201C5C305C
:1041D000FFF7F4FF0028F9D12069FFF7BCFC10BD00
:1041E00008B51430FFF7EAFF08BD026C436C9A4231
:1041F00004DB036C406CC01A3F3003E0426C036C7C
:10420000D01A0138704708B55C30FFF7EEFF08BDE3
:1042100038B5041C0069FFF7AAFC00281FD02069EC
:10422000FFF7BAFC636D3F2201331340A26D934246
:1042300003D0626DA21810756365231CA8331B7828
:10424000FF2B0CD0201C1430FFF7CFFF092806DC11
:10425000231C221CAC33B4321B6812681A6020691C
:10426000FFF795FC002820D0251C5C35281CFFF7A3
:10427000A5FF031C2069002B15D0231C221CA03392
:104280009C3219681268914207D01A68A95C1A68B2
:104290003F2501322A401A6001E001214942C9B29A
:1042A000FFF77EFC01E0FFF786FC2069FFF764FC66
:1042B000002805D02069FFF763FC2069FFF753FC55
:1042C00038BD000070B5041C00690D1CFFF75FFCD1
:1042D00000280FD0201C5C30FFF770FF002840D072
:1042E00008E0EFF31083DA0723D4214B5A68D20594
:1042F000D20D0BD1231C9C33211C1E68A0310A68EF
:1043000001363F2006409642EBD01BE0103AD2B275
:1043100053B2002B08DA0F231A40083A154B9208C3
:104320009200D218536804E09B08C033124A9B00E5
:104330009B582069FFF72BFC0028DBD0201CFFF7DF
:1043400067FFD7E71A680968013202408A4204D041
:104350001968201C5C3045541A602069FFF727FC5F
:1043600003E02069291CFFF71BFC012070BDC0463B
:1043700000ED00E018ED00E000E100E038B5826DEE
:10438000436D041C9A4208D0836D3F22C3181D7DE3
:10439000836D01331340836501E001256D42231CC9
:1043A000A8331B78FF2B0BD0201C1430FFF71DFF08
:1043B0000A2805DD231CB033B4341B6822681A6058
:1043C000281C38BDF7B51823434301923F4A1625F0
:1043D000D3185D57071C0091681C76D0102D74D03F
:1043E0003B4B3C4C1E68002E27D1311C44223A48DE
:1043F00003F068F8311C4422384803F063F8384B66
:10440000384910221E60CA67374BC02149005A50F4
:10441000C12189005858FF26B04358501A60334ACA
:10442000334B5A8023780222134323706378DB09CD
:10443000012BFBD0264B01221A6063690126AE4096
:10444000334300216361381C00F018FB00990029F8
:1044500039D0234A1368171C9C4600231E499A0032
:10446000634504D08858B04203D00133F6E70133E6
:104470003B608E50194B00999950072D03DD083D84
:10448000AD00012301E0AD000023124A9B009B1800
:104490009A690721A94001988A439A61042812D891
:1044A0009A6900F0A5FB030507090B00052106E04A
:1044B000042104E0032102E0022100E00121A940DF
:1044C0000D1C15439D61B6B2E660F7BDC0A50000A6
:1044D0004010002000180040F80F0020B40F00200A
:1044E0003C10002004E100E000E100E00540000095
:1044F000000C0040F8B50024094B1B689C420DD20B
:10450000084E094FA5003369EA591A4204D0074BF7
:10451000EB589847EB5933610134EDE7F8BDC046DD
:104520003C10002000180040F80F0020B40F0020BD
:10453000002110B5041E8C4204D003F0A5FA211C02
:1045400000F004FC081C10BD10B5041E8C4203DAF8
:10455000081AFFF7EDFF0419201C10BDFEE7FEE767
:1045600008B5034B1B68002B00D0984708BDC04618
:104570004410002038B50F490F4CA14204D100F07F
:1045800081F800F053F80BE00C4D8D42F7D000237A
:10459000CA18E818A24204D2006804331060F7E792
:1045A000FEE79042EBD0064B064A9342E7D2002248
:1045B00004C3F9E700000020B001002048B100006A
:1045C000B00100206C10002008B500F02CF8002885
:1045D00001D100F01DF808BD014B18607047C046BE
:1045E00044100020014B18687047C0464810002056
:1045F00070B5041E08D0054B1D681E1C00F012F893
:1046000033685B1BA342F9D370BDC046481000203D
:1046100008B5034B1A6801321A60FFF719FA08BD92
:1046200048100020704700207047704710B500F018
:10463000DDF802F0EBFEFFF7F8FF0120FFF7D8FFEF
:10464000084C201CFEF746FC201CFEF7BBFCFBF7C9
:1046500035FFFBF7FFFF044B002BFAD000E000BF53
:10466000F7E7C046A30E00200000000008B502F0E6
:10467000F3FE08BD08B502F0EFFE08BD08B502F074
:10468000F5FE08BD70B5494A1E21536802208B43D0
:104690000343474953608B69082423438B61454C8E
:1046A000454B9C829C8A20439882101CDA689407B0
:1046B000FCD5424A012414701478E50704D53F4C18
:1046C000647864B2002CF7DB01249460547864B2FF
:1046D000002CFBDB3A4D394C6560547864B2002CF9
:1046E000FBDB8225354CED016580547864B2002CEB
:1046F000FBDB02249C84DC68E606FCD5314D2E4CA5
:10470000E562DD682C4CEE06FBD5A58C2E4E3543BC
:10471000A584DD68284CEE06FBD5A58C0226354322
:10472000A584DC682506FCD5234CE4686606F8D52C
:10473000DC68E506FCD500249460547864B2002C53
:10474000FBDB224D1D4C656055781C4C6DB2002D75
:10475000FADB1E6A1E4D35401D621D6A8026B54378
:104760001D620323A3601B4B636053785BB2002B75
:10477000FBDB00230B72184A4B728B72CB72174B08
:10478000FF211A60164B174A1B6812685C01D20E93
:10479000214011439A06520F12020B1C1343124A76
:1047A0001385436880221343436070BD004000417D
:1047B000000400400C06000000080040000C00400F
:1047C00001050100B905FF7D040A00000007030090
:1047D000FFFCFFFF03060100006CDC0298000020D4
:1047E000246080002060800000400042314BFA21AC
:1047F000186810B5890000F005FA2F4B013898426F
:1048000024D82E4A2E4B5060186AC0210002000A9C
:104810000906014319620024072194601160196A96
:1048200080220902090A12060A431A62254BFC215A
:104830001A6A0A431A62196AFC2292010A431A622E
:10484000196AA022D2020A431A6200E0FEE7201C85
:104850000021013400F070F8142CF8D11A4C637860
:104860005BB2002BFADB194B6380194B5A7ED209DD
:10487000012AFAD0E422D2009A803F22DA70597ECF
:10488000134AC9090129FAD0C0235B010020136132
:10489000907000F023F863785BB2002BFBDB0D4ACD
:1048A000094B5A800C4BDA79D209012AFAD04122FD
:1048B0005A7010BD98000020FFFFFF0010E000E0DC
:1048C00000ED00E000040040000C00401E4000002D
:1048D00000400042214000000048004200B5144A58
:1048E000517E131CC9090129F9D00138042813D8B5
:1048F0001969104A0A401A615A780F218A4300F058
:1049000077F9030509070300012102E0032100E014
:1049100002210A435A700AE01169F0231B050B4378
:10492000136153780F218B4302210B43537000BD59
:1049300000400042FFFFFFF010B51824021C201CAD
:104940005043274B1818007A40B2013046D0032953
:1049500044D8081C211C00F04BF90233112162439A
:1049600098569A18C3011F4852681B18991840316D
:10497000022008700121914059602FE0624398564F
:1049800018499A185268C3015B18991840310620DB
:10499000087001219140596099611FE051435A56B6
:1049A000104859184B68D2011118C8184030062415
:1049B00004700120984048600B49521850600DE087
:1049C000624398569A18C301064852681B189918F2
:1049D00040310220087001219140996010BDC0460D
:1049E000C0A5000000440041104400411823584372
:1049F000134AF0B5131808241C5701341FD08256EF
:104A0000104ED2015D6801249019231C8668AB40CA
:104A10001E420BD10E1C771EBE414019344040305F
:104A2000A50004780426B4432C430470002903D164
:104A300005495218536002E0024E92199361F0BD8D
:104A4000C0A5000000440041104400411823584311
:104A5000084A082113185956013109D082560649CF
:104A6000D20152185B68106AD8400123184000E058
:104A700000207047C0A500000044004118224243B6
:104A8000F8B52D4D0824AA181457031C621C50D0E9
:104A9000481C00240C284CD800F0AAF8071E1E1E43
:104AA0001E1E1E1E1E0A0A0A0A000124644240E05D
:104AB000092902D1181C002103E00A2904D1181C7D
:104AC0000221FFF739FF23E000240B2931D1181C04
:104AD0000121FFF731FF2CE018225343EA185268F6
:104AE000EB560120141C04405508DB01002C11D0AA
:104AF000124C1B195D1930352E780C010F213140F5
:104B000021439A18C9B229704032137818431070A3
:104B100000240EE0094E0F279B195D1930352E78C1
:104B20009A18BE433143C9B22970403213781843F2
:104B30001070201CF8BDC046C0A500000044004114
:104B400070B544680E1C0025002C09D02368201C79
:104B50005B68311C9847002804DB2D18E468F3E7F4
:104B6000281C01E00120404270BD38B544680D1C8E
:104B7000002C08D02368201C9B68291C984700281B
:104B800002D1E468F4E7201C38BD38B544680D1C38
:104B9000002C07D02368201C291CDB689847E46898
:104BA0002D18F5E72C7038BD38B544680D1C002C65
:104BB00008D02368201C1B68291C9847002803D1B3
:104BC000E468F4E7201C00E0012038BD064B012218
:104BD000196810B51140054805D102240470042459
:104BE000447041601A6010BD541000204C10002029
:104BF00002B4714649084900095C49008E4402BC70
:104C00007047C046002934D00123002210B48842E6
:104C10002CD301242407A14204D2814202D20901EB
:104C20001B01F8E7E400A14204D2814202D249000C
:104C30005B00F8E7884201D3401A1A434C08A042AF
:104C400002D3001B5C0822438C08A04202D3001B45
:104C50009C082243CC08A04202D3001BDC0822435C
:104C6000002803D01B0901D00909E3E7101C10BC80
:104C70007047002801D00020C04307B4024802A1B9
:104C80004018029003BDC046D90000000029F0D0B2
:104C900003B5FFF7B9FF0EBC4243891A1847C04657
:104CA000002941D010B4041C4C40A446012300222A
:104CB000002900D54942002800D5404288422CD323
:104CC00001242407A14204D2814202D209011B011E
:104CD000F8E7E400A14204D2814202D249005B001D
:104CE000F8E7884201D3401A1A434C08A04202D385
:104CF000001B5C0822438C08A04202D3001B9C08C6
:104D00002243CC08A04202D3001BDC082243002827
:104D100003D01B0901D00909E3E7101C6446002CED
:104D200000D5404210BC7047002806D003DB0020AD
:104D3000C043400801E08020000607B4024802A1F9
:104D40004018029003BDC046190000000029EBD0B6
:104D500003B5FFF7A7FF0EBC4243891A1847C046A8
:104D60007047C0468446101C62468C46191C634638
:104D700000E0C0461FB501F03FFB002801D4002130
:104D8000C8421FBD10B501F06FFA4042013010BD9E
:104D900010B501F031FB002801DB002010BD01201F
:104DA00010BDC04610B501F027FB002801DD002032
:104DB00010BD012010BDC04610B501F09FFA0028BB
:104DC00001DC002010BD012010BDC04610B501F06F
:104DD00095FA002801DA002010BD012010BDC04660
:104DE0008446081C6146FFE71FB500F0C7F800289D
:104DF00001D40021C8421FBD10B500F04DF840425B
:104E0000013010BD10B500F0B9F8002801DB00201A
:104E100010BD012010BDC04610B500F0AFF800284D
:104E200001DD002010BD012010BDC04610B500F00E
:104E30005DF8002801DC002010BD012010BDC04637
:104E400010B500F053F8002801DA002010BD012051
:104E500010BDC0460000000038B50E4B0C4A041CC3
:104E60000D1CFFF7B3FF002804D1201C291C02F001
:104E7000FBF838BD074B064A201C291C01F0CAFD6F
:104E800002F0F2F880231B06C018F2E7C046C046C5
:104E9000000000000000E0414A02430270B55C0AD5
:104EA000550A43004A001B0EC60F120EC90FFF2BF6
:104EB00005D0FF2A08D0012093420BD070BD0120FD
:104EC000002CFBD1FF2AF6D10120002DF6D10120C4
:104ED0009342F3D1AC42F1D18E4205D0002BEDD1FB
:104EE000201C441EA041E9E70020E7E74A024302F4
:104EF000F0B55C0A550A43004A001B0EC60F120E9D
:104F0000C90FFF2B31D0FF2A34D0002B16D16042BD
:104F100060418446002A14D0002820D18E4217D147
:104F2000934215DC04DBAC4212D80020AC4212D212
:104F3000704270414042012318430CE0002AEDD139
:104F400094466F426F416046002805D1002FE5D09E
:104F5000704201231843F0BD0020002FFBD14842CE
:104F60004841404201231843F5E7002CCBD00220F2
:104F70004042F0E7002DC8D0F9E7C0464A0243029C
:104F8000F0B55C0A550A43004A001B0EC60F120E0C
:104F9000C90FFF2B27D0FF2A29D0002B10D0002AC1
:104FA00015D194466F426F416046002815D000200D
:104FB000002F04D148424841404201231843F0BD2C
:104FC000604260418446002AECD00028F2D18E4233
:104FD00011D0704201231843F1E7002FF7D070423F
:104FE00001231843EBE70220002CE8D1D3E702208D
:104FF000002DE4D1D1E79342EBDC04DBAC42E8D8EE
:105000000020AC42DBD27042704140420123184381
:10501000D5E7C046F0B55F4656464D464446F0B427
:105020004402460083B00F1C640A360EC50F002EE2
:1050300041D0FF2E22D080231B0400201C43E4001B
:105040007F3E82468046391C4B007F02C90F7F0A93
:105050001B0E8B463BD0FF2B34D08022120417430B
:10506000FF007F3B00215A466A40019252460A43A4
:105070000F2A63D87A48920082589746002C3FD175
:105080000822022392469846DDE701954046022811
:105090002AD1019A01251540FF2300246402DB0573
:1050A000600AED071843284303B03CBC904699467C
:1050B000A246AB46F0BD002C27D104200122824637
:1050C0009046C0E7391C4A1E91410231CBE70121CD
:1050D000002FC8D0381C02F04BF9431F9F407623A5
:1050E0005B421B1A0021BEE7032800D1AEE0012875
:1050F0004FD1019842461040C5B200230024CDE7AD
:105100000C2303209A4680469DE7201C02F030F9CC
:105110007626431F9C4076420023361A9A469846CC
:1051200091E780240025E403FF23B7E75B463C1C9E
:1051300001938846AAE73C1C8846A7E7250C24046F
:105140003A0C240C3F04F6183F0C211C231C794315
:1051500053436F435543FB180A0C9B18B1469F42BB
:1051600002D980225202AD1809041A04090C5218FF
:1051700094011B0C611E8C41920EED181443AD017D
:105180002C43230105D501226308012014408144EA
:105190001C434B467F33002B2DDD600704D00F22CC
:1051A0002240042A00D00434220103D52D4B1C4098
:1051B0004B468033FE2B17DD019B01251D4000244B
:1051C000FF236BE78020C003044208D0074206D1CA
:1051D000041C3C436402640A5D46FF235EE704430B
:1051E0006402640AFF2359E70198A4010125640AB7
:1051F000DBB2054052E77E235B424A469B1A1B2BDB
:1052000005DD019B01251D400024002346E7221CEB
:10521000DA404B469E339C40231C5C1EA341134343
:10522000580704D00F221A40042A00D004335A0130
:1052300005D5019B01251D40002401232EE701987F
:105240009C010125640A0540002327E78027FF030E
:10525000019B3C43640201251D40640AFF231DE7B6
:1052600058AD0000FFFFFFF7F8B5C20F430244003E
:105270004D024800240E161C9B09000EC90FAD09F3
:10528000FF2800D17EE0012779408A4258D0221AB7
:10529000002A00DC89E000281BD1002D00D075E039
:1052A000580704D00F221A40042A00D004335901B1
:1052B00038D50134FF2C00D183E09B0101225B0A29
:1052C000E0B232405B02C405580AD20720431043C3
:1052D000F8BDFF2CE4D08021C9040D431B2A00DD5A
:1052E0002DE1291C2020D140821A95406A1E95414B
:1052F0000D435B1B5801D3D59B019F09381C02F05D
:1053000037F8421F9740944260DC141B1F231B1B7D
:105310003A1C9F40611C3B1CCA405F1EBB411343AB
:105320000024BDE70122DB08E0B23240FF2C04D1AB
:10533000002B7ED08021C9030B435B025B0AC1E7CF
:10534000211A002946DD002826D0FF2CA8D0802075
:10535000C00405431B2900DDEFE0281C2027C840BE
:10536000791A8D40691E8D4105435B19590197D506
:105370000134FF2C5CD0734901221A400B405B08BA
:1053800013438DE7002D00D07FE77CE7013A002A28
:10539000AFD0FF2CA2D183E7002D00D180E70139E7
:1053A0000029E2D0FF2CD5D17AE7002A1ED1621C59
:1053B000D2B2012A4EDD5F1B7A0126D5EF1A0E1CF0
:1053C0009CE701223240FF2000237BE75D4BA41ABB
:1053D0003B4065E7002946D1611CC8B201282ADD9F
:1053E000FF2925D0EB185B080C1C59E7002C13D0C3
:1053F000FF2818D08024E404524223431B2A4DDDA9
:105400000123EB1A041C0E1C74E7002F00D075E773
:1054100000220020002390E7002B3BD0D243002A3B
:10542000EFD0FF28EAD12B1CFF240E1C38E7002206
:10543000FF20002346E7002C5AD1002B77D0002D07
:1054400000D12DE75B19580100D429E73D4A01241A
:10545000134025E7002C15D1002B2FD1002DD7D0DC
:105460002B1C0E1C1CE7002C21D1002B53D0C94350
:10547000002904D0FF284BD01B294FDD01235B19E5
:10548000041C73E7002B22D1002DD0D02B1C0E1C46
:10549000FF2405E72B1C041C0E1C01E71C1C202606
:1054A000D440B21A93405A1E93412343A9E7FF28E0
:1054B0002ED08024E40449422343DDE7002D00D1AF
:1054C000EEE65A1B500134D5EB1A0E1CE8E6FF2419
:1054D000002D00D1E4E68022DB08D203134204D081
:1054E000ED08154201D12B1C0E1CDB00FF24D7E672
:1054F000002B0DD0FF24002D00D1D1E68022DB0847
:10550000D2031342F1D0ED081542EED12B1CECE78B
:105510002B1CFF24C4E62B1C041CC1E61C1C2027EA
:10552000CC40791A8B40591E8B412343A7E72B1C93
:10553000B6E6131E00D0B3E66AE7012515E701259C
:10554000D7E6C046FFFFFFFB10B5041E33D001F0C5
:105550000FFF9E231B1A962B09DC08388440640237
:10556000640ADBB26402DB05600A184310BD992BA4
:105570000ADD0522121A211CD1400A1C011C1B3114
:105580008C40611E8C411443052801DD421F94406C
:10559000144A2240610704D00F210C40042C00D093
:1055A000043251010AD59F23181AFF2816D09401FE
:1055B000640AC3B2D6E700230024D3E7D208FF2B46
:1055C00003D05402640ADBB2CCE7002A06D0802460
:1055D000E40314436402640AFF23C3E7FF230024A7
:1055E000C0E7C046FFFFFFFBF8B55F46564644469E
:1055F0004D46F0B40C034D00CE0F610A440F214319
:10560000C400180380465800400D8246D80F8446D7
:105610004046400A530F0343D0006D0D371C8346AC
:105620005246664500D19DE0AF1A002F00DC03E131
:10563000002A38D1184300D0E4E0630709D00F23D3
:105640002340042B05D0231DA342A4416442091921
:105650001C1C080200D478E0CE4B6A1C9A4200D190
:1056600005E1CD4BE40819404807520549020443BF
:105670000B0B520D371C002000211B03201C1C0BA0
:105680000B0D1B05C54D2343520552081D40154304
:105690006D006D08FF07291C39433CBC90469946B4
:1056A000A246AB46F8BDBB488542C6D08020000468
:1056B0000343382F00DDECE01F2F00DD20E1202028
:1056C000C01B1A1C814682405846F840024394464B
:1056D00058464A469040421E9041FB406246024373
:1056E0001F1CA21A9442A4416442C91B091B141C2A
:1056F0000B02A2D549024F0A002F00D1C4E0381C8A
:1057000001F036FE021C083A1F2A00DDB7E028210E
:10571000091A201C9740C84007439440954200DD79
:10572000A9E0551B691C1F2900DDD8E01F22551B6D
:105730003B1C221CAB40CA40AC40651EAC4113432D
:10574000CF401C43391C002577E74807E4086A0569
:10575000C908520D371C04438E4B9D4248D00903A3
:105760000B0B88E7AA1A9446002A00DC98E0504602
:10577000002853D08748854200D15EE7802000048E
:1057800003436246382A00DDFDE01F2A00DD4BE1BD
:1057900020226046101A1A1C8240824691465846C2
:1057A0006246D0404A460243904658465246904090
:1057B000421E9041424602436046C3401219A24233
:1057C000A441644259180919141C080200D434E792
:1057D000704B01359D4200D124E16F4B60081940A8
:1057E000012323401C1C0443CB071C43490824E726
:1057F0000B1C234300D1C7E180231B030B431B0376
:105800001B0B38E7013F002F64D15846221A9442FF
:10581000A4416442C91A091B141C69E7584618437D
:1058200000D10AE70122524294446046002800D089
:10583000C5E058460219C2E7002F72D1681C400526
:10584000400D012800DCDEE05A46A21A9442BF4116
:10585000C81A7F42C71B380200D488E05A46141B7E
:10586000A3459241591A52428F1A664644E7371CA3
:1058700000230024FFE64849AD1A3940DDE6271C25
:1058800028388740002449E7201C01F071FD2030B2
:1058900038E75A461A43531E9A41D2B2002720E7EE
:1058A000002A00D0DDE0681C4205520D012A00DC10
:1058B0008EE0384DA84200D1B3E05D462A19A242DD
:1058C000A441644259180919CC07520814434908E5
:1058D000051CB2E62F48854200D0EAE6ADE62B1C57
:1058E0001F3B3A1CDA40131C20296DD03F22551B68
:1058F000AF403C43601E84411C43002100259CE6D0
:10590000381C20381A1CC240101C202F5ED04022A8
:10591000D71BBB405A461A43531E9A4102430027E5
:10592000DFE6002D3CD01B4DAA4500D194E0802538
:105930002D047F422943382F00DDADE01F2F00DD0D
:105940002CE12025ED1B081C261CA840FE40AC4085
:105950000643651EAC413443F9405D462C1BA3450C
:1059600092415B1A5242991A55466646C0E6131C8C
:105970003B43141C002B00D0BEE60027002200256C
:1059800000210024E8E65A461A43531E9A41D2B237
:10599000002313E7FF070000FFFF7FFFFFFF0F80DB
:1059A0000D1C254358D0FF43002F51D1041BA345A4
:1059B0009241591A5242891A5546664698E69648C7
:1059C000854200D0DDE638E6002792E70023A1E714
:1059D000081C2043002D00D0C0E0002800D1FBE0CF
:1059E0005846184300D128E658460219A242A4415D
:1059F000644259180919141C0A0200D41DE6874B89
:105A00000125194019E6081C2043002D39D1002832
:105A10006DD15946194300D1BDE0191C5C4666465C
:105A20000BE6051C2A1CABE7604620381A1CC24056
:105A300060469146202800D1ABE04022121A9340E4
:105A40005A461A43531E9A414B461A430023B5E661
:105A5000714DAA4500D06EE7191C5C465546664656
:105A6000EBE5002D1ED10D1C254373D0D543002D31
:105A70006DD15C445C459241591852428918554693
:105A8000A3E6002849D15946194300D196E0191CD4
:105A90005C466646604DD0E50C43611E8C41E4B225
:105AA00000215AE75C4DAA4554D05542802210048B
:105AB0000143382D00DD85E01F2D00DD95E020221B
:105AC000501B0A1C84468240201CE840024390463A
:105AD00062469440601E844142461443E9405C445F
